{"abi":[{"type":"function","name":"_msgSender","inputs":[],"outputs":[{"name":"sender","type":"address","internalType":"address"}],"stateMutability":"view"},{"type":"function","name":"_msgValue","inputs":[],"outputs":[{"name":"value","type":"uint256","internalType":"uint256"}],"stateMutability":"pure"},{"type":"function","name":"_world","inputs":[],"outputs":[{"name":"","type":"address","internalType":"address"}],"stateMutability":"view"},{"type":"function","name":"placeBet","inputs":[{"name":"_roundId","type":"bytes32","internalType":"bytes32"},{"name":"_teamId","type":"uint8","internalType":"uint8"},{"name":"_amount","type":"uint256","internalType":"uint256"}],"outputs":[],"stateMutability":"payable"},{"type":"function","name":"refundWithdraw","inputs":[{"name":"_roundId","type":"bytes32","internalType":"bytes32"},{"name":"_teamId","type":"uint8","internalType":"uint8"}],"outputs":[],"stateMutability":"nonpayable"},{"type":"function","name":"supportsInterface","inputs":[{"name":"interfaceId","type":"bytes4","internalType":"bytes4"}],"outputs":[{"name":"","type":"bool","internalType":"bool"}],"stateMutability":"pure"},{"type":"function","name":"winnerWithdraw","inputs":[{"name":"_roundId","type":"bytes32","internalType":"bytes32"},{"name":"_teamId","type":"uint8","internalType":"uint8"}],"outputs":[],"stateMutability":"nonpayable"},{"type":"event","name":"Store_SetRecord","inputs":[{"name":"tableId","type":"bytes32","indexed":true,"internalType":"ResourceId"},{"name":"keyTuple","type":"bytes32[]","indexed":false,"internalType":"bytes32[]"},{"name":"staticData","type":"bytes","indexed":false,"internalType":"bytes"},{"name":"encodedLengths","type":"bytes32","indexed":false,"internalType":"EncodedLengths"},{"name":"dynamicData","type":"bytes","indexed":false,"internalType":"bytes"}],"anonymous":false},{"type":"event","name":"Store_SpliceDynamicData","inputs":[{"name":"tableId","type":"bytes32","indexed":true,"internalType":"ResourceId"},{"name":"keyTuple","type":"bytes32[]","indexed":false,"internalType":"bytes32[]"},{"name":"dynamicFieldIndex","type":"uint8","indexed":false,"internalType":"uint8"},{"name":"start","type":"uint48","indexed":false,"internalType":"uint48"},{"name":"deleteCount","type":"uint40","indexed":false,"internalType":"uint40"},{"name":"encodedLengths","type":"bytes32","indexed":false,"internalType":"EncodedLengths"},{"name":"data","type":"bytes","indexed":false,"internalType":"bytes"}],"anonymous":false},{"type":"event","name":"Store_SpliceStaticData","inputs":[{"name":"tableId","type":"bytes32","indexed":true,"internalType":"ResourceId"},{"name":"keyTuple","type":"bytes32[]","indexed":false,"internalType":"bytes32[]"},{"name":"start","type":"uint48","indexed":false,"internalType":"uint48"},{"name":"data","type":"bytes","indexed":false,"internalType":"bytes"}],"anonymous":false},{"type":"error","name":"EncodedLengths_InvalidLength","inputs":[{"name":"length","type":"uint256","internalType":"uint256"}]},{"type":"error","name":"Slice_OutOfBounds","inputs":[{"name":"data","type":"bytes","internalType":"bytes"},{"name":"start","type":"uint256","internalType":"uint256"},{"name":"end","type":"uint256","internalType":"uint256"}]},{"type":"error","name":"Store_IndexOutOfBounds","inputs":[{"name":"length","type":"uint256","internalType":"uint256"},{"name":"accessedIndex","type":"uint256","internalType":"uint256"}]},{"type":"error","name":"Store_InvalidResourceType","inputs":[{"name":"expected","type":"bytes2","internalType":"bytes2"},{"name":"resourceId","type":"bytes32","internalType":"ResourceId"},{"name":"resourceIdString","type":"string","internalType":"string"}]},{"type":"error","name":"Store_InvalidSplice","inputs":[{"name":"startWithinField","type":"uint40","internalType":"uint40"},{"name":"deleteCount","type":"uint40","internalType":"uint40"},{"name":"fieldLength","type":"uint40","internalType":"uint40"}]}],"bytecode":{"object":"0x608060405234801561001057600080fd5b50612e6f806100206000396000f3fe6080604052600436106100705760003560e01c806334a4012c1161004e57806334a4012c146100ec57806345ec93541461010c578063b56add291461012c578063e1af802c1461014c57600080fd5b806301ffc9a7146100755780630bd12209146100aa578063119df25f146100bf575b600080fd5b34801561008157600080fd5b506100956100903660046127b9565b610161565b60405190151581526020015b60405180910390f35b6100bd6100b836600461280c565b6101fa565b005b3480156100cb57600080fd5b506100d461039d565b6040516001600160a01b0390911681526020016100a1565b3480156100f857600080fd5b506100bd610107366004612841565b6103ac565b34801561011857600080fd5b50604051601f1936013581526020016100a1565b34801561013857600080fd5b506100bd610147366004612841565b610570565b34801561015857600080fd5b506100d46106ed565b60007fffffffff0000000000000000000000000000000000000000000000000000000082167fb5dee1270000000000000000000000000000000000000000000000000000000014806101f457507fffffffff0000000000000000000000000000000000000000000000000000000082167f01ffc9a700000000000000000000000000000000000000000000000000000000145b92915050565b8034146102745760405162461bcd60e51b815260206004820152603060248201527f45544820616d6f756e74206973206e6f7420657175616c20746f20746865206160448201527f6d6f756e74207370656369666965642e0000000000000000000000000000000060648201526084015b60405180910390fd5b600081116102ea5760405162461bcd60e51b815260206004820152602560248201527f42657420616d6f756e74206d7573742062652067726561746572207468616e2060448201527f7a65726f2e000000000000000000000000000000000000000000000000000000606482015260840161026b565b60006102f5846106f7565b905061030a846103058484612883565b610791565b6000610316858561084a565b905061032c85856103278685612883565b61090a565b60006103398686336109e9565b90508060000361038057600061034e87610ad9565b9050600061035c8888610b4c565b905061036e8888338960008787610be4565b610379888833610cde565b5050610395565b6103958686336103908886612883565b610dbf565b505050505050565b60006103a7610ec6565b905090565b60006103b783610ef8565b905080156104075760405162461bcd60e51b815260206004820152601f60248201527f546865206d617463682068617320616c72656164792066696e69736865642e00604482015260640161026b565b600061041284610f96565b90506104218162278d00612883565b42116104955760405162461bcd60e51b815260206004820152602b60248201527f5468652062657474696e6720706572696f64206973206e6f74206f766572203360448201527f302064617973207965742e000000000000000000000000000000000000000000606482015260840161026b565b60006104a28585336109e9565b9050600081116104f45760405162461bcd60e51b815260206004820152601260248201527f4e6f206265747320746f20726566756e642e0000000000000000000000000000604482015260640161026b565b6105018585336000610dbf565b600061050c866106f7565b905061051c866103058484612896565b6000610528878761084a565b905061053987876103278685612896565b604051339084156108fc029085906000818181858888f19350505050158015610566573d6000803e3d6000fd5b5050505050505050565b600061057b83610ef8565b9050806105ca5760405162461bcd60e51b815260206004820152601e60248201527f546865206d61746368206973206e6f742066696e6973686564207965742e0000604482015260640161026b565b60006105d584610f96565b905080421161064c5760405162461bcd60e51b815260206004820152602360248201527f5468652062657474696e6720706572696f64206973206e6f74206f766572207960448201527f65742e0000000000000000000000000000000000000000000000000000000000606482015260840161026b565b6000610659858533611028565b9050600081116106ab5760405162461bcd60e51b815260206004820152601860248201527f4e6f2077696e6e696e677320746f2077697468647261772e0000000000000000604482015260640161026b565b604051339082156108fc029083906000818181858888f193505050501580156106d8573d6000803e3d6000fd5b506106e6858533600061110d565b5050505050565b60006103a76111df565b604080516001808252818301909252600091829190602080830190803683370190505090508281600081518110610730576107306128bf565b602090810291909101015260006107897f74620000000000000000000000000000526f756e6473000000000000000000008360037e550403142001200000000000000000000000000000000000000000000000006111e9565b949350505050565b6040805160018082528183019092526000916020808301908036833701905050905082816000815181106107c7576107c76128bf565b6020026020010181815250506108457f74620000000000000000000000000000526f756e64730000000000000000000060001b8260038560405160200161081091815260200190565b60408051601f198184030181529190527e550403142001200000000000000000000000000000000000000000000000006112a6565b505050565b604080516002808252606082018352600092839291906020830190803683370190505090508381600081518110610883576108836128bf565b6020026020010181815250508260ff1660001b816001815181106108a9576108a96128bf565b602090810291909101015260006109017f746200000000000000000000000000005465616d73000000000000000000000083837e210202200100000000000000000000000000000000000000000000000000006111e9565b95945050505050565b604080516002808252606082018352600092602083019080368337019050509050838160008151811061093f5761093f6128bf565b6020026020010181815250508260ff1660001b81600181518110610965576109656128bf565b6020026020010181815250506109e37f746200000000000000000000000000005465616d73000000000000000000000060001b826000856040516020016109ae91815260200190565b60408051601f198184030181529190527e210202200100000000000000000000000000000000000000000000000000006112a6565b50505050565b60408051600380825260808201909252600091829190602082016060803683370190505090508481600081518110610a2357610a236128bf565b6020026020010181815250508360ff1660001b81600181518110610a4957610a496128bf565b602002602001018181525050826001600160a01b031660001b81600281518110610a7557610a756128bf565b60209081029190910101526000610acd7f746200000000000000000000000000004265747300000000000000000000000083837e400202202000000000000000000000000000000000000000000000000000006111e9565b925050505b9392505050565b60408051600180825281830190925260609160009190602080830190803683370190505090508281600081518110610b1357610b136128bf565b602090810291909101015260006107897f74620000000000000000000000000000526f756e64730000000000000000000083600261135b565b604080516002808252606080830184529260009291906020830190803683370190505090508381600081518110610b8557610b856128bf565b6020026020010181815250508260ff1660001b81600181518110610bab57610bab6128bf565b602090810291909101015260006109017f746200000000000000000000000000005465616d73000000000000000000000083600161135b565b6000610bf08585611422565b90506000610bfe8484611450565b90506000610c0c858561146d565b6040805160038082526080820190925291925060009190602082016060803683370190505090508a81600081518110610c4757610c476128bf565b6020026020010181815250508960ff1660001b81600181518110610c6d57610c6d6128bf565b602002602001018181525050886001600160a01b031660001b81600281518110610c9957610c996128bf565b6020908102919091010152610cd17f746200000000000000000000000000004265747300000000000000000000000082868686611482565b5050505050505050505050565b6040805160028082526060820183526000926020830190803683370190505090508381600081518110610d1357610d136128bf565b6020026020010181815250508260ff1660001b81600181518110610d3957610d396128bf565b6020026020010181815250506109e37f746200000000000000000000000000005465616d73000000000000000000000060001b82600085604051602001610dab919060609190911b7fffffffffffffffffffffffffffffffffffffffff00000000000000000000000016815260140190565b6040516020818303038152906040526114f8565b60408051600380825260808201909252600091602082016060803683370190505090508481600081518110610df657610df66128bf565b6020026020010181815250508360ff1660001b81600181518110610e1c57610e1c6128bf565b602002602001018181525050826001600160a01b031660001b81600281518110610e4857610e486128bf565b6020026020010181815250506106e67f746200000000000000000000000000004265747300000000000000000000000060001b82600085604051602001610e9191815260200190565b60408051601f198184030181529190527e400202202000000000000000000000000000000000000000000000000000006112a6565b7fffffffffffffffffffffffffffffffffffffffffffffffffffffffffffffffcc36013560601c80610ef55750335b90565b604080516001808252818301909252600091829190602080830190803683370190505090508281600081518110610f3157610f316128bf565b60209081029190910101526000610f8a7f74620000000000000000000000000000526f756e6473000000000000000000008360027e550403142001200000000000000000000000000000000000000000000000006111e9565b90506107898160f81c90565b604080516001808252818301909252600091829190602080830190803683370190505090508281600081518110610fcf57610fcf6128bf565b602090810291909101015260006107897f74620000000000000000000000000000526f756e6473000000000000000000008360017e550403142001200000000000000000000000000000000000000000000000006111e9565b60408051600380825260808201909252600091829190602082016060803683370190505090508481600081518110611062576110626128bf565b6020026020010181815250508360ff1660001b81600181518110611088576110886128bf565b602002602001018181525050826001600160a01b031660001b816002815181106110b4576110b46128bf565b60209081029190910101526000610acd7f74620000000000000000000000000000426574730000000000000000000000008360017e400202202000000000000000000000000000000000000000000000000000006111e9565b60408051600380825260808201909252600091602082016060803683370190505090508481600081518110611144576111446128bf565b6020026020010181815250508360ff1660001b8160018151811061116a5761116a6128bf565b602002602001018181525050826001600160a01b031660001b81600281518110611196576111966128bf565b6020026020010181815250506106e67f746200000000000000000000000000004265747300000000000000000000000060001b82600185604051602001610e9191815260200190565b60006103a76115a9565b6000806111f46115a9565b9050306001600160a01b0382160361121a57611212868686866115e8565b915050610789565b6040517f8c364d590000000000000000000000000000000000000000000000000000000081526001600160a01b03821690638c364d5990611265908990899089908990600401612911565b602060405180830381865afa158015611282573d6000803e3d6000fd5b505050506040513d601f19601f820116820180604052508101906112129190612940565b60006112b06115a9565b9050306001600160a01b038216036112d4576112cf8686868686611615565b610395565b6040517f390baae00000000000000000000000000000000000000000000000000000000081526001600160a01b0382169063390baae09061132190899089908990899089906004016129a9565b600060405180830381600087803b15801561133b57600080fd5b505af115801561134f573d6000803e3d6000fd5b50505050505050505050565b606060006113676115a9565b9050306001600160a01b0382160361138c5761138485858561162a565b915050610ad2565b6040517f1e7889770000000000000000000000000000000000000000000000000000000081526001600160a01b03821690631e788977906113d5908890889088906004016129f0565b600060405180830381865afa1580156113f2573d6000803e3d6000fd5b505050506040513d6000823e601f3d908101601f191682016040526113849190810190612a1c565b509392505050565b604080516020810184905290810182905260609081015b604051602081830303815290604052905092915050565b8151815160009181810160389190911b1760609190911b17610ad2565b60608282604051602001611439929190612ac9565b600061148c6115a9565b9050306001600160a01b038216036114ab576112cf8686868686611664565b6040517f298314fb0000000000000000000000000000000000000000000000000000000081526001600160a01b0382169063298314fb906113219089908990899089908990600401612af8565b60006115026115a9565b9050306001600160a01b03821603611525576115208585858561167a565b6106e6565b6040517f150f32620000000000000000000000000000000000000000000000000000000081526001600160a01b0382169063150f326290611570908890889088908890600401612b49565b600060405180830381600087803b15801561158a57600080fd5b505af115801561159e573d6000803e3d6000fd5b505050505050505050565b7f629a4c26e296b22a8e0856e9f6ecb2d1008d7e00081111962cd175fa7488e175546000906001600160a01b0316806115e3573391505090565b919050565b60006109016115f786866116b5565b60ff858116601b0360080285901c16611610858761170b565b61173c565b6106e68585611624848761170b565b8561178d565b606061078961163a858585611a31565b600061165f8561164a8989611ab1565b9060ff166028026038011c64ffffffffff1690565b611ac4565b6106e685858585856116758b611ae7565b611b6c565b60006116868585611ab1565b905060006116a3828560ff166028026038011c64ffffffffff1690565b90506103958686868460008888611ea5565b600082826040516020016116ca929190612b7d565b60408051601f1981840301815291905280516020909101207f86425bff6b57326c7859e89024fe4f238ca327a1ae4a230180dd2f0e88aaa7d9189392505050565b600080805b8360ff1681101561141a5761173260ff601b83900360080287901c1683612883565b9150600101611710565b6000602082106117625760208204840193506020828161175e5761175e612bb9565b0691505b508254600882021b60208290038084111561141a576001850154600882021c82179150509392505050565b7f6f74000000000000000000000000000000000000000000000000000000000000847fffff000000000000000000000000000000000000000000000000000000000000160361181757837f8c0b5119d4cec7b284c6b1b39252a03d1e2f2d7451a5895562524c113bb952be84848460405161180a93929190612bcf565b60405180910390a26109e3565b600061182385856116b5565b90506000611830866122df565b905060005b8151811015611905576000828281518110611852576118526128bf565b6020026020010151905061187e6004826affffffffffffffffffffff191661236890919063ffffffff16565b156118fc576040517f964f667d000000000000000000000000000000000000000000000000000000008152606082901c9063964f667d906118c9908b908b908b908b90600401612c0c565b600060405180830381600087803b1580156118e357600080fd5b505af11580156118f7573d6000803e3d6000fd5b505050505b50600101611835565b50857f8c0b5119d4cec7b284c6b1b39252a03d1e2f2d7451a5895562524c113bb952be86868660405161193a93929190612bcf565b60405180910390a2611955828565ffffffffffff1685612386565b60005b8151811015611a28576000828281518110611975576119756128bf565b602002602001015190506119a16008826affffffffffffffffffffff191661236890919063ffffffff16565b15611a1f576040517fa8ba8721000000000000000000000000000000000000000000000000000000008152606082901c9063a8ba8721906119ec908b908b908b908b90600401612c0c565b600060405180830381600087803b158015611a0657600080fd5b505af1158015611a1a573d6000803e3d6000fd5b505050505b50600101611958565b50505050505050565b60008383604051602001611a46929190612b7d565b604051602081830303815290604052805190602001208260f81b7effffffffffffffffffffffffffffffffffffffffffffffffffffffffffffff19167f3b4102da22e32d82fc925482184f16c09fd4281692720b87d124aef6da48a0f1181860001c90509392505050565b6000610ad2611ac0848461239c565b5490565b60405160208101601f19603f848401011660405282825261141a858585846123f2565b60007f8b9d8c8b908d9affffffffffffffffffab9e9d939a8d000000000000000000008201611b3657507e60030220202000000000000000000000000000000000000000000000000000919050565b6101f4611b637f746273746f72650000000000000000005461626c657300000000000000000000846124be565b6020600061173c565b7f6f74000000000000000000000000000000000000000000000000000000000000867fffff0000000000000000000000000000000000000000000000000000000000001603611bf857857f8dbb3a9672eebfd3773e72dd9c102393436816d832c7ba9e1e1ac8fcadcac7a986868686604051611beb9493929190612c45565b60405180910390a2610395565b6000611c03876122df565b905060005b8151811015611cdc576000828281518110611c2557611c256128bf565b60200260200101519050611c516001826affffffffffffffffffffff191661236890919063ffffffff16565b15611cd3576040517f57066c9c000000000000000000000000000000000000000000000000000000008152606082901c906357066c9c90611ca0908c908c908c908c908c908c90600401612c84565b600060405180830381600087803b158015611cba57600080fd5b505af1158015611cce573d6000803e3d6000fd5b505050505b50600101611c08565b50867f8dbb3a9672eebfd3773e72dd9c102393436816d832c7ba9e1e1ac8fcadcac7a987878787604051611d139493929190612c45565b60405180910390a26000611d2788886116b5565b90506000602087019050611d3f8260008951846124da565b6000611d4a85612599565b1115611dce576000611d5c8a8a61239c565b878155905060208601915060008060005b611d7688612599565b8160ff161015611dc957611d8b8d8d83611a31565b9250611da68a8260ff166028026038011c64ffffffffff1690565b9150611db583600084886124da565b611dbf8286612883565b9450600101611d6d565b505050505b60005b835181101561134f576000848281518110611dee57611dee6128bf565b60200260200101519050611e1a6002826affffffffffffffffffffff191661236890919063ffffffff16565b15611e9c576040517f5b28cdaf000000000000000000000000000000000000000000000000000000008152606082901c90635b28cdaf90611e69908e908e908e908e908e908e90600401612c84565b600060405180830381600087803b158015611e8357600080fd5b505af1158015611e97573d6000803e3d6000fd5b505050505b50600101611dd1565b7f7462000000000000000000000000000000000000000000000000000000000000877fffff0000000000000000000000000000000000000000000000000000000000001614611f65577f74620000000000000000000000000000000000000000000000000000000000008788604051602001611f2391815260200190565b60408051601f19818403018152908290527f31b4668300000000000000000000000000000000000000000000000000000000825261026b939291600401612cdd565b6000611f80828760ff166028026038011c64ffffffffff1690565b9050600083518564ffffffffff1683611f999190612896565b611fa39190612883565b9050808214158015611fc5575081611fbb8688612d1e565b64ffffffffff1614155b15612015576040517fa65010b400000000000000000000000000000000000000000000000000000000815264ffffffffff808816600483015280871660248301528316604482015260640161026b565b818664ffffffffff161115612066576040517f7e8578d30000000000000000000000000000000000000000000000000000000081526004810183905264ffffffffff8716602482015260440161026b565b60006120738489846125d6565b905060006120808b6122df565b905060005b815181101561214b5760008282815181106120a2576120a26128bf565b602002602001015190506120ce6010826affffffffffffffffffffff191661236890919063ffffffff16565b1561214257606081901c6001600160a01b03166355eb5a288e8e8e8e8e8d8f6040518863ffffffff1660e01b815260040161210f9796959493929190612d43565b600060405180830381600087803b15801561212957600080fd5b505af115801561213d573d6000803e3d6000fd5b505050505b50600101612085565b5064ffffffffff881660005b8a60ff168160ff16101561218a5761217e878260ff166028026038011c64ffffffffff1690565b90910190600101612157565b508b7ffe158a7adba34e256807c8a149028d3162918713c3838afc643ce9f96716ebfd8c8c848c888d6040516121c596959493929190612da1565b60405180910390a2508284146121e65760006121e18c8c61239c565b839055505b60006121f38c8c8c611a31565b9050612207818a64ffffffffff1689612386565b5060005b81518110156122d1576000828281518110612228576122286128bf565b602002602001015190506122546020826affffffffffffffffffffff191661236890919063ffffffff16565b156122c857606081901c6001600160a01b031663635845338e8e8e8e8e8a8f6040518863ffffffff1660e01b81526004016122959796959493929190612d43565b600060405180830381600087803b1580156122af57600080fd5b505af11580156122c3573d6000803e3d6000fd5b505050505b5060010161220b565b505050505050505050505050565b60408051600180825281830190925260609160009190602080830190803683370190505090508281600081518110612319576123196128bf565b602090810291909101015260006123517f746273746f726500000000000000000053746f7265486f6f6b73000000000000838361162a565b905061078961236382600084516126a4565b612732565b60008160ff16826123798560581c90565b1660ff1614905092915050565b610845838383516123978560200190565b6124da565b600082826040516020016123b1929190612b7d565b60408051601f1981840301815291905280516020909101207f14e2fcc58e58e68ec7edc30c8d50dccc3ce2714a623ec81f46b6a63922d76569189392505050565b8215612479576020831061241c5760208304840193506020838161241857612418612bb9565b0692505b821561247957602083900360008184101561243f5750600019600884021c612449565b50600019600882021c5b8554600886021b81845116821982161784525081841161246a5750506109e3565b50600194909401939182900391015b5b6020821061249b5783548152600190930192601f199091019060200161247a565b81156109e3576000600019600884021c8251865482191691161782525050505050565b60408051602081018490529081018290526000906060016116ca565b821561255457602083106125045760208304840193506020838161250057612500612bb9565b0692505b82156125545760208390036000600019600885021c1990506008850281811c91508351811c90508119875416828216178755508184116125455750506109e3565b50600194909401939182900391015b5b602082106125765780518455600190930192601f1990910190602001612555565b81156109e3576000600019600884021c8554835182191691161785555050505050565b600060086001806125ac60026020612896565b6125b69190612896565b6125c09190612896565b6125ca9190612dfd565b8260ff911c1692915050565b600064ffffffffff82111561261a576040517f7149a3c10000000000000000000000000000000000000000000000000000000081526004810183905260240161026b565b8366ffffffffffffff811660ff851660280260380182901c64ffffffffff1680851061264c5780850382019150612654565b848103820391505b5064ffffffffff6038602860ff8816020181811b197fffffffffffffffffffffffffffffffffffffffffffffffffff000000000000009490941690921792909216918416901b1790509392505050565b6000818311806126b45750835182115b156126f1578383836040517f23230fa300000000000000000000000000000000000000000000000000000000815260040161026b93929190612e14565b602084016126ff8482612883565b9050600061270d8585612896565b6fffffffffffffffffffffffffffffffff1660809290921b9190911795945050505050565b60606000610ad283601560006060600061274c8560801c90565b90506fffffffffffffffffffffffffffffffff8516600085828161277257612772612bb9565b04905060405193506020840160208202810160405281855260005b828110156127ad578451871c82529387019360209091019060010161278d565b50505050509392505050565b6000602082840312156127cb57600080fd5b81357fffffffff0000000000000000000000000000000000000000000000000000000081168114610ad257600080fd5b803560ff811681146115e357600080fd5b60008060006060848603121561282157600080fd5b83359250612831602085016127fb565b9150604084013590509250925092565b6000806040838503121561285457600080fd5b82359150612864602084016127fb565b90509250929050565b634e487b7160e01b600052601160045260246000fd5b808201808211156101f4576101f461286d565b818103818111156101f4576101f461286d565b634e487b7160e01b600052604160045260246000fd5b634e487b7160e01b600052603260045260246000fd5b60008151808452602080850194506020840160005b83811015612906578151875295820195908201906001016128ea565b509495945050505050565b84815260806020820152600061292a60808301866128d5565b60ff949094166040830152506060015292915050565b60006020828403121561295257600080fd5b5051919050565b60005b8381101561297457818101518382015260200161295c565b50506000910152565b60008151808452612995816020860160208601612959565b601f01601f19169290920160200192915050565b85815260a0602082015260006129c260a08301876128d5565b60ff8616604084015282810360608401526129dd818661297d565b9150508260808301529695505050505050565b838152606060208201526000612a0960608301856128d5565b905060ff83166040830152949350505050565b600060208284031215612a2e57600080fd5b815167ffffffffffffffff80821115612a4657600080fd5b818401915084601f830112612a5a57600080fd5b815181811115612a6c57612a6c6128a9565b604051601f8201601f19908116603f01168101908382118183101715612a9457612a946128a9565b81604052828152876020848701011115612aad57600080fd5b612abe836020830160208801612959565b979650505050505050565b60008351612adb818460208801612959565b835190830190612aef818360208801612959565b01949350505050565b85815260a060208201526000612b1160a08301876128d5565b8281036040840152612b23818761297d565b90508460608401528281036080840152612b3d818561297d565b98975050505050505050565b848152608060208201526000612b6260808301866128d5565b60ff851660408401528281036060840152612abe818561297d565b8281526000602080830184516020860160005b82811015612bac57815184529284019290840190600101612b90565b5091979650505050505050565b634e487b7160e01b600052601260045260246000fd5b606081526000612be260608301866128d5565b65ffffffffffff851660208401528281036040840152612c02818561297d565b9695505050505050565b848152608060208201526000612c2560808301866128d5565b65ffffffffffff851660408401528281036060840152612abe818561297d565b608081526000612c5860808301876128d5565b8281036020840152612c6a818761297d565b90508460408401528281036060840152612abe818561297d565b86815260c060208201526000612c9d60c08301886128d5565b8281036040840152612caf818861297d565b90508560608401528281036080840152612cc9818661297d565b9150508260a0830152979650505050505050565b7fffff00000000000000000000000000000000000000000000000000000000000084168152826020820152606060408201526000610901606083018461297d565b64ffffffffff818116838216019080821115612d3c57612d3c61286d565b5092915050565b87815260e060208201526000612d5c60e08301896128d5565b60ff8816604084015264ffffffffff87811660608501528616608084015260a0830185905282810360c0840152612d93818561297d565b9a9950505050505050505050565b60c081526000612db460c08301896128d5565b60ff8816602084015265ffffffffffff8716604084015264ffffffffff8616606084015284608084015282810360a0840152612df0818561297d565b9998505050505050505050565b80820281158282048414176101f4576101f461286d565b606081526000612e27606083018661297d565b6020830194909452506040015291905056fea26469706673582212200ab77f6dfcdc6a9342f6fbff9e64f0532fb0515c162f4991269ad381c5a6842a64736f6c63430008180033","linkReferences":{}},"methodIdentifiers":{"_msgSender()":"119df25f","_msgValue()":"45ec9354","_world()":"e1af802c","placeBet(bytes32,uint8,uint256)":"0bd12209","refundWithdraw(bytes32,uint8)":"34a4012c","supportsInterface(bytes4)":"01ffc9a7","winnerWithdraw(bytes32,uint8)":"b56add29"},"id":267}