{"abi":[{"type":"function","name":"_msgSender","inputs":[],"outputs":[{"name":"sender","type":"address","internalType":"address"}],"stateMutability":"view"},{"type":"function","name":"_msgValue","inputs":[],"outputs":[{"name":"value","type":"uint256","internalType":"uint256"}],"stateMutability":"pure"},{"type":"function","name":"_world","inputs":[],"outputs":[{"name":"","type":"address","internalType":"address"}],"stateMutability":"view"},{"type":"function","name":"supportsInterface","inputs":[{"name":"interfaceId","type":"bytes4","internalType":"bytes4"}],"outputs":[{"name":"","type":"bool","internalType":"bool"}],"stateMutability":"pure"},{"type":"function","name":"uploadLevel","inputs":[{"name":"levelId","type":"bytes32","internalType":"bytes32"},{"name":"templateIds","type":"bytes32[]","internalType":"bytes32[]"},{"name":"xs","type":"int32[]","internalType":"int32[]"},{"name":"ys","type":"int32[]","internalType":"int32[]"}],"outputs":[],"stateMutability":"nonpayable"},{"type":"event","name":"Store_SetRecord","inputs":[{"name":"tableId","type":"bytes32","indexed":true,"internalType":"ResourceId"},{"name":"keyTuple","type":"bytes32[]","indexed":false,"internalType":"bytes32[]"},{"name":"staticData","type":"bytes","indexed":false,"internalType":"bytes"},{"name":"encodedLengths","type":"bytes32","indexed":false,"internalType":"EncodedLengths"},{"name":"dynamicData","type":"bytes","indexed":false,"internalType":"bytes"}],"anonymous":false},{"type":"event","name":"Store_SpliceDynamicData","inputs":[{"name":"tableId","type":"bytes32","indexed":true,"internalType":"ResourceId"},{"name":"keyTuple","type":"bytes32[]","indexed":false,"internalType":"bytes32[]"},{"name":"dynamicFieldIndex","type":"uint8","indexed":false,"internalType":"uint8"},{"name":"start","type":"uint48","indexed":false,"internalType":"uint48"},{"name":"deleteCount","type":"uint40","indexed":false,"internalType":"uint40"},{"name":"encodedLengths","type":"bytes32","indexed":false,"internalType":"EncodedLengths"},{"name":"data","type":"bytes","indexed":false,"internalType":"bytes"}],"anonymous":false},{"type":"error","name":"EncodedLengths_InvalidLength","inputs":[{"name":"length","type":"uint256","internalType":"uint256"}]},{"type":"error","name":"Slice_OutOfBounds","inputs":[{"name":"data","type":"bytes","internalType":"bytes"},{"name":"start","type":"uint256","internalType":"uint256"},{"name":"end","type":"uint256","internalType":"uint256"}]},{"type":"error","name":"Store_IndexOutOfBounds","inputs":[{"name":"length","type":"uint256","internalType":"uint256"},{"name":"accessedIndex","type":"uint256","internalType":"uint256"}]},{"type":"error","name":"Store_InvalidResourceType","inputs":[{"name":"expected","type":"bytes2","internalType":"bytes2"},{"name":"resourceId","type":"bytes32","internalType":"ResourceId"},{"name":"resourceIdString","type":"string","internalType":"string"}]},{"type":"error","name":"Store_InvalidSplice","inputs":[{"name":"startWithinField","type":"uint40","internalType":"uint40"},{"name":"deleteCount","type":"uint40","internalType":"uint40"},{"name":"fieldLength","type":"uint40","internalType":"uint40"}]}],"bytecode":{"object":"0x608060405234801561001057600080fd5b50612186806100206000396000f3fe608060405234801561001057600080fd5b50600436106100675760003560e01c806345ec93541161005057806345ec9354146100b4578063af0d52db146100c7578063e1af802c146100dc57600080fd5b806301ffc9a71461006c578063119df25f14610094575b600080fd5b61007f61007a366004611b1d565b6100e4565b60405190151581526020015b60405180910390f35b61009c61017d565b6040516001600160a01b03909116815260200161008b565b604051601f19360135815260200161008b565b6100da6100d5366004611c49565b61018c565b005b61009c61022c565b60007fffffffff0000000000000000000000000000000000000000000000000000000082167fb5dee12700000000000000000000000000000000000000000000000000000000148061017757507fffffffff0000000000000000000000000000000000000000000000000000000082167f01ffc9a700000000000000000000000000000000000000000000000000000000145b92915050565b6000610187610236565b905090565b61019c61019761017d565b610268565b60006101a7856102e7565b905060005b84518110156102245760006101c18284611d48565b905061021b87828885815181106101da576101da611d5b565b60200260200101518886815181106101f4576101f4611d5b565b602002602001015188878151811061020e5761020e611d5b565b6020026020010151610364565b506001016101ac565b505050505050565b6000610187610398565b7fffffffffffffffffffffffffffffffffffffffffffffffffffffffffffffffcc36013560601c806102655750335b90565b6102796102736103a2565b8261040a565b6102e4576040517f08c379a000000000000000000000000000000000000000000000000000000000815260206004820181905260248201527f63616c6c657220646f6573206e6f7420686176652074686520736b79206b657960448201526064015b60405180910390fd5b50565b60408051600180825281830190925260009182919060208083019080368337019050509050828160008151811061032057610320611d5b565b602090810291909101015260006103587f746200000000000000000000000000004c6576656c54656d706c617465730000838361049d565b60209004949350505050565b61036e8584610560565b6103798584866105f8565b6103858585848461069c565b61039185838387610760565b5050505050565b600061018761082c565b6040805160008082526020820190925260006104007f74620000000000000000000000000000536b79506f6f6c436f6e6669670000008360057e7d06000120201414140000000000000000000000000000000000000000000061086b565b60601c9392505050565b600080836001600160a01b03166339f898bc6040518163ffffffff1660e01b8152600401602060405180830381865afa15801561044b573d6000803e3d6000fd5b505050506040513d601f19601f8201168201806040525081019061046f9190611d87565b905060006104856104808360101b90565b610930565b90506000610493828661097d565b1195945050505050565b6000806104a861082c565b9050306001600160a01b038216036104cd576104c5858585610a03565b915050610559565b6040517fdbbf0e210000000000000000000000000000000000000000000000000000000081526001600160a01b0382169063dbbf0e219061051690889088908890600401611ddc565b602060405180830381865afa158015610533573d6000803e3d6000fd5b505050506040513d601f19601f820116820180604052508101906104c59190611d87565b505b9392505050565b60408051600180825281830190925260009160208083019080368337019050509050828160008151811061059657610596611d5b565b6020026020010181815250506105f37f746200000000000000000000000000004c6576656c54656d706c61746573000060001b826000856040516020016105df91815260200190565b604051602081830303815290604052610a28565b505050565b604080516002808252606082018352600092602083019080368337019050509050838160008151811061062d5761062d611d5b565b602002602001018181525050828160018151811061064d5761064d611d5b565b6020026020010181815250506106967f746200000000000000000000000000004c6576656c54656d706c61746573496e60001b826000856040516020016105df91815260200190565b50505050565b6040805160e084811b602083015283901b6024820152815160088183030181526002602883018181526088840185529193600093606093859390929091604801908036833701905050905087816000815181106106fb576106fb611d5b565b6020026020010181815250508660001b8160018151811061071e5761071e611d5b565b60209081029190910101526107567f746200000000000000000000000000004c6576656c506f736974696f6e00000082868686610ad9565b5050505050505050565b6040805160038082526080820190925260009160208201606080368337019050509050848160008151811061079757610797611d5b565b6020026020010181815250508360030b60001b816001815181106107bd576107bd611d5b565b6020026020010181815250508260030b60001b816002815181106107e3576107e3611d5b565b6020026020010181815250506103917f746200000000000000000000000000004c6576656c506f736974696f6e496e6460001b826000856040516020016105df91815260200190565b7f629a4c26e296b22a8e0856e9f6ecb2d1008d7e00081111962cd175fa7488e175546000906001600160a01b031680610866573391505090565b919050565b60008061087661082c565b9050306001600160a01b0382160361089c5761089486868686610b8e565b915050610928565b6040517f8c364d590000000000000000000000000000000000000000000000000000000081526001600160a01b03821690638c364d59906108e7908990899089908990600401611e08565b602060405180830381865afa158015610904573d6000803e3d6000fd5b505050506040513d601f19601f820116820180604052508101906108949190611d87565b949350505050565b60006101777f7462000000000000000000000000000000000000000000000000000000000000837f42616c616e636573000000000000000000000000000000000000000000000000610bbb565b60408051600180825281830190925260009182919060208083019080368337019050509050826001600160a01b031660001b816000815181106109c2576109c2611d5b565b602090810291909101015260006109fa8583837e2001002000000000000000000000000000000000000000000000000000000061086b565b95945050505050565b600061092882610a138686610c42565b9060ff166028026038011c64ffffffffff1690565b6000610a3261082c565b9050306001600160a01b03821603610a5557610a5085858585610c55565b610391565b6040517f150f32620000000000000000000000000000000000000000000000000000000081526001600160a01b0382169063150f326290610aa0908890889088908890600401611e7d565b600060405180830381600087803b158015610aba57600080fd5b505af1158015610ace573d6000803e3d6000fd5b505050505050505050565b6000610ae361082c565b9050306001600160a01b03821603610b0757610b028686868686610c90565b610224565b6040517f298314fb0000000000000000000000000000000000000000000000000000000081526001600160a01b0382169063298314fb90610b549089908990899089908990600401611ebc565b600060405180830381600087803b158015610b6e57600080fd5b505af1158015610b82573d6000803e3d6000fd5b50505050505050505050565b60006109fa610b9d8686610ca6565b60ff858116601b0360080285901c16610bb68587610cfc565b610d2d565b6000610bc960706010611d48565b7fffff00000000000000000000000000000000000000000000000000000000000085167dffffffffffffffffffffffffffff00000000000000000000000000000000601086901c16177fffffffffffffffffffffffffffffffff00000000000000000000000000000000841690911c1790509392505050565b6000610559610c518484610d7e565b5490565b6000610c618585610c42565b90506000610c7e828560ff166028026038011c64ffffffffff1690565b90506102248686868460008888610dd4565b6103918585858585610ca18b61120e565b611293565b60008282604051602001610cbb929190611f0d565b60408051601f1981840301815291905280516020909101207f86425bff6b57326c7859e89024fe4f238ca327a1ae4a230180dd2f0e88aaa7d9189392505050565b600080805b8360ff1681101561055757610d2360ff601b83900360080287901c1683611d48565b9150600101610d01565b600060208210610d5357602082048401935060208281610d4f57610d4f611d71565b0691505b508254600882021b602082900380841115610557576001850154600882021c82179150509392505050565b60008282604051602001610d93929190611f0d565b60408051601f1981840301815291905280516020909101207f14e2fcc58e58e68ec7edc30c8d50dccc3ce2714a623ec81f46b6a63922d76569189392505050565b7f7462000000000000000000000000000000000000000000000000000000000000877fffff0000000000000000000000000000000000000000000000000000000000001614610e94577f74620000000000000000000000000000000000000000000000000000000000008788604051602001610e5291815260200190565b60408051601f19818403018152908290527f31b466830000000000000000000000000000000000000000000000000000000082526102db939291600401611f49565b6000610eaf828760ff166028026038011c64ffffffffff1690565b9050600083518564ffffffffff1683610ec89190611f8a565b610ed29190611d48565b9050808214158015610ef4575081610eea8688611f9d565b64ffffffffff1614155b15610f44576040517fa65010b400000000000000000000000000000000000000000000000000000000815264ffffffffff80881660048301528087166024830152831660448201526064016102db565b818664ffffffffff161115610f95576040517f7e8578d30000000000000000000000000000000000000000000000000000000081526004810183905264ffffffffff871660248201526044016102db565b6000610fa28489846115cc565b90506000610faf8b61169a565b905060005b815181101561107a576000828281518110610fd157610fd1611d5b565b60200260200101519050610ffd6010826affffffffffffffffffffff191661172390919063ffffffff16565b1561107157606081901c6001600160a01b03166355eb5a288e8e8e8e8e8d8f6040518863ffffffff1660e01b815260040161103e9796959493929190611fc2565b600060405180830381600087803b15801561105857600080fd5b505af115801561106c573d6000803e3d6000fd5b505050505b50600101610fb4565b5064ffffffffff881660005b8a60ff168160ff1610156110b9576110ad878260ff166028026038011c64ffffffffff1690565b90910190600101611086565b508b7ffe158a7adba34e256807c8a149028d3162918713c3838afc643ce9f96716ebfd8c8c848c888d6040516110f496959493929190612020565b60405180910390a2508284146111155760006111108c8c610d7e565b839055505b60006111228c8c8c611741565b9050611136818a64ffffffffff16896117c1565b5060005b815181101561120057600082828151811061115757611157611d5b565b602002602001015190506111836020826affffffffffffffffffffff191661172390919063ffffffff16565b156111f757606081901c6001600160a01b031663635845338e8e8e8e8e8a8f6040518863ffffffff1660e01b81526004016111c49796959493929190611fc2565b600060405180830381600087803b1580156111de57600080fd5b505af11580156111f2573d6000803e3d6000fd5b505050505b5060010161113a565b505050505050505050505050565b60007f8b9d8c8b908d9affffffffffffffffffab9e9d939a8d00000000000000000000820161125d57507e60030220202000000000000000000000000000000000000000000000000000919050565b61017761128a7f746273746f72650000000000000000005461626c657300000000000000000000846117d7565b60206000610d2d565b7f6f74000000000000000000000000000000000000000000000000000000000000867fffff000000000000000000000000000000000000000000000000000000000000160361131f57857f8dbb3a9672eebfd3773e72dd9c102393436816d832c7ba9e1e1ac8fcadcac7a986868686604051611312949392919061207c565b60405180910390a2610224565b600061132a8761169a565b905060005b815181101561140357600082828151811061134c5761134c611d5b565b602002602001015190506113786001826affffffffffffffffffffff191661172390919063ffffffff16565b156113fa576040517f57066c9c000000000000000000000000000000000000000000000000000000008152606082901c906357066c9c906113c7908c908c908c908c908c908c906004016120bb565b600060405180830381600087803b1580156113e157600080fd5b505af11580156113f5573d6000803e3d6000fd5b505050505b5060010161132f565b50867f8dbb3a9672eebfd3773e72dd9c102393436816d832c7ba9e1e1ac8fcadcac7a98787878760405161143a949392919061207c565b60405180910390a2600061144e8888610ca6565b905060006020870190506114668260008951846117f3565b6000611471856118b2565b11156114f55760006114838a8a610d7e565b878155905060208601915060008060005b61149d886118b2565b8160ff1610156114f0576114b28d8d83611741565b92506114cd8a8260ff166028026038011c64ffffffffff1690565b91506114dc83600084886117f3565b6114e68286611d48565b9450600101611494565b505050505b60005b8351811015610b8257600084828151811061151557611515611d5b565b602002602001015190506115416002826affffffffffffffffffffff191661172390919063ffffffff16565b156115c3576040517f5b28cdaf000000000000000000000000000000000000000000000000000000008152606082901c90635b28cdaf90611590908e908e908e908e908e908e906004016120bb565b600060405180830381600087803b1580156115aa57600080fd5b505af11580156115be573d6000803e3d6000fd5b505050505b506001016114f8565b600064ffffffffff821115611610576040517f7149a3c1000000000000000000000000000000000000000000000000000000008152600481018390526024016102db565b8366ffffffffffffff811660ff851660280260380182901c64ffffffffff16808510611642578085038201915061164a565b848103820391505b5064ffffffffff6038602860ff8816020181811b197fffffffffffffffffffffffffffffffffffffffffffffffffff000000000000009490941690921792909216918416901b1790509392505050565b604080516001808252818301909252606091600091906020808301908036833701905050905082816000815181106116d4576116d4611d5b565b6020908102919091010152600061170c7f746273746f726500000000000000000053746f7265486f6f6b7300000000000083836118ef565b905061092861171e8260008451611914565b6119a2565b60008160ff16826117348560581c90565b1660ff1614905092915050565b60008383604051602001611756929190611f0d565b604051602081830303815290604052805190602001208260f81b7effffffffffffffffffffffffffffffffffffffffffffffffffffffffffffff19167f3b4102da22e32d82fc925482184f16c09fd4281692720b87d124aef6da48a0f1181860001c90509392505050565b6105f3838383516117d28560200190565b6117f3565b6040805160208101849052908101829052600090606001610cbb565b821561186d576020831061181d5760208304840193506020838161181957611819611d71565b0692505b821561186d5760208390036000600019600885021c1990506008850281811c91508351811c905081198754168282161787555081841161185e575050610696565b50600194909401939182900391015b5b6020821061188f5780518455600190930192601f199091019060200161186e565b8115610696576000600019600884021c8554835182191691161785555050505050565b600060086001806118c560026020611f8a565b6118cf9190611f8a565b6118d99190611f8a565b6118e39190612114565b8260ff911c1692915050565b60606109286118ff858585611741565b600061190f85610a138989610c42565b6119b3565b6000818311806119245750835182115b15611961578383836040517f23230fa30000000000000000000000000000000000000000000000000000000081526004016102db9392919061212b565b6020840161196f8482611d48565b9050600061197d8585611f8a565b6fffffffffffffffffffffffffffffffff1660809290921b9190911795945050505050565b6060600061055983601560006119d6565b60405160208101601f19603f848401011660405282825261055785858584611a51565b606060006119e48560801c90565b90506fffffffffffffffffffffffffffffffff85166000858281611a0a57611a0a611d71565b04905060405193506020840160208202810160405281855260005b82811015611a45578451871c825293870193602090910190600101611a25565b50505050509392505050565b8215611ad85760208310611a7b57602083048401935060208381611a7757611a77611d71565b0692505b8215611ad8576020839003600081841015611a9e5750600019600884021c611aa8565b50600019600882021c5b8554600886021b818451168219821617845250818411611ac9575050610696565b50600194909401939182900391015b5b60208210611afa5783548152600190930192601f1990910190602001611ad9565b8115610696576000600019600884021c8251865482191691161782525050505050565b600060208284031215611b2f57600080fd5b81357fffffffff000000000000000000000000000000000000000000000000000000008116811461055957600080fd5b634e487b7160e01b600052604160045260246000fd5b604051601f8201601f1916810167ffffffffffffffff81118282101715611b9e57611b9e611b5f565b604052919050565b600067ffffffffffffffff821115611bc057611bc0611b5f565b5060051b60200190565b600082601f830112611bdb57600080fd5b81356020611bf0611beb83611ba6565b611b75565b8083825260208201915060208460051b870101935086841115611c1257600080fd5b602086015b84811015611c3e5780358060030b8114611c315760008081fd5b8352918301918301611c17565b509695505050505050565b60008060008060808587031215611c5f57600080fd5b8435935060208086013567ffffffffffffffff80821115611c7f57600080fd5b818801915088601f830112611c9357600080fd5b8135611ca1611beb82611ba6565b81815260059190911b8301840190848101908b831115611cc057600080fd5b938501935b82851015611cde57843582529385019390850190611cc5565b975050506040880135925080831115611cf657600080fd5b611d0289848a01611bca565b94506060880135925080831115611d1857600080fd5b5050611d2687828801611bca565b91505092959194509250565b634e487b7160e01b600052601160045260246000fd5b8082018082111561017757610177611d32565b634e487b7160e01b600052603260045260246000fd5b634e487b7160e01b600052601260045260246000fd5b600060208284031215611d9957600080fd5b5051919050565b60008151808452602080850194506020840160005b83811015611dd157815187529582019590820190600101611db5565b509495945050505050565b838152606060208201526000611df56060830185611da0565b905060ff83166040830152949350505050565b848152608060208201526000611e216080830186611da0565b60ff949094166040830152506060015292915050565b6000815180845260005b81811015611e5d57602081850181015186830182015201611e41565b506000602082860101526020601f19601f83011685010191505092915050565b848152608060208201526000611e966080830186611da0565b60ff851660408401528281036060840152611eb18185611e37565b979650505050505050565b85815260a060208201526000611ed560a0830187611da0565b8281036040840152611ee78187611e37565b90508460608401528281036080840152611f018185611e37565b98975050505050505050565b8281526000602080830184516020860160005b82811015611f3c57815184529284019290840190600101611f20565b5091979650505050505050565b7fffff000000000000000000000000000000000000000000000000000000000000841681528260208201526060604082015260006109fa6060830184611e37565b8181038181111561017757610177611d32565b64ffffffffff818116838216019080821115611fbb57611fbb611d32565b5092915050565b87815260e060208201526000611fdb60e0830189611da0565b60ff8816604084015264ffffffffff87811660608501528616608084015260a0830185905282810360c08401526120128185611e37565b9a9950505050505050505050565b60c08152600061203360c0830189611da0565b60ff8816602084015265ffffffffffff8716604084015264ffffffffff8616606084015284608084015282810360a084015261206f8185611e37565b9998505050505050505050565b60808152600061208f6080830187611da0565b82810360208401526120a18187611e37565b90508460408401528281036060840152611eb18185611e37565b86815260c0602082015260006120d460c0830188611da0565b82810360408401526120e68188611e37565b905085606084015282810360808401526121008186611e37565b9150508260a0830152979650505050505050565b808202811582820484141761017757610177611d32565b60608152600061213e6060830186611e37565b6020830194909452506040015291905056fea2646970667358221220ae3a42f94d031850d2d50e2b410c326f99b61c9829584a8c7443f99611b62fbc64736f6c63430008180033","linkReferences":{}},"methodIdentifiers":{"_msgSender()":"119df25f","_msgValue()":"45ec9354","_world()":"e1af802c","supportsInterface(bytes4)":"01ffc9a7","uploadLevel(bytes32,bytes32[],int32[],int32[])":"af0d52db"},"id":316}