{"abi":[{"type":"function","name":"_msgSender","inputs":[],"outputs":[{"name":"sender","type":"address","internalType":"address"}],"stateMutability":"view"},{"type":"function","name":"_msgValue","inputs":[],"outputs":[{"name":"value","type":"uint256","internalType":"uint256"}],"stateMutability":"pure"},{"type":"function","name":"_world","inputs":[],"outputs":[{"name":"","type":"address","internalType":"address"}],"stateMutability":"view"},{"type":"function","name":"isAllowed","inputs":[{"name":"","type":"bytes32","internalType":"bytes32"},{"name":"account","type":"address","internalType":"address"}],"outputs":[{"name":"","type":"bool","internalType":"bool"}],"stateMutability":"view"},{"type":"function","name":"supportsInterface","inputs":[{"name":"interfaceId","type":"bytes4","internalType":"bytes4"}],"outputs":[{"name":"","type":"bool","internalType":"bool"}],"stateMutability":"pure"}],"bytecode":{"object":"0x608060405234801561001057600080fd5b506108b4806100206000396000f3fe608060405234801561001057600080fd5b50600436106100675760003560e01c806345ec93541161005057806345ec9354146100c157806382027b6d146100d4578063e1af802c146100e757600080fd5b806301ffc9a71461006c578063119df25f14610094575b600080fd5b61007f61007a3660046106a9565b6100ef565b60405190151581526020015b60405180910390f35b61009c610188565b60405173ffffffffffffffffffffffffffffffffffffffff909116815260200161008b565b604051601f19360135815260200161008b565b61007f6100e23660046106eb565b610197565b61009c6101a9565b60007fffffffff0000000000000000000000000000000000000000000000000000000082167fb5dee12700000000000000000000000000000000000000000000000000000000148061018257507fffffffff0000000000000000000000000000000000000000000000000000000082167f01ffc9a700000000000000000000000000000000000000000000000000000000145b92915050565b60006101926101b3565b905090565b60006101a2826101e5565b9392505050565b60006101926101f8565b7fffffffffffffffffffffffffffffffffffffffffffffffffffffffffffffffcc36013560601c806101e25750335b90565b60006101826101f2610202565b8361026a565b600061019261030a565b6040805160008082526020820190925260006102607f74620000000000000000000000000000536b79506f6f6c436f6e6669670000008360047e7d060001202014141400000000000000000000000000000000000000000000610356565b60601c9392505050565b6000808373ffffffffffffffffffffffffffffffffffffffff166339f898bc6040518163ffffffff1660e01b8152600401602060405180830381865afa1580156102b8573d6000803e3d6000fd5b505050506040513d601f19601f820116820180604052508101906102dc9190610734565b905060006102f26102ed8360101b90565b610435565b905060006103008286610482565b1195945050505050565b7f629a4c26e296b22a8e0856e9f6ecb2d1008d7e00081111962cd175fa7488e1755460009073ffffffffffffffffffffffffffffffffffffffff1680610351573391505090565b919050565b60008061036161030a565b90503073ffffffffffffffffffffffffffffffffffffffff8216036103945761038c86868686610515565b91505061042d565b6040517f8c364d5900000000000000000000000000000000000000000000000000000000815273ffffffffffffffffffffffffffffffffffffffff821690638c364d59906103ec90899089908990899060040161074d565b602060405180830381865afa158015610409573d6000803e3d6000fd5b505050506040513d601f19601f8201168201806040525081019061038c9190610734565b949350505050565b60006101827f7462000000000000000000000000000000000000000000000000000000000000837f42616c616e636573000000000000000000000000000000000000000000000000610542565b604080516001808252818301909252600091829190602080830190803683370190505090508273ffffffffffffffffffffffffffffffffffffffff1660001b816000815181106104d4576104d46107aa565b6020908102919091010152600061050c8583837e20010020000000000000000000000000000000000000000000000000000000610356565b95945050505050565b600061050c61052486866105c9565b60ff858116601b0360080285901c1661053d858761061f565b610658565b6000610550607060106107d9565b7fffff00000000000000000000000000000000000000000000000000000000000085167dffffffffffffffffffffffffffff00000000000000000000000000000000601086901c16177fffffffffffffffffffffffffffffffff00000000000000000000000000000000841690911c1790509392505050565b600082826040516020016105de929190610813565b60408051601f1981840301815291905280516020909101207f86425bff6b57326c7859e89024fe4f238ca327a1ae4a230180dd2f0e88aaa7d9189392505050565b600080805b8360ff168110156106505761064660ff601b83900360080287901c16836107d9565b9150600101610624565b509392505050565b60006020821061067e5760208204840193506020828161067a5761067a61084f565b0691505b508254600882021b602082900380841115610650576001850154600882021c82179150509392505050565b6000602082840312156106bb57600080fd5b81357fffffffff00000000000000000000000000000000000000000000000000000000811681146101a257600080fd5b600080604083850312156106fe57600080fd5b82359150602083013573ffffffffffffffffffffffffffffffffffffffff8116811461072957600080fd5b809150509250929050565b60006020828403121561074657600080fd5b5051919050565b60006080820186835260206080602085015281875180845260a08601915060208901935060005b8181101561079057845183529383019391830191600101610774565b505060ff9690961660408501525050506060015292915050565b7f4e487b7100000000000000000000000000000000000000000000000000000000600052603260045260246000fd5b80820180821115610182577f4e487b7100000000000000000000000000000000000000000000000000000000600052601160045260246000fd5b8281526000602080830184516020860160005b8281101561084257815184529284019290840190600101610826565b5091979650505050505050565b7f4e487b7100000000000000000000000000000000000000000000000000000000600052601260045260246000fdfea2646970667358221220c488c0f01f642878f9d884c9eb5bd292827f0ac29182adcbb52c9dc395941ca964736f6c63430008180033","linkReferences":{}},"methodIdentifiers":{"_msgSender()":"119df25f","_msgValue()":"45ec9354","_world()":"e1af802c","isAllowed(bytes32,address)":"82027b6d","supportsInterface(bytes4)":"01ffc9a7"},"id":324}