{"abi":[{"type":"function","name":"_msgSender","inputs":[],"outputs":[{"name":"sender","type":"address","internalType":"address"}],"stateMutability":"view"},{"type":"function","name":"_msgValue","inputs":[],"outputs":[{"name":"value","type":"uint256","internalType":"uint256"}],"stateMutability":"pure"},{"type":"function","name":"_world","inputs":[],"outputs":[{"name":"","type":"address","internalType":"address"}],"stateMutability":"view"},{"type":"function","name":"fight","inputs":[{"name":"matchEntity","type":"bytes32","internalType":"bytes32"},{"name":"entity","type":"bytes32","internalType":"bytes32"},{"name":"target","type":"bytes32","internalType":"bytes32"}],"outputs":[],"stateMutability":"nonpayable"},{"type":"function","name":"move","inputs":[{"name":"matchEntity","type":"bytes32","internalType":"bytes32"},{"name":"entity","type":"bytes32","internalType":"bytes32"},{"name":"path","type":"tuple[]","internalType":"struct PositionData[]","components":[{"name":"x","type":"int32","internalType":"int32"},{"name":"y","type":"int32","internalType":"int32"}]}],"outputs":[],"stateMutability":"nonpayable"},{"type":"function","name":"moveAndAttack","inputs":[{"name":"matchEntity","type":"bytes32","internalType":"bytes32"},{"name":"entity","type":"bytes32","internalType":"bytes32"},{"name":"path","type":"tuple[]","internalType":"struct PositionData[]","components":[{"name":"x","type":"int32","internalType":"int32"},{"name":"y","type":"int32","internalType":"int32"}]},{"name":"target","type":"bytes32","internalType":"bytes32"}],"outputs":[],"stateMutability":"nonpayable"},{"type":"function","name":"supportsInterface","inputs":[{"name":"interfaceId","type":"bytes4","internalType":"bytes4"}],"outputs":[{"name":"","type":"bool","internalType":"bool"}],"stateMutability":"pure"},{"type":"event","name":"Store_DeleteRecord","inputs":[{"name":"tableId","type":"bytes32","indexed":true,"internalType":"ResourceId"},{"name":"keyTuple","type":"bytes32[]","indexed":false,"internalType":"bytes32[]"}],"anonymous":false},{"type":"event","name":"Store_SetRecord","inputs":[{"name":"tableId","type":"bytes32","indexed":true,"internalType":"ResourceId"},{"name":"keyTuple","type":"bytes32[]","indexed":false,"internalType":"bytes32[]"},{"name":"staticData","type":"bytes","indexed":false,"internalType":"bytes"},{"name":"encodedLengths","type":"bytes32","indexed":false,"internalType":"EncodedLengths"},{"name":"dynamicData","type":"bytes","indexed":false,"internalType":"bytes"}],"anonymous":false},{"type":"event","name":"Store_SpliceDynamicData","inputs":[{"name":"tableId","type":"bytes32","indexed":true,"internalType":"ResourceId"},{"name":"keyTuple","type":"bytes32[]","indexed":false,"internalType":"bytes32[]"},{"name":"dynamicFieldIndex","type":"uint8","indexed":false,"internalType":"uint8"},{"name":"start","type":"uint48","indexed":false,"internalType":"uint48"},{"name":"deleteCount","type":"uint40","indexed":false,"internalType":"uint40"},{"name":"encodedLengths","type":"bytes32","indexed":false,"internalType":"EncodedLengths"},{"name":"data","type":"bytes","indexed":false,"internalType":"bytes"}],"anonymous":false},{"type":"event","name":"Store_SpliceStaticData","inputs":[{"name":"tableId","type":"bytes32","indexed":true,"internalType":"ResourceId"},{"name":"keyTuple","type":"bytes32[]","indexed":false,"internalType":"bytes32[]"},{"name":"start","type":"uint48","indexed":false,"internalType":"uint48"},{"name":"data","type":"bytes","indexed":false,"internalType":"bytes"}],"anonymous":false},{"type":"error","name":"EncodedLengths_InvalidLength","inputs":[{"name":"length","type":"uint256","internalType":"uint256"}]},{"type":"error","name":"Slice_OutOfBounds","inputs":[{"name":"data","type":"bytes","internalType":"bytes"},{"name":"start","type":"uint256","internalType":"uint256"},{"name":"end","type":"uint256","internalType":"uint256"}]},{"type":"error","name":"Store_IndexOutOfBounds","inputs":[{"name":"length","type":"uint256","internalType":"uint256"},{"name":"accessedIndex","type":"uint256","internalType":"uint256"}]},{"type":"error","name":"Store_InvalidBounds","inputs":[{"name":"start","type":"uint256","internalType":"uint256"},{"name":"end","type":"uint256","internalType":"uint256"}]},{"type":"error","name":"Store_InvalidResourceType","inputs":[{"name":"expected","type":"bytes2","internalType":"bytes2"},{"name":"resourceId","type":"bytes32","internalType":"ResourceId"},{"name":"resourceIdString","type":"string","internalType":"string"}]},{"type":"error","name":"Store_InvalidSplice","inputs":[{"name":"startWithinField","type":"uint40","internalType":"uint40"},{"name":"deleteCount","type":"uint40","internalType":"uint40"},{"name":"fieldLength","type":"uint40","internalType":"uint40"}]}],"bytecode":{"object":"0x608060405234801561001057600080fd5b506148f9806100206000396000f3fe608060405234801561001057600080fd5b506004361061007d5760003560e01c806345ec93541161005b57806345ec9354146100df578063618652a6146100f2578063e1af802c14610105578063e89f76721461010d57600080fd5b806301ffc9a714610082578063119df25f146100aa578063280f1820146100ca575b600080fd5b610095610090366004613f46565b610120565b60405190151581526020015b60405180910390f35b6100b26101b9565b6040516001600160a01b0390911681526020016100a1565b6100dd6100d83660046140bc565b6101c8565b005b604051601f1936013581526020016100a1565b6100dd610100366004614114565b61024a565b6100b2610264565b6100dd61011b366004614164565b61026e565b60007fffffffff0000000000000000000000000000000000000000000000000000000082167fb5dee1270000000000000000000000000000000000000000000000000000000014806101b357507fffffffff0000000000000000000000000000000000000000000000000000000082167f01ffc9a700000000000000000000000000000000000000000000000000000000145b92915050565b60006101c3610283565b905090565b6101d284846102b5565b156102245760405162461bcd60e51b815260206004820152601660248201527f63616e6e6f74206d6f766520616e642061747461636b0000000000000000000060448201526064015b60405180910390fd5b61022e848461037b565b6102398484846104d3565b6102448484836105b9565b50505050565b610254838361037b565b61025f8383836104d3565b505050565b60006101c361084c565b610278838361037b565b61025f8383836105b9565b7fffffffffffffffffffffffffffffffffffffffffffffffffffffffffffffffcc36013560601c806102b25750335b90565b6040805160028082526060820183526000928392919060208301908036833701905050905083816000815181106102ee576102ee614190565b602002602001018181525050828160018151811061030e5761030e614190565b602090810291909101015260006103667f746200000000000000000000000000005265717569726573536574757000000083837e01010001000000000000000000000000000000000000000000000000000000610856565b90506103728160f81c90565b95945050505050565b6103848261091b565b6103d05760405162461bcd60e51b815260206004820152601560248201527f6d6174636820686173206e6f7420737461727465640000000000000000000000604482015260640161021b565b6103e282826103dd6101b9565b61093f565b61042e5760405162461bcd60e51b815260206004820152601860248201527f796f7520646f206e6f74206f776e207468697320756e69740000000000000000604482015260640161021b565b600061043a8383610967565b90506104468382610a00565b60030b61045284610a48565b60030b136104c85760405162461bcd60e51b815260206004820152602c60248201527f6e6f7420656e6f7567682074696d6520686173207061737365642073696e636560448201527f206c61737420616374696f6e0000000000000000000000000000000000000000606482015260840161021b565b61025f838342610a54565b60006104ec6104e06101b9565b6001600160a01b031690565b905060006104f985610b0f565b905060006105078686610ba1565b905060006105158787610c5e565b90506000610526888587858a610d64565b90508060030b8360030b121561057e5760405162461bcd60e51b815260206004820152601560248201527f6e6f7420656e6f756768206d6f76652073706565640000000000000000000000604482015260640161021b565b6105af88888860018a5161059291906141bc565b815181106105a2576105a2614190565b6020026020010151610e82565b5050505050505050565b6105c38382610eab565b6105cd8484610eab565b0361061a5760405162461bcd60e51b815260206004820152601860248201527f63616e6e6f742061747461636b206f776e20656e746974790000000000000000604482015260640161021b565b60006106268484610f0e565b60030b136106765760405162461bcd60e51b815260206004820152601860248201527f61747461636b657220686173206e6f20737472656e6774680000000000000000604482015260640161021b565b60006106828483610fc0565b60030b136106d25760405162461bcd60e51b815260206004820152601660248201527f646566656e64657220686173206e6f206865616c746800000000000000000000604482015260640161021b565b60006106de8484611071565b905060006106ec8585611123565b9050600061070c6106fd8787610c5e565b6107078887610c5e565b6111d5565b90508260030b8160030b12156107645760405162461bcd60e51b815260206004820152601d60248201527f7461726765742069732062656c6f77206d696e696d756d2072616e6765000000604482015260640161021b565b8160030b8160030b13156107ba5760405162461bcd60e51b815260206004820152601d60248201527f7461726765742069732061626f7665206d6178696d756d2072616e6765000000604482015260640161021b565b6040517f48d76bba00000000000000000000000000000000000000000000000000000000815260048101879052602481018690526044810185905273__$81cc5822ab58d27e90a7983daf31a14ef2$__906348d76bba9060640160006040518083038186803b15801561082c57600080fd5b505af4158015610840573d6000803e3d6000fd5b50505050505050505050565b60006101c3611260565b600080610861611260565b9050306001600160a01b038216036108875761087f8686868661129f565b915050610913565b6040517f8c364d590000000000000000000000000000000000000000000000000000000081526001600160a01b03821690638c364d59906108d290899089908990899060040161420b565b602060405180830381865afa1580156108ef573d6000803e3d6000fd5b505050506040513d601f19601f8201168201806040525081019061087f919061423a565b949350505050565b600080610927836112cc565b905080158015906109385750428111155b9392505050565b60008061094c8585610eab565b9050600061095a868561135e565b9190911495945050505050565b6040805160028082526060820183526000928392919060208301908036833701905050905083816000815181106109a0576109a0614190565b60200260200101818152505082816001815181106109c0576109c0614190565b602090810291909101015260006103727f746200000000000000000000000000004c617374416374696f6e0000000000008383630100080160dd1b610856565b600080610a0c8461136a565b90508060200151831015610a245760009150506101b3565b6000816020015184610a3691906141bc565b90508160400151816103729190614269565b60006101b38242610a00565b6040805160028082526060820183526000926020830190803683370190505090508381600081518110610a8957610a89614190565b6020026020010181815250508281600181518110610aa957610aa9614190565b6020026020010181815250506102447f746200000000000000000000000000004c617374416374696f6e00000000000060001b82600085604051602001610af291815260200190565b60408051601f19818403018152919052630100080160dd1b611447565b604080516001808252818301909252600091829190602080830190803683370190505090508281600081518110610b4857610b48614190565b602090810291909101015260006109137f746200000000000000000000000000004d61746368436f6e66696700000000008360037eb4060020202020201400000000000000000000000000000000000000000000610856565b604080516002808252606082018352600092839291906020830190803683370190505090508381600081518110610bda57610bda614190565b6020026020010181815250508281600181518110610bfa57610bfa614190565b60209081029190910101526000610c527f746200000000000000000000000000004d6f7661626c6500000000000000000083837e04010004000000000000000000000000000000000000000000000000000000610856565b60e01c95945050505050565b604080518082018252600080825260208201819052825160028082526060820190945291929091908160200160208202803683370190505090508381600081518110610cac57610cac614190565b6020026020010181815250508281600181518110610ccc57610ccc614190565b602090810291909101015260008080610d257f74620000000000000000000000000000506f736974696f6e0000000000000000857e080200040400000000000000000000000000000000000000000000000000006114f8565b6040805180820190915260008082526020808301918252850151602486015160e090811d909252901d815292955090935091505b979650505050505050565b6000805b8251811015610e78576000838281518110610d8557610d85614190565b602002602001015190506000610d9b86836111d5565b905060018160030b1315610df15760405162461bcd60e51b815260206004820152600c60248201527f696e76616c696420706174680000000000000000000000000000000000000000604482015260640161021b565b610dfd898887866115c8565b6000610e098984611796565b905060008160030b13610e5e5760405162461bcd60e51b815260206004820152600f60248201527f6e6f207465727261696e20686572650000000000000000000000000000000000604482015260640161021b565b610e68818661428b565b9296509193505050600101610d68565b5095945050505050565b610e8c8383611832565b610e97838383611895565b61025f83826000015183602001518561196f565b6000610eb78383611a56565b63ffffffff1615610ec95750806101b3565b610ed38383611b07565b15610f0557610ee28383611b07565b9150610eee8383611a56565b63ffffffff1615610f005750806101b3565b610ec9565b50600092915050565b604080516002808252606082018352600092839291906020830190803683370190505090508381600081518110610f4757610f47614190565b6020026020010181815250508281600181518110610f6757610f67614190565b60209081029190910101526000610c527f74620000000000000000000000000000436f6d626174000000000000000000008360027e19070004040404040401000000000000000000000000000000000000000000610856565b604080516002808252606082018352600092839291906020830190803683370190505090508381600081518110610ff957610ff9614190565b602002602001018181525050828160018151811061101957611019614190565b60209081029190910101526000610c527f74620000000000000000000000000000436f6d6261740000000000000000000083837e19070004040404040401000000000000000000000000000000000000000000610856565b6040805160028082526060820183526000928392919060208301908036833701905050905083816000815181106110aa576110aa614190565b60200260200101818152505082816001815181106110ca576110ca614190565b60209081029190910101526000610c527f74620000000000000000000000000000436f6d626174000000000000000000008360047e19070004040404040401000000000000000000000000000000000000000000610856565b60408051600280825260608201835260009283929190602083019080368337019050509050838160008151811061115c5761115c614190565b602002602001018181525050828160018151811061117c5761117c614190565b60209081029190910101526000610c527f74620000000000000000000000000000436f6d626174000000000000000000008360057e19070004040404040401000000000000000000000000000000000000000000610856565b600080826000015160030b846000015160030b1361120057835183516111fb91906142b2565b61120e565b8251845161120e91906142b2565b90506000836020015160030b856020015160030b13611240578460200151846020015161123b91906142b2565b611254565b8360200151856020015161125491906142b2565b9050610372818361428b565b7f629a4c26e296b22a8e0856e9f6ecb2d1008d7e00081111962cd175fa7488e175546000906001600160a01b03168061129a573391505090565b919050565b60006103726112ae8686611ba0565b60ff858116601b0360080285901c166112c78587611bf6565b611c2f565b60408051600180825281830190925260009182919060208083019080368337019050509050828160008151811061130557611305614190565b602090810291909101015260006109137f746200000000000000000000000000004d61746368436f6e66696700000000008360017eb4060020202020201400000000000000000000000000000000000000000000610856565b60006109388383611c80565b6040805160c081018252600080825260208201819052818301819052606082018190526080820181905260a0820181905282516001808252818501909452919290919081602001602082028036833701905050905082816000815181106113d3576113d3614190565b60209081029190910101526000808061142c7f746200000000000000000000000000004d61746368436f6e6669670000000000857eb40600202020202014000000000000000000000000000000000000000000006114f8565b92509250925061143d838383611d25565b9695505050505050565b6000611451611260565b9050306001600160a01b03821603611475576114708686868686611d8b565b6114f0565b6040517f390baae00000000000000000000000000000000000000000000000000000000081526001600160a01b0382169063390baae0906114c29089908990899089908990600401614329565b600060405180830381600087803b1580156114dc57600080fd5b505af1158015610840573d6000803e3d6000fd5b505050505050565b6060600060606000611508611260565b9050306001600160a01b0382160361153157611525878787611da0565b935093509350506115bf565b6040517f419b58fd0000000000000000000000000000000000000000000000000000000081526001600160a01b0382169063419b58fd9061157a908a908a908a90600401614370565b600060405180830381865afa158015611597573d6000803e3d6000fd5b505050506040513d6000823e601f3d908101601f1916820160405261152591908101906143fd565b93509350939050565b600061160f858484815181106115e0576115e0614190565b6020026020010151600001518585815181106115fe576115fe614190565b602002602001015160200151611ea8565b905060005b81518110156114f057600082828151811061163157611631614190565b602002602001015190506116458782611f7d565b1561178d5761165587828861093f565b6116a15760405162461bcd60e51b815260206004820152601b60248201527f63616e6e6f74206d6f7665207468726f75676820656e656d6965730000000000604482015260640161021b565b60006116ad888361202e565b60058111156116be576116be614460565b1461170b5760405162461bcd60e51b815260206004820152601e60248201527f63616e6e6f74206d6f7665207468726f75676820737472756374757265730000604482015260640161021b565b6001855161171991906141bc565b840361178d5760405162461bcd60e51b815260206004820152603160248201527f63616e6e6f742066696e697368206d6f76656d656e74206f6e20616e20556e7460448201527f72617665727361626c6520656e74697479000000000000000000000000000000606482015260840161021b565b50600101611614565b6000806117a384846120f7565b905060005b815181101561182a5760006117d6868484815181106117c9576117c9614190565b602002602001015161210c565b90506000611804827f746200000000000000000000000000004d6f7665446966666963756c74790000612198565b9050611814816020015160e01c90565b61181e908661428b565b945050506001016117a8565b505092915050565b600061183e8383610c5e565b9050600061185f836118598685600001518660200151611ea8565b90612229565b8051909150156118825761187d8483600001518460200151846122f7565b610244565b61024484836000015184602001516123ba565b60006118d0826000015183602001516040805160e093841b60208201529190921b602482015281516008818303018152602890910190915290565b604080516002808252606080830184529394506000939284929190602083019080368337019050509050868160008151811061190e5761190e614190565b602002602001018181525050858160018151811061192e5761192e614190565b60209081029190910101526119667f74620000000000000000000000000000506f736974696f6e000000000000000082868686612472565b50505050505050565b604080516003808252608082019092526000916020820160608036833701905050905084816000815181106119a6576119a6614190565b6020026020010181815250508360030b60001b816001815181106119cc576119cc614190565b6020026020010181815250508260030b60001b816002815181106119f2576119f2614190565b602002602001018181525050611a4f7f74620000000000000000000000000000456e7469746965734174506f7369746960001b82600085604051602001611a3b91815260200190565b6040516020818303038152906040526124e8565b5050505050565b604080516002808252606082018352600092839291906020830190803683370190505090508381600081518110611a8f57611a8f614190565b6020026020010181815250508281600181518110611aaf57611aaf614190565b60209081029190910101526000610c527f74620000000000000000000000000000506c617965720000000000000000000083837e04010004000000000000000000000000000000000000000000000000000000610856565b604080516002808252606082018352600092839291906020830190803683370190505090508381600081518110611b4057611b40614190565b6020026020010181815250508281600181518110611b6057611b60614190565b602090810291909101015260006103727f746200000000000000000000000000004f776e656442790000000000000000008383630100080160dd1b610856565b60008282604051602001611bb5929190614476565b60408051601f1981840301815291905280516020909101207f86425bff6b57326c7859e89024fe4f238ca327a1ae4a230180dd2f0e88aaa7d9189392505050565b600080805b8360ff16811015611c2757611c1d60ff601b83900360080287901c16836144b2565b9150600101611bfb565b509392505050565b600060208210611c5557602082048401935060208281611c5157611c51614253565b0691505b508254600882021b602082900380841115611c27576001850154600882021c82179150509392505050565b604080516002808252606082018352600092839291906020830190803683370190505090508381600081518110611cb957611cb9614190565b602002602001018181525050826001600160a01b031660001b81600181518110611ce557611ce5614190565b602090810291909101015260006103727f746200000000000000000000000000004d61746368506c6179657200000000008383630100080160dd1b610856565b6040805160c081018252600080825260208201819052918101829052606081018290526080810182905260a0810191909152611d6084612599565b6001600160a01b031660a0870152608086015260608501526040840152602083015281529392505050565b611a4f8585611d9a8487611bf6565b856125e1565b6060600060606000611db18561287c565b9050611dbe87878361289f565b93506000611dcb866128d8565b90508015611e9d57611ddd8888612915565b935066ffffffffffffff841667ffffffffffffffff811115611e0157611e01613f88565b6040519080825280601f01601f191660200182016040528015611e2b576020820181803683370190505b5092506020830160005b828160ff161015611e9a576000611e4d8b8b84612928565b90506000611e6a888460ff166028026038011c64ffffffffff1690565b9050611e7982600083876129a8565b611e8381856144b2565b935050508080611e92906144c5565b915050611e35565b50505b505093509350939050565b60408051600380825260808201909252606091600091906020820184803683370190505090508481600081518110611ee257611ee2614190565b6020026020010181815250508360030b60001b81600181518110611f0857611f08614190565b6020026020010181815250508260030b60001b81600281518110611f2e57611f2e614190565b60209081029190910101526000611f667f74620000000000000000000000000000456e7469746965734174506f736974698383612a74565b905061143d611f788260008451612b33565b612bc1565b604080516002808252606082018352600092839291906020830190803683370190505090508381600081518110611fb657611fb6614190565b6020026020010181815250508281600181518110611fd657611fd6614190565b602090810291909101015260006103667f74620000000000000000000000000000556e7472617665727361626c6500000083837e01010001000000000000000000000000000000000000000000000000000000610856565b60408051600280825260608201835260009283929190602083019080368337019050509050838160008151811061206757612067614190565b602002602001018181525050828160018151811061208757612087614190565b602090810291909101015260006120df7f746200000000000000000000000000005374727563747572655479706500000083837e01010001000000000000000000000000000000000000000000000000000000610856565b905060f881901c600581111561037257610372614460565b60606109388383600001518460200151612bd2565b60408051600180825281830190925260009182919060208083019080368337019050509050838160008151811061214557612145614190565b602002602001018181525050600061218d7f746200000000000000000000000000004c6576656c54656d706c61746573000060001b8360008760200288600101602002612c90565b9050610372816144e4565b6040805160028082526060808301845292600092919060208301908036833701905050905083816000815181106121d1576121d1614190565b60200260200101818152505082816001815181106121f1576121f1614190565b602090810291909101015260006103727f7462000000000000000000000000000054656d706c617465436f6e74656e74008383612a74565b60606000835167ffffffffffffffff81111561224757612247613f88565b604051908082528060200260200182016040528015612270578160200160208202803683370190505b5090506000805b85518110156122ed578486828151811061229357612293614190565b6020026020010151146122e5578581815181106122b2576122b2614190565b60200260200101518383815181106122cc576122cc614190565b6020908102919091010152816122e18161450b565b9250505b600101612277565b5081529392505050565b6040805160038082526080820190925260009160208201606080368337019050509050848160008151811061232e5761232e614190565b6020026020010181815250508360030b60001b8160018151811061235457612354614190565b6020026020010181815250508260030b60001b8160028151811061237a5761237a614190565b6020908102919091010152611a4f7f74620000000000000000000000000000456e7469746965734174506f736974698260006123b586612d55565b612d65565b604080516003808252608082019092526000916020820160608036833701905050905083816000815181106123f1576123f1614190565b6020026020010181815250508260030b60001b8160018151811061241757612417614190565b6020026020010181815250508160030b60001b8160028151811061243d5761243d614190565b60209081029190910101526102447f74620000000000000000000000000000456e7469746965734174506f7369746982612dd8565b600061247c611260565b9050306001600160a01b0382160361249b576114708686868686612e73565b6040517f298314fb0000000000000000000000000000000000000000000000000000000081526001600160a01b0382169063298314fb906114c29089908990899089908990600401614525565b60006124f2611260565b9050306001600160a01b038216036125155761251085858585612e89565b611a4f565b6040517f150f32620000000000000000000000000000000000000000000000000000000081526001600160a01b0382169063150f326290612560908890889088908890600401614576565b600060405180830381600087803b15801561257a57600080fd5b505af115801561258e573d6000803e3d6000fd5b505050505050505050565b6000806000806000806125b0876000016020015190565b60408801516060808a015160808b015160a08c015160c0909c0151949c939b919a50985096509190911c9350915050565b7f6f74000000000000000000000000000000000000000000000000000000000000847fffff000000000000000000000000000000000000000000000000000000000000160361266b57837f8c0b5119d4cec7b284c6b1b39252a03d1e2f2d7451a5895562524c113bb952be84848460405161265e939291906145aa565b60405180910390a2610244565b60006126778585611ba0565b9050600061268486612ec4565b905060005b81518110156127595760008282815181106126a6576126a6614190565b602002602001015190506126d26004826affffffffffffffffffffff1916612f4d90919063ffffffff16565b15612750576040517f964f667d000000000000000000000000000000000000000000000000000000008152606082901c9063964f667d9061271d908b908b908b908b906004016145dd565b600060405180830381600087803b15801561273757600080fd5b505af115801561274b573d6000803e3d6000fd5b505050505b50600101612689565b50857f8c0b5119d4cec7b284c6b1b39252a03d1e2f2d7451a5895562524c113bb952be86868660405161278e939291906145aa565b60405180910390a26127a9828565ffffffffffff1685612f6b565b60005b81518110156119665760008282815181106127c9576127c9614190565b602002602001015190506127f56008826affffffffffffffffffffff1916612f4d90919063ffffffff16565b15612873576040517fa8ba8721000000000000000000000000000000000000000000000000000000008152606082901c9063a8ba872190612840908b908b908b908b906004016145dd565b600060405180830381600087803b15801561285a57600080fd5b505af115801561286e573d6000803e3d6000fd5b505050505b506001016127ac565b6000600861288c600260206141bc565b6128969190614616565b9190911c919050565b6060816000036128be5750604080516020810190915260008152610938565b60006128ca8585611ba0565b905061037281600085612f81565b600060086001806128eb600260206141bc565b6128f591906141bc565b6128ff91906141bc565b6129099190614616565b8260ff911c1692915050565b60006109386129248484612fa4565b5490565b6000838360405160200161293d929190614476565b604051602081830303815290604052805190602001208260f81b7effffffffffffffffffffffffffffffffffffffffffffffffffffffffffffff19167f3b4102da22e32d82fc925482184f16c09fd4281692720b87d124aef6da48a0f1181860001c90509392505050565b8215612a2f57602083106129d2576020830484019350602083816129ce576129ce614253565b0692505b8215612a2f5760208390036000818410156129f55750600019600884021c6129ff565b50600019600882021c5b8554600886021b818451168219821617845250818411612a20575050610244565b50600194909401939182900391015b5b60208210612a515783548152600190930192601f1990910190602001612a30565b8115610244576000600019600884021c8251865482191691161782525050505050565b60606000612a80611260565b9050306001600160a01b03821603612aa557612a9d858585612ffa565b915050610938565b6040517f1e7889770000000000000000000000000000000000000000000000000000000081526001600160a01b03821690631e78897790612aee9088908890889060040161462d565b600060405180830381865afa158015612b0b573d6000803e3d6000fd5b505050506040513d6000823e601f3d908101601f19168201604052612a9d9190810190614659565b600081831180612b435750835182115b15612b80578383836040517f23230fa300000000000000000000000000000000000000000000000000000000815260040161021b9392919061468e565b60208401612b8e84826144b2565b90506000612b9c85856141bc565b6fffffffffffffffffffffffffffffffff1660809290921b9190911795945050505050565b606060006109388360206000613034565b60408051600380825260808201909252606091600091906020820184803683370190505090508481600081518110612c0c57612c0c614190565b6020026020010181815250508360030b60001b81600181518110612c3257612c32614190565b6020026020010181815250508260030b60001b81600281518110612c5857612c58614190565b60209081029190910101526000611f667f746200000000000000000000000000004c6576656c506f736974696f6e496e648383612a74565b60606000612c9c611260565b9050306001600160a01b03821603612cc357612cbb87878787876130af565b915050610372565b6040517f4dc77d970000000000000000000000000000000000000000000000000000000081526001600160a01b03821690634dc77d9790612d10908a908a908a908a908a906004016146b3565b600060405180830381865afa158015612d2d573d6000803e3d6000fd5b505050506040513d6000823e601f3d908101601f19168201604052612cbb9190810190614659565b60608161093881602060006131b2565b6000612d6f611260565b9050306001600160a01b03821603612d8d5761251085858585613206565b6040517fef6ea8620000000000000000000000000000000000000000000000000000000081526001600160a01b0382169063ef6ea86290612560908890889088908890600401614576565b6000612de2611260565b9050306001600160a01b03821603612dfe5761025f8383613241565b6040517f505a181d0000000000000000000000000000000000000000000000000000000081526001600160a01b0382169063505a181d90612e4590869086906004016146ec565b600060405180830381600087803b158015612e5f57600080fd5b505af1158015611966573d6000803e3d6000fd5b611a4f8585858585612e848b613258565b6132dd565b6000612e958585612915565b90506000612eb2828560ff166028026038011c64ffffffffff1690565b90506114f08686868460008888613616565b60408051600180825281830190925260609160009190602080830190803683370190505090508281600081518110612efe57612efe614190565b60209081029190910101526000612f367f746273746f726500000000000000000053746f7265486f6f6b730000000000008383612ffa565b9050610913612f488260008451612b33565b613a50565b60008160ff1682612f5e8560581c90565b1660ff1614905092915050565b61025f83838351612f7c8560200190565b613a61565b60405160208101601f19603f8484010116604052828252611c27858585846129a8565b60008282604051602001612fb9929190614476565b60408051601f1981840301815291905280516020909101207f14e2fcc58e58e68ec7edc30c8d50dccc3ce2714a623ec81f46b6a63922d76569189392505050565b606061091361300a858585612928565b600061302f8561301a8989612915565b9060ff166028026038011c64ffffffffff1690565b612f81565b606060006130428560801c90565b90506fffffffffffffffffffffffffffffffff8516600085828161306857613068614253565b04905060405193506020840160208202810160405281855260005b828110156130a3578451871c825293870193602090910190600101613083565b50505050509392505050565b6060818311156130f5576040517fa8c54782000000000000000000000000000000000000000000000000000000008152600481018490526024810183905260440161021b565b60006131018787612915565b9050600061311e828760ff166028026038011c64ffffffffff1690565b9050808510158061312e57508084115b1561318957808186101561314c576131476001866141bc565b61314e565b855b6040517f7e8578d30000000000000000000000000000000000000000000000000000000081526004810192909252602482015260440161021b565b6000613196898989612928565b90506131a58187888803612f81565b9998505050505050505050565b825160609060006131c38583614616565b9050604051925060208301601f19603f83860101166040528184526000602088015b848210156130a3578051871b835291870191600191909101906020016131e5565b60006132128585612915565b9050600061322f828560ff166028026038011c64ffffffffff1690565b90506114f08686866000858888613616565b613254828261324f85613258565b613b20565b5050565b60007f8b9d8c8b908d9affffffffffffffffffab9e9d939a8d0000000000000000000082016132a757507e60030220202000000000000000000000000000000000000000000000000000919050565b6101b36132d47f746273746f72650000000000000000005461626c65730000000000000000000084613e1f565b60206000611c2f565b7f6f74000000000000000000000000000000000000000000000000000000000000867fffff000000000000000000000000000000000000000000000000000000000000160361336957857f8dbb3a9672eebfd3773e72dd9c102393436816d832c7ba9e1e1ac8fcadcac7a98686868660405161335c9493929190614705565b60405180910390a26114f0565b600061337487612ec4565b905060005b815181101561344d57600082828151811061339657613396614190565b602002602001015190506133c26001826affffffffffffffffffffff1916612f4d90919063ffffffff16565b15613444576040517f57066c9c000000000000000000000000000000000000000000000000000000008152606082901c906357066c9c90613411908c908c908c908c908c908c90600401614744565b600060405180830381600087803b15801561342b57600080fd5b505af115801561343f573d6000803e3d6000fd5b505050505b50600101613379565b50867f8dbb3a9672eebfd3773e72dd9c102393436816d832c7ba9e1e1ac8fcadcac7a9878787876040516134849493929190614705565b60405180910390a260006134988888611ba0565b905060006020870190506134b0826000895184613a61565b60006134bb856128d8565b111561353f5760006134cd8a8a612fa4565b878155905060208601915060008060005b6134e7886128d8565b8160ff16101561353a576134fc8d8d83612928565b92506135178a8260ff166028026038011c64ffffffffff1690565b91506135268360008488613a61565b61353082866144b2565b94506001016134de565b505050505b60005b835181101561084057600084828151811061355f5761355f614190565b6020026020010151905061358b6002826affffffffffffffffffffff1916612f4d90919063ffffffff16565b1561360d576040517f5b28cdaf000000000000000000000000000000000000000000000000000000008152606082901c90635b28cdaf906135da908e908e908e908e908e908e90600401614744565b600060405180830381600087803b1580156135f457600080fd5b505af1158015613608573d6000803e3d6000fd5b505050505b50600101613542565b7f7462000000000000000000000000000000000000000000000000000000000000877fffff00000000000000000000000000000000000000000000000000000000000016146136d6577f7462000000000000000000000000000000000000000000000000000000000000878860405160200161369491815260200190565b60408051601f19818403018152908290527f31b4668300000000000000000000000000000000000000000000000000000000825261021b93929160040161479d565b60006136f1828760ff166028026038011c64ffffffffff1690565b9050600083518564ffffffffff168361370a91906141bc565b61371491906144b2565b905080821415801561373657508161372c86886147de565b64ffffffffff1614155b15613786576040517fa65010b400000000000000000000000000000000000000000000000000000000815264ffffffffff808816600483015280871660248301528316604482015260640161021b565b818664ffffffffff1611156137d7576040517f7e8578d30000000000000000000000000000000000000000000000000000000081526004810183905264ffffffffff8716602482015260440161021b565b60006137e4848984613e3b565b905060006137f18b612ec4565b905060005b81518110156138bc57600082828151811061381357613813614190565b6020026020010151905061383f6010826affffffffffffffffffffff1916612f4d90919063ffffffff16565b156138b357606081901c6001600160a01b03166355eb5a288e8e8e8e8e8d8f6040518863ffffffff1660e01b81526004016138809796959493929190614803565b600060405180830381600087803b15801561389a57600080fd5b505af11580156138ae573d6000803e3d6000fd5b505050505b506001016137f6565b5064ffffffffff881660005b8a60ff168160ff1610156138fb576138ef878260ff166028026038011c64ffffffffff1690565b909101906001016138c8565b508b7ffe158a7adba34e256807c8a149028d3162918713c3838afc643ce9f96716ebfd8c8c848c888d60405161393696959493929190614861565b60405180910390a2508284146139575760006139528c8c612fa4565b839055505b60006139648c8c8c612928565b9050613978818a64ffffffffff1689612f6b565b5060005b8151811015613a4257600082828151811061399957613999614190565b602002602001015190506139c56020826affffffffffffffffffffff1916612f4d90919063ffffffff16565b15613a3957606081901c6001600160a01b031663635845338e8e8e8e8e8a8f6040518863ffffffff1660e01b8152600401613a069796959493929190614803565b600060405180830381600087803b158015613a2057600080fd5b505af1158015613a34573d6000803e3d6000fd5b505050505b5060010161397c565b505050505050505050505050565b606060006109388360156000613034565b8215613adb5760208310613a8b57602083048401935060208381613a8757613a87614253565b0692505b8215613adb5760208390036000600019600885021c1990506008850281811c91508351811c9050811987541682821617875550818411613acc575050610244565b50600194909401939182900391015b5b60208210613afd5780518455600190930192601f1990910190602001613adc565b8115610244576000600019600884021c8554835182191691161785555050505050565b7f6f74000000000000000000000000000000000000000000000000000000000000837fffff0000000000000000000000000000000000000000000000000000000000001603613ba657827f0e1f72f429eb97e64878619984a91e687ae91610348b9ff4216782cc96e49d0783604051613b9991906148b0565b60405180910390a2505050565b6000613bb184612ec4565b905060005b8151811015613c84576000828281518110613bd357613bd3614190565b60200260200101519050613bff6040826affffffffffffffffffffff1916612f4d90919063ffffffff16565b15613c7b576040517f9faeaf45000000000000000000000000000000000000000000000000000000008152606082901c90639faeaf4590613c4890899089908990600401614370565b600060405180830381600087803b158015613c6257600080fd5b505af1158015613c76573d6000803e3d6000fd5b505050505b50600101613bb6565b50837f0e1f72f429eb97e64878619984a91e687ae91610348b9ff4216782cc96e49d0784604051613cb591906148b0565b60405180910390a26000613cc98585611ba0565b9050613d22816000613cda8661287c565b67ffffffffffffffff811115613cf257613cf2613f88565b6040519080825280601f01601f191660200182016040528015613d1c576020820181803683370190505b50612f6b565b6000613d2d846128d8565b1115613d4e576000613d3f8686612fa4565b9050613d4c816020613f09565b505b60005b82518110156114f0576000838281518110613d6e57613d6e614190565b60200260200101519050613d9a6080826affffffffffffffffffffff1916612f4d90919063ffffffff16565b15613e16576040517f83b5c95b000000000000000000000000000000000000000000000000000000008152606082901c906383b5c95b90613de3908a908a908a90600401614370565b600060405180830381600087803b158015613dfd57600080fd5b505af1158015613e11573d6000803e3d6000fd5b505050505b50600101613d51565b6040805160208101849052908101829052600090606001611bb5565b600064ffffffffff821115613e7f576040517f7149a3c10000000000000000000000000000000000000000000000000000000081526004810183905260240161021b565b8366ffffffffffffff811660ff851660280260380182901c64ffffffffff16808510613eb15780850382019150613eb9565b848103820391505b5064ffffffffff6038602860ff8816020181811b197fffffffffffffffffffffffffffffffffffffffffffffffffff000000000000009490941690921792909216918416901b1790509392505050565b60006020613f1883601f6144b2565b613f229190614269565b613f2c90846144b2565b90505b8083101561025f5760008355600183019250613f2f565b600060208284031215613f5857600080fd5b81357fffffffff000000000000000000000000000000000000000000000000000000008116811461093857600080fd5b634e487b7160e01b600052604160045260246000fd5b6040805190810167ffffffffffffffff81118282101715613fc157613fc1613f88565b60405290565b604051601f8201601f1916810167ffffffffffffffff81118282101715613ff057613ff0613f88565b604052919050565b8035600381900b811461129a57600080fd5b600082601f83011261401b57600080fd5b8135602067ffffffffffffffff82111561403757614037613f88565b614045818360051b01613fc7565b82815260069290921b8401810191818101908684111561406457600080fd5b8286015b848110156140b157604081890312156140815760008081fd5b614089613f9e565b61409282613ff8565b815261409f858301613ff8565b81860152835291830191604001614068565b509695505050505050565b600080600080608085870312156140d257600080fd5b8435935060208501359250604085013567ffffffffffffffff8111156140f757600080fd5b6141038782880161400a565b949793965093946060013593505050565b60008060006060848603121561412957600080fd5b8335925060208401359150604084013567ffffffffffffffff81111561414e57600080fd5b61415a8682870161400a565b9150509250925092565b60008060006060848603121561417957600080fd5b505081359360208301359350604090920135919050565b634e487b7160e01b600052603260045260246000fd5b634e487b7160e01b600052601160045260246000fd5b818103818111156101b3576101b36141a6565b60008151808452602080850194506020840160005b83811015614200578151875295820195908201906001016141e4565b509495945050505050565b84815260806020820152600061422460808301866141cf565b60ff949094166040830152506060015292915050565b60006020828403121561424c57600080fd5b5051919050565b634e487b7160e01b600052601260045260246000fd5b60008261428657634e487b7160e01b600052601260045260246000fd5b500490565b600381810b9083900b01637fffffff8113637fffffff19821217156101b3576101b36141a6565b600382810b9082900b03637fffffff198112637fffffff821317156101b3576101b36141a6565b60005b838110156142f45781810151838201526020016142dc565b50506000910152565b600081518084526143158160208601602086016142d9565b601f01601f19169290920160200192915050565b85815260a06020820152600061434260a08301876141cf565b60ff86166040840152828103606084015261435d81866142fd565b9150508260808301529695505050505050565b83815260606020820152600061438960608301856141cf565b9050826040830152949350505050565b600082601f8301126143aa57600080fd5b815167ffffffffffffffff8111156143c4576143c4613f88565b6143d76020601f19601f84011601613fc7565b8181528460208386010111156143ec57600080fd5b6109138260208301602087016142d9565b60008060006060848603121561441257600080fd5b835167ffffffffffffffff8082111561442a57600080fd5b61443687838801614399565b945060208601519350604086015191508082111561445357600080fd5b5061415a86828701614399565b634e487b7160e01b600052602160045260246000fd5b8281526000602080830184516020860160005b828110156144a557815184529284019290840190600101614489565b5091979650505050505050565b808201808211156101b3576101b36141a6565b600060ff821660ff81036144db576144db6141a6565b60010192915050565b80516020808301519190811015614505576000198160200360031b1b821691505b50919050565b6000600019820361451e5761451e6141a6565b5060010190565b85815260a06020820152600061453e60a08301876141cf565b828103604084015261455081876142fd565b9050846060840152828103608084015261456a81856142fd565b98975050505050505050565b84815260806020820152600061458f60808301866141cf565b60ff851660408401528281036060840152610d5981856142fd565b6060815260006145bd60608301866141cf565b65ffffffffffff85166020840152828103604084015261143d81856142fd565b8481526080602082015260006145f660808301866141cf565b65ffffffffffff851660408401528281036060840152610d5981856142fd565b80820281158282048414176101b3576101b36141a6565b83815260606020820152600061464660608301856141cf565b905060ff83166040830152949350505050565b60006020828403121561466b57600080fd5b815167ffffffffffffffff81111561468257600080fd5b61091384828501614399565b6060815260006146a160608301866142fd565b60208301949094525060400152919050565b85815260a0602082015260006146cc60a08301876141cf565b60ff95909516604083015250606081019290925260809091015292915050565b82815260406020820152600061091360408301846141cf565b60808152600061471860808301876141cf565b828103602084015261472a81876142fd565b90508460408401528281036060840152610d5981856142fd565b86815260c06020820152600061475d60c08301886141cf565b828103604084015261476f81886142fd565b9050856060840152828103608084015261478981866142fd565b9150508260a0830152979650505050505050565b7fffff0000000000000000000000000000000000000000000000000000000000008416815282602082015260606040820152600061037260608301846142fd565b64ffffffffff8181168382160190808211156147fc576147fc6141a6565b5092915050565b87815260e06020820152600061481c60e08301896141cf565b60ff8816604084015264ffffffffff87811660608501528616608084015260a0830185905282810360c084015261485381856142fd565b9a9950505050505050505050565b60c08152600061487460c08301896141cf565b60ff8816602084015265ffffffffffff8716604084015264ffffffffff8616606084015284608084015282810360a08401526131a581856142fd565b60208152600061093860208301846141cf56fea2646970667358221220b23c7f14b4b3f5844db058868df18109b0b54a5ef1a1e03549b14ec1793c45f464736f6c63430008180033","linkReferences":{"src/libraries/LibAttack.sol":{"LibAttack":[{"start":2071,"length":20}]}}},"methodIdentifiers":{"_msgSender()":"119df25f","_msgValue()":"45ec9354","_world()":"e1af802c","fight(bytes32,bytes32,bytes32)":"e89f7672","move(bytes32,bytes32,(int32,int32)[])":"618652a6","moveAndAttack(bytes32,bytes32,(int32,int32)[],bytes32)":"280f1820","supportsInterface(bytes4)":"01ffc9a7"},"id":319}