{"abi":[{"type":"function","name":"_msgSender","inputs":[],"outputs":[{"name":"sender","type":"address","internalType":"address"}],"stateMutability":"view"},{"type":"function","name":"_msgValue","inputs":[],"outputs":[{"name":"value","type":"uint256","internalType":"uint256"}],"stateMutability":"pure"},{"type":"function","name":"_world","inputs":[],"outputs":[{"name":"","type":"address","internalType":"address"}],"stateMutability":"view"},{"type":"function","name":"deregister","inputs":[{"name":"matchEntity","type":"bytes32","internalType":"bytes32"},{"name":"spawnIndex","type":"uint256","internalType":"uint256"},{"name":"heroEntity","type":"bytes32","internalType":"bytes32"}],"outputs":[{"name":"","type":"bytes32","internalType":"bytes32"}],"stateMutability":"nonpayable"},{"type":"function","name":"supportsInterface","inputs":[{"name":"interfaceId","type":"bytes4","internalType":"bytes4"}],"outputs":[{"name":"","type":"bool","internalType":"bool"}],"stateMutability":"pure"},{"type":"event","name":"Store_DeleteRecord","inputs":[{"name":"tableId","type":"bytes32","indexed":true,"internalType":"ResourceId"},{"name":"keyTuple","type":"bytes32[]","indexed":false,"internalType":"bytes32[]"}],"anonymous":false},{"type":"event","name":"Store_SpliceDynamicData","inputs":[{"name":"tableId","type":"bytes32","indexed":true,"internalType":"ResourceId"},{"name":"keyTuple","type":"bytes32[]","indexed":false,"internalType":"bytes32[]"},{"name":"dynamicFieldIndex","type":"uint8","indexed":false,"internalType":"uint8"},{"name":"start","type":"uint48","indexed":false,"internalType":"uint48"},{"name":"deleteCount","type":"uint40","indexed":false,"internalType":"uint40"},{"name":"encodedLengths","type":"bytes32","indexed":false,"internalType":"EncodedLengths"},{"name":"data","type":"bytes","indexed":false,"internalType":"bytes"}],"anonymous":false},{"type":"error","name":"EncodedLengths_InvalidLength","inputs":[{"name":"length","type":"uint256","internalType":"uint256"}]},{"type":"error","name":"Slice_OutOfBounds","inputs":[{"name":"data","type":"bytes","internalType":"bytes"},{"name":"start","type":"uint256","internalType":"uint256"},{"name":"end","type":"uint256","internalType":"uint256"}]},{"type":"error","name":"Store_IndexOutOfBounds","inputs":[{"name":"length","type":"uint256","internalType":"uint256"},{"name":"accessedIndex","type":"uint256","internalType":"uint256"}]},{"type":"error","name":"Store_InvalidResourceType","inputs":[{"name":"expected","type":"bytes2","internalType":"bytes2"},{"name":"resourceId","type":"bytes32","internalType":"ResourceId"},{"name":"resourceIdString","type":"string","internalType":"string"}]},{"type":"error","name":"Store_InvalidSplice","inputs":[{"name":"startWithinField","type":"uint40","internalType":"uint40"},{"name":"deleteCount","type":"uint40","internalType":"uint40"},{"name":"fieldLength","type":"uint40","internalType":"uint40"}]}],"bytecode":{"object":"0x608060405234801561001057600080fd5b50613674806100206000396000f3fe608060405234801561001057600080fd5b50600436106100675760003560e01c806345ec93541161005057806345ec9354146100b45780637934e082146100c9578063e1af802c146100dc57600080fd5b806301ffc9a71461006c578063119df25f14610094575b600080fd5b61007f61007a36600461303e565b6100e4565b60405190151581526020015b60405180910390f35b61009c61017d565b6040516001600160a01b03909116815260200161008b565b36601f1901355b60405190815260200161008b565b6100bb6100d7366004613080565b61018c565b61009c6105dc565b60007fffffffff0000000000000000000000000000000000000000000000000000000082167fb5dee12700000000000000000000000000000000000000000000000000000000148061017757507fffffffff0000000000000000000000000000000000000000000000000000000082167f01ffc9a700000000000000000000000000000000000000000000000000000000145b92915050565b60006101876105e6565b905090565b600061019784610618565b156101e95760405162461bcd60e51b815260206004820152601560248201527f6d6174636820616c72656164792073746172746564000000000000000000000060448201526064015b60405180910390fd5b60006101fc856101f761017d565b6106b2565b905060008190036102755760405162461bcd60e51b815260206004820152602760248201527f73656e646572206973206e6f74207265676973746572656420666f722074686960448201527f73206d617463680000000000000000000000000000000000000000000000000060648201526084016101e0565b600061028086610760565b905060005b81518110156103105760008282815181106102a2576102a26130ac565b602002602001015190508084036103075782600184516102c291906130d8565b815181106102d2576102d26130ac565b60200260200101518383815181106102ec576102ec6130ac565b602002602001018181525050610301886107e9565b50610310565b50600101610285565b508161031c8787610860565b146103695760405162461bcd60e51b815260206004820152601360248201527f696e76616c696420737061776e20696e6465780000000000000000000000000060448201526064016101e0565b6000610374876108fc565b90506000610382828861098e565b9050600061038f89610a97565b90506000805b82518110156104075760008382815181106103b2576103b26130ac565b6020026020010151905060006103c88d83610b09565b86518151919250600391820b910b1480156103f05750856020015160030b816020015160030b145b156103fd57509150610407565b5050600101610395565b50806104555760405162461bcd60e51b815260206004820152601660248201527f706c6179657220737061776e206e6f7420666f756e640000000000000000000060448201526064016101e0565b6104608a8288610bd0565b61046a8a82610c09565b60005b82518110156104f857600083828151811061048a5761048a6130ac565b602002602001015190508281036104ef5783600185516104aa91906130d8565b815181106104ba576104ba6130ac565b60200260200101518483815181106104d4576104d46130ac565b6020026020010181815250506104e98c610c27565b506104f8565b5060010161046d565b5060006105058b8a610c9a565b90508681146105565760405162461bcd60e51b815260206004820152601360248201527f6865726f206f776e6572206d69736d617463680000000000000000000000000060448201526064016101e0565b6105608b8a610c09565b600061056b8c610d33565b9050801561059457600061057e8d610dc4565b90506105928161058c61017d565b84610e61565b505b6105a58c6105a061017d565b610feb565b6105af8c8c611086565b6105b98c89611113565b6105c38c8961119d565b6105cd8c89611227565b50505050505050509392505050565b60006101876112b1565b7fffffffffffffffffffffffffffffffffffffffffffffffffffffffffffffffcc36013560601c806106155750335b90565b604080516001808252818301909252600091829190602080830190803683370190505090508281600081518110610651576106516130ac565b602090810291909101015260006106aa7f746200000000000000000000000000004d61746368436f6e66696700000000008360017eb40600202020202014000000000000000000000000000000000000000000006112bb565b949350505050565b6040805160028082526060820183526000928392919060208301908036833701905050905083816000815181106106eb576106eb6130ac565b602002602001018181525050826001600160a01b031660001b81600181518110610717576107176130ac565b602090810291909101015260006107577f746200000000000000000000000000004d61746368506c6179657200000000008383630100080160dd1b6112bb565b95945050505050565b6040805160018082528183019092526060916000919060208083019080368337019050509050828160008151811061079a5761079a6130ac565b602090810291909101015260006107d27f746200000000000000000000000000004d61746368506c6179657273000000008383611378565b90506106aa6107e48260008451611440565b6114ce565b60408051600180825281830190925260009160208083019080368337019050509050818160008151811061081f5761081f6130ac565b60200260200101818152505061085c7f746200000000000000000000000000004d61746368506c61796572730000000060001b82600060206114df565b5050565b604080516002808252606082018352600092839291906020830190803683370190505090508381600081518110610899576108996130ac565b6020026020010181815250508260001b816001815181106108bc576108bc6130ac565b602090810291909101015260006107577f74620000000000000000000000000000537061776e52657365727665644279008383630100080160dd1b6112bb565b604080516001808252818301909252600091829190602080830190803683370190505090508281600081518110610935576109356130ac565b602090810291909101015260006106aa7f746200000000000000000000000000004d61746368436f6e66696700000000008360037eb40600202020202014000000000000000000000000000000000000000000006112bb565b6040805180820182526000808252602082018190528251600280825260608201909452919290919081602001602082028036833701905050905083816000815181106109dc576109dc6130ac565b6020026020010181815250508260001b816001815181106109ff576109ff6130ac565b602090810291909101015260008080610a587f746200000000000000000000000000004c6576656c506f736974696f6e000000857e08020004040000000000000000000000000000000000000000000000000000611591565b6040805180820190915260008082526020808301918252850151602486015160e090811d909252901d815292955090935091505b979650505050505050565b60408051600180825281830190925260609160009190602080830190803683370190505090508281600081518110610ad157610ad16130ac565b602090810291909101015260006107d27f746200000000000000000000000000004d61746368537061776e506f696e74738383611378565b604080518082018252600080825260208201819052825160028082526060820190945291929091908160200160208202803683370190505090508381600081518110610b5757610b576130ac565b6020026020010181815250508281600181518110610b7757610b776130ac565b602090810291909101015260008080610a587f74620000000000000000000000000000506f736974696f6e0000000000000000857e08020004040000000000000000000000000000000000000000000000000000611591565b6000610bdc8484611661565b9050818103610c0357610bef84846116fa565b610bf98484611784565b610c03848461180e565b50505050565b610c138282611898565b610c1d82826118ac565b61085c8282611936565b604080516001808252818301909252600091602080830190803683370190505090508181600081518110610c5d57610c5d6130ac565b60200260200101818152505061085c7f746200000000000000000000000000004d61746368537061776e506f696e747360001b82600060206114df565b604080516002808252606082018352600092839291906020830190803683370190505090508381600081518110610cd357610cd36130ac565b6020026020010181815250508281600181518110610cf357610cf36130ac565b602090810291909101015260006107577f746200000000000000000000000000004f776e656442790000000000000000008383630100080160dd1b6112bb565b604080516001808252818301909252600091829190602080830190803683370190505090508281600081518110610d6c57610d6c6130ac565b602090810291909101015260006106aa7f746200000000000000000000000000004d6174636853776565707374616b650083837e200101200000000000000000000000000000000000000000000000000000006112bb565b604080516001808252818301909252600091829190602080830190803683370190505090508281600081518110610dfd57610dfd6130ac565b60209081029190910101526000610e567f746200000000000000000000000000004d61746368436f6e66696700000000008360057eb40600202020202014000000000000000000000000000000000000000000006112bb565b60601c949350505050565b6000610e6b6119c0565b604080516001600160a01b038681166024830152604480830187905283518084039091018152606490920183526020820180517bffffffffffffffffffffffffffffffffffffffffffffffffffffffff167fa9059cbb0000000000000000000000000000000000000000000000000000000017905291517f6e2d44ae0000000000000000000000000000000000000000000000000000000081529293508692600092841691636e2d44ae91610f269187918690600401613151565b6000604051808303816000875af1158015610f45573d6000803e3d6000fd5b505050506040513d6000823e601f3d908101601f19168201604052610f6d9190810190613201565b50905080610fe35760405162461bcd60e51b815260206004820152602160248201527f746f6b656e207472616e736665722066726f6d20657363726f77206661696c6560448201527f640000000000000000000000000000000000000000000000000000000000000060648201526084016101e0565b505050505050565b6040805160028082526060820183526000926020830190803683370190505090508281600081518110611020576110206130ac565b602002602001018181525050816001600160a01b031660001b8160018151811061104c5761104c6130ac565b60209081029190910101526110817f746200000000000000000000000000004d61746368506c61796572000000000082611a28565b505050565b60408051600280825260608201835260009260208301908036833701905050905082816000815181106110bb576110bb6130ac565b6020026020010181815250508160001b816001815181106110de576110de6130ac565b60209081029190910101526110817f74620000000000000000000000000000537061776e526573657276656442790082611a28565b6040805160028082526060820183526000926020830190803683370190505090508281600081518110611148576111486130ac565b6020026020010181815250508181600181518110611168576111686130ac565b60209081029190910101526110817f746200000000000000000000000000004372656174656442794164647265737382611a28565b60408051600280825260608201835260009260208301908036833701905050905082816000815181106111d2576111d26130ac565b60200260200101818152505081816001815181106111f2576111f26130ac565b60209081029190910101526110817f74620000000000000000000000000000506c617965725265616479000000000082611a28565b604080516002808252606082018352600092602083019080368337019050509050828160008151811061125c5761125c6130ac565b602002602001018181525050818160018151811061127c5761127c6130ac565b60209081029190910101526110817f74620000000000000000000000000000506c617965720000000000000000000082611a28565b6000610187611acc565b6000806112c6611acc565b9050306001600160a01b038216036112ec576112e486868686611b0b565b9150506106aa565b6040517f8c364d590000000000000000000000000000000000000000000000000000000081526001600160a01b03821690638c364d5990611337908990899089908990600401613293565b602060405180830381865afa158015611354573d6000803e3d6000fd5b505050506040513d601f19601f820116820180604052508101906112e491906132c2565b60606000611384611acc565b9050306001600160a01b038216036113a9576113a1858585611b38565b915050611439565b6040517f1e7889770000000000000000000000000000000000000000000000000000000081526001600160a01b03821690631e788977906113f2908890889088906004016132db565b600060405180830381865afa15801561140f573d6000803e3d6000fd5b505050506040513d6000823e601f3d908101601f191682016040526113a19190810190613307565b505b9392505050565b6000818311806114505750835182115b1561148d578383836040517f23230fa30000000000000000000000000000000000000000000000000000000081526004016101e09392919061333c565b6020840161149b8482613361565b905060006114a985856130d8565b6fffffffffffffffffffffffffffffffff1660809290921b9190911795945050505050565b606060006114398360206000611b72565b60006114e9611acc565b9050306001600160a01b0382160361150c5761150785858585611bed565b61158a565b6040517fd9c03a040000000000000000000000000000000000000000000000000000000081526001600160a01b0382169063d9c03a0490611557908890889088908890600401613293565b600060405180830381600087803b15801561157157600080fd5b505af1158015611585573d6000803e3d6000fd5b505050505b5050505050565b60606000606060006115a1611acc565b9050306001600160a01b038216036115ca576115be878787611c46565b93509350935050611658565b6040517f419b58fd0000000000000000000000000000000000000000000000000000000081526001600160a01b0382169063419b58fd90611613908a908a908a90600401613374565b600060405180830381865afa158015611630573d6000803e3d6000fd5b505050506040513d6000823e601f3d908101601f191682016040526115be919081019061338d565b93509350939050565b60408051600280825260608201835260009283929190602083019080368337019050509050838160008151811061169a5761169a6130ac565b60200260200101818152505082816001815181106116ba576116ba6130ac565b602090810291909101015260006107577f74620000000000000000000000000000436861726765650000000000000000008383630100080160dd1b6112bb565b604080516002808252606082018352600092602083019080368337019050509050828160008151811061172f5761172f6130ac565b602002602001018181525050818160018151811061174f5761174f6130ac565b60209081029190910101526110817f746200000000000000000000000000004368617267657273000000000000000082611a28565b60408051600280825260608201835260009260208301908036833701905050905082816000815181106117b9576117b96130ac565b60200260200101818152505081816001815181106117d9576117d96130ac565b60209081029190910101526110817f746200000000000000000000000000004368617267656500000000000000000082611a28565b6040805160028082526060820183526000926020830190803683370190505090508281600081518110611843576118436130ac565b6020026020010181815250508181600181518110611863576118636130ac565b60209081029190910101526110817f746200000000000000000000000000004368617267656442795374617274000082611a28565b6118a28282611d4e565b61085c8282611db1565b60408051600280825260608201835260009260208301908036833701905050905082816000815181106118e1576118e16130ac565b6020026020010181815250508181600181518110611901576119016130ac565b60209081029190910101526110817f74620000000000000000000000000000436f6d6261740000000000000000000082611a28565b604080516002808252606082018352600092602083019080368337019050509050828160008151811061196b5761196b6130ac565b602002602001018181525050818160018151811061198b5761198b6130ac565b60209081029190910101526110817f746200000000000000000000000000004f776e6564427900000000000000000082611a28565b604080516000808252602082019092526000611a1e7f74620000000000000000000000000000536b79506f6f6c436f6e6669670000008360037e7d0600012020141414000000000000000000000000000000000000000000006112bb565b60601c9392505050565b6000611a32611acc565b9050306001600160a01b03821603611a4e576110818383611e3b565b6040517f505a181d0000000000000000000000000000000000000000000000000000000081526001600160a01b0382169063505a181d90611a9590869086906004016133fa565b600060405180830381600087803b158015611aaf57600080fd5b505af1158015611ac3573d6000803e3d6000fd5b50505050505050565b7f629a4c26e296b22a8e0856e9f6ecb2d1008d7e00081111962cd175fa7488e175546000906001600160a01b031680611b06573391505090565b919050565b6000610757611b1a8686611e4e565b60ff858116601b0360080285901c16611b338587611ea4565b611ed5565b60606106aa611b48858585611f26565b6000611b6d85611b588989611fa6565b9060ff166028026038011c64ffffffffff1690565b611fb9565b60606000611b808560801c90565b90506fffffffffffffffffffffffffffffffff85166000858281611ba657611ba6613413565b04905060405193506020840160208202810160405281855260005b82811015611be1578451871c825293870193602090910190600101611bc1565b50505050509392505050565b6000611bf98585611fa6565b90506000611c16828560ff166028026038011c64ffffffffff1690565b9050610fe3868686611c2f8764ffffffffff87166130d8565b604080516000815260208101909152889088611fdc565b6060600060606000611c5785612416565b9050611c64878783612439565b93506000611c7186612472565b90508015611d4357611c838888611fa6565b935066ffffffffffffff841667ffffffffffffffff811115611ca757611ca76130eb565b6040519080825280601f01601f191660200182016040528015611cd1576020820181803683370190505b5092506020830160005b828160ff161015611d40576000611cf38b8b84611f26565b90506000611d10888460ff166028026038011c64ffffffffff1690565b9050611d1f82600083876124af565b611d298185613361565b935050508080611d3890613429565b915050611cdb565b50505b505093509350939050565b6000611d5a8383610b09565b90506000611d7b83611d75868560000151866020015161257b565b90612655565b805190915015611d9e57611d99848360000151846020015184612723565b610c03565b610c0384836000015184602001516127e6565b6040805160028082526060820183526000926020830190803683370190505090508281600081518110611de657611de66130ac565b6020026020010181815250508181600181518110611e0657611e066130ac565b60209081029190910101526110817f74620000000000000000000000000000506f736974696f6e000000000000000082611a28565b61085c8282611e498561289e565b612923565b60008282604051602001611e63929190613448565b60408051601f1981840301815291905280516020909101207f86425bff6b57326c7859e89024fe4f238ca327a1ae4a230180dd2f0e88aaa7d9189392505050565b600080805b8360ff1681101561143757611ecb60ff601b83900360080287901c1683613361565b9150600101611ea9565b600060208210611efb57602082048401935060208281611ef757611ef7613413565b0691505b508254600882021b602082900380841115611437576001850154600882021c82179150509392505050565b60008383604051602001611f3b929190613448565b604051602081830303815290604052805190602001208260f81b7effffffffffffffffffffffffffffffffffffffffffffffffffffffffffffff19167f3b4102da22e32d82fc925482184f16c09fd4281692720b87d124aef6da48a0f1181860001c90509392505050565b6000611439611fb58484612c22565b5490565b60405160208101601f19603f8484010116604052828252611437858585846124af565b7f7462000000000000000000000000000000000000000000000000000000000000877fffff000000000000000000000000000000000000000000000000000000000000161461209c577f7462000000000000000000000000000000000000000000000000000000000000878860405160200161205a91815260200190565b60408051601f19818403018152908290527f31b466830000000000000000000000000000000000000000000000000000000082526101e0939291600401613484565b60006120b7828760ff166028026038011c64ffffffffff1690565b9050600083518564ffffffffff16836120d091906130d8565b6120da9190613361565b90508082141580156120fc5750816120f286886134c5565b64ffffffffff1614155b1561214c576040517fa65010b400000000000000000000000000000000000000000000000000000000815264ffffffffff80881660048301528087166024830152831660448201526064016101e0565b818664ffffffffff16111561219d576040517f7e8578d30000000000000000000000000000000000000000000000000000000081526004810183905264ffffffffff871660248201526044016101e0565b60006121aa848984612c78565b905060006121b78b612d46565b905060005b81518110156122825760008282815181106121d9576121d96130ac565b602002602001015190506122056010826affffffffffffffffffffff1916612dcf90919063ffffffff16565b1561227957606081901c6001600160a01b03166355eb5a288e8e8e8e8e8d8f6040518863ffffffff1660e01b815260040161224697969594939291906134ea565b600060405180830381600087803b15801561226057600080fd5b505af1158015612274573d6000803e3d6000fd5b505050505b506001016121bc565b5064ffffffffff881660005b8a60ff168160ff1610156122c1576122b5878260ff166028026038011c64ffffffffff1690565b9091019060010161228e565b508b7ffe158a7adba34e256807c8a149028d3162918713c3838afc643ce9f96716ebfd8c8c848c888d6040516122fc96959493929190613548565b60405180910390a25082841461231d5760006123188c8c612c22565b839055505b600061232a8c8c8c611f26565b905061233e818a64ffffffffff1689612ded565b5060005b815181101561240857600082828151811061235f5761235f6130ac565b6020026020010151905061238b6020826affffffffffffffffffffff1916612dcf90919063ffffffff16565b156123ff57606081901c6001600160a01b031663635845338e8e8e8e8e8a8f6040518863ffffffff1660e01b81526004016123cc97969594939291906134ea565b600060405180830381600087803b1580156123e657600080fd5b505af11580156123fa573d6000803e3d6000fd5b505050505b50600101612342565b505050505050505050505050565b60006008612426600260206130d8565b61243091906135a4565b9190911c919050565b6060816000036124585750604080516020810190915260008152611439565b60006124648585611e4e565b905061075781600085611fb9565b60006008600180612485600260206130d8565b61248f91906130d8565b61249991906130d8565b6124a391906135a4565b8260ff911c1692915050565b821561253657602083106124d9576020830484019350602083816124d5576124d5613413565b0692505b82156125365760208390036000818410156124fc5750600019600884021c612506565b50600019600882021c5b8554600886021b818451168219821617845250818411612527575050610c03565b50600194909401939182900391015b5b602082106125585783548152600190930192601f1990910190602001612537565b8115610c03576000600019600884021c8251865482191691161782525050505050565b604080516003808252608082019092526060916000919060208201848036833701905050905084816000815181106125b5576125b56130ac565b6020026020010181815250508360030b60001b816001815181106125db576125db6130ac565b6020026020010181815250508260030b60001b81600281518110612601576126016130ac565b602090810291909101015260006126397f74620000000000000000000000000000456e7469746965734174506f736974698383611378565b905061264b6107e48260008451611440565b9695505050505050565b60606000835167ffffffffffffffff811115612673576126736130eb565b60405190808252806020026020018201604052801561269c578160200160208202803683370190505b5090506000805b855181101561271957848682815181106126bf576126bf6130ac565b602002602001015114612711578581815181106126de576126de6130ac565b60200260200101518383815181106126f8576126f86130ac565b60209081029190910101528161270d816135bb565b9250505b6001016126a3565b5081529392505050565b6040805160038082526080820190925260009160208201606080368337019050509050848160008151811061275a5761275a6130ac565b6020026020010181815250508360030b60001b81600181518110612780576127806130ac565b6020026020010181815250508260030b60001b816002815181106127a6576127a66130ac565b602090810291909101015261158a7f74620000000000000000000000000000456e7469746965734174506f736974698260006127e186612e03565b612e13565b6040805160038082526080820190925260009160208201606080368337019050509050838160008151811061281d5761281d6130ac565b6020026020010181815250508260030b60001b81600181518110612843576128436130ac565b6020026020010181815250508160030b60001b81600281518110612869576128696130ac565b6020908102919091010152610c037f74620000000000000000000000000000456e7469746965734174506f7369746982611a28565b60007f8b9d8c8b908d9affffffffffffffffffab9e9d939a8d0000000000000000000082016128ed57507e60030220202000000000000000000000000000000000000000000000000000919050565b61017761291a7f746273746f72650000000000000000005461626c65730000000000000000000084612e86565b60206000611ed5565b7f6f74000000000000000000000000000000000000000000000000000000000000837fffff00000000000000000000000000000000000000000000000000000000000016036129a957827f0e1f72f429eb97e64878619984a91e687ae91610348b9ff4216782cc96e49d078360405161299c91906135d5565b60405180910390a2505050565b60006129b484612d46565b905060005b8151811015612a875760008282815181106129d6576129d66130ac565b60200260200101519050612a026040826affffffffffffffffffffff1916612dcf90919063ffffffff16565b15612a7e576040517f9faeaf45000000000000000000000000000000000000000000000000000000008152606082901c90639faeaf4590612a4b90899089908990600401613374565b600060405180830381600087803b158015612a6557600080fd5b505af1158015612a79573d6000803e3d6000fd5b505050505b506001016129b9565b50837f0e1f72f429eb97e64878619984a91e687ae91610348b9ff4216782cc96e49d0784604051612ab891906135d5565b60405180910390a26000612acc8585611e4e565b9050612b25816000612add86612416565b67ffffffffffffffff811115612af557612af56130eb565b6040519080825280601f01601f191660200182016040528015612b1f576020820181803683370190505b50612ded565b6000612b3084612472565b1115612b51576000612b428686612c22565b9050612b4f816020612ea2565b505b60005b8251811015610fe3576000838281518110612b7157612b716130ac565b60200260200101519050612b9d6080826affffffffffffffffffffff1916612dcf90919063ffffffff16565b15612c19576040517f83b5c95b000000000000000000000000000000000000000000000000000000008152606082901c906383b5c95b90612be6908a908a908a90600401613374565b600060405180830381600087803b158015612c0057600080fd5b505af1158015612c14573d6000803e3d6000fd5b505050505b50600101612b54565b60008282604051602001612c37929190613448565b60408051601f1981840301815291905280516020909101207f14e2fcc58e58e68ec7edc30c8d50dccc3ce2714a623ec81f46b6a63922d76569189392505050565b600064ffffffffff821115612cbc576040517f7149a3c1000000000000000000000000000000000000000000000000000000008152600481018390526024016101e0565b8366ffffffffffffff811660ff851660280260380182901c64ffffffffff16808510612cee5780850382019150612cf6565b848103820391505b5064ffffffffff6038602860ff8816020181811b197fffffffffffffffffffffffffffffffffffffffffffffffffff000000000000009490941690921792909216918416901b1790509392505050565b60408051600180825281830190925260609160009190602080830190803683370190505090508281600081518110612d8057612d806130ac565b60209081029190910101526000612db87f746273746f726500000000000000000053746f7265486f6f6b730000000000008383611b38565b90506106aa612dca8260008451611440565b612edf565b60008160ff1682612de08560581c90565b1660ff1614905092915050565b61108183838351612dfe8560200190565b612ef0565b6060816114398160206000612faf565b6000612e1d611acc565b9050306001600160a01b03821603612e3b5761150785858585613003565b6040517fef6ea8620000000000000000000000000000000000000000000000000000000081526001600160a01b0382169063ef6ea862906115579088908890889088906004016135e8565b6040805160208101849052908101829052600090606001611e63565b60006020612eb183601f613361565b612ebb919061361c565b612ec59084613361565b90505b808310156110815760008355600183019250612ec8565b606060006114398360156000611b72565b8215612f6a5760208310612f1a57602083048401935060208381612f1657612f16613413565b0692505b8215612f6a5760208390036000600019600885021c1990506008850281811c91508351811c9050811987541682821617875550818411612f5b575050610c03565b50600194909401939182900391015b5b60208210612f8c5780518455600190930192601f1990910190602001612f6b565b8115610c03576000600019600884021c8554835182191691161785555050505050565b82516060906000612fc085836135a4565b9050604051925060208301601f19603f83860101166040528184526000602088015b84821015611be1578051871b83529187019160019190910190602001612fe2565b600061300f8585611fa6565b9050600061302c828560ff166028026038011c64ffffffffff1690565b9050610fe38686866000858888611fdc565b60006020828403121561305057600080fd5b81357fffffffff000000000000000000000000000000000000000000000000000000008116811461143957600080fd5b60008060006060848603121561309557600080fd5b505081359360208301359350604090920135919050565b634e487b7160e01b600052603260045260246000fd5b634e487b7160e01b600052601160045260246000fd5b81810381811115610177576101776130c2565b634e487b7160e01b600052604160045260246000fd5b60005b8381101561311c578181015183820152602001613104565b50506000910152565b6000815180845261313d816020860160208601613101565b601f01601f19169290920160200192915050565b6001600160a01b03841681526060602082015260006131736060830185613125565b9050826040830152949350505050565b600082601f83011261319457600080fd5b815167ffffffffffffffff808211156131af576131af6130eb565b604051601f8301601f19908116603f011681019082821181831017156131d7576131d76130eb565b816040528381528660208588010111156131f057600080fd5b61264b846020830160208901613101565b6000806040838503121561321457600080fd5b8251801515811461322457600080fd5b602084015190925067ffffffffffffffff81111561324157600080fd5b61324d85828601613183565b9150509250929050565b60008151808452602080850194506020840160005b838110156132885781518752958201959082019060010161326c565b509495945050505050565b8481526080602082015260006132ac6080830186613257565b60ff949094166040830152506060015292915050565b6000602082840312156132d457600080fd5b5051919050565b8381526060602082015260006132f46060830185613257565b905060ff83166040830152949350505050565b60006020828403121561331957600080fd5b815167ffffffffffffffff81111561333057600080fd5b6106aa84828501613183565b60608152600061334f6060830186613125565b60208301949094525060400152919050565b80820180821115610177576101776130c2565b8381526060602082015260006131736060830185613257565b6000806000606084860312156133a257600080fd5b835167ffffffffffffffff808211156133ba57600080fd5b6133c687838801613183565b94506020860151935060408601519150808211156133e357600080fd5b506133f086828701613183565b9150509250925092565b8281526040602082015260006106aa6040830184613257565b634e487b7160e01b600052601260045260246000fd5b600060ff821660ff810361343f5761343f6130c2565b60010192915050565b8281526000602080830184516020860160005b828110156134775781518452928401929084019060010161345b565b5091979650505050505050565b7fffff000000000000000000000000000000000000000000000000000000000000841681528260208201526060604082015260006107576060830184613125565b64ffffffffff8181168382160190808211156134e3576134e36130c2565b5092915050565b87815260e06020820152600061350360e0830189613257565b60ff8816604084015264ffffffffff87811660608501528616608084015260a0830185905282810360c084015261353a8185613125565b9a9950505050505050505050565b60c08152600061355b60c0830189613257565b60ff8816602084015265ffffffffffff8716604084015264ffffffffff8616606084015284608084015282810360a08401526135978185613125565b9998505050505050505050565b8082028115828204841417610177576101776130c2565b600060001982036135ce576135ce6130c2565b5060010190565b6020815260006114396020830184613257565b8481526080602082015260006136016080830186613257565b60ff851660408401528281036060840152610a8c8185613125565b60008261363957634e487b7160e01b600052601260045260246000fd5b50049056fea2646970667358221220db03f554fdf0c913fdd9277ba0a9c049afa5d51900c24e3d36a438aac599765b64736f6c63430008180033","linkReferences":{}},"methodIdentifiers":{"_msgSender()":"119df25f","_msgValue()":"45ec9354","_world()":"e1af802c","deregister(bytes32,uint256,bytes32)":"7934e082","supportsInterface(bytes4)":"01ffc9a7"},"id":322}