{"abi":[{"type":"function","name":"_msgSender","inputs":[],"outputs":[{"name":"sender","type":"address","internalType":"address"}],"stateMutability":"view"},{"type":"function","name":"_msgValue","inputs":[],"outputs":[{"name":"value","type":"uint256","internalType":"uint256"}],"stateMutability":"pure"},{"type":"function","name":"_world","inputs":[],"outputs":[{"name":"","type":"address","internalType":"address"}],"stateMutability":"view"},{"type":"function","name":"supportsInterface","inputs":[{"name":"interfaceId","type":"bytes4","internalType":"bytes4"}],"outputs":[{"name":"","type":"bool","internalType":"bool"}],"stateMutability":"pure"},{"type":"function","name":"toggleReady","inputs":[{"name":"matchEntity","type":"bytes32","internalType":"bytes32"}],"outputs":[],"stateMutability":"nonpayable"},{"type":"event","name":"Store_DeleteRecord","inputs":[{"name":"tableId","type":"bytes32","indexed":true,"internalType":"ResourceId"},{"name":"keyTuple","type":"bytes32[]","indexed":false,"internalType":"bytes32[]"}],"anonymous":false},{"type":"event","name":"Store_SpliceStaticData","inputs":[{"name":"tableId","type":"bytes32","indexed":true,"internalType":"ResourceId"},{"name":"keyTuple","type":"bytes32[]","indexed":false,"internalType":"bytes32[]"},{"name":"start","type":"uint48","indexed":false,"internalType":"uint48"},{"name":"data","type":"bytes","indexed":false,"internalType":"bytes"}],"anonymous":false},{"type":"error","name":"Slice_OutOfBounds","inputs":[{"name":"data","type":"bytes","internalType":"bytes"},{"name":"start","type":"uint256","internalType":"uint256"},{"name":"end","type":"uint256","internalType":"uint256"}]}],"bytecode":{"object":"0x608060405234801561001057600080fd5b50611f8c806100206000396000f3fe608060405234801561001057600080fd5b50600436106100675760003560e01c8063220ca1f611610050578063220ca1f6146100c157806345ec9354146100d6578063e1af802c146100e957600080fd5b806301ffc9a71461006c578063119df25f14610094575b600080fd5b61007f61007a366004611b0a565b6100f1565b60405190151581526020015b60405180910390f35b61009c61018a565b60405173ffffffffffffffffffffffffffffffffffffffff909116815260200161008b565b6100d46100cf366004611b4c565b610199565b005b604051601f19360135815260200161008b565b61009c61025f565b60007fffffffff0000000000000000000000000000000000000000000000000000000082167fb5dee12700000000000000000000000000000000000000000000000000000000148061018457507fffffffff0000000000000000000000000000000000000000000000000000000082167f01ffc9a700000000000000000000000000000000000000000000000000000000145b92915050565b6000610194610269565b905090565b60006101ac826101a761018a565b61029b565b905060006101ba83836102ae565b63ffffffff161161022c576040517f08c379a000000000000000000000000000000000000000000000000000000000815260206004820152601660248201527f796f7520617265206e6f7420726567697374657265640000000000000000000060448201526064015b60405180910390fd5b610236828261036b565b6000036102555761024882824261040d565b610251826104ce565b5050565b61025182826105a9565b6000610194610638565b7fffffffffffffffffffffffffffffffffffffffffffffffffffffffffffffffcc36013560601c806102985750335b90565b60006102a78383610642565b9392505050565b6040805160028082526060820183526000928392919060208301908036833701905050905083816000815181106102e7576102e7611b7b565b602002602001018181525050828160018151811061030757610307611b7b565b6020908102919091010152600061035f7f74620000000000000000000000000000506c617965720000000000000000000083837e040100040000000000000000000000000000000000000000000000000000006106f0565b60e01c95945050505050565b6040805160028082526060820183526000928392919060208301908036833701905050905083816000815181106103a4576103a4611b7b565b60200260200101818152505082816001815181106103c4576103c4611b7b565b602090810291909101015260006104047f74620000000000000000000000000000506c61796572526561647900000000008383630100080160dd1b6106f0565b95945050505050565b604080516002808252606082018352600092602083019080368337019050509050838160008151811061044257610442611b7b565b602002602001018181525050828160018151811061046257610462611b7b565b6020026020010181815250506104c87f74620000000000000000000000000000506c617965725265616479000000000060001b826000856040516020016104ab91815260200190565b60408051601f19818403018152919052630100080160dd1b6107cf565b50505050565b60006104d98261089f565b905080158015906104ea5750804210155b156102515760006104fa83610918565b90506000610507846109aa565b90506000805b825181101561055d57600083828151811061052a5761052a611b7b565b602002602001015190506000610540888361036b565b1115610554578261055081611ba7565b9350505b5060010161050d565b50610588837f537061776e536574746c656d656e740000000000000000000000000000000000610a33565b81036105a2576105a28561059d600542611bc1565b610ad1565b5050505050565b60408051600280825260608201835260009260208301908036833701905050905082816000815181106105de576105de611b7b565b60200260200101818152505081816001815181106105fe576105fe611b7b565b60209081029190910101526106337f74620000000000000000000000000000506c617965725265616479000000000082610b85565b505050565b6000610194610c43565b60408051600280825260608201835260009283929190602083019080368337019050509050838160008151811061067b5761067b611b7b565b6020026020010181815250508273ffffffffffffffffffffffffffffffffffffffff1660001b816001815181106106b4576106b4611b7b565b602090810291909101015260006104047f746200000000000000000000000000004d61746368506c6179657200000000008383630100080160dd1b5b6000806106fb610c43565b90503073ffffffffffffffffffffffffffffffffffffffff82160361072e5761072686868686610c8f565b9150506107c7565b6040517f8c364d5900000000000000000000000000000000000000000000000000000000815273ffffffffffffffffffffffffffffffffffffffff821690638c364d5990610786908990899089908990600401611c10565b602060405180830381865afa1580156107a3573d6000803e3d6000fd5b505050506040513d601f19601f820116820180604052508101906107269190611c3f565b949350505050565b60006107d9610c43565b90503073ffffffffffffffffffffffffffffffffffffffff82160361080a576108058686868686610cbc565b610897565b6040517f390baae000000000000000000000000000000000000000000000000000000000815273ffffffffffffffffffffffffffffffffffffffff82169063390baae0906108649089908990899089908990600401611ca8565b600060405180830381600087803b15801561087e57600080fd5b505af1158015610892573d6000803e3d6000fd5b505050505b505050505050565b6040805160018082528183019092526000918291906020808301908036833701905050905082816000815181106108d8576108d8611b7b565b602090810291909101015260006107c77f746200000000000000000000000000004d6174636852656164790000000000008383630100080160dd1b6106f0565b60408051600180825281830190925260009182919060208083019080368337019050509050828160008151811061095157610951611b7b565b602090810291909101015260006107c77f746200000000000000000000000000004d61746368436f6e66696700000000008360037eb40600202020202014000000000000000000000000000000000000000000006106f0565b604080516001808252818301909252606091600091906020808301908036833701905050905082816000815181106109e4576109e4611b7b565b60209081029190910101526000610a1c7f746200000000000000000000000000004d61746368506c6179657273000000008383610cd1565b90506107c7610a2e8260008451610db2565b610e40565b604080516002808252606082018352600092839291906020830190803683370190505090508381600081518110610a6c57610a6c611b7b565b6020026020010181815250508281600181518110610a8c57610a8c611b7b565b60209081029190910101526000610ac47f746200000000000000000000000000004c6576656c54656d706c61746573496e8383610e51565b6020900495945050505050565b604080516001808252818301909252600091602080830190803683370190505090508281600081518110610b0757610b07611b7b565b6020026020010181815250506106337f746200000000000000000000000000004d61746368436f6e666967000000000060001b82600185604051602001610b5091815260200190565b60408051601f198184030181529190527eb40600202020202014000000000000000000000000000000000000000000006107cf565b6000610b8f610c43565b90503073ffffffffffffffffffffffffffffffffffffffff821603610bb8576106338383610f1d565b6040517f505a181d00000000000000000000000000000000000000000000000000000000815273ffffffffffffffffffffffffffffffffffffffff82169063505a181d90610c0c9086908690600401611d05565b600060405180830381600087803b158015610c2657600080fd5b505af1158015610c3a573d6000803e3d6000fd5b50505050505050565b7f629a4c26e296b22a8e0856e9f6ecb2d1008d7e00081111962cd175fa7488e1755460009073ffffffffffffffffffffffffffffffffffffffff1680610c8a573391505090565b919050565b6000610404610c9e8686610f30565b60ff858116601b0360080285901c16610cb78587610f86565b610fb7565b6105a28585610ccb8487610f86565b85611008565b60606000610cdd610c43565b90503073ffffffffffffffffffffffffffffffffffffffff821603610d0f57610d078585856112a3565b9150506102a7565b6040517f1e78897700000000000000000000000000000000000000000000000000000000815273ffffffffffffffffffffffffffffffffffffffff821690631e78897790610d6590889088908890600401611d1e565b600060405180830381865afa158015610d82573d6000803e3d6000fd5b505050506040513d6000823e601f3d908101601f19168201604052610d079190810190611d4a565b509392505050565b600081831180610dc25750835182115b15610dff578383836040517f23230fa300000000000000000000000000000000000000000000000000000000815260040161022393929190611df7565b60208401610e0d8482611bc1565b90506000610e1b8585611e1c565b6fffffffffffffffffffffffffffffffff1660809290921b9190911795945050505050565b606060006102a783602060006112dd565b600080610e5c610c43565b90503073ffffffffffffffffffffffffffffffffffffffff821603610e8657610d07858585611358565b6040517fdbbf0e2100000000000000000000000000000000000000000000000000000000815273ffffffffffffffffffffffffffffffffffffffff82169063dbbf0e2190610edc90889088908890600401611d1e565b602060405180830381865afa158015610ef9573d6000803e3d6000fd5b505050506040513d601f19601f82011682018060405250810190610d079190611c3f565b6102518282610f2b85611368565b6113ed565b60008282604051602001610f45929190611e2f565b60408051601f1981840301815291905280516020909101207f86425bff6b57326c7859e89024fe4f238ca327a1ae4a230180dd2f0e88aaa7d9189392505050565b600080805b8360ff16811015610daa57610fad60ff601b83900360080287901c1683611bc1565b9150600101610f8b565b600060208210610fdd57602082048401935060208281610fd957610fd9611cef565b0691505b508254600882021b602082900380841115610daa576001850154600882021c82179150509392505050565b7f6f74000000000000000000000000000000000000000000000000000000000000847fffff000000000000000000000000000000000000000000000000000000000000160361109257837f8c0b5119d4cec7b284c6b1b39252a03d1e2f2d7451a5895562524c113bb952be84848460405161108593929190611e6b565b60405180910390a26104c8565b600061109e8585610f30565b905060006110ab866116ec565b905060005b81518110156111805760008282815181106110cd576110cd611b7b565b602002602001015190506110f96004826affffffffffffffffffffff191661177590919063ffffffff16565b15611177576040517f964f667d000000000000000000000000000000000000000000000000000000008152606082901c9063964f667d90611144908b908b908b908b90600401611ea8565b600060405180830381600087803b15801561115e57600080fd5b505af1158015611172573d6000803e3d6000fd5b505050505b506001016110b0565b50857f8c0b5119d4cec7b284c6b1b39252a03d1e2f2d7451a5895562524c113bb952be8686866040516111b593929190611e6b565b60405180910390a26111d0828565ffffffffffff1685611793565b60005b8151811015610c3a5760008282815181106111f0576111f0611b7b565b6020026020010151905061121c6008826affffffffffffffffffffff191661177590919063ffffffff16565b1561129a576040517fa8ba8721000000000000000000000000000000000000000000000000000000008152606082901c9063a8ba872190611267908b908b908b908b90600401611ea8565b600060405180830381600087803b15801561128157600080fd5b505af1158015611295573d6000803e3d6000fd5b505050505b506001016111d3565b60606107c76112b38585856117a9565b60006112d8856112c38989611829565b9060ff166028026038011c64ffffffffff1690565b61183c565b606060006112eb8560801c90565b90506fffffffffffffffffffffffffffffffff8516600085828161131157611311611cef565b04905060405193506020840160208202810160405281855260005b8281101561134c578451871c82529387019360209091019060010161132c565b50505050509392505050565b60006107c7826112c38686611829565b60007f8b9d8c8b908d9affffffffffffffffffab9e9d939a8d0000000000000000000082016113b757507e60030220202000000000000000000000000000000000000000000000000000919050565b6101846113e47f746273746f72650000000000000000005461626c6573000000000000000000008461185f565b60206000610fb7565b7f6f74000000000000000000000000000000000000000000000000000000000000837fffff000000000000000000000000000000000000000000000000000000000000160361147357827f0e1f72f429eb97e64878619984a91e687ae91610348b9ff4216782cc96e49d07836040516114669190611ee1565b60405180910390a2505050565b600061147e846116ec565b905060005b81518110156115515760008282815181106114a0576114a0611b7b565b602002602001015190506114cc6040826affffffffffffffffffffff191661177590919063ffffffff16565b15611548576040517f9faeaf45000000000000000000000000000000000000000000000000000000008152606082901c90639faeaf459061151590899089908990600401611ef4565b600060405180830381600087803b15801561152f57600080fd5b505af1158015611543573d6000803e3d6000fd5b505050505b50600101611483565b50837f0e1f72f429eb97e64878619984a91e687ae91610348b9ff4216782cc96e49d07846040516115829190611ee1565b60405180910390a260006115968585610f30565b90506115ef8160006115a78661187b565b67ffffffffffffffff8111156115bf576115bf611b65565b6040519080825280601f01601f1916602001820160405280156115e9576020820181803683370190505b50611793565b60006115fa8461189e565b111561161b57600061160c86866118db565b9050611619816020611931565b505b60005b825181101561089757600083828151811061163b5761163b611b7b565b602002602001015190506116676080826affffffffffffffffffffff191661177590919063ffffffff16565b156116e3576040517f83b5c95b000000000000000000000000000000000000000000000000000000008152606082901c906383b5c95b906116b0908a908a908a90600401611ef4565b600060405180830381600087803b1580156116ca57600080fd5b505af11580156116de573d6000803e3d6000fd5b505050505b5060010161161e565b6040805160018082528183019092526060916000919060208083019080368337019050509050828160008151811061172657611726611b7b565b6020908102919091010152600061175e7f746273746f726500000000000000000053746f7265486f6f6b7300000000000083836112a3565b90506107c76117708260008451610db2565b61196e565b60008160ff16826117868560581c90565b1660ff1614905092915050565b610633838383516117a48560200190565b61197f565b600083836040516020016117be929190611e2f565b604051602081830303815290604052805190602001208260f81b7effffffffffffffffffffffffffffffffffffffffffffffffffffffffffffff19167f3b4102da22e32d82fc925482184f16c09fd4281692720b87d124aef6da48a0f1181860001c90509392505050565b60006102a761183884846118db565b5490565b60405160208101601f19603f8484010116604052828252610daa85858584611a3e565b6040805160208101849052908101829052600090606001610f45565b6000600861188b60026020611e1c565b6118959190611f1d565b9190911c919050565b600060086001806118b160026020611e1c565b6118bb9190611e1c565b6118c59190611e1c565b6118cf9190611f1d565b8260ff911c1692915050565b600082826040516020016118f0929190611e2f565b60408051601f1981840301815291905280516020909101207f14e2fcc58e58e68ec7edc30c8d50dccc3ce2714a623ec81f46b6a63922d76569189392505050565b6000602061194083601f611bc1565b61194a9190611f34565b6119549084611bc1565b90505b808310156106335760008355600183019250611957565b606060006102a783601560006112dd565b82156119f957602083106119a9576020830484019350602083816119a5576119a5611cef565b0692505b82156119f95760208390036000600019600885021c1990506008850281811c91508351811c90508119875416828216178755508184116119ea5750506104c8565b50600194909401939182900391015b5b60208210611a1b5780518455600190930192601f19909101906020016119fa565b81156104c8576000600019600884021c8554835182191691161785555050505050565b8215611ac55760208310611a6857602083048401935060208381611a6457611a64611cef565b0692505b8215611ac5576020839003600081841015611a8b5750600019600884021c611a95565b50600019600882021c5b8554600886021b818451168219821617845250818411611ab65750506104c8565b50600194909401939182900391015b5b60208210611ae75783548152600190930192601f1990910190602001611ac6565b81156104c8576000600019600884021c8251865482191691161782525050505050565b600060208284031215611b1c57600080fd5b81357fffffffff00000000000000000000000000000000000000000000000000000000811681146102a757600080fd5b600060208284031215611b5e57600080fd5b5035919050565b634e487b7160e01b600052604160045260246000fd5b634e487b7160e01b600052603260045260246000fd5b634e487b7160e01b600052601160045260246000fd5b60006000198203611bba57611bba611b91565b5060010190565b8082018082111561018457610184611b91565b60008151808452602080850194506020840160005b83811015611c0557815187529582019590820190600101611be9565b509495945050505050565b848152608060208201526000611c296080830186611bd4565b60ff949094166040830152506060015292915050565b600060208284031215611c5157600080fd5b5051919050565b60005b83811015611c73578181015183820152602001611c5b565b50506000910152565b60008151808452611c94816020860160208601611c58565b601f01601f19169290920160200192915050565b85815260a060208201526000611cc160a0830187611bd4565b60ff861660408401528281036060840152611cdc8186611c7c565b9150508260808301529695505050505050565b634e487b7160e01b600052601260045260246000fd5b8281526040602082015260006107c76040830184611bd4565b838152606060208201526000611d376060830185611bd4565b905060ff83166040830152949350505050565b600060208284031215611d5c57600080fd5b815167ffffffffffffffff80821115611d7457600080fd5b818401915084601f830112611d8857600080fd5b815181811115611d9a57611d9a611b65565b604051601f8201601f19908116603f01168101908382118183101715611dc257611dc2611b65565b81604052828152876020848701011115611ddb57600080fd5b611dec836020830160208801611c58565b979650505050505050565b606081526000611e0a6060830186611c7c565b60208301949094525060400152919050565b8181038181111561018457610184611b91565b8281526000602080830184516020860160005b82811015611e5e57815184529284019290840190600101611e42565b5091979650505050505050565b606081526000611e7e6060830186611bd4565b65ffffffffffff851660208401528281036040840152611e9e8185611c7c565b9695505050505050565b848152608060208201526000611ec16080830186611bd4565b65ffffffffffff851660408401528281036060840152611dec8185611c7c565b6020815260006102a76020830184611bd4565b838152606060208201526000611f0d6060830185611bd4565b9050826040830152949350505050565b808202811582820484141761018457610184611b91565b600082611f5157634e487b7160e01b600052601260045260246000fd5b50049056fea2646970667358221220dc45182ac19432c2fda360a64ad3d23b1740ff921e6d3b3b83482af67d6d10d164736f6c63430008180033","linkReferences":{}},"methodIdentifiers":{"_msgSender()":"119df25f","_msgValue()":"45ec9354","_world()":"e1af802c","supportsInterface(bytes4)":"01ffc9a7","toggleReady(bytes32)":"220ca1f6"},"id":317}