{"abi":[{"type":"function","name":"_msgSender","inputs":[],"outputs":[{"name":"sender","type":"address","internalType":"address"}],"stateMutability":"view"},{"type":"function","name":"_msgValue","inputs":[],"outputs":[{"name":"value","type":"uint256","internalType":"uint256"}],"stateMutability":"pure"},{"type":"function","name":"_world","inputs":[],"outputs":[{"name":"","type":"address","internalType":"address"}],"stateMutability":"view"},{"type":"function","name":"supportsInterface","inputs":[{"name":"interfaceId","type":"bytes4","internalType":"bytes4"}],"outputs":[{"name":"","type":"bool","internalType":"bool"}],"stateMutability":"pure"},{"type":"function","name":"verify","inputs":[{"name":"","type":"address","internalType":"address"},{"name":"systemId","type":"bytes32","internalType":"ResourceId"},{"name":"","type":"bytes","internalType":"bytes"}],"outputs":[{"name":"","type":"bool","internalType":"bool"}],"stateMutability":"view"}],"bytecode":{"object":"0x608060405234801561001057600080fd5b50610885806100206000396000f3fe608060405234801561001057600080fd5b50600436106100675760003560e01c80631a86b550116100505780631a86b550146100c157806345ec9354146100d4578063e1af802c146100e757600080fd5b806301ffc9a71461006c578063119df25f14610094575b600080fd5b61007f61007a3660046105c6565b6100ef565b60405190151581526020015b60405180910390f35b61009c6101d4565b60405173ffffffffffffffffffffffffffffffffffffffff909116815260200161008b565b61007f6100cf366004610625565b6101e3565b604051601f19360135815260200161008b565b61009c6102c2565b60007fffffffff0000000000000000000000000000000000000000000000000000000082167f1a86b55000000000000000000000000000000000000000000000000000000000148061018257507fffffffff0000000000000000000000000000000000000000000000000000000082167fb5dee12700000000000000000000000000000000000000000000000000000000145b806101ce57507fffffffff0000000000000000000000000000000000000000000000000000000082167f01ffc9a700000000000000000000000000000000000000000000000000000000145b92915050565b60006101de6102cc565b905090565b6000806101ee6101d4565b604080517f746200000000000000000000000000000000000000000000000000000000000060208201527f707570706574000000000000000000000000000000000000000000000000000060228201527f5075707065745265676973747279000000000000000000000000000000000000603082015291925073ffffffffffffffffffffffffffffffffffffffff8316916102a2910160405160208183030381529060405261029c9061070b565b866102fe565b73ffffffffffffffffffffffffffffffffffffffff161495945050505050565b60006101de61037b565b7fffffffffffffffffffffffffffffffffffffffffffffffffffffffffffffffcc36013560601c806102fb5750335b90565b60408051600180825281830190925260009182919060208083019080368337019050509050828160008151811061033757610337610750565b6020908102919091010152600061036f8583837e14010014000000000000000000000000000000000000000000000000000000610385565b60601c95945050505050565b60006101de610464565b600080610390610464565b90503073ffffffffffffffffffffffffffffffffffffffff8216036103c3576103bb868686866104b0565b91505061045c565b6040517f8c364d5900000000000000000000000000000000000000000000000000000000815273ffffffffffffffffffffffffffffffffffffffff821690638c364d599061041b908990899089908990600401610766565b602060405180830381865afa158015610438573d6000803e3d6000fd5b505050506040513d601f19601f820116820180604052508101906103bb91906107c3565b949350505050565b7f629a4c26e296b22a8e0856e9f6ecb2d1008d7e00081111962cd175fa7488e1755460009073ffffffffffffffffffffffffffffffffffffffff16806104ab573391505090565b919050565b60006104dd6104bf86866104e6565b60ff858116601b0360080285901c166104d8858761053c565b610575565b95945050505050565b600082826040516020016104fb9291906107dc565b60408051601f1981840301815291905280516020909101207f86425bff6b57326c7859e89024fe4f238ca327a1ae4a230180dd2f0e88aaa7d9189392505050565b600080805b8360ff1681101561056d5761056360ff601b83900360080287901c1683610818565b9150600101610541565b509392505050565b60006020821061059b5760208204840193506020828161059757610597610839565b0691505b508254600882021b60208290038084111561056d576001850154600882021c82179150509392505050565b6000602082840312156105d857600080fd5b81357fffffffff000000000000000000000000000000000000000000000000000000008116811461060857600080fd5b9392505050565b634e487b7160e01b600052604160045260246000fd5b60008060006060848603121561063a57600080fd5b833573ffffffffffffffffffffffffffffffffffffffff8116811461065e57600080fd5b925060208401359150604084013567ffffffffffffffff8082111561068257600080fd5b818601915086601f83011261069657600080fd5b8135818111156106a8576106a861060f565b604051601f8201601f19908116603f011681019083821181831017156106d0576106d061060f565b816040528281528960208487010111156106e957600080fd5b8260208601602083013760006020848301015280955050505050509250925092565b8051602080830151919081101561074a577fffffffffffffffffffffffffffffffffffffffffffffffffffffffffffffffff8160200360031b1b821691505b50919050565b634e487b7160e01b600052603260045260246000fd5b60006080820186835260206080602085015281875180845260a08601915060208901935060005b818110156107a95784518352938301939183019160010161078d565b505060ff9690961660408501525050506060015292915050565b6000602082840312156107d557600080fd5b5051919050565b8281526000602080830184516020860160005b8281101561080b578151845292840192908401906001016107ef565b5091979650505050505050565b808201808211156101ce57634e487b7160e01b600052601160045260246000fd5b634e487b7160e01b600052601260045260246000fdfea2646970667358221220927e1fcbb740e7e770ef78c07c8270d7d29a297992706a409ae60022212afd7a64736f6c63430008180033","linkReferences":{}},"methodIdentifiers":{"_msgSender()":"119df25f","_msgValue()":"45ec9354","_world()":"e1af802c","supportsInterface(bytes4)":"01ffc9a7","verify(address,bytes32,bytes)":"1a86b550"},"id":82}