{"abi":[{"type":"function","name":"_msgSender","inputs":[],"outputs":[{"name":"sender","type":"address","internalType":"address"}],"stateMutability":"view"},{"type":"function","name":"_msgValue","inputs":[],"outputs":[{"name":"value","type":"uint256","internalType":"uint256"}],"stateMutability":"pure"},{"type":"function","name":"_world","inputs":[],"outputs":[{"name":"","type":"address","internalType":"address"}],"stateMutability":"view"},{"type":"function","name":"register","inputs":[{"name":"matchEntity","type":"bytes32","internalType":"bytes32"},{"name":"spawnIndex","type":"uint256","internalType":"uint256"},{"name":"heroChoice","type":"bytes32","internalType":"bytes32"}],"outputs":[{"name":"","type":"bytes32","internalType":"bytes32"}],"stateMutability":"nonpayable"},{"type":"function","name":"supportsInterface","inputs":[{"name":"interfaceId","type":"bytes4","internalType":"bytes4"}],"outputs":[{"name":"","type":"bool","internalType":"bool"}],"stateMutability":"pure"},{"type":"event","name":"Store_SpliceStaticData","inputs":[{"name":"tableId","type":"bytes32","indexed":true,"internalType":"ResourceId"},{"name":"keyTuple","type":"bytes32[]","indexed":false,"internalType":"bytes32[]"},{"name":"start","type":"uint48","indexed":false,"internalType":"uint48"},{"name":"data","type":"bytes","indexed":false,"internalType":"bytes"}],"anonymous":false},{"type":"error","name":"Slice_OutOfBounds","inputs":[{"name":"data","type":"bytes","internalType":"bytes"},{"name":"start","type":"uint256","internalType":"uint256"},{"name":"end","type":"uint256","internalType":"uint256"}]},{"type":"error","name":"Store_IndexOutOfBounds","inputs":[{"name":"length","type":"uint256","internalType":"uint256"},{"name":"accessedIndex","type":"uint256","internalType":"uint256"}]},{"type":"error","name":"Store_InvalidBounds","inputs":[{"name":"start","type":"uint256","internalType":"uint256"},{"name":"end","type":"uint256","internalType":"uint256"}]},{"type":"error","name":"World_AccessDenied","inputs":[{"name":"resource","type":"string","internalType":"string"},{"name":"caller","type":"address","internalType":"address"}]},{"type":"error","name":"World_ResourceNotFound","inputs":[{"name":"resourceId","type":"bytes32","internalType":"ResourceId"},{"name":"resourceIdString","type":"string","internalType":"string"}]}],"bytecode":{"object":"0x608060405234801561001057600080fd5b50612af5806100206000396000f3fe608060405234801561001057600080fd5b50600436106100675760003560e01c806345ec93541161005057806345ec9354146100b4578063e1af802c146100c9578063e8f83f9f146100d157600080fd5b806301ffc9a71461006c578063119df25f14610094575b600080fd5b61007f61007a366004612583565b6100e4565b60405190151581526020015b60405180910390f35b61009c61017d565b6040516001600160a01b03909116815260200161008b565b36601f1901355b60405190815260200161008b565b61009c61018c565b6100bb6100df3660046125c5565b610196565b60007fffffffff0000000000000000000000000000000000000000000000000000000082167fb5dee12700000000000000000000000000000000000000000000000000000000148061017757507fffffffff0000000000000000000000000000000000000000000000000000000082167f01ffc9a700000000000000000000000000000000000000000000000000000000145b92915050565b600061018761051d565b905090565b600061018761054f565b60006101a9846101a461017d565b610559565b6101fa5760405162461bcd60e51b815260206004820152601560248201527f63616c6c6572206973206e6f7420616c6c6f776564000000000000000000000060448201526064015b60405180910390fd5b610204848461061b565b156102515760405162461bcd60e51b815260206004820152601c60248201527f737061776e20706f696e7420616c72656164792072657365727665640000000060448201526064016101f1565b6102628461025d61017d565b6106b7565b156102d55760405162461bcd60e51b815260206004820152603160248201527f74686973206163636f756e742068617320616c7265616479207265676973746560448201527f72656420666f7220746865206d6174636800000000000000000000000000000060648201526084016101f1565b60006102e08361075c565b9050808061030957506102f96102f461017d565b610801565b8015610309575061030983610814565b6103555760405162461bcd60e51b815260206004820152601360248201527f696e76616c6964206865726f2063686f6963650000000000000000000000000060448201526064016101f1565b6000610360866108a5565b90507f537061776e536574746c656d656e74000000000000000000000000000000000061038d8287610937565b146103da5760405162461bcd60e51b815260206004820152601b60248201527f6c6576656c20656e74697479206973206e6f74206120737061776e000000000060448201526064016101f1565b60006103e5876109c3565b9050804210156104375760405162461bcd60e51b815260206004820152601560248201527f726567697374726174696f6e206e6f74206f70656e000000000000000000000060448201526064016101f1565b61045961044261018c565b61044b89610a54565b6104548a610af1565b610b82565b73__$61977ce204fe7e26943581277440e8f062$__632fa97de761047b61017d565b6040517fffffffff0000000000000000000000000000000000000000000000000000000060e084901b1681526001600160a01b039091166004820152602481018a90526044810189905260648101889052608401602060405180830381865af41580156104ec573d6000803e3d6000fd5b505050506040513d601f19601f8201168201806040525081019061051091906125f1565b93505050505b9392505050565b7fffffffffffffffffffffffffffffffffffffffffffffffffffffffffffffffcc36013560601c8061054c5750335b90565b6000610187610d7d565b60008061056584610dbc565b9050600081900361057a576001915050610177565b604051602481018590526001600160a01b03841660448201526000906105fc90839060640160408051601f198184030181529190526020810180517bffffffffffffffffffffffffffffffffffffffffffffffffffffffff167f82027b6d00000000000000000000000000000000000000000000000000000000179052610e35565b905080806020019051810190610612919061260a565b95945050505050565b60408051600280825260608201835260009283929190602083019080368337019050509050838160008151811061065457610654612642565b6020026020010181815250508260001b8160018151811061067757610677612642565b602090810291909101015260006106127f74620000000000000000000000000000537061776e52657365727665644279008383630100080160dd1b610f10565b6040805160028082526060820183526000928392919060208301908036833701905050905083816000815181106106f0576106f0612642565b602002602001018181525050826001600160a01b031660001b8160018151811061071c5761071c612642565b602090810291909101015260006106127f746200000000000000000000000000004d61746368506c6179657200000000008383630100080160dd1b610f10565b60408051600180825281830190925260009182919060208083019080368337019050509050828160008151811061079557610795612642565b602090810291909101015260006107ed7f746200000000000000000000000000004865726f496e526f746174696f6e000083837e01010001000000000000000000000000000000000000000000000000000000610f10565b90506107f98160f81c90565b949350505050565b600061017761080e610fcd565b83611035565b60408051600180825281830190925260009182919060208083019080368337019050509050828160008151811061084d5761084d612642565b602090810291909101015260006107ed7f746200000000000000000000000000004865726f496e536561736f6e5061737383837e01010001000000000000000000000000000000000000000000000000000000610f10565b6040805160018082528183019092526000918291906020808301908036833701905050905082816000815181106108de576108de612642565b602090810291909101015260006107f97f746200000000000000000000000000004d61746368436f6e66696700000000008360037eb4060020202020201400000000000000000000000000000000000000000000610f10565b60408051600180825281830190925260009182919060208083019080368337019050509050838160008151811061097057610970612642565b60200260200101818152505060006109b87f746200000000000000000000000000004c6576656c54656d706c61746573000060001b83600087602002886001016020026110c8565b905061061281612658565b6040805160018082528183019092526000918291906020808301908036833701905050905082816000815181106109fc576109fc612642565b602090810291909101015260006107f97f746200000000000000000000000000004d61746368436f6e666967000000000083837eb4060020202020201400000000000000000000000000000000000000000000610f10565b604080516001808252818301909252600091829190602080830190803683370190505090508281600081518110610a8d57610a8d612642565b60209081029190910101526000610ae67f746200000000000000000000000000004d61746368436f6e66696700000000008360057eb4060020202020201400000000000000000000000000000000000000000000610f10565b60601c949350505050565b604080516001808252818301909252600091829190602080830190803683370190505090508281600081518110610b2a57610b2a612642565b602090810291909101015260006107f97f746200000000000000000000000000004d6174636853776565707374616b650083837e20010120000000000000000000000000000000000000000000000000000000610f10565b6000610b8c61118d565b90506000816001600160a01b03166339f898bc6040518163ffffffff1660e01b8152600401602060405180830381865afa158015610bce573d6000803e3d6000fd5b505050506040513d601f19601f82011682018060405250810190610bf291906125f1565b6040516001600160a01b03861660248201526044810185905290915060009060640160408051601f198184030181529181526020820180517bffffffffffffffffffffffffffffffffffffffffffffffffffffffff167fa9059cbb00000000000000000000000000000000000000000000000000000000179052519091506000906001600160a01b038816908190633ae7af0890610c9690879087906024016126cf565b60408051601f198184030181529181526020820180517bffffffffffffffffffffffffffffffffffffffffffffffffffffffff1660e09490941b939093179092529051610ce392506126e8565b600060405180830381855af49150503d8060008114610d1e576040519150601f19603f3d011682016040523d82523d6000602084013e610d23565b606091505b5050905080610d745760405162461bcd60e51b815260206004820152601560248201527f746f6b656e207472616e73666572206661696c6564000000000000000000000060448201526064016101f1565b50505050505050565b7f629a4c26e296b22a8e0856e9f6ecb2d1008d7e00081111962cd175fa7488e175546000906001600160a01b031680610db7573391505090565b919050565b604080516001808252818301909252600091829190602080830190803683370190505090508281600081518110610df557610df5612642565b602090810291909101015260006107f97f746200000000000000000000000000004d61746368416363657373436f6e74728383630100080160dd1b610f10565b60606000610e4161054f565b90506001600160a01b0381163003610e82576000610e69610e6061051d565b600087876111eb565b9350905080610e7b57610e7b83611326565b5050610177565b6040517f3ae7af080000000000000000000000000000000000000000000000000000000081526001600160a01b03821690633ae7af0890610ec990879087906004016126cf565b6000604051808303816000875af1158015610ee8573d6000803e3d6000fd5b505050506040513d6000823e601f3d908101601f191682016040526107f99190810190612704565b600080610f1b610d7d565b9050306001600160a01b03821603610f4157610f398686868661132e565b9150506107f9565b6040517f8c364d590000000000000000000000000000000000000000000000000000000081526001600160a01b03821690638c364d5990610f8c9089908990899089906004016127ed565b602060405180830381865afa158015610fa9573d6000803e3d6000fd5b505050506040513d601f19601f82011682018060405250810190610f3991906125f1565b60408051600080825260208201909252600061102b7f74620000000000000000000000000000536b79506f6f6c436f6e6669670000008360047e7d060001202014141400000000000000000000000000000000000000000000610f10565b60601c9392505050565b600080836001600160a01b03166339f898bc6040518163ffffffff1660e01b8152600401602060405180830381865afa158015611076573d6000803e3d6000fd5b505050506040513d601f19601f8201168201806040525081019061109a91906125f1565b905060006110b06110ab8360101b90565b61135b565b905060006110be82866113a8565b1195945050505050565b606060006110d4610d7d565b9050306001600160a01b038216036110fb576110f3878787878761140d565b915050610612565b6040517f4dc77d970000000000000000000000000000000000000000000000000000000081526001600160a01b03821690634dc77d9790611148908a908a908a908a908a9060040161281c565b600060405180830381865afa158015611165573d6000803e3d6000fd5b505050506040513d6000823e601f3d908101601f191682016040526110f39190810190612704565b60408051600080825260208201909252600061102b7f74620000000000000000000000000000536b79506f6f6c436f6e6669670000008360037e7d060001202014141400000000000000000000000000000000000000000000610f10565b600060606000806111fb86611510565b90925090506001600160a01b03821661124c5785611218876115c8565b6040517ffbf10ce60000000000000000000000000000000000000000000000000000000081526004016101f19291906126cf565b8061125b5761125b86896116f6565b86156112c7577dffffffffffffffffffffffffffff0000000000000000000000000000000086167f6e730000000000000000000000000000000000000000000000000000000000001760006112af82611746565b90506112c4826112bf8b8461286b565b6117bf565b50505b60006112d38760101b90565b7fffffffffffffffffffffffffffff000000000000000000000000000000000000161461130b5761130688888488611860565b611317565b611317888884886118d8565b90999098509650505050505050565b805160208201fd5b600061061261133d8686611939565b60ff858116601b0360080285901c16611356858761198f565b6119c8565b60006101777f7462000000000000000000000000000000000000000000000000000000000000837f42616c616e636573000000000000000000000000000000000000000000000000611a19565b60408051600180825281830190925260009182919060208083019080368337019050509050826001600160a01b031660001b816000815181106113ed576113ed612642565b60209081029190910101526000610612858383630100080160dd1b610f10565b606081831115611453576040517fa8c5478200000000000000000000000000000000000000000000000000000000815260048101849052602481018390526044016101f1565b600061145f8787611a91565b9050600061147c828760ff166028026038011c64ffffffffff1690565b9050808510158061148c57508084115b156114e75780818610156114aa576114a560018661287e565b6114ac565b855b6040517f7e8578d3000000000000000000000000000000000000000000000000000000008152600481019290925260248201526044016101f1565b60006114f4898989611aa4565b90506115038187888803611b24565b9998505050505050505050565b6040805160018082528183019092526000918291829160208083019080368337019050509050838160008151811061154a5761154a612642565b6020908102919091010152600080806115a37f7462776f726c6400000000000000000053797374656d73000000000000000000857e15020014010000000000000000000000000000000000000000000000000000611b47565b5050602081015160349091015160609190911c9860f89190911c975095505050505050565b606081601081901b60006115db83611c4f565b9050827fffffffffffffffffffffffffffff000000000000000000000000000000000000831615611636576116317fffffffffffffffffffffffffffff0000000000000000000000000000000000008416611c66565b61166d565b6040518060400160405280600681526020017f3c726f6f743e00000000000000000000000000000000000000000000000000008152505b6fffffffffffffffffffffffffffffffff198316156116945761168f83611c66565b6116cb565b6040518060400160405280600681526020017f3c726f6f743e00000000000000000000000000000000000000000000000000008152505b6040516020016116dd93929190612891565b6040516020818303038152906040529350505050919050565b6117008282611cec565b6117425761170d826115c8565b816040517fd787b7370000000000000000000000000000000000000000000000000000000081526004016101f192919061291f565b5050565b60408051600180825281830190925260009182919060208083019080368337019050509050828160008151811061177f5761177f612642565b602090810291909101015260006107f97f7462776f726c6400000000000000000042616c616e63657300000000000000008383630100080160dd1b61132e565b6040805160018082528183019092526000916020808301908036833701905050905082816000815181106117f5576117f5612642565b60200260200101818152505061185b7f7462776f726c6400000000000000000042616c616e636573000000000000000060001b8260008560405160200161183e91815260200190565b60408051601f19818403018152919052630100080160dd1b611d4a565b505050565b60006060836001600160a01b0316600061187b858989611d66565b60405161188891906126e8565b60006040518083038185875af1925050503d80600081146118c5576040519150601f19603f3d011682016040523d82523d6000602084013e6118ca565b606091505b509097909650945050505050565b60006060836001600160a01b03166118f1848888611d66565b6040516118fe91906126e8565b600060405180830381855af49150503d80600081146118c5576040519150601f19603f3d011682016040523d82523d6000602084013e6118ca565b6000828260405160200161194e92919061294a565b60408051601f1981840301815291905280516020909101207f86425bff6b57326c7859e89024fe4f238ca327a1ae4a230180dd2f0e88aaa7d9189392505050565b600080805b8360ff168110156119c0576119b660ff601b83900360080287901c168361286b565b9150600101611994565b509392505050565b6000602082106119ee576020820484019350602082816119ea576119ea612986565b0691505b508254600882021b6020829003808411156119c0576001850154600882021c82179150509392505050565b6000611a276070601061286b565b7fffff00000000000000000000000000000000000000000000000000000000000085167dffffffffffffffffffffffffffff00000000000000000000000000000000601086901c16176fffffffffffffffffffffffffffffffff19841690911c1790509392505050565b6000610516611aa08484611d95565b5490565b60008383604051602001611ab992919061294a565b604051602081830303815290604052805190602001208260f81b7effffffffffffffffffffffffffffffffffffffffffffffffffffffffffffff19167f3b4102da22e32d82fc925482184f16c09fd4281692720b87d124aef6da48a0f1181860001c90509392505050565b60405160208101601f19603f84840101166040528282526119c085858584611deb565b6060600060606000611b5885611eb6565b9050611b65878783611ed9565b93506000611b7286611f12565b90508015611c4457611b848888611a91565b935066ffffffffffffff841667ffffffffffffffff811115611ba857611ba861262c565b6040519080825280601f01601f191660200182016040528015611bd2576020820181803683370190505b5092506020830160005b828160ff161015611c41576000611bf48b8b84611aa4565b90506000611c11888460ff166028026038011c64ffffffffff1690565b9050611c208260008387611deb565b611c2a818561286b565b935050508080611c399061299c565b915050611bdc565b50505b505093509350939050565b6000611c5d6070601061286b565b9190911b919050565b606060005b6010811015611cbc576fffffffffffffffffffffffffffffffff198316600882021b7fff000000000000000000000000000000000000000000000000000000000000001615611cbc57600101611c6b565b604080516fffffffffffffffffffffffffffffffff198516602082015281516030909101909152818152806107f9565b6000611d3a7f6e730000000000000000000000000000000000000000000000000000000000007dffffffffffffffffffffffffffff0000000000000000000000000000000085161783611f4f565b8061051657506105168383611f4f565b611d5f8585611d59848761198f565b85612018565b5050505050565b6060838383604051602001611d7d939291906129bb565b60405160208183030381529060405290509392505050565b60008282604051602001611daa92919061294a565b60408051601f1981840301815291905280516020909101207f14e2fcc58e58e68ec7edc30c8d50dccc3ce2714a623ec81f46b6a63922d76569189392505050565b8215611e725760208310611e1557602083048401935060208381611e1157611e11612986565b0692505b8215611e72576020839003600081841015611e385750600019600884021c611e42565b50600019600882021c5b8554600886021b818451168219821617845250818411611e63575050611eb0565b50600194909401939182900391015b5b60208210611e945783548152600190930192601f1990910190602001611e73565b8115611eb05780518454600019600885021c9182169119161781525b50505050565b60006008611ec66002602061287e565b611ed09190612a0d565b9190911c919050565b606081600003611ef85750604080516020810190915260008152610516565b6000611f048585611939565b905061061281600085611b24565b60006008600180611f256002602061287e565b611f2f919061287e565b611f39919061287e565b611f439190612a0d565b8260ff911c1692915050565b604080516002808252606082018352600092839291906020830190803683370190505090508381600081518110611f8857611f88612642565b602002602001018181525050826001600160a01b031660001b81600181518110611fb457611fb4612642565b6020908102919091010152600061200c7f7462776f726c640000000000000000005265736f75726365416363657373000083837e0101000100000000000000000000000000000000000000000000000000000061132e565b90506106128160f81c90565b7f6f74000000000000000000000000000000000000000000000000000000000000847fffff00000000000000000000000000000000000000000000000000000000000016036120a257837f8c0b5119d4cec7b284c6b1b39252a03d1e2f2d7451a5895562524c113bb952be84848460405161209593929190612a24565b60405180910390a2611eb0565b60006120ae8585611939565b905060006120bb866122b3565b905060005b81518110156121905760008282815181106120dd576120dd612642565b602002602001015190506121096004826affffffffffffffffffffff191661233c90919063ffffffff16565b15612187576040517f964f667d000000000000000000000000000000000000000000000000000000008152606082901c9063964f667d90612154908b908b908b908b90600401612a61565b600060405180830381600087803b15801561216e57600080fd5b505af1158015612182573d6000803e3d6000fd5b505050505b506001016120c0565b50857f8c0b5119d4cec7b284c6b1b39252a03d1e2f2d7451a5895562524c113bb952be8686866040516121c593929190612a24565b60405180910390a26121e0828565ffffffffffff168561235a565b60005b8151811015610d7457600082828151811061220057612200612642565b6020026020010151905061222c6008826affffffffffffffffffffff191661233c90919063ffffffff16565b156122aa576040517fa8ba8721000000000000000000000000000000000000000000000000000000008152606082901c9063a8ba872190612277908b908b908b908b90600401612a61565b600060405180830381600087803b15801561229157600080fd5b505af11580156122a5573d6000803e3d6000fd5b505050505b506001016121e3565b604080516001808252818301909252606091600091906020808301908036833701905050905082816000815181106122ed576122ed612642565b602090810291909101015260006123257f746273746f726500000000000000000053746f7265486f6f6b730000000000008383612370565b90506107f961233782600084516123aa565b612438565b60008160ff168261234d8560581c90565b1660ff1614905092915050565b61185b8383835161236b8560200190565b612449565b60606107f9612380858585611aa4565b60006123a5856123908989611a91565b9060ff166028026038011c64ffffffffff1690565b611b24565b6000818311806123ba5750835182115b156123f7578383836040517f23230fa30000000000000000000000000000000000000000000000000000000081526004016101f193929190612a9a565b60208401612405848261286b565b90506000612413858561287e565b6fffffffffffffffffffffffffffffffff1660809290921b9190911795945050505050565b606060006105168360156000612508565b82156124c357602083106124735760208304840193506020838161246f5761246f612986565b0692505b82156124c35760208390036000600019600885021c1990506008850281811c91508351811c90508119875416828216178755508184116124b4575050611eb0565b50600194909401939182900391015b5b602082106124e55780518455600190930192601f19909101906020016124c4565b8115611eb0576000600019600884021c8554835182191691161785555050505050565b606060006125168560801c90565b90506fffffffffffffffffffffffffffffffff8516600085828161253c5761253c612986565b04905060405193506020840160208202810160405281855260005b82811015612577578451871c825293870193602090910190600101612557565b50505050509392505050565b60006020828403121561259557600080fd5b81357fffffffff000000000000000000000000000000000000000000000000000000008116811461051657600080fd5b6000806000606084860312156125da57600080fd5b505081359360208301359350604090920135919050565b60006020828403121561260357600080fd5b5051919050565b60006020828403121561261c57600080fd5b8151801515811461051657600080fd5b634e487b7160e01b600052604160045260246000fd5b634e487b7160e01b600052603260045260246000fd5b80516020808301519190811015612679576000198160200360031b1b821691505b50919050565b60005b8381101561269a578181015183820152602001612682565b50506000910152565b600081518084526126bb81602086016020860161267f565b601f01601f19169290920160200192915050565b8281526040602082015260006107f960408301846126a3565b600082516126fa81846020870161267f565b9190910192915050565b60006020828403121561271657600080fd5b815167ffffffffffffffff8082111561272e57600080fd5b818401915084601f83011261274257600080fd5b8151818111156127545761275461262c565b604051601f8201601f19908116603f0116810190838211818310171561277c5761277c61262c565b8160405282815287602084870101111561279557600080fd5b6127a683602083016020880161267f565b979650505050505050565b60008151808452602080850194506020840160005b838110156127e2578151875295820195908201906001016127c6565b509495945050505050565b84815260806020820152600061280660808301866127b1565b60ff949094166040830152506060015292915050565b85815260a06020820152600061283560a08301876127b1565b60ff95909516604083015250606081019290925260809091015292915050565b634e487b7160e01b600052601160045260246000fd5b8082018082111561017757610177612855565b8181038181111561017757610177612855565b7fffff0000000000000000000000000000000000000000000000000000000000008416815260007f3a0000000000000000000000000000000000000000000000000000000000000080600284015284516128f281600386016020890161267f565b80840190508160038201528451915061291282600483016020880161267f565b0160040195945050505050565b60408152600061293260408301856126a3565b90506001600160a01b03831660208301529392505050565b8281526000602080830184516020860160005b828110156129795781518452928401929084019060010161295d565b5091979650505050505050565b634e487b7160e01b600052601260045260246000fd5b600060ff821660ff81036129b2576129b2612855565b60010192915050565b600084516129cd81846020890161267f565b60609490941b7fffffffffffffffffffffffffffffffffffffffff0000000000000000000000001691909301908152601481019190915260340192915050565b808202811582820484141761017757610177612855565b606081526000612a3760608301866127b1565b65ffffffffffff851660208401528281036040840152612a5781856126a3565b9695505050505050565b848152608060208201526000612a7a60808301866127b1565b65ffffffffffff8516604084015282810360608401526127a681856126a3565b606081526000612aad60608301866126a3565b6020830194909452506040015291905056fea2646970667358221220fd7f0168a432e5c4815cff6a5f3571e07917cb0462e3557af0d27158df8b41a364736f6c63430008180033","linkReferences":{"src/libraries/LibPlayerSetup.sol":{"LibPlayerSetup":[{"start":1147,"length":20}]}}},"methodIdentifiers":{"_msgSender()":"119df25f","_msgValue()":"45ec9354","_world()":"e1af802c","register(bytes32,uint256,bytes32)":"e8f83f9f","supportsInterface(bytes4)":"01ffc9a7"},"id":323}