{"abi":[{"type":"function","name":"_msgSender","inputs":[],"outputs":[{"name":"sender","type":"address","internalType":"address"}],"stateMutability":"view"},{"type":"function","name":"_msgValue","inputs":[],"outputs":[{"name":"value","type":"uint256","internalType":"uint256"}],"stateMutability":"pure"},{"type":"function","name":"_world","inputs":[],"outputs":[{"name":"","type":"address","internalType":"address"}],"stateMutability":"view"},{"type":"function","name":"build","inputs":[{"name":"matchEntity","type":"bytes32","internalType":"bytes32"},{"name":"factoryEntity","type":"bytes32","internalType":"bytes32"},{"name":"templateId","type":"bytes32","internalType":"bytes32"},{"name":"coord","type":"tuple","internalType":"struct PositionData","components":[{"name":"x","type":"int32","internalType":"int32"},{"name":"y","type":"int32","internalType":"int32"}]}],"outputs":[{"name":"","type":"bytes32","internalType":"bytes32"}],"stateMutability":"nonpayable"},{"type":"function","name":"supportsInterface","inputs":[{"name":"interfaceId","type":"bytes4","internalType":"bytes4"}],"outputs":[{"name":"","type":"bool","internalType":"bool"}],"stateMutability":"pure"},{"type":"event","name":"Store_DeleteRecord","inputs":[{"name":"tableId","type":"bytes32","indexed":true,"internalType":"ResourceId"},{"name":"keyTuple","type":"bytes32[]","indexed":false,"internalType":"bytes32[]"}],"anonymous":false},{"type":"event","name":"Store_SetRecord","inputs":[{"name":"tableId","type":"bytes32","indexed":true,"internalType":"ResourceId"},{"name":"keyTuple","type":"bytes32[]","indexed":false,"internalType":"bytes32[]"},{"name":"staticData","type":"bytes","indexed":false,"internalType":"bytes"},{"name":"encodedLengths","type":"bytes32","indexed":false,"internalType":"EncodedLengths"},{"name":"dynamicData","type":"bytes","indexed":false,"internalType":"bytes"}],"anonymous":false},{"type":"event","name":"Store_SpliceDynamicData","inputs":[{"name":"tableId","type":"bytes32","indexed":true,"internalType":"ResourceId"},{"name":"keyTuple","type":"bytes32[]","indexed":false,"internalType":"bytes32[]"},{"name":"dynamicFieldIndex","type":"uint8","indexed":false,"internalType":"uint8"},{"name":"start","type":"uint48","indexed":false,"internalType":"uint48"},{"name":"deleteCount","type":"uint40","indexed":false,"internalType":"uint40"},{"name":"encodedLengths","type":"bytes32","indexed":false,"internalType":"EncodedLengths"},{"name":"data","type":"bytes","indexed":false,"internalType":"bytes"}],"anonymous":false},{"type":"event","name":"Store_SpliceStaticData","inputs":[{"name":"tableId","type":"bytes32","indexed":true,"internalType":"ResourceId"},{"name":"keyTuple","type":"bytes32[]","indexed":false,"internalType":"bytes32[]"},{"name":"start","type":"uint48","indexed":false,"internalType":"uint48"},{"name":"data","type":"bytes","indexed":false,"internalType":"bytes"}],"anonymous":false},{"type":"error","name":"EncodedLengths_InvalidLength","inputs":[{"name":"length","type":"uint256","internalType":"uint256"}]},{"type":"error","name":"Slice_OutOfBounds","inputs":[{"name":"data","type":"bytes","internalType":"bytes"},{"name":"start","type":"uint256","internalType":"uint256"},{"name":"end","type":"uint256","internalType":"uint256"}]},{"type":"error","name":"Store_IndexOutOfBounds","inputs":[{"name":"length","type":"uint256","internalType":"uint256"},{"name":"accessedIndex","type":"uint256","internalType":"uint256"}]},{"type":"error","name":"Store_InvalidBounds","inputs":[{"name":"start","type":"uint256","internalType":"uint256"},{"name":"end","type":"uint256","internalType":"uint256"}]},{"type":"error","name":"Store_InvalidResourceType","inputs":[{"name":"expected","type":"bytes2","internalType":"bytes2"},{"name":"resourceId","type":"bytes32","internalType":"ResourceId"},{"name":"resourceIdString","type":"string","internalType":"string"}]},{"type":"error","name":"Store_InvalidSplice","inputs":[{"name":"startWithinField","type":"uint40","internalType":"uint40"},{"name":"deleteCount","type":"uint40","internalType":"uint40"},{"name":"fieldLength","type":"uint40","internalType":"uint40"}]}],"bytecode":{"object":"0x608060405234801561001057600080fd5b50614955806100206000396000f3fe608060405234801561001057600080fd5b50600436106100675760003560e01c806345ec93541161005057806345ec9354146100b4578063ac21e2ed146100c9578063e1af802c146100dc57600080fd5b806301ffc9a71461006c578063119df25f14610094575b600080fd5b61007f61007a366004614068565b6100e4565b60405190151581526020015b60405180910390f35b61009c61017d565b6040516001600160a01b03909116815260200161008b565b36601f1901355b60405190815260200161008b565b6100bb6100d73660046140d2565b61018c565b61009c610456565b60007fffffffff0000000000000000000000000000000000000000000000000000000082167fb5dee12700000000000000000000000000000000000000000000000000000000148061017757507fffffffff0000000000000000000000000000000000000000000000000000000082167f01ffc9a700000000000000000000000000000000000000000000000000000000145b92915050565b6000610187610460565b905090565b6000806101998686610492565b90506101a58184610581565b60030b6001146101fc5760405162461bcd60e51b815260206004820152601f60248201527f74617267657420706f736974696f6e206973206e6f742061646a6163656e740060448201526064015b60405180910390fd5b61020e868661020961017d565b610615565b61025a5760405162461bcd60e51b815260206004820152601b60248201527f796f7520646f206e6f74206f776e207468697320666163746f7279000000000060448201526064016101f3565b6102638661063f565b6102af5760405162461bcd60e51b815260206004820152601560248201527f6d6174636820686173206e6f742073746172746564000000000000000000000060448201526064016101f3565b600080806102bd8989610660565b905060005b815181101561030957878282815181106102de576102de61417c565b60200260200101510361030157600192506102fa8a8a83610708565b9350610309565b6001016102c2565b508161037d5760405162461bcd60e51b815260206004820152602860248201527f7468697320666163746f727920646f6573206e6f74206861766520746869732060448201527f74656d706c61746500000000000000000000000000000000000000000000000060648201526084016101f3565b60006103928a886000015189602001516107bc565b905060005b8151811015610418576103c38b8383815181106103b6576103b661417c565b6020026020010151610896565b156104105760405162461bcd60e51b815260206004820152601860248201527f656e7469747920626c6f636b696e6720706f736974696f6e000000000000000060448201526064016101f3565b600101610397565b50600061042c8b61042761017d565b610953565b90506104398b828761095f565b6104458b8a838b6109e8565b96505050505050505b949350505050565b6000610187610a29565b7fffffffffffffffffffffffffffffffffffffffffffffffffffffffffffffffcc36013560601c8061048f5750335b90565b6040805180820182526000808252602082018190528251600280825260608201909452919290919081602001602082028036833701905050905083816000815181106104e0576104e061417c565b60200260200101818152505082816001815181106105005761050061417c565b6020908102919091010152600080806105427f74620000000000000000000000000000506f736974696f6e00000000000000008564020080010160d21b610a33565b6040805180820190915260008082526020808301918252850151602486015160e090811d909252901d815292955090935091505b979650505050505050565b600080826000015160030b846000015160030b136105ac57835183516105a791906141a8565b6105ba565b825184516105ba91906141a8565b90506000836020015160030b856020015160030b136105ec57846020015184602001516105e791906141a8565b610600565b8360200151856020015161060091906141a8565b905061060c81836141cf565b95945050505050565b6000806106228585610b03565b905060006106308685610953565b919091149150505b9392505050565b60008061064b83610b66565b90508015801590610638575042101592915050565b6040805160028082526060808301845292600092919060208301908036833701905050905083816000815181106106995761069961417c565b60200260200101818152505082816001815181106106b9576106b961417c565b602090810291909101015260006106f17f74620000000000000000000000000000466163746f72790000000000000000008383610bf8565b905061060c6107038260008451610cbf565b610d4d565b6040805160028082526060820183526000928392919060208301908036833701905050905084816000815181106107415761074161417c565b60200260200101818152505083816001815181106107615761076161417c565b602090810291909101015260006107a47f74620000000000000000000000000000466163746f727900000000000000000083600160048089029089830102610d5e565b90506107af816141f6565b60e01c9695505050505050565b604080516003808252608082019092526060916000919060208201848036833701905050905084816000815181106107f6576107f661417c565b6020026020010181815250508360030b60001b8160018151811061081c5761081c61417c565b6020026020010181815250508260030b60001b816002815181106108425761084261417c565b6020908102919091010152600061087a7f74620000000000000000000000000000456e7469746965734174506f736974698383610bf8565b905061088c6107038260008451610cbf565b9695505050505050565b6040805160028082526060820183526000928392919060208301908036833701905050905083816000815181106108cf576108cf61417c565b60200260200101818152505082816001815181106108ef576108ef61417c565b602090810291909101015260006109477f74620000000000000000000000000000556e7472617665727361626c6500000083837e01010001000000000000000000000000000000000000000000000000000000610e23565b905061060c8160f81c90565b60006106388383610ee0565b600061096b8484610f85565b90508160030b8160030b12156109c35760405162461bcd60e51b815260206004820152600f60248201527f6e6f7420656e6f75676820676f6c64000000000000000000000000000000000060448201526064016101f3565b6109ce848442610fa9565b6109e284846109dd85856141a8565b611064565b50505050565b60006109f385611126565b9050610a0884610a038784611163565b6111c9565b610a13858284611231565b610a1e858242610fa9565b61044e85828561125f565b60006101876112fd565b6060600060606000610a436112fd565b9050306001600160a01b03821603610a6c57610a6087878761133c565b93509350935050610afa565b6040517f419b58fd0000000000000000000000000000000000000000000000000000000081526001600160a01b0382169063419b58fd90610ab5908a908a908a9060040161427e565b600060405180830381865afa158015610ad2573d6000803e3d6000fd5b505050506040513d6000823e601f3d908101601f19168201604052610a609190810190614349565b93509350939050565b6000610b0f8383611444565b63ffffffff1615610b21575080610177565b610b2b83836114e9565b15610b5d57610b3a83836114e9565b9150610b468383611444565b63ffffffff1615610b58575080610177565b610b21565b50600092915050565b604080516001808252818301909252600091829190602080830190803683370190505090508281600081518110610b9f57610b9f61417c565b6020908102919091010152600061044e7f746200000000000000000000000000004d61746368436f6e66696700000000008360017eb4060020202020201400000000000000000000000000000000000000000000610e23565b60606000610c046112fd565b9050306001600160a01b03821603610c2957610c21858585611582565b915050610638565b6040517f1e7889770000000000000000000000000000000000000000000000000000000081526001600160a01b03821690631e78897790610c72908890889088906004016143b6565b600060405180830381865afa158015610c8f573d6000803e3d6000fd5b505050506040513d6000823e601f3d908101601f19168201604052610c2191908101906143e2565b509392505050565b600081831180610ccf5750835182115b15610d0c578383836040517f23230fa30000000000000000000000000000000000000000000000000000000081526004016101f393929190614443565b60208401610d1a8482614468565b90506000610d28858561447b565b6fffffffffffffffffffffffffffffffff1660809290921b9190911795945050505050565b6060600061063883602060006115bc565b60606000610d6a6112fd565b9050306001600160a01b03821603610d9157610d898787878787611637565b91505061060c565b6040517f4dc77d970000000000000000000000000000000000000000000000000000000081526001600160a01b03821690634dc77d9790610dde908a908a908a908a908a9060040161448e565b600060405180830381865afa158015610dfb573d6000803e3d6000fd5b505050506040513d6000823e601f3d908101601f19168201604052610d8991908101906143e2565b600080610e2e6112fd565b9050306001600160a01b03821603610e5457610e4c8686868661173a565b91505061044e565b6040517f8c364d590000000000000000000000000000000000000000000000000000000081526001600160a01b03821690638c364d5990610e9f9089908990899089906004016144c7565b602060405180830381865afa158015610ebc573d6000803e3d6000fd5b505050506040513d601f19601f82011682018060405250810190610e4c91906144f6565b604080516002808252606082018352600092839291906020830190803683370190505090508381600081518110610f1957610f1961417c565b602002602001018181525050826001600160a01b031660001b81600181518110610f4557610f4561417c565b6020908102919091010152600061060c7f746200000000000000000000000000004d61746368506c6179657200000000008383630100080160dd1b610e23565b600080610f928484611767565b905080610f9f8585611866565b61044e91906141cf565b6040805160028082526060820183526000926020830190803683370190505090508381600081518110610fde57610fde61417c565b6020026020010181815250508281600181518110610ffe57610ffe61417c565b6020026020010181815250506109e27f746200000000000000000000000000004c617374416374696f6e00000000000060001b8260008560405160200161104791815260200190565b60408051601f19818403018152919052630100080160dd1b6118ff565b60408051600280825260608201835260009260208301908036833701905050905083816000815181106110995761109961417c565b60200260200101818152505082816001815181106110b9576110b961417c565b6020026020010181815250506109e27f74620000000000000000000000000000476f6c6400000000000000000000000060001b82600085604051602001611109919060e09190911b815260040190565b60408051601f19818403018152919052630100400160da1b6118ff565b600080611132836119b5565b61113d90600161450f565b90506111498382611a39565b63ffffffff8116915061115d838381611ae1565b50919050565b604080516002808252606080830184529260208301908036833701905050905082816000815181106111975761119761417c565b60200260200101818152505081816001815181106111b7576111b761417c565b60200260200101818152505092915050565b60006111d483611b8b565b905060005b81518110156109e25760008282815181106111f6576111f661417c565b60200260200101519050600061120c8683611c0f565b90506112278286836020015184600001518560400151611cec565b50506001016111d9565b61123b8383611d62565b611246838383611dc5565b61125a838260000151836020015185611e96565b505050565b60408051600280825260608201835260009260208301908036833701905050905083816000815181106112945761129461417c565b60200260200101818152505082816001815181106112b4576112b461417c565b6020026020010181815250506109e27f746200000000000000000000000000004f776e6564427900000000000000000060001b8260008560405160200161104791815260200190565b7f629a4c26e296b22a8e0856e9f6ecb2d1008d7e00081111962cd175fa7488e175546000906001600160a01b031680611337573391505090565b919050565b606060006060600061134d85611f7d565b905061135a878783611fa0565b9350600061136786611fd9565b90508015611439576113798888612016565b935066ffffffffffffff841667ffffffffffffffff81111561139d5761139d6140aa565b6040519080825280601f01601f1916602001820160405280156113c7576020820181803683370190505b5092506020830160005b828160ff1610156114365760006113e98b8b84612029565b90506000611406888460ff166028026038011c64ffffffffff1690565b905061141582600083876120a9565b61141f8185614468565b93505050808061142e90614533565b9150506113d1565b50505b505093509350939050565b60408051600280825260608201835260009283929190602083019080368337019050509050838160008151811061147d5761147d61417c565b602002602001018181525050828160018151811061149d5761149d61417c565b602090810291909101015260006114dd7f74620000000000000000000000000000506c61796572000000000000000000008383630100400160da1b610e23565b60e01c95945050505050565b6040805160028082526060820183526000928392919060208301908036833701905050905083816000815181106115225761152261417c565b60200260200101818152505082816001815181106115425761154261417c565b6020908102919091010152600061060c7f746200000000000000000000000000004f776e656442790000000000000000008383630100080160dd1b610e23565b606061044e611592858585612029565b60006115b7856115a28989612016565b9060ff166028026038011c64ffffffffff1690565b612175565b606060006115ca8560801c90565b90506fffffffffffffffffffffffffffffffff851660008582816115f0576115f0614552565b04905060405193506020840160208202810160405281855260005b8281101561162b578451871c82529387019360209091019060010161160b565b50505050509392505050565b60608183111561167d576040517fa8c5478200000000000000000000000000000000000000000000000000000000815260048101849052602481018390526044016101f3565b60006116898787612016565b905060006116a6828760ff166028026038011c64ffffffffff1690565b905080851015806116b657508084115b156117115780818610156116d4576116cf60018661447b565b6116d6565b855b6040517f7e8578d3000000000000000000000000000000000000000000000000000000008152600481019290925260248201526044016101f3565b600061171e898989612029565b905061172d8187888803612175565b9998505050505050505050565b600061060c6117498686612198565b60ff858116601b0360080285901c1661176285876121ee565b61221f565b6000806117748484612270565b9050600061178185612301565b9050600061179886611793888861230d565b6123a6565b6117a290836141a8565b905060005b835181101561185c5760008482815181106117c4576117c461417c565b602002602001015190506000806117db8a846123ee565b905060006117e98b8b61230d565b82116117f55785611809565b6117ff8b836123a6565b61180990886141a8565b90506118158b85612487565b61181f9082614568565b92505050600061182f8a84612520565b60030b1315611846576118438983836125ba565b90505b61185081886141cf565b965050506001016117a7565b5050505092915050565b60408051600280825260608201835260009283929190602083019080368337019050509050838160008151811061189f5761189f61417c565b60200260200101818152505082816001815181106118bf576118bf61417c565b602090810291909101015260006114dd7f74620000000000000000000000000000476f6c640000000000000000000000008383630100400160da1b610e23565b60006119096112fd565b9050306001600160a01b0382160361192d57611928868686868661261f565b6119ad565b6040517f390baae00000000000000000000000000000000000000000000000000000000081526001600160a01b0382169063390baae09061197a9089908990899089908990600401614588565b600060405180830381600087803b15801561199457600080fd5b505af11580156119a8573d6000803e3d6000fd5b505050505b505050505050565b6040805160018082528183019092526000918291906020808301908036833701905050905082816000815181106119ee576119ee61417c565b60209081029190910101526000611a2e7f746200000000000000000000000000004d61746368456e74697479436f756e748383630100400160da1b610e23565b60e01c949350505050565b604080516001808252818301909252600091602080830190803683370190505090508281600081518110611a6f57611a6f61417c565b60200260200101818152505061125a7f746200000000000000000000000000004d61746368456e74697479436f756e7460001b82600085604051602001611109919060e09190911b7fffffffff0000000000000000000000000000000000000000000000000000000016815260040190565b6000611aec82612634565b6040805160028082526060808301845293945060009392849291906020830190803683370190505090508681600081518110611b2a57611b2a61417c565b6020026020010181815250508581600181518110611b4a57611b4a61417c565b6020908102919091010152611b827f6f7400000000000000000000000000004d61746368000000000000000000000082868686611cec565b50505050505050565b60408051600180825281830190925260609160009190602080830190803683370190505090508281600081518110611bc557611bc561417c565b60209081029190910101526000611bfd7f7462000000000000000000000000000054656d706c6174655461626c657300008383610bf8565b905061044e6107038260008451610cbf565b6040805160608082018352600080835260208301829052828401829052835160028082529281019094529192908160200160208202803683370190505090508381600081518110611c6257611c6261417c565b6020026020010181815250508281600181518110611c8257611c8261417c565b602090810291909101015260008080611cdb7f7462000000000000000000000000000054656d706c617465436f6e74656e7400857e20010220000000000000000000000000000000000000000000000000000000610a33565b92509250925061057683838361265f565b6000611cf66112fd565b9050306001600160a01b03821603611d155761192886868686866126a2565b6040517f298314fb0000000000000000000000000000000000000000000000000000000081526001600160a01b0382169063298314fb9061197a90899089908990899089906004016145cf565b6000611d6e8383610492565b90506000611d8f83611d8986856000015186602001516107bc565b906126b8565b805190915015611db257611dad848360000151846020015184612786565b6109e2565b6109e28483600001518460200151612849565b6000611e00826000015183602001516040805160e093841b60208201529190921b602482015281516008818303018152602890910190915290565b6040805160028082526060808301845293945060009392849291906020830190803683370190505090508681600081518110611e3e57611e3e61417c565b6020026020010181815250508581600181518110611e5e57611e5e61417c565b6020908102919091010152611b827f74620000000000000000000000000000506f736974696f6e000000000000000082868686611cec565b60408051600380825260808201909252600091602082016060803683370190505090508481600081518110611ecd57611ecd61417c565b6020026020010181815250508360030b60001b81600181518110611ef357611ef361417c565b6020026020010181815250508260030b60001b81600281518110611f1957611f1961417c565b602002602001018181525050611f767f74620000000000000000000000000000456e7469746965734174506f7369746960001b82600085604051602001611f6291815260200190565b604051602081830303815290604052612901565b5050505050565b60006008611f8d6002602061447b565b611f979190614620565b9190911c919050565b606081600003611fbf5750604080516020810190915260008152610638565b6000611fcb8585612198565b905061060c81600085612175565b60006008600180611fec6002602061447b565b611ff6919061447b565b612000919061447b565b61200a9190614620565b8260ff911c1692915050565b600061063861202584846129b2565b5490565b6000838360405160200161203e929190614637565b604051602081830303815290604052805190602001208260f81b7effffffffffffffffffffffffffffffffffffffffffffffffffffffffffffff19167f3b4102da22e32d82fc925482184f16c09fd4281692720b87d124aef6da48a0f1181860001c90509392505050565b821561213057602083106120d3576020830484019350602083816120cf576120cf614552565b0692505b82156121305760208390036000818410156120f65750600019600884021c612100565b50600019600882021c5b8554600886021b8184511682198216178452508184116121215750506109e2565b50600194909401939182900391015b5b602082106121525783548152600190930192601f1990910190602001612131565b81156109e2576000600019600884021c8251865482191691161782525050505050565b60405160208101601f19603f8484010116604052828252610cb7858585846120a9565b600082826040516020016121ad929190614637565b60408051601f1981840301815291905280516020909101207f86425bff6b57326c7859e89024fe4f238ca327a1ae4a230180dd2f0e88aaa7d9189392505050565b600080805b8360ff16811015610cb75761221560ff601b83900360080287901c1683614468565b91506001016121f3565b6000602082106122455760208204840193506020828161224157612241614552565b0691505b508254600882021b602082900380841115610cb7576001850154600882021c82179150509392505050565b6040805160028082526060808301845292600092919060208301908036833701905050905083816000815181106122a9576122a961417c565b60200260200101818152505082816001815181106122c9576122c961417c565b602090810291909101015260006106f17f74620000000000000000000000000000436861726765727300000000000000008383610bf8565b600061017782426123a6565b6040805160028082526060820183526000928392919060208301908036833701905050905083816000815181106123465761234661417c565b60200260200101818152505082816001815181106123665761236661417c565b6020908102919091010152600061060c7f746200000000000000000000000000004c617374416374696f6e0000000000008383630100080160dd1b610e23565b6000806123b284612a08565b905080602001518310156123ca576000915050610177565b60008160200151846123dc919061447b565b905081604001518161060c9190614673565b6040805160028082526060820183526000928392919060208301908036833701905050905083816000815181106124275761242761417c565b60200260200101818152505082816001815181106124475761244761417c565b6020908102919091010152600061060c7f74620000000000000000000000000000436861726765644279537461727400008383630100080160dd1b610e23565b6040805160028082526060820183526000928392919060208301908036833701905050905083816000815181106124c0576124c061417c565b60200260200101818152505082816001815181106124e0576124e061417c565b602090810291909101015260006114dd7f74620000000000000000000000000000436861726765720000000000000000008383630100400160da1b610e23565b6040805160028082526060820183526000928392919060208301908036833701905050905083816000815181106125595761255961417c565b60200260200101818152505082816001815181106125795761257961417c565b602090810291909101015260006114dd7f7462000000000000000000000000000043686172676543617000000000000000838364020080010160d21b610e23565b6000806125c78585612adb565b8051602082015191925060030b906125df90856141cf565b60030b13156125fc57602081015181516125f991906141a8565b92505b612616858585846020015161261191906141cf565b612b8b565b50909392505050565b611f76858561262e84876121ee565b85612c4e565b60608160405160200161264991815260200190565b6040516020818303038152906040529050919050565b604080516060808201835260008252602082018190529181019190915261268584612ee9565b81526126918383612ef6565b604083015260208201529392505050565b611f7685858585856126b38b612f45565b612fca565b60606000835167ffffffffffffffff8111156126d6576126d66140aa565b6040519080825280602002602001820160405280156126ff578160200160208202803683370190505b5090506000805b855181101561277c57848682815181106127225761272261417c565b602002602001015114612774578581815181106127415761274161417c565b602002602001015183838151811061275b5761275b61417c565b60209081029190910101528161277081614695565b9250505b600101612706565b5081529392505050565b604080516003808252608082019092526000916020820160608036833701905050905084816000815181106127bd576127bd61417c565b6020026020010181815250508360030b60001b816001815181106127e3576127e361417c565b6020026020010181815250508260030b60001b816002815181106128095761280961417c565b6020908102919091010152611f767f74620000000000000000000000000000456e7469746965734174506f7369746982600061284486613303565b613313565b604080516003808252608082019092526000916020820160608036833701905050905083816000815181106128805761288061417c565b6020026020010181815250508260030b60001b816001815181106128a6576128a661417c565b6020026020010181815250508160030b60001b816002815181106128cc576128cc61417c565b60209081029190910101526109e27f74620000000000000000000000000000456e7469746965734174506f7369746982613386565b600061290b6112fd565b9050306001600160a01b0382160361292e5761292985858585613421565b611f76565b6040517f150f32620000000000000000000000000000000000000000000000000000000081526001600160a01b0382169063150f3262906129799088908890889088906004016146af565b600060405180830381600087803b15801561299357600080fd5b505af11580156129a7573d6000803e3d6000fd5b505050505050505050565b600082826040516020016129c7929190614637565b60408051601f1981840301815291905280516020909101207f14e2fcc58e58e68ec7edc30c8d50dccc3ce2714a623ec81f46b6a63922d76569189392505050565b6040805160c081018252600080825260208201819052818301819052606082018190526080820181905260a082018190528251600180825281850190945291929091908160200160208202803683370190505090508281600081518110612a7157612a7161417c565b602090810291909101015260008080612aca7f746200000000000000000000000000004d61746368436f6e6669670000000000857eb4060020202020201400000000000000000000000000000000000000000000610a33565b92509250925061088c83838361345c565b604080518082018252600080825260208201819052825160028082526060820190945291929091908160200160208202803683370190505090508381600081518110612b2957612b2961417c565b6020026020010181815250508281600181518110612b4957612b4961417c565b6020908102919091010152600080806105427f74620000000000000000000000000000436861726765436170000000000000008564020080010160d21b610a33565b6040805160028082526060820183526000926020830190803683370190505090508381600081518110612bc057612bc061417c565b6020026020010181815250508281600181518110612be057612be061417c565b6020026020010181815250506109e27f746200000000000000000000000000004368617267654361700000000000000060001b82600185604051602001612c30919060e09190911b815260040190565b60408051601f1981840301815291905264020080010160d21b6118ff565b7f6f74000000000000000000000000000000000000000000000000000000000000847fffff0000000000000000000000000000000000000000000000000000000000001603612cd857837f8c0b5119d4cec7b284c6b1b39252a03d1e2f2d7451a5895562524c113bb952be848484604051612ccb939291906146e3565b60405180910390a26109e2565b6000612ce48585612198565b90506000612cf1866134c2565b905060005b8151811015612dc6576000828281518110612d1357612d1361417c565b60200260200101519050612d3f6004826affffffffffffffffffffff191661354b90919063ffffffff16565b15612dbd576040517f964f667d000000000000000000000000000000000000000000000000000000008152606082901c9063964f667d90612d8a908b908b908b908b90600401614716565b600060405180830381600087803b158015612da457600080fd5b505af1158015612db8573d6000803e3d6000fd5b505050505b50600101612cf6565b50857f8c0b5119d4cec7b284c6b1b39252a03d1e2f2d7451a5895562524c113bb952be868686604051612dfb939291906146e3565b60405180910390a2612e16828565ffffffffffff1685613569565b60005b8151811015611b82576000828281518110612e3657612e3661417c565b60200260200101519050612e626008826affffffffffffffffffffff191661354b90919063ffffffff16565b15612ee0576040517fa8ba8721000000000000000000000000000000000000000000000000000000008152606082901c9063a8ba872190612ead908b908b908b908b90600401614716565b600060405180830381600087803b158015612ec757600080fd5b505af1158015612edb573d6000803e3d6000fd5b505050505b50600101612e19565b6020810151600090610177565b6060806000603885901c64ffffffffff16612f1a612f15868484610cbf565b61357f565b935090508064ffffffffff606087901c1601612f3a612f15868484610cbf565b925050509250929050565b60007f8b9d8c8b908d9affffffffffffffffffab9e9d939a8d000000000000000000008201612f9457507e60030220202000000000000000000000000000000000000000000000000000919050565b610177612fc17f746273746f72650000000000000000005461626c657300000000000000000000846135ff565b6020600061221f565b7f6f74000000000000000000000000000000000000000000000000000000000000867fffff000000000000000000000000000000000000000000000000000000000000160361305657857f8dbb3a9672eebfd3773e72dd9c102393436816d832c7ba9e1e1ac8fcadcac7a986868686604051613049949392919061474f565b60405180910390a26119ad565b6000613061876134c2565b905060005b815181101561313a5760008282815181106130835761308361417c565b602002602001015190506130af6001826affffffffffffffffffffff191661354b90919063ffffffff16565b15613131576040517f57066c9c000000000000000000000000000000000000000000000000000000008152606082901c906357066c9c906130fe908c908c908c908c908c908c9060040161478e565b600060405180830381600087803b15801561311857600080fd5b505af115801561312c573d6000803e3d6000fd5b505050505b50600101613066565b50867f8dbb3a9672eebfd3773e72dd9c102393436816d832c7ba9e1e1ac8fcadcac7a987878787604051613171949392919061474f565b60405180910390a260006131858888612198565b9050600060208701905061319d82600089518461361b565b60006131a885611fd9565b111561322c5760006131ba8a8a6129b2565b878155905060208601915060008060005b6131d488611fd9565b8160ff161015613227576131e98d8d83612029565b92506132048a8260ff166028026038011c64ffffffffff1690565b9150613213836000848861361b565b61321d8286614468565b94506001016131cb565b505050505b60005b83518110156119a857600084828151811061324c5761324c61417c565b602002602001015190506132786002826affffffffffffffffffffff191661354b90919063ffffffff16565b156132fa576040517f5b28cdaf000000000000000000000000000000000000000000000000000000008152606082901c90635b28cdaf906132c7908e908e908e908e908e908e9060040161478e565b600060405180830381600087803b1580156132e157600080fd5b505af11580156132f5573d6000803e3d6000fd5b505050505b5060010161322f565b60608161063881602060006136da565b600061331d6112fd565b9050306001600160a01b0382160361333b576129298585858561372e565b6040517fef6ea8620000000000000000000000000000000000000000000000000000000081526001600160a01b0382169063ef6ea862906129799088908890889088906004016146af565b60006133906112fd565b9050306001600160a01b038216036133ac5761125a8383613769565b6040517f505a181d0000000000000000000000000000000000000000000000000000000081526001600160a01b0382169063505a181d906133f390869086906004016147e7565b600060405180830381600087803b15801561340d57600080fd5b505af1158015611b82573d6000803e3d6000fd5b600061342d8585612016565b9050600061344a828560ff166028026038011c64ffffffffff1690565b90506119ad8686868460008888613780565b6040805160c081018252600080825260208201819052918101829052606081018290526080810182905260a081019190915261349784613bba565b6001600160a01b031660a0870152608086015260608501526040840152602083015281529392505050565b604080516001808252818301909252606091600091906020808301908036833701905050905082816000815181106134fc576134fc61417c565b602090810291909101015260006135347f746273746f726500000000000000000053746f7265486f6f6b730000000000008383611582565b905061044e6135468260008451610cbf565b613c02565b60008160ff168261355c8560581c90565b1660ff1614905092915050565b61125a8383835161357a8560200190565b61361b565b6060600061358d8360801c90565b90506fffffffffffffffffffffffffffffffff83168067ffffffffffffffff8111156135bb576135bb6140aa565b6040519080825280601f01601f1916602001820160405280156135e5576020820181803683370190505b509250602083016135f7838284613c13565b505050919050565b60408051602081018490529081018290526000906060016121ad565b821561369557602083106136455760208304840193506020838161364157613641614552565b0692505b82156136955760208390036000600019600885021c1990506008850281811c91508351811c90508119875416828216178755508184116136865750506109e2565b50600194909401939182900391015b5b602082106136b75780518455600190930192601f1990910190602001613696565b81156109e2576000600019600884021c8554835182191691161785555050505050565b825160609060006136eb8583614620565b9050604051925060208301601f19603f83860101166040528184526000602088015b8482101561162b578051871b8352918701916001919091019060200161370d565b600061373a8585612016565b90506000613757828560ff166028026038011c64ffffffffff1690565b90506119ad8686866000858888613780565b61377c828261377785612f45565b613c5e565b5050565b7f7462000000000000000000000000000000000000000000000000000000000000877fffff0000000000000000000000000000000000000000000000000000000000001614613840577f746200000000000000000000000000000000000000000000000000000000000087886040516020016137fe91815260200190565b60408051601f19818403018152908290527f31b466830000000000000000000000000000000000000000000000000000000082526101f3939291600401614800565b600061385b828760ff166028026038011c64ffffffffff1690565b9050600083518564ffffffffff1683613874919061447b565b61387e9190614468565b90508082141580156138a05750816138968688614841565b64ffffffffff1614155b156138f0576040517fa65010b400000000000000000000000000000000000000000000000000000000815264ffffffffff80881660048301528087166024830152831660448201526064016101f3565b818664ffffffffff161115613941576040517f7e8578d30000000000000000000000000000000000000000000000000000000081526004810183905264ffffffffff871660248201526044016101f3565b600061394e848984613f5d565b9050600061395b8b6134c2565b905060005b8151811015613a2657600082828151811061397d5761397d61417c565b602002602001015190506139a96010826affffffffffffffffffffff191661354b90919063ffffffff16565b15613a1d57606081901c6001600160a01b03166355eb5a288e8e8e8e8e8d8f6040518863ffffffff1660e01b81526004016139ea979695949392919061485f565b600060405180830381600087803b158015613a0457600080fd5b505af1158015613a18573d6000803e3d6000fd5b505050505b50600101613960565b5064ffffffffff881660005b8a60ff168160ff161015613a6557613a59878260ff166028026038011c64ffffffffff1690565b90910190600101613a32565b508b7ffe158a7adba34e256807c8a149028d3162918713c3838afc643ce9f96716ebfd8c8c848c888d604051613aa0969594939291906148bd565b60405180910390a250828414613ac1576000613abc8c8c6129b2565b839055505b6000613ace8c8c8c612029565b9050613ae2818a64ffffffffff1689613569565b5060005b8151811015613bac576000828281518110613b0357613b0361417c565b60200260200101519050613b2f6020826affffffffffffffffffffff191661354b90919063ffffffff16565b15613ba357606081901c6001600160a01b031663635845338e8e8e8e8e8a8f6040518863ffffffff1660e01b8152600401613b70979695949392919061485f565b600060405180830381600087803b158015613b8a57600080fd5b505af1158015613b9e573d6000803e3d6000fd5b505050505b50600101613ae6565b505050505050505050505050565b600080600080600080613bd1876000016020015190565b60408801516060808a015160808b015160a08c015160c0909c0151949c939b919a50985096509190911c9350915050565b6060600061063883601560006115bc565b5b60208110613c33578251825260209283019290910190601f1901613c14565b80600003613c4057505050565b6000600019600883021c905080835116811985511617835250505050565b7f6f74000000000000000000000000000000000000000000000000000000000000837fffff0000000000000000000000000000000000000000000000000000000000001603613ce457827f0e1f72f429eb97e64878619984a91e687ae91610348b9ff4216782cc96e49d0783604051613cd7919061490c565b60405180910390a2505050565b6000613cef846134c2565b905060005b8151811015613dc2576000828281518110613d1157613d1161417c565b60200260200101519050613d3d6040826affffffffffffffffffffff191661354b90919063ffffffff16565b15613db9576040517f9faeaf45000000000000000000000000000000000000000000000000000000008152606082901c90639faeaf4590613d869089908990899060040161427e565b600060405180830381600087803b158015613da057600080fd5b505af1158015613db4573d6000803e3d6000fd5b505050505b50600101613cf4565b50837f0e1f72f429eb97e64878619984a91e687ae91610348b9ff4216782cc96e49d0784604051613df3919061490c565b60405180910390a26000613e078585612198565b9050613e60816000613e1886611f7d565b67ffffffffffffffff811115613e3057613e306140aa565b6040519080825280601f01601f191660200182016040528015613e5a576020820181803683370190505b50613569565b6000613e6b84611fd9565b1115613e8c576000613e7d86866129b2565b9050613e8a81602061402b565b505b60005b82518110156119ad576000838281518110613eac57613eac61417c565b60200260200101519050613ed86080826affffffffffffffffffffff191661354b90919063ffffffff16565b15613f54576040517f83b5c95b000000000000000000000000000000000000000000000000000000008152606082901c906383b5c95b90613f21908a908a908a9060040161427e565b600060405180830381600087803b158015613f3b57600080fd5b505af1158015613f4f573d6000803e3d6000fd5b505050505b50600101613e8f565b600064ffffffffff821115613fa1576040517f7149a3c1000000000000000000000000000000000000000000000000000000008152600481018390526024016101f3565b8366ffffffffffffff811660ff851660280260380182901c64ffffffffff16808510613fd35780850382019150613fdb565b848103820391505b5064ffffffffff6038602860ff8816020181811b197fffffffffffffffffffffffffffffffffffffffffffffffffff000000000000009490941690921792909216918416901b1790509392505050565b6000602061403a83601f614468565b6140449190614673565b61404e9084614468565b90505b8083101561125a5760008355600183019250614051565b60006020828403121561407a57600080fd5b81357fffffffff000000000000000000000000000000000000000000000000000000008116811461063857600080fd5b634e487b7160e01b600052604160045260246000fd5b8035600381900b811461133757600080fd5b60008060008084860360a08112156140e957600080fd5b85359450602086013593506040860135925060407fffffffffffffffffffffffffffffffffffffffffffffffffffffffffffffffa08201121561412b57600080fd5b506040516040810181811067ffffffffffffffff8211171561414f5761414f6140aa565b60405261415e606087016140c0565b815261416c608087016140c0565b6020820152939692955090935050565b634e487b7160e01b600052603260045260246000fd5b634e487b7160e01b600052601160045260246000fd5b600382810b9082900b03637fffffff198112637fffffff8213171561017757610177614192565b600381810b9083900b01637fffffff8113637fffffff198212171561017757610177614192565b6000815160208301517fffffffff00000000000000000000000000000000000000000000000000000000808216935060048310156135f75760049290920360031b82901b161692915050565b60008151808452602080850194506020840160005b8381101561427357815187529582019590820190600101614257565b509495945050505050565b8381526060602082015260006142976060830185614242565b9050826040830152949350505050565b60005b838110156142c25781810151838201526020016142aa565b50506000910152565b600082601f8301126142dc57600080fd5b815167ffffffffffffffff808211156142f7576142f76140aa565b604051601f8301601f19908116603f0116810190828211818310171561431f5761431f6140aa565b8160405283815286602085880101111561433857600080fd5b61088c8460208301602089016142a7565b60008060006060848603121561435e57600080fd5b835167ffffffffffffffff8082111561437657600080fd5b614382878388016142cb565b945060208601519350604086015191508082111561439f57600080fd5b506143ac868287016142cb565b9150509250925092565b8381526060602082015260006143cf6060830185614242565b905060ff83166040830152949350505050565b6000602082840312156143f457600080fd5b815167ffffffffffffffff81111561440b57600080fd5b61044e848285016142cb565b6000815180845261442f8160208601602086016142a7565b601f01601f19169290920160200192915050565b6060815260006144566060830186614417565b60208301949094525060400152919050565b8082018082111561017757610177614192565b8181038181111561017757610177614192565b85815260a0602082015260006144a760a0830187614242565b60ff95909516604083015250606081019290925260809091015292915050565b8481526080602082015260006144e06080830186614242565b60ff949094166040830152506060015292915050565b60006020828403121561450857600080fd5b5051919050565b63ffffffff81811683821601908082111561452c5761452c614192565b5092915050565b600060ff821660ff810361454957614549614192565b60010192915050565b634e487b7160e01b600052601260045260246000fd5b60008260030b8260030b028060030b915080821461452c5761452c614192565b85815260a0602082015260006145a160a0830187614242565b60ff8616604084015282810360608401526145bc8186614417565b9150508260808301529695505050505050565b85815260a0602082015260006145e860a0830187614242565b82810360408401526145fa8187614417565b905084606084015282810360808401526146148185614417565b98975050505050505050565b808202811582820484141761017757610177614192565b8281526000602080830184516020860160005b828110156146665781518452928401929084019060010161464a565b5091979650505050505050565b60008261469057634e487b7160e01b600052601260045260246000fd5b500490565b600060001982036146a8576146a8614192565b5060010190565b8481526080602082015260006146c86080830186614242565b60ff8516604084015282810360608401526105768185614417565b6060815260006146f66060830186614242565b65ffffffffffff85166020840152828103604084015261088c8185614417565b84815260806020820152600061472f6080830186614242565b65ffffffffffff8516604084015282810360608401526105768185614417565b6080815260006147626080830187614242565b82810360208401526147748187614417565b905084604084015282810360608401526105768185614417565b86815260c0602082015260006147a760c0830188614242565b82810360408401526147b98188614417565b905085606084015282810360808401526147d38186614417565b9150508260a0830152979650505050505050565b82815260406020820152600061044e6040830184614242565b7fffff0000000000000000000000000000000000000000000000000000000000008416815282602082015260606040820152600061060c6060830184614417565b64ffffffffff81811683821601908082111561452c5761452c614192565b87815260e06020820152600061487860e0830189614242565b60ff8816604084015264ffffffffff87811660608501528616608084015260a0830185905282810360c08401526148af8185614417565b9a9950505050505050505050565b60c0815260006148d060c0830189614242565b60ff8816602084015265ffffffffffff8716604084015264ffffffffff8616606084015284608084015282810360a084015261172d8185614417565b602081526000610638602083018461424256fea264697066735822122028428f327371e8759fe9b2f930f8f891a0295e7533c47dcb56286ff64d29e40f64736f6c63430008180033","linkReferences":{}},"methodIdentifiers":{"_msgSender()":"119df25f","_msgValue()":"45ec9354","_world()":"e1af802c","build(bytes32,bytes32,bytes32,(int32,int32))":"ac21e2ed","supportsInterface(bytes4)":"01ffc9a7"},"id":310}