{"abi":[{"type":"function","name":"_msgSender","inputs":[],"outputs":[{"name":"sender","type":"address","internalType":"address"}],"stateMutability":"view"},{"type":"function","name":"_msgValue","inputs":[],"outputs":[{"name":"value","type":"uint256","internalType":"uint256"}],"stateMutability":"pure"},{"type":"function","name":"_world","inputs":[],"outputs":[{"name":"","type":"address","internalType":"address"}],"stateMutability":"view"},{"type":"function","name":"setName","inputs":[{"name":"name","type":"string","internalType":"string"}],"outputs":[],"stateMutability":"nonpayable"},{"type":"function","name":"supportsInterface","inputs":[{"name":"interfaceId","type":"bytes4","internalType":"bytes4"}],"outputs":[{"name":"","type":"bool","internalType":"bool"}],"stateMutability":"pure"},{"type":"event","name":"Store_SpliceDynamicData","inputs":[{"name":"tableId","type":"bytes32","indexed":true,"internalType":"ResourceId"},{"name":"keyTuple","type":"bytes32[]","indexed":false,"internalType":"bytes32[]"},{"name":"dynamicFieldIndex","type":"uint8","indexed":false,"internalType":"uint8"},{"name":"start","type":"uint48","indexed":false,"internalType":"uint48"},{"name":"deleteCount","type":"uint40","indexed":false,"internalType":"uint40"},{"name":"encodedLengths","type":"bytes32","indexed":false,"internalType":"EncodedLengths"},{"name":"data","type":"bytes","indexed":false,"internalType":"bytes"}],"anonymous":false},{"type":"event","name":"Store_SpliceStaticData","inputs":[{"name":"tableId","type":"bytes32","indexed":true,"internalType":"ResourceId"},{"name":"keyTuple","type":"bytes32[]","indexed":false,"internalType":"bytes32[]"},{"name":"start","type":"uint48","indexed":false,"internalType":"uint48"},{"name":"data","type":"bytes","indexed":false,"internalType":"bytes"}],"anonymous":false},{"type":"error","name":"EncodedLengths_InvalidLength","inputs":[{"name":"length","type":"uint256","internalType":"uint256"}]},{"type":"error","name":"PackedPtrLen__LenOverflow","inputs":[]},{"type":"error","name":"PackedPtrLen__PtrOverflow","inputs":[]},{"type":"error","name":"SliceIter__StopIteration","inputs":[]},{"type":"error","name":"Slice_OutOfBounds","inputs":[{"name":"data","type":"bytes","internalType":"bytes"},{"name":"start","type":"uint256","internalType":"uint256"},{"name":"end","type":"uint256","internalType":"uint256"}]},{"type":"error","name":"Store_IndexOutOfBounds","inputs":[{"name":"length","type":"uint256","internalType":"uint256"},{"name":"accessedIndex","type":"uint256","internalType":"uint256"}]},{"type":"error","name":"Store_InvalidResourceType","inputs":[{"name":"expected","type":"bytes2","internalType":"bytes2"},{"name":"resourceId","type":"bytes32","internalType":"ResourceId"},{"name":"resourceIdString","type":"string","internalType":"string"}]},{"type":"error","name":"Store_InvalidSplice","inputs":[{"name":"startWithinField","type":"uint40","internalType":"uint40"},{"name":"deleteCount","type":"uint40","internalType":"uint40"},{"name":"fieldLength","type":"uint40","internalType":"uint40"}]},{"type":"error","name":"StrChar__InvalidUTF8","inputs":[]}],"bytecode":{"object":"0x608060405234801561001057600080fd5b50612572806100206000396000f3fe608060405234801561001057600080fd5b50600436106100675760003560e01c806345ec93541161005057806345ec9354146100c1578063c47f0027146100d4578063e1af802c146100e957600080fd5b806301ffc9a71461006c578063119df25f14610094575b600080fd5b61007f61007a366004611f8c565b6100f1565b60405190151581526020015b60405180910390f35b61009c61018a565b60405173ffffffffffffffffffffffffffffffffffffffff909116815260200161008b565b604051601f19360135815260200161008b565b6100e76100e236600461203d565b610199565b005b61009c6102f5565b60007fffffffff0000000000000000000000000000000000000000000000000000000082167fb5dee12700000000000000000000000000000000000000000000000000000000148061018457507fffffffff0000000000000000000000000000000000000000000000000000000082167f01ffc9a700000000000000000000000000000000000000000000000000000000145b92915050565b60006101946102ff565b905090565b6101a281610331565b61020d576040517f08c379a000000000000000000000000000000000000000000000000000000000815260206004820152600f60248201527f6e616d6520697320696e76616c6964000000000000000000000000000000000060448201526064015b60405180910390fd5b80516020820120600061023a61022161018a565b73ffffffffffffffffffffffffffffffffffffffff1690565b9050600061024782610385565b905061025384826103f7565b6102ef5761026083610421565b6102c6576040517f08c379a000000000000000000000000000000000000000000000000000000000815260206004820152601760248201527f6e616d6520616c726561647920726567697374657265640000000000000000006044820152606401610204565b805160208201206102d8816000610433565b6102e283866104f1565b6102ed846001610433565b505b50505050565b600061019461055f565b7fffffffffffffffffffffffffffffffffffffffffffffffffffffffffffffffcc36013560601c8061032e5750335b90565b60008061033d83610569565b9050600061034a82610574565b905060008111801561035d575060208111155b801561036d575061036d82610592565b801561037d575061037d826105b9565b949350505050565b604080516001808252818301909252606091600091906020808301908036833701905050905082816000815181106103bf576103bf6120bd565b6020908102919091010152600061037d7f746200000000000000000000000000004e616d6500000000000000000000000083836105ff565b6000815183511461040a57506000610184565b508051602091820120825192909101919091201490565b600061042c826106e0565b1592915050565b604080516001808252818301909252600091602080830190803683370190505090508281600081518110610469576104696120bd565b6020026020010181815250506104ec7f746200000000000000000000000000004e616d6545786973747300000000000060001b826000856040516020016104b791151560f81b815260010190565b60408051601f198184030181529190527e0101000100000000000000000000000000000000000000000000000000000061077d565b505050565b604080516001808252818301909252600091602080830190803683370190505090508281600081518110610527576105276120bd565b60209081029190910101526104ec7f746200000000000000000000000000004e616d650000000000000000000000008260008561084d565b6000610194610918565b600061018482610964565b60008061058083610978565b905061058b816109c1565b9392505050565b60006101846105a18360801c90565b6fffffffffffffffffffffffffffffffff84166109fd565b6000806105c583610978565b90505b6020810151156105f6576105e36105de82610a85565b610af3565b156105f15750600092915050565b6105c8565b50600192915050565b6060600061060b610918565b90503073ffffffffffffffffffffffffffffffffffffffff82160361063d57610635858585610cde565b91505061058b565b6040517f1e78897700000000000000000000000000000000000000000000000000000000815273ffffffffffffffffffffffffffffffffffffffff821690631e788977906106939088908890889060040161210f565b600060405180830381865afa1580156106b0573d6000803e3d6000fd5b505050506040513d6000823e601f3d908101601f19168201604052610635919081019061215f565b509392505050565b604080516001808252818301909252600091829190602080830190803683370190505090508281600081518110610719576107196120bd565b602090810291909101015260006107717f746200000000000000000000000000004e616d6545786973747300000000000083837e01010001000000000000000000000000000000000000000000000000000000610d18565b905061037d8160f81c90565b6000610787610918565b90503073ffffffffffffffffffffffffffffffffffffffff8216036107b8576107b38686868686610def565b610845565b6040517f390baae000000000000000000000000000000000000000000000000000000000815273ffffffffffffffffffffffffffffffffffffffff82169063390baae09061081290899089908990899089906004016121f9565b600060405180830381600087803b15801561082c57600080fd5b505af1158015610840573d6000803e3d6000fd5b505050505b505050505050565b6000610857610918565b90503073ffffffffffffffffffffffffffffffffffffffff8216036108875761088285858585610e04565b6102ed565b6040517fef6ea86200000000000000000000000000000000000000000000000000000000815273ffffffffffffffffffffffffffffffffffffffff82169063ef6ea862906108df908890889088908890600401612240565b600060405180830381600087803b1580156108f957600080fd5b505af115801561090d573d6000803e3d6000fd5b505050505050505050565b7f629a4c26e296b22a8e0856e9f6ecb2d1008d7e00081111962cd175fa7488e1755460009073ffffffffffffffffffffffffffffffffffffffff168061095f573391505090565b919050565b60008060208301905061058b818451610e3f565b604080518082019091526000808252602082015260405180604001604052806109a18460801c90565b81526020016fffffffffffffffffffffffffffffffff8416905292915050565b60208101518151600091015b82518111156109ee576109e1836001610e4b565b50506001820191506109cd565b50600060209092019190915290565b6000601f82168083038401825b81861015610a4b57508451610a2260ff6000196122ab565b610a2d9060806122cd565b811615610a405760009350505050610184565b602086019550610a0a565b6000600019600885021c198351811692509050610a6b60ff6000196122ab565b610a769060806122cd565b90911615935050505092915050565b60008160200151600003610ac5576040517f43bf591200000000000000000000000000000000000000000000000000000000815260040160405180910390fd5b600080610ad3846001610e4b565b60208601805182900390529092509050600019600882021c19821661037d565b60007f20000000000000000000000000000000000000000000000000000000000000007f09000000000000000000000000000000000000000000000000000000000000007f0a000000000000000000000000000000000000000000000000000000000000007f0d000000000000000000000000000000000000000000000000000000000000007f0c000000000000000000000000000000000000000000000000000000000000007f0b0000000000000000000000000000000000000000000000000000000000000087871a60f81b7fff000000000000000000000000000000000000000000000000000000000000008116871480610c1557507fff00000000000000000000000000000000000000000000000000000000000000818116908716145b80610c4457507fff00000000000000000000000000000000000000000000000000000000000000818116908616145b80610c7357507fff00000000000000000000000000000000000000000000000000000000000000818116908516145b80610ca257507fff00000000000000000000000000000000000000000000000000000000000000818116908416145b80610cd157507fff00000000000000000000000000000000000000000000000000000000000000818116908316145b9998505050505050505050565b606061037d610cee858585610efc565b6000610d1385610cfe8989610f7c565b9060ff166028026038011c64ffffffffff1690565b610f8f565b600080610d23610918565b90503073ffffffffffffffffffffffffffffffffffffffff821603610d5657610d4e86868686610fb2565b91505061037d565b6040517f8c364d5900000000000000000000000000000000000000000000000000000000815273ffffffffffffffffffffffffffffffffffffffff821690638c364d5990610dae9089908990899089906004016122e4565b602060405180830381865afa158015610dcb573d6000803e3d6000fd5b505050506040513d601f19601f82011682018060405250810190610d4e9190612313565b6102ed8585610dfe8487610fe8565b85611019565b6000610e108585610f7c565b90506000610e2d828560ff166028026038011c64ffffffffff1690565b905061084586868660008588886112bd565b600061058b8383611711565b8151516000610e598261171d565b90508360200151811115610eae578215610e9f576040517fc0c0a5c700000000000000000000000000000000000000000000000000000000815260040160405180910390fd5b50825160010183526000610ef5565b80600003610eee578215610e9f576040517fc0c0a5c700000000000000000000000000000000000000000000000000000000815260040160405180910390fd5b8351810184525b9250929050565b60008383604051602001610f1192919061232c565b604051602081830303815290604052805190602001208260f81b7effffffffffffffffffffffffffffffffffffffffffffffffffffffffffffff19167f3b4102da22e32d82fc925482184f16c09fd4281692720b87d124aef6da48a0f1181860001c90509392505050565b600061058b610f8b848461194d565b5490565b60405160208101601f19603f84840101166040528282526106d8858585846119a3565b6000610fdf610fc18686611a6f565b60ff858116601b0360080285901c16610fda8587610fe8565b611ac5565b95945050505050565b600080805b8360ff168110156106d85761100f60ff601b83900360080287901c1683612368565b9150600101610fed565b7f6f74000000000000000000000000000000000000000000000000000000000000847fffff00000000000000000000000000000000000000000000000000000000000016036110a357837f8c0b5119d4cec7b284c6b1b39252a03d1e2f2d7451a5895562524c113bb952be8484846040516110969392919061237b565b60405180910390a26102ef565b60006110af8585611a6f565b905060006110bc86611b16565b905060005b81518110156111915760008282815181106110de576110de6120bd565b6020026020010151905061110a6004826affffffffffffffffffffff1916611b9f90919063ffffffff16565b15611188576040517f964f667d000000000000000000000000000000000000000000000000000000008152606082901c9063964f667d90611155908b908b908b908b906004016123b8565b600060405180830381600087803b15801561116f57600080fd5b505af1158015611183573d6000803e3d6000fd5b505050505b506001016110c1565b50857f8c0b5119d4cec7b284c6b1b39252a03d1e2f2d7451a5895562524c113bb952be8686866040516111c69392919061237b565b60405180910390a26111e1828565ffffffffffff1685611bbd565b60005b81518110156112b4576000828281518110611201576112016120bd565b6020026020010151905061122d6008826affffffffffffffffffffff1916611b9f90919063ffffffff16565b156112ab576040517fa8ba8721000000000000000000000000000000000000000000000000000000008152606082901c9063a8ba872190611278908b908b908b908b906004016123b8565b600060405180830381600087803b15801561129257600080fd5b505af11580156112a6573d6000803e3d6000fd5b505050505b506001016111e4565b50505050505050565b7f7462000000000000000000000000000000000000000000000000000000000000877fffff000000000000000000000000000000000000000000000000000000000000161461137d577f7462000000000000000000000000000000000000000000000000000000000000878860405160200161133b91815260200190565b60408051601f19818403018152908290527f31b466830000000000000000000000000000000000000000000000000000000082526102049392916004016123f1565b6000611398828760ff166028026038011c64ffffffffff1690565b9050600083518564ffffffffff16836113b19190612432565b6113bb9190612368565b90508082141580156113dd5750816113d38688612445565b64ffffffffff1614155b1561142d576040517fa65010b400000000000000000000000000000000000000000000000000000000815264ffffffffff8088166004830152808716602483015283166044820152606401610204565b818664ffffffffff16111561147e576040517f7e8578d30000000000000000000000000000000000000000000000000000000081526004810183905264ffffffffff87166024820152604401610204565b600061148b848984611bd3565b905060006114988b611b16565b905060005b81518110156115705760008282815181106114ba576114ba6120bd565b602002602001015190506114e66010826affffffffffffffffffffff1916611b9f90919063ffffffff16565b1561156757606081901c73ffffffffffffffffffffffffffffffffffffffff166355eb5a288e8e8e8e8e8d8f6040518863ffffffff1660e01b8152600401611534979695949392919061246a565b600060405180830381600087803b15801561154e57600080fd5b505af1158015611562573d6000803e3d6000fd5b505050505b5060010161149d565b5064ffffffffff881660005b8a60ff168160ff1610156115af576115a3878260ff166028026038011c64ffffffffff1690565b9091019060010161157c565b508b7ffe158a7adba34e256807c8a149028d3162918713c3838afc643ce9f96716ebfd8c8c848c888d6040516115ea969594939291906124c8565b60405180910390a25082841461160b5760006116068c8c61194d565b839055505b60006116188c8c8c610efc565b905061162c818a64ffffffffff1689611bbd565b5060005b815181101561170357600082828151811061164d5761164d6120bd565b602002602001015190506116796020826affffffffffffffffffffff1916611b9f90919063ffffffff16565b156116fa57606081901c73ffffffffffffffffffffffffffffffffffffffff1663635845338e8e8e8e8e8a8f6040518863ffffffff1660e01b81526004016116c7979695949392919061246a565b600060405180830381600087803b1580156116e157600080fd5b505af11580156116f5573d6000803e3d6000fd5b505050505b50600101611630565b505050505050505050505050565b600061058b8383611ca1565b600081811a607f81116117335750600192915050565b60006117418260ff16611d54565b905080600203611796578160ff1660c211158015611763575060df8260ff1611155b801561177d575061177d8460015b1a608060c09091161490565b1561178c575060029392505050565b5060009392505050565b8060030361188557600184901a600060ff841660e01480156117bc57508160ff1660a011155b80156117cc575060bf8260ff1611155b806117f957508360ff1660e1111580156117ea575060ec8460ff1611155b80156117f9575060c082166080145b8061182657508360ff1660ed14801561181657508160ff16608011155b80156118265750609f8260ff1611155b8061185357508360ff1660ee11158015611844575060ef8460ff1611155b8015611853575060c082166080145b90508080156118685750611868866002611771565b156118795750600395945050505050565b50600095945050505050565b8060040361178c57600184901a600060ff841660f01480156118ab57508160ff16609011155b80156118bb575060bf8260ff1611155b806118e857508360ff1660f1111580156118d9575060f38460ff1611155b80156118e8575060c082166080145b8061191557508360ff1660f414801561190557508160ff16608011155b80156119155750608f8260ff1611155b905080801561192a575061192a866002611771565b801561193c575061193c866003611771565b156118795750600495945050505050565b6000828260405160200161196292919061232c565b60408051601f1981840301815291905280516020909101207f14e2fcc58e58e68ec7edc30c8d50dccc3ce2714a623ec81f46b6a63922d76569189392505050565b8215611a2a57602083106119cd576020830484019350602083816119c9576119c961227f565b0692505b8215611a2a5760208390036000818410156119f05750600019600884021c6119fa565b50600019600882021c5b8554600886021b818451168219821617845250818411611a1b5750506102ef565b50600194909401939182900391015b5b60208210611a4c5783548152600190930192601f1990910190602001611a2b565b81156102ef576000600019600884021c8251865482191691161782525050505050565b60008282604051602001611a8492919061232c565b60408051601f1981840301815291905280516020909101207f86425bff6b57326c7859e89024fe4f238ca327a1ae4a230180dd2f0e88aaa7d9189392505050565b600060208210611aeb57602082048401935060208281611ae757611ae761227f565b0691505b508254600882021b6020829003808411156106d8576001850154600882021c82179150509392505050565b60408051600180825281830190925260609160009190602080830190803683370190505090508281600081518110611b5057611b506120bd565b60209081029190910101526000611b887f746273746f726500000000000000000053746f7265486f6f6b730000000000008383610cde565b905061037d611b9a8260008451611db3565b611e41565b60008160ff1682611bb08560581c90565b1660ff1614905092915050565b6104ec83838351611bce8560200190565b611e52565b600064ffffffffff821115611c17576040517f7149a3c100000000000000000000000000000000000000000000000000000000815260048101839052602401610204565b8366ffffffffffffff811660ff851660280260380182901c64ffffffffff16808510611c495780850382019150611c51565b848103820391505b5064ffffffffff6038602860ff8816020181811b197fffffffffffffffffffffffffffffffffffffffffffffffffff000000000000009490941690921792909216918416901b1790509392505050565b60006fffffffffffffffffffffffffffffffff831115611ced576040517ffee7506f00000000000000000000000000000000000000000000000000000000815260040160405180910390fd5b6fffffffffffffffffffffffffffffffff821115611d37576040517f3b6b098d00000000000000000000000000000000000000000000000000000000815260040160405180910390fd5b506fffffffffffffffffffffffffffffffff1660809190911b1790565b60006080821015611d6757506001919050565b60c2821015611d7857506000919050565b60e0821015611d8957506002919050565b60f0821015611d9a57506003919050565b60f5821015611dab57506004919050565b506000919050565b600081831180611dc35750835182115b15611e00578383836040517f23230fa300000000000000000000000000000000000000000000000000000000815260040161020493929190612517565b60208401611e0e8482612368565b90506000611e1c8585612432565b6fffffffffffffffffffffffffffffffff1660809290921b9190911795945050505050565b6060600061058b8360156000611f11565b8215611ecc5760208310611e7c57602083048401935060208381611e7857611e7861227f565b0692505b8215611ecc5760208390036000600019600885021c1990506008850281811c91508351811c9050811987541682821617875550818411611ebd5750506102ef565b50600194909401939182900391015b5b60208210611eee5780518455600190930192601f1990910190602001611ecd565b81156102ef576000600019600884021c8554835182191691161785555050505050565b60606000611f1f8560801c90565b90506fffffffffffffffffffffffffffffffff85166000858281611f4557611f4561227f565b04905060405193506020840160208202810160405281855260005b82811015611f80578451871c825293870193602090910190600101611f60565b50505050509392505050565b600060208284031215611f9e57600080fd5b81357fffffffff000000000000000000000000000000000000000000000000000000008116811461058b57600080fd5b634e487b7160e01b600052604160045260246000fd5b604051601f8201601f1916810167ffffffffffffffff8111828210171561200d5761200d611fce565b604052919050565b600067ffffffffffffffff82111561202f5761202f611fce565b50601f01601f191660200190565b60006020828403121561204f57600080fd5b813567ffffffffffffffff81111561206657600080fd5b8201601f8101841361207757600080fd5b803561208a61208582612015565b611fe4565b81815285602083850101111561209f57600080fd5b81602084016020830137600091810160200191909152949350505050565b634e487b7160e01b600052603260045260246000fd5b60008151808452602080850194506020840160005b83811015612104578151875295820195908201906001016120e8565b509495945050505050565b83815260606020820152600061212860608301856120d3565b905060ff83166040830152949350505050565b60005b8381101561215657818101518382015260200161213e565b50506000910152565b60006020828403121561217157600080fd5b815167ffffffffffffffff81111561218857600080fd5b8201601f8101841361219957600080fd5b80516121a761208582612015565b8181528560208385010111156121bc57600080fd5b610fdf82602083016020860161213b565b600081518084526121e581602086016020860161213b565b601f01601f19169290920160200192915050565b85815260a06020820152600061221260a08301876120d3565b60ff86166040840152828103606084015261222d81866121cd565b9150508260808301529695505050505050565b84815260806020820152600061225960808301866120d3565b60ff85166040840152828103606084015261227481856121cd565b979650505050505050565b634e487b7160e01b600052601260045260246000fd5b634e487b7160e01b600052601160045260246000fd5b6000826122c857634e487b7160e01b600052601260045260246000fd5b500490565b808202811582820484141761018457610184612295565b8481526080602082015260006122fd60808301866120d3565b60ff949094166040830152506060015292915050565b60006020828403121561232557600080fd5b5051919050565b8281526000602080830184516020860160005b8281101561235b5781518452928401929084019060010161233f565b5091979650505050505050565b8082018082111561018457610184612295565b60608152600061238e60608301866120d3565b65ffffffffffff8516602084015282810360408401526123ae81856121cd565b9695505050505050565b8481526080602082015260006123d160808301866120d3565b65ffffffffffff85166040840152828103606084015261227481856121cd565b7fffff00000000000000000000000000000000000000000000000000000000000084168152826020820152606060408201526000610fdf60608301846121cd565b8181038181111561018457610184612295565b64ffffffffff81811683821601908082111561246357612463612295565b5092915050565b87815260e06020820152600061248360e08301896120d3565b60ff8816604084015264ffffffffff87811660608501528616608084015260a0830185905282810360c08401526124ba81856121cd565b9a9950505050505050505050565b60c0815260006124db60c08301896120d3565b60ff8816602084015265ffffffffffff8716604084015264ffffffffff8616606084015284608084015282810360a0840152610cd181856121cd565b60608152600061252a60608301866121cd565b6020830194909452506040015291905056fea264697066735822122075b7f281d32e5bf0911ecb186c158cb8e25e390514bd26d7d5165c57bb1bc09f64736f6c63430008180033","linkReferences":{}},"methodIdentifiers":{"_msgSender()":"119df25f","_msgValue()":"45ec9354","_world()":"e1af802c","setName(string)":"c47f0027","supportsInterface(bytes4)":"01ffc9a7"},"id":320}