{"abi":[{"type":"function","name":"_msgSender","inputs":[],"outputs":[{"name":"sender","type":"address","internalType":"address"}],"stateMutability":"view"},{"type":"function","name":"_msgValue","inputs":[],"outputs":[{"name":"value","type":"uint256","internalType":"uint256"}],"stateMutability":"pure"},{"type":"function","name":"_world","inputs":[],"outputs":[{"name":"","type":"address","internalType":"address"}],"stateMutability":"view"},{"type":"function","name":"copyMap","inputs":[{"name":"matchEntity","type":"bytes32","internalType":"bytes32"}],"outputs":[],"stateMutability":"nonpayable"},{"type":"function","name":"supportsInterface","inputs":[{"name":"interfaceId","type":"bytes4","internalType":"bytes4"}],"outputs":[{"name":"","type":"bool","internalType":"bool"}],"stateMutability":"pure"},{"type":"event","name":"Store_SetRecord","inputs":[{"name":"tableId","type":"bytes32","indexed":true,"internalType":"ResourceId"},{"name":"keyTuple","type":"bytes32[]","indexed":false,"internalType":"bytes32[]"},{"name":"staticData","type":"bytes","indexed":false,"internalType":"bytes"},{"name":"encodedLengths","type":"bytes32","indexed":false,"internalType":"EncodedLengths"},{"name":"dynamicData","type":"bytes","indexed":false,"internalType":"bytes"}],"anonymous":false},{"type":"event","name":"Store_SpliceStaticData","inputs":[{"name":"tableId","type":"bytes32","indexed":true,"internalType":"ResourceId"},{"name":"keyTuple","type":"bytes32[]","indexed":false,"internalType":"bytes32[]"},{"name":"start","type":"uint48","indexed":false,"internalType":"uint48"},{"name":"data","type":"bytes","indexed":false,"internalType":"bytes"}],"anonymous":false},{"type":"error","name":"Slice_OutOfBounds","inputs":[{"name":"data","type":"bytes","internalType":"bytes"},{"name":"start","type":"uint256","internalType":"uint256"},{"name":"end","type":"uint256","internalType":"uint256"}]},{"type":"error","name":"Store_IndexOutOfBounds","inputs":[{"name":"length","type":"uint256","internalType":"uint256"},{"name":"accessedIndex","type":"uint256","internalType":"uint256"}]},{"type":"error","name":"Store_InvalidBounds","inputs":[{"name":"start","type":"uint256","internalType":"uint256"},{"name":"end","type":"uint256","internalType":"uint256"}]}],"bytecode":{"object":"0x608060405234801561001057600080fd5b50613070806100206000396000f3fe608060405234801561001057600080fd5b50600436106100675760003560e01c806345ec93541161005057806345ec9354146100b4578063e1af802c146100c7578063f29bced0146100cf57600080fd5b806301ffc9a71461006c578063119df25f14610094575b600080fd5b61007f61007a366004612a40565b6100e4565b60405190151581526020015b60405180910390f35b61009c61017d565b6040516001600160a01b03909116815260200161008b565b604051601f19360135815260200161008b565b61009c61018c565b6100e26100dd366004612a82565b610196565b005b60007fffffffff0000000000000000000000000000000000000000000000000000000082167fb5dee12700000000000000000000000000000000000000000000000000000000148061017757507fffffffff0000000000000000000000000000000000000000000000000000000082167f01ffc9a700000000000000000000000000000000000000000000000000000000145b92915050565b6000610187610375565b905090565b60006101876103a7565b61019f816103b1565b60000361020d576040517f08c379a000000000000000000000000000000000000000000000000000000000815260206004820152601460248201527f6d6174636820646f6573206e6f7420657869737400000000000000000000000060448201526064015b60405180910390fd5b6102168161044b565b1561027d576040517f08c379a000000000000000000000000000000000000000000000000000000000815260206004820152601960248201527f6d617463682068617320616c72656164792073746172746564000000000000006044820152606401610204565b6000610288826104dd565b9050600061029583610556565b905060006102a2826105e8565b90508260006102b36103e883612ab1565b9050828111156102c05750815b815b8181101561033f5760006102d68683610665565b90507f537061776e536574746c656d656e740000000000000000000000000000000000811415801561030e575061030c816106fa565b155b1561033657600061031e89610797565b9050610334878461032f8c856107d4565b61083a565b505b506001016102c2565b5061034a86826108a9565b82810361036d5761035b864261094a565b610364866109c9565b61036d86610a2d565b505050505050565b7fffffffffffffffffffffffffffffffffffffffffffffffffffffffffffffffcc36013560601c806103a45750335b90565b6000610187610b03565b6040805160018082528183019092526000918291906020808301908036833701905050905082816000815181106103ea576103ea612ada565b602090810291909101015260006104437f746200000000000000000000000000004d61746368436f6e66696700000000008360027eb4060020202020201400000000000000000000000000000000000000000000610b42565b949350505050565b60408051600180825281830190925260009182919060208083019080368337019050509050828160008151811061048457610484612ada565b602090810291909101015260006104437f746200000000000000000000000000004d61746368436f6e66696700000000008360017eb4060020202020201400000000000000000000000000000000000000000000610b42565b60408051600180825281830190925260009182919060208083019080368337019050509050828160008151811061051657610516612ada565b602090810291909101015260006104437f746200000000000000000000000000004d617463684d6170436f707950726f678383630100080160dd1b610b42565b60408051600180825281830190925260009182919060208083019080368337019050509050828160008151811061058f5761058f612ada565b602090810291909101015260006104437f746200000000000000000000000000004d61746368436f6e66696700000000008360037eb4060020202020201400000000000000000000000000000000000000000000610b42565b60408051600180825281830190925260009182919060208083019080368337019050509050828160008151811061062157610621612ada565b602090810291909101015260006106597f746200000000000000000000000000004c6576656c54656d706c6174657300008383610bff565b60209004949350505050565b60408051600180825281830190925260009182919060208083019080368337019050509050838160008151811061069e5761069e612ada565b60200260200101818152505060006106e67f746200000000000000000000000000004c6576656c54656d706c61746573000060001b8360008760200288600101602002610cc2565b90506106f181612b06565b95945050505050565b60408051600180825281830190925260009182919060208083019080368337019050509050828160008151811061073357610733612ada565b6020908102919091010152600061078b7f746200000000000000000000000000005669727475616c4c6576656c54656d7083837e01010001000000000000000000000000000000000000000000000000000000610b42565b90506104438160f81c90565b6000806107a383610d87565b6107ae906001612b2a565b90506107ba8382610e23565b63ffffffff811691506107ce838381610f00565b50919050565b6040805160028082526060808301845292602083019080368337019050509050828160008151811061080857610808612ada565b602002602001018181525050818160018151811061082857610828612ada565b60200260200101818152505092915050565b61084d6108478484610665565b82610faa565b60006108598484611012565b90506108a38260008151811061087157610871612ada565b60200260200101518360018151811061088c5761088c612ada565b60200260200101518360000151846020015161111b565b50505050565b6040805160018082528183019092526000916020808301908036833701905050905082816000815181106108df576108df612ada565b6020026020010181815250506109457f746200000000000000000000000000004d617463684d6170436f707950726f6760001b8260008560405160200161092891815260200190565b60408051601f19818403018152919052630100080160dd1b6111dc565b505050565b60408051600180825281830190925260009160208083019080368337019050509050828160008151811061098057610980612ada565b6020026020010181815250506109457f746200000000000000000000000000004d61746368526561647900000000000060001b8260008560405160200161092891815260200190565b60006109d482611291565b905080158015906109e55750804210155b15610a295760006109f583610556565b90506000610a028461130a565b9050610a0d82611393565b518151036108a3576108a384610a24607842612ab1565b6113bf565b5050565b6000610a3882611291565b90508015801590610a495750804210155b15610a29576000610a5983610556565b90506000610a668461130a565b90506000805b8251811015610abc576000838281518110610a8957610a89612ada565b602002602001015190506000610a9f8883611473565b1115610ab35782610aaf81612b4e565b9350505b50600101610a6c565b50610ae7837f537061776e536574746c656d656e74000000000000000000000000000000000061150c565b8103610afc57610afc85610a24600542612ab1565b5050505050565b7f629a4c26e296b22a8e0856e9f6ecb2d1008d7e00081111962cd175fa7488e175546000906001600160a01b031680610b3d573391505090565b919050565b600080610b4d610b03565b9050306001600160a01b03821603610b7357610b6b868686866115aa565b915050610443565b6040517f8c364d590000000000000000000000000000000000000000000000000000000081526001600160a01b03821690638c364d5990610bbe908990899089908990600401612ba4565b602060405180830381865afa158015610bdb573d6000803e3d6000fd5b505050506040513d601f19601f82011682018060405250810190610b6b9190612bd3565b600080610c0a610b03565b9050306001600160a01b03821603610c2f57610c278585856115d7565b915050610cbb565b6040517fdbbf0e210000000000000000000000000000000000000000000000000000000081526001600160a01b0382169063dbbf0e2190610c7890889088908890600401612bec565b602060405180830381865afa158015610c95573d6000803e3d6000fd5b505050506040513d601f19601f82011682018060405250810190610c279190612bd3565b505b9392505050565b60606000610cce610b03565b9050306001600160a01b03821603610cf557610ced87878787876115fc565b9150506106f1565b6040517f4dc77d970000000000000000000000000000000000000000000000000000000081526001600160a01b03821690634dc77d9790610d42908a908a908a908a908a90600401612c18565b600060405180830381865afa158015610d5f573d6000803e3d6000fd5b505050506040513d6000823e601f3d908101601f19168201604052610ced9190810190612cfd565b604080516001808252818301909252600091829190602080830190803683370190505090508281600081518110610dc057610dc0612ada565b60209081029190910101526000610e187f746200000000000000000000000000004d61746368456e74697479436f756e7483837e04010004000000000000000000000000000000000000000000000000000000610b42565b60e01c949350505050565b604080516001808252818301909252600091602080830190803683370190505090508281600081518110610e5957610e59612ada565b6020026020010181815250506109457f746200000000000000000000000000004d61746368456e74697479436f756e7460001b82600085604051602001610ecb919060e09190911b7fffffffff0000000000000000000000000000000000000000000000000000000016815260040190565b60408051601f198184030181529190527e040100040000000000000000000000000000000000000000000000000000006111dc565b6000610f0b826116ff565b6040805160028082526060808301845293945060009392849291906020830190803683370190505090508681600081518110610f4957610f49612ada565b6020026020010181815250508581600181518110610f6957610f69612ada565b6020908102919091010152610fa17f6f7400000000000000000000000000004d6174636800000000000000000000008286868661172a565b50505050505050565b6000610fb5836117a0565b905060005b81518110156108a3576000828281518110610fd757610fd7612ada565b602002602001015190506000610fed8683611812565b9050611008828683602001518460000151856040015161172a565b5050600101610fba565b60408051808201825260008082526020820181905282516002808252606082019094529192909190816020016020820280368337019050509050838160008151811061106057611060612ada565b6020026020010181815250508260001b8160018151811061108357611083612ada565b6020908102919091010152600080806110dc7f746200000000000000000000000000004c6576656c506f736974696f6e000000857e080200040400000000000000000000000000000000000000000000000000006118ef565b6040805180820190915260008082526020808301918252850151602486015160e090811d909252901d815292955090935091505b979650505050505050565b6040805160e084811b602083015283901b60248201528151600881830301815260026028830181815260888401855291936000936060938593909290916048019080368337019050509050878160008151811061117a5761117a612ada565b602002602001018181525050868160018151811061119a5761119a612ada565b60209081029190910101526111d27f74620000000000000000000000000000506f736974696f6e00000000000000008286868661172a565b5050505050505050565b60006111e6610b03565b9050306001600160a01b0382160361120a5761120586868686866119bf565b61036d565b6040517f390baae00000000000000000000000000000000000000000000000000000000081526001600160a01b0382169063390baae0906112579089908990899089908990600401612d5e565b600060405180830381600087803b15801561127157600080fd5b505af1158015611285573d6000803e3d6000fd5b50505050505050505050565b6040805160018082528183019092526000918291906020808301908036833701905050905082816000815181106112ca576112ca612ada565b602090810291909101015260006104437f746200000000000000000000000000004d6174636852656164790000000000008383630100080160dd1b610b42565b6040805160018082528183019092526060916000919060208083019080368337019050509050828160008151811061134457611344612ada565b6020908102919091010152600061137c7f746200000000000000000000000000004d61746368506c61796572730000000083836119d4565b905061044361138e8260008451611a8b565b611b19565b6060610177827f537061776e536574746c656d656e740000000000000000000000000000000000611b2a565b6040805160018082528183019092526000916020808301908036833701905050905082816000815181106113f5576113f5612ada565b6020026020010181815250506109457f746200000000000000000000000000004d61746368436f6e666967000000000060001b8260018560405160200161143e91815260200190565b60408051601f198184030181529190527eb40600202020202014000000000000000000000000000000000000000000006111dc565b6040805160028082526060820183526000928392919060208301908036833701905050905083816000815181106114ac576114ac612ada565b60200260200101818152505082816001815181106114cc576114cc612ada565b602090810291909101015260006106f17f74620000000000000000000000000000506c61796572526561647900000000008383630100080160dd1b610b42565b60408051600280825260608201835260009283929190602083019080368337019050509050838160008151811061154557611545612ada565b602002602001018181525050828160018151811061156557611565612ada565b6020908102919091010152600061159d7f746200000000000000000000000000004c6576656c54656d706c61746573496e8383610bff565b6020900495945050505050565b60006106f16115b98686611bcd565b60ff858116601b0360080285901c166115d28587611c23565b611c54565b6000610443826115e78686611ca5565b9060ff166028026038011c64ffffffffff1690565b606081831115611642576040517fa8c547820000000000000000000000000000000000000000000000000000000081526004810184905260248101839052604401610204565b600061164e8787611ca5565b9050600061166b828760ff166028026038011c64ffffffffff1690565b9050808510158061167b57508084115b156116d657808186101561169957611694600186612da5565b61169b565b855b6040517f7e8578d300000000000000000000000000000000000000000000000000000000815260048101929092526024820152604401610204565b60006116e3898989611cb8565b90506116f28187888803611d38565b9998505050505050505050565b60608160405160200161171491815260200190565b6040516020818303038152906040529050919050565b6000611734610b03565b9050306001600160a01b03821603611753576112058686868686611d5b565b6040517f298314fb0000000000000000000000000000000000000000000000000000000081526001600160a01b0382169063298314fb906112579089908990899089908990600401612db8565b604080516001808252818301909252606091600091906020808301908036833701905050905082816000815181106117da576117da612ada565b6020908102919091010152600061137c7f7462000000000000000000000000000054656d706c6174655461626c6573000083836119d4565b604080516060808201835260008083526020830182905282840182905283516002808252928101909452919290816020016020820280368337019050509050838160008151811061186557611865612ada565b602002602001018181525050828160018151811061188557611885612ada565b6020908102919091010152600080806118de7f7462000000000000000000000000000054656d706c617465436f6e74656e7400857e200102200000000000000000000000000000000000000000000000000000006118ef565b925092509250611110838383611d71565b60606000606060006118ff610b03565b9050306001600160a01b038216036119285761191c878787611db4565b935093509350506119b6565b6040517f419b58fd0000000000000000000000000000000000000000000000000000000081526001600160a01b0382169063419b58fd90611971908a908a908a90600401612e09565b600060405180830381865afa15801561198e573d6000803e3d6000fd5b505050506040513d6000823e601f3d908101601f1916820160405261191c9190810190612e32565b93509350939050565b610afc85856119ce8487611c23565b85611ebc565b606060006119e0610b03565b9050306001600160a01b038216036119fd57610c27858585612157565b6040517f1e7889770000000000000000000000000000000000000000000000000000000081526001600160a01b03821690631e78897790611a4690889088908890600401612bec565b600060405180830381865afa158015611a63573d6000803e3d6000fd5b505050506040513d6000823e601f3d908101601f19168201604052610c279190810190612cfd565b600081831180611a9b5750835182115b15611ad8578383836040517f23230fa300000000000000000000000000000000000000000000000000000000815260040161020493929190612e9f565b60208401611ae68482612ab1565b90506000611af48585612da5565b6fffffffffffffffffffffffffffffffff1660809290921b9190911795945050505050565b60606000610cbb836020600061217c565b604080516002808252606080830184529260009291906020830190803683370190505090508381600081518110611b6357611b63612ada565b6020026020010181815250508281600181518110611b8357611b83612ada565b60209081029190910101526000611bbb7f746200000000000000000000000000004c6576656c54656d706c61746573496e83836119d4565b90506106f161138e8260008451611a8b565b60008282604051602001611be2929190612ec4565b60408051601f1981840301815291905280516020909101207f86425bff6b57326c7859e89024fe4f238ca327a1ae4a230180dd2f0e88aaa7d9189392505050565b600080805b8360ff16811015610cb957611c4a60ff601b83900360080287901c1683612ab1565b9150600101611c28565b600060208210611c7a57602082048401935060208281611c7657611c76612af0565b0691505b508254600882021b602082900380841115610cb9576001850154600882021c82179150509392505050565b6000610cbb611cb484846121f7565b5490565b60008383604051602001611ccd929190612ec4565b604051602081830303815290604052805190602001208260f81b7effffffffffffffffffffffffffffffffffffffffffffffffffffffffffffff19167f3b4102da22e32d82fc925482184f16c09fd4281692720b87d124aef6da48a0f1181860001c90509392505050565b60405160208101601f19603f8484010116604052828252610cb98585858461224d565b610afc8585858585611d6c8b612319565b61239e565b6040805160608082018352600082526020820181905291810191909152611d97846126d7565b8152611da383836126e4565b604083015260208201529392505050565b6060600060606000611dc585612733565b9050611dd2878783612756565b93506000611ddf8661278f565b90508015611eb157611df18888611ca5565b935066ffffffffffffff841667ffffffffffffffff811115611e1557611e15612ac4565b6040519080825280601f01601f191660200182016040528015611e3f576020820181803683370190505b5092506020830160005b828160ff161015611eae576000611e618b8b84611cb8565b90506000611e7e888460ff166028026038011c64ffffffffff1690565b9050611e8d826000838761224d565b611e978185612ab1565b935050508080611ea690612f00565b915050611e49565b50505b505093509350939050565b7f6f74000000000000000000000000000000000000000000000000000000000000847fffff0000000000000000000000000000000000000000000000000000000000001603611f4657837f8c0b5119d4cec7b284c6b1b39252a03d1e2f2d7451a5895562524c113bb952be848484604051611f3993929190612f1f565b60405180910390a26108a3565b6000611f528585611bcd565b90506000611f5f866127cc565b905060005b8151811015612034576000828281518110611f8157611f81612ada565b60200260200101519050611fad6004826affffffffffffffffffffff191661285590919063ffffffff16565b1561202b576040517f964f667d000000000000000000000000000000000000000000000000000000008152606082901c9063964f667d90611ff8908b908b908b908b90600401612f52565b600060405180830381600087803b15801561201257600080fd5b505af1158015612026573d6000803e3d6000fd5b505050505b50600101611f64565b50857f8c0b5119d4cec7b284c6b1b39252a03d1e2f2d7451a5895562524c113bb952be86868660405161206993929190612f1f565b60405180910390a2612084828565ffffffffffff1685612873565b60005b8151811015610fa15760008282815181106120a4576120a4612ada565b602002602001015190506120d06008826affffffffffffffffffffff191661285590919063ffffffff16565b1561214e576040517fa8ba8721000000000000000000000000000000000000000000000000000000008152606082901c9063a8ba87219061211b908b908b908b908b90600401612f52565b600060405180830381600087803b15801561213557600080fd5b505af1158015612149573d6000803e3d6000fd5b505050505b50600101612087565b6060610443612167858585611cb8565b6000612177856115e78989611ca5565b611d38565b6060600061218a8560801c90565b90506fffffffffffffffffffffffffffffffff851660008582816121b0576121b0612af0565b04905060405193506020840160208202810160405281855260005b828110156121eb578451871c8252938701936020909101906001016121cb565b50505050509392505050565b6000828260405160200161220c929190612ec4565b60408051601f1981840301815291905280516020909101207f14e2fcc58e58e68ec7edc30c8d50dccc3ce2714a623ec81f46b6a63922d76569189392505050565b82156122d457602083106122775760208304840193506020838161227357612273612af0565b0692505b82156122d457602083900360008184101561229a5750600019600884021c6122a4565b50600019600882021c5b8554600886021b8184511682198216178452508184116122c55750506108a3565b50600194909401939182900391015b5b602082106122f65783548152600190930192601f19909101906020016122d5565b81156108a3576000600019600884021c8251865482191691161782525050505050565b60007f8b9d8c8b908d9affffffffffffffffffab9e9d939a8d00000000000000000000820161236857507e60030220202000000000000000000000000000000000000000000000000000919050565b6101776123957f746273746f72650000000000000000005461626c65730000000000000000000084612889565b60206000611c54565b7f6f74000000000000000000000000000000000000000000000000000000000000867fffff000000000000000000000000000000000000000000000000000000000000160361242a57857f8dbb3a9672eebfd3773e72dd9c102393436816d832c7ba9e1e1ac8fcadcac7a98686868660405161241d9493929190612f8b565b60405180910390a261036d565b6000612435876127cc565b905060005b815181101561250e57600082828151811061245757612457612ada565b602002602001015190506124836001826affffffffffffffffffffff191661285590919063ffffffff16565b15612505576040517f57066c9c000000000000000000000000000000000000000000000000000000008152606082901c906357066c9c906124d2908c908c908c908c908c908c90600401612fca565b600060405180830381600087803b1580156124ec57600080fd5b505af1158015612500573d6000803e3d6000fd5b505050505b5060010161243a565b50867f8dbb3a9672eebfd3773e72dd9c102393436816d832c7ba9e1e1ac8fcadcac7a9878787876040516125459493929190612f8b565b60405180910390a260006125598888611bcd565b905060006020870190506125718260008951846128a5565b600061257c8561278f565b111561260057600061258e8a8a6121f7565b878155905060208601915060008060005b6125a88861278f565b8160ff1610156125fb576125bd8d8d83611cb8565b92506125d88a8260ff166028026038011c64ffffffffff1690565b91506125e783600084886128a5565b6125f18286612ab1565b945060010161259f565b505050505b60005b835181101561128557600084828151811061262057612620612ada565b6020026020010151905061264c6002826affffffffffffffffffffff191661285590919063ffffffff16565b156126ce576040517f5b28cdaf000000000000000000000000000000000000000000000000000000008152606082901c90635b28cdaf9061269b908e908e908e908e908e908e90600401612fca565b600060405180830381600087803b1580156126b557600080fd5b505af11580156126c9573d6000803e3d6000fd5b505050505b50600101612603565b6020810151600090610177565b6060806000603885901c64ffffffffff16612708612703868484611a8b565b612964565b935090508064ffffffffff606087901c1601612728612703868484611a8b565b925050509250929050565b6000600861274360026020612da5565b61274d9190613023565b9190911c919050565b6060816000036127755750604080516020810190915260008152610cbb565b60006127818585611bcd565b90506106f181600085611d38565b600060086001806127a260026020612da5565b6127ac9190612da5565b6127b69190612da5565b6127c09190613023565b8260ff911c1692915050565b6040805160018082528183019092526060916000919060208083019080368337019050509050828160008151811061280657612806612ada565b6020908102919091010152600061283e7f746273746f726500000000000000000053746f7265486f6f6b730000000000008383612157565b90506104436128508260008451611a8b565b6129e4565b60008160ff16826128668560581c90565b1660ff1614905092915050565b610945838383516128848560200190565b6128a5565b6040805160208101849052908101829052600090606001611be2565b821561291f57602083106128cf576020830484019350602083816128cb576128cb612af0565b0692505b821561291f5760208390036000600019600885021c1990506008850281811c91508351811c90508119875416828216178755508184116129105750506108a3565b50600194909401939182900391015b5b602082106129415780518455600190930192601f1990910190602001612920565b81156108a3576000600019600884021c8554835182191691161785555050505050565b606060006129728360801c90565b90506fffffffffffffffffffffffffffffffff83168067ffffffffffffffff8111156129a0576129a0612ac4565b6040519080825280601f01601f1916602001820160405280156129ca576020820181803683370190505b509250602083016129dc8382846129f5565b505050919050565b60606000610cbb836015600061217c565b5b60208110612a15578251825260209283019290910190601f19016129f6565b80600003612a2257505050565b6000600019600883021c905080835116811985511617835250505050565b600060208284031215612a5257600080fd5b81357fffffffff0000000000000000000000000000000000000000000000000000000081168114610cbb57600080fd5b600060208284031215612a9457600080fd5b5035919050565b634e487b7160e01b600052601160045260246000fd5b8082018082111561017757610177612a9b565b634e487b7160e01b600052604160045260246000fd5b634e487b7160e01b600052603260045260246000fd5b634e487b7160e01b600052601260045260246000fd5b805160208083015191908110156107ce5760001960209190910360031b1b16919050565b63ffffffff818116838216019080821115612b4757612b47612a9b565b5092915050565b60006000198203612b6157612b61612a9b565b5060010190565b60008151808452602080850194506020840160005b83811015612b9957815187529582019590820190600101612b7d565b509495945050505050565b848152608060208201526000612bbd6080830186612b68565b60ff949094166040830152506060015292915050565b600060208284031215612be557600080fd5b5051919050565b838152606060208201526000612c056060830185612b68565b905060ff83166040830152949350505050565b85815260a060208201526000612c3160a0830187612b68565b60ff95909516604083015250606081019290925260809091015292915050565b60005b83811015612c6c578181015183820152602001612c54565b50506000910152565b600082601f830112612c8657600080fd5b815167ffffffffffffffff80821115612ca157612ca1612ac4565b604051601f8301601f19908116603f01168101908282118183101715612cc957612cc9612ac4565b81604052838152866020858801011115612ce257600080fd5b612cf3846020830160208901612c51565b9695505050505050565b600060208284031215612d0f57600080fd5b815167ffffffffffffffff811115612d2657600080fd5b61044384828501612c75565b60008151808452612d4a816020860160208601612c51565b601f01601f19169290920160200192915050565b85815260a060208201526000612d7760a0830187612b68565b60ff861660408401528281036060840152612d928186612d32565b9150508260808301529695505050505050565b8181038181111561017757610177612a9b565b85815260a060208201526000612dd160a0830187612b68565b8281036040840152612de38187612d32565b90508460608401528281036080840152612dfd8185612d32565b98975050505050505050565b838152606060208201526000612e226060830185612b68565b9050826040830152949350505050565b600080600060608486031215612e4757600080fd5b835167ffffffffffffffff80821115612e5f57600080fd5b612e6b87838801612c75565b9450602086015193506040860151915080821115612e8857600080fd5b50612e9586828701612c75565b9150509250925092565b606081526000612eb26060830186612d32565b60208301949094525060400152919050565b8281526000602080830184516020860160005b82811015612ef357815184529284019290840190600101612ed7565b5091979650505050505050565b600060ff821660ff8103612f1657612f16612a9b565b60010192915050565b606081526000612f326060830186612b68565b65ffffffffffff851660208401528281036040840152612cf38185612d32565b848152608060208201526000612f6b6080830186612b68565b65ffffffffffff8516604084015282810360608401526111108185612d32565b608081526000612f9e6080830187612b68565b8281036020840152612fb08187612d32565b905084604084015282810360608401526111108185612d32565b86815260c060208201526000612fe360c0830188612b68565b8281036040840152612ff58188612d32565b9050856060840152828103608084015261300f8186612d32565b9150508260a0830152979650505050505050565b808202811582820484141761017757610177612a9b56fea264697066735822122075e76b4f960baff91dccfa810952496c80cb952f05264576ef87a3eb8acd73fb64736f6c63430008180033","linkReferences":{}},"methodIdentifiers":{"_msgSender()":"119df25f","_msgValue()":"45ec9354","_world()":"e1af802c","copyMap(bytes32)":"f29bced0","supportsInterface(bytes4)":"01ffc9a7"},"id":312}