{"abi":[{"type":"function","name":"_msgSender","inputs":[],"outputs":[{"name":"sender","type":"address","internalType":"address"}],"stateMutability":"view"},{"type":"function","name":"_msgValue","inputs":[],"outputs":[{"name":"value","type":"uint256","internalType":"uint256"}],"stateMutability":"pure"},{"type":"function","name":"_world","inputs":[],"outputs":[{"name":"","type":"address","internalType":"address"}],"stateMutability":"view"},{"type":"function","name":"createNewSeasonPass","inputs":[{"name":"name","type":"bytes14","internalType":"bytes14"},{"name":"seasonNumber","type":"string","internalType":"string"},{"name":"symbol","type":"string","internalType":"string"},{"name":"seasonStart","type":"uint256","internalType":"uint256"},{"name":"seasonEnd","type":"uint256","internalType":"uint256"},{"name":"mintEnd","type":"uint256","internalType":"uint256"},{"name":"priceDecreaseRate","type":"uint256","internalType":"uint256"},{"name":"startingPrice","type":"uint256","internalType":"uint256"},{"name":"minPrice","type":"uint256","internalType":"uint256"},{"name":"buyMultiplier","type":"uint256","internalType":"uint256"}],"outputs":[],"stateMutability":"nonpayable"},{"type":"function","name":"supportsInterface","inputs":[{"name":"interfaceId","type":"bytes4","internalType":"bytes4"}],"outputs":[{"name":"","type":"bool","internalType":"bool"}],"stateMutability":"pure"},{"type":"event","name":"Store_SpliceDynamicData","inputs":[{"name":"tableId","type":"bytes32","indexed":true,"internalType":"ResourceId"},{"name":"keyTuple","type":"bytes32[]","indexed":false,"internalType":"bytes32[]"},{"name":"dynamicFieldIndex","type":"uint8","indexed":false,"internalType":"uint8"},{"name":"start","type":"uint48","indexed":false,"internalType":"uint48"},{"name":"deleteCount","type":"uint40","indexed":false,"internalType":"uint40"},{"name":"encodedLengths","type":"bytes32","indexed":false,"internalType":"EncodedLengths"},{"name":"data","type":"bytes","indexed":false,"internalType":"bytes"}],"anonymous":false},{"type":"event","name":"Store_SpliceStaticData","inputs":[{"name":"tableId","type":"bytes32","indexed":true,"internalType":"ResourceId"},{"name":"keyTuple","type":"bytes32[]","indexed":false,"internalType":"bytes32[]"},{"name":"start","type":"uint48","indexed":false,"internalType":"uint48"},{"name":"data","type":"bytes","indexed":false,"internalType":"bytes"}],"anonymous":false},{"type":"error","name":"EncodedLengths_InvalidLength","inputs":[{"name":"length","type":"uint256","internalType":"uint256"}]},{"type":"error","name":"Slice_OutOfBounds","inputs":[{"name":"data","type":"bytes","internalType":"bytes"},{"name":"start","type":"uint256","internalType":"uint256"},{"name":"end","type":"uint256","internalType":"uint256"}]},{"type":"error","name":"Store_IndexOutOfBounds","inputs":[{"name":"length","type":"uint256","internalType":"uint256"},{"name":"accessedIndex","type":"uint256","internalType":"uint256"}]},{"type":"error","name":"Store_InvalidResourceType","inputs":[{"name":"expected","type":"bytes2","internalType":"bytes2"},{"name":"resourceId","type":"bytes32","internalType":"ResourceId"},{"name":"resourceIdString","type":"string","internalType":"string"}]},{"type":"error","name":"Store_InvalidSplice","inputs":[{"name":"startWithinField","type":"uint40","internalType":"uint40"},{"name":"deleteCount","type":"uint40","internalType":"uint40"},{"name":"fieldLength","type":"uint40","internalType":"uint40"}]},{"type":"error","name":"World_AccessDenied","inputs":[{"name":"resource","type":"string","internalType":"string"},{"name":"caller","type":"address","internalType":"address"}]},{"type":"error","name":"World_FunctionSelectorNotFound","inputs":[{"name":"functionSelector","type":"bytes4","internalType":"bytes4"}]},{"type":"error","name":"World_ResourceNotFound","inputs":[{"name":"resourceId","type":"bytes32","internalType":"ResourceId"},{"name":"resourceIdString","type":"string","internalType":"string"}]}],"bytecode":{"object":"0x608060405234801561001057600080fd5b50613730806100206000396000f3fe608060405234801561001057600080fd5b50600436106100675760003560e01c806345ec93541161005057806345ec9354146100b4578063c27f4b8c146100c7578063e1af802c146100dc57600080fd5b806301ffc9a71461006c578063119df25f14610094575b600080fd5b61007f61007a366004612921565b6100e4565b60405190151581526020015b60405180910390f35b61009c61017d565b6040516001600160a01b03909116815260200161008b565b604051601f19360135815260200161008b565b6100da6100d5366004612a4b565b61018c565b005b61009c6101c2565b60007fffffffff0000000000000000000000000000000000000000000000000000000082167fb5dee12700000000000000000000000000000000000000000000000000000000148061017757507fffffffff0000000000000000000000000000000000000000000000000000000082167f01ffc9a700000000000000000000000000000000000000000000000000000000145b92915050565b60006101876101cc565b905090565b61019c61019761017d565b6101fe565b6101a78a8a8a61027d565b6101b687878787878787610416565b50505050505050505050565b600061018761045e565b7fffffffffffffffffffffffffffffffffffffffffffffffffffffffffffffffcc36013560601c806101fb5750335b90565b61020f610209610468565b826104d0565b61027a576040517f08c379a000000000000000000000000000000000000000000000000000000000815260206004820181905260248201527f63616c6c657220646f6573206e6f7420686176652074686520736b79206b657960448201526064015b60405180910390fd5b50565b60006102876101c2565b90506000610304828660405180606001604052806040518060400160405280600b81526020017f536561736f6e20506173730000000000000000000000000000000000000000008152508152602001878152602001886040516020016102ed9190612b24565b604051602081830303815290604052815250610563565b905061030f816106b9565b604051616e7360f01b7dffffffffffffffffffffffffffff00000000000000000000000000000000601088901c161760248201819052306044830152906103ac906001600160a01b0385169063ef5d6bbb906064015b604051602081830303815290604052915060e01b6020820180517bffffffffffffffffffffffffffffffffffffffffffffffffffffffff8381831617835250505050610745565b5060006040516103bb90612914565b604051809103906000f0801580156103d7573d6000803e3d6000fd5b50905061040d6103e6886107de565b6bffffffffffffffffffffffff19606084901b166b0100000000000000000000001761082b565b50505050505050565b61041f876108e9565b61042886610961565b610431876109a5565b61043a85610a04565b61044384610a79565b61044c83610abd565b61045582610b01565b61040d81610b48565b6000610187610b8c565b6040805160008082526020820190925260006104c67f74620000000000000000000000000000536b79506f6f6c436f6e6669670000008360057e7d060001202014141400000000000000000000000000000000000000000000610bcb565b60601c9392505050565b600080836001600160a01b03166339f898bc6040518163ffffffff1660e01b8152600401602060405180830381865afa158015610511573d6000803e3d6000fd5b505050506040513d601f19601f820116820180604052508101906105359190612bb6565b9050600061054b6105468360101b90565b610c88565b905060006105598286610cba565b1195945050505050565b604051616e7360f01b60208201527f6572633732312d70757070657400000000000000000000000000000000000000602282015260009081906105c0906030016040516020818303038152906040526105bb90612bcf565b610d1f565b9050610606856001600160a01b0316638da798da8387876040516020016105e8929190612c22565b60408051601f19818403018152908290526103659291602401612cbd565b5060408051613a3160f11b60208201527f6572633732312d7075707065740000000000000000000000000000000000000060228201527f455243373231526567697374727900000000000000000000000000000000000060308201526106b0910160405160208183030381529060405261067f90612bcf565b601086901c7dffffffffffffffffffffffffffff0000000000000000000000000000000016616e7360f01b17610dbb565b95945050505050565b6040805160008152602081018252606083901b6bffffffffffffffffffffffff191681830152815180820360340181526054820190925290610741907f74620000000000000000000000000000536b79506f6f6c436f6e6669670000009083906004907e7d060001202014141400000000000000000000000000000000000000000000610e38565b5050565b606060008061075b61075685612cdf565b610ee9565b91509150816000801b036107c1576040517ffdde54e20000000000000000000000000000000000000000000000000000000081527fffffffff00000000000000000000000000000000000000000000000000000000600035166004820152602401610271565b6107d6826107d186600085610fb9565b610fec565b949350505050565b60006101777f7379000000000000000000000000000000000000000000000000000000000000837f45524337323153797374656d00000000000000000000000000000000000000006110c7565b60408051600180825281830190925260009160208083019080368337019050509050828160008151811061086157610861612d2f565b6020026020010181815250506108e47f7462776f726c6400000000000000000053797374656d486f6f6b73000000000060001b826000856040516020016108d091907fffffffffffffffffffffffffffffffffffffffffff000000000000000000000091909116815260150190565b60405160208183030381529060405261113f565b505050565b60408051600080825260208201835291810183905290610741907f74620000000000000000000000000000536561736f6e54696d65730000000000908390606082015b60408051601f198184030181529190527e40020020200000000000000000000000000000000000000000000000000000610e38565b60408051600081526020810182529081018290526107417f74620000000000000000000000000000536561736f6e54696d657300000000008260016060820161092c565b60408051600080825260208201835291810183905290610741907f74620000000000000000000000000000536561736f6e506173734c61737453619083906060820160408051601f19818403018152919052630100080160dd1b610e38565b60408051600081526020810182529081018290526107417f74620000000000000000000000000000536561736f6e50617373436f6e666967826004606082015b60408051601f198184030181529190527ea0050020202020200000000000000000000000000000000000000000000000610e38565b60408051600081526020810182529081018290526107417f74620000000000000000000000000000536561736f6e50617373436f6e66696782600260608201610a44565b60408051600081526020810182529081018290526107417f74620000000000000000000000000000536561736f6e50617373436f6e66696782600160608201610a44565b60408051600080825260208201835291810183905290610741907f74620000000000000000000000000000536561736f6e50617373436f6e66696790839060608201610a44565b60408051600081526020810182529081018290526107417f74620000000000000000000000000000536561736f6e50617373436f6e66696782600360608201610a44565b7f629a4c26e296b22a8e0856e9f6ecb2d1008d7e00081111962cd175fa7488e175546000906001600160a01b031680610bc6573391505090565b919050565b600080610bd6610b8c565b9050306001600160a01b03821603610bfc57610bf4868686866111f1565b9150506107d6565b6040517f8c364d590000000000000000000000000000000000000000000000000000000081526001600160a01b03821690638c364d5990610c47908990899089908990600401612d81565b602060405180830381865afa158015610c64573d6000803e3d6000fd5b505050506040513d601f19601f82011682018060405250810190610bf49190612bb6565b6000610177613a3160f11b837f42616c616e6365730000000000000000000000000000000000000000000000006110c7565b60408051600180825281830190925260009182919060208083019080368337019050509050826001600160a01b031660001b81600081518110610cff57610cff612d2f565b602090810291909101015260006106b0858383630100080160dd1b610bcb565b604080516001808252818301909252600091829190602080830190803683370190505090508281600081518110610d5857610d58612d2f565b60209081029190910101526000610db07f7462776f726c640000000000000000004e616d6573706163654f776e6572000083837e14010014000000000000000000000000000000000000000000000000000000610bcb565b60601c949350505050565b604080516001808252818301909252600091829190602080830190803683370190505090508281600081518110610df457610df4612d2f565b60209081029190910101526000610e2c8583837e14010014000000000000000000000000000000000000000000000000000000610bcb565b60601c95945050505050565b6000610e42610b8c565b9050306001600160a01b03821603610e6657610e61868686868661121e565b610ee1565b6040517f390baae00000000000000000000000000000000000000000000000000000000081526001600160a01b0382169063390baae090610eb39089908990899089908990600401612db0565b600060405180830381600087803b158015610ecd57600080fd5b505af11580156101b6573d6000803e3d6000fd5b505050505050565b6040805160018082528183019092526000918291829160208083019080368337019050509050837bffffffffffffffffffffffffffffffffffffffffffffffffffffffff191681600081518110610f4257610f42612d2f565b602090810291909101015260008080610f9b7f7462776f726c6400000000000000000046756e6374696f6e53656c6563746f72857e24020020040000000000000000000000000000000000000000000000000000611233565b925092509250610fac838383611303565b9550955050505050915091565b82820160200180517bffffffffffffffffffffffffffffffffffffffffffffffffffffffff1682179052825b9392505050565b60606000610ff861045e565b90506001600160a01b03811630036110395760006110206110176101cc565b6000878761131b565b9350905080611032576110328361142e565b5050610177565b6040517f3ae7af080000000000000000000000000000000000000000000000000000000081526001600160a01b03821690633ae7af08906110809087908790600401612df7565b6000604051808303816000875af115801561109f573d6000803e3d6000fd5b505050506040513d6000823e601f3d908101601f191682016040526107d69190810190612e55565b60006110d560706010612ea0565b7fffff00000000000000000000000000000000000000000000000000000000000085167dffffffffffffffffffffffffffff00000000000000000000000000000000601086901c16176fffffffffffffffffffffffffffffffff19841690911c1790509392505050565b6000611149610b8c565b9050306001600160a01b0382160361116c5761116785858585611436565b6111ea565b6040517f150f32620000000000000000000000000000000000000000000000000000000081526001600160a01b0382169063150f3262906111b7908890889088908890600401612eb3565b600060405180830381600087803b1580156111d157600080fd5b505af11580156111e5573d6000803e3d6000fd5b505050505b5050505050565b60006106b06112008686611471565b60ff858116601b0360080285901c1661121985876114c7565b611500565b6111ea858561122d84876114c7565b85611551565b6060600060606000611243610b8c565b9050306001600160a01b0382160361126c576112608787876117f2565b935093509350506112fa565b6040517f419b58fd0000000000000000000000000000000000000000000000000000000081526001600160a01b0382169063419b58fd906112b5908a908a908a90600401612ef2565b600060405180830381865afa1580156112d2573d6000803e3d6000fd5b505050506040513d6000823e601f3d908101601f191682016040526112609190810190612f1b565b93509350939050565b60008061130f856118fa565b90969095509350505050565b6000606060008061132b8661190f565b90925090506001600160a01b03821661137c5785611348876119b3565b6040517ffbf10ce6000000000000000000000000000000000000000000000000000000008152600401610271929190612df7565b8061138b5761138b8689611ac7565b86156113dc577dffffffffffffffffffffffffffff000000000000000000000000000000008616616e7360f01b1760006113c482611b13565b90506113d9826113d48b84612ea0565b611b8c565b50505b60006113e88760101b90565b71ffffffffffffffffffffffffffffffffffff1916146114135761140e88888488611c28565b61141f565b61141f88888488611ca0565b90999098509650505050505050565b805160208201fd5b60006114428585611d01565b9050600061145f828560ff166028026038011c64ffffffffff1690565b9050610ee18686868460008888611d14565b60008282604051602001611486929190612f88565b60408051601f1981840301815291905280516020909101207f86425bff6b57326c7859e89024fe4f238ca327a1ae4a230180dd2f0e88aaa7d9189392505050565b600080805b8360ff168110156114f8576114ee60ff601b83900360080287901c1683612ea0565b91506001016114cc565b509392505050565b6000602082106115265760208204840193506020828161152257611522612fc4565b0691505b508254600882021b6020829003808411156114f8576001850154600882021c82179150509392505050565b7f6f74000000000000000000000000000000000000000000000000000000000000847fffff00000000000000000000000000000000000000000000000000000000000016036115db57837f8c0b5119d4cec7b284c6b1b39252a03d1e2f2d7451a5895562524c113bb952be8484846040516115ce93929190612fda565b60405180910390a26117ec565b60006115e78585611471565b905060006115f486612118565b905060005b81518110156116c957600082828151811061161657611616612d2f565b602002602001015190506116426004826affffffffffffffffffffff19166121a190919063ffffffff16565b156116c0576040517f964f667d000000000000000000000000000000000000000000000000000000008152606082901c9063964f667d9061168d908b908b908b908b9060040161300d565b600060405180830381600087803b1580156116a757600080fd5b505af11580156116bb573d6000803e3d6000fd5b505050505b506001016115f9565b50857f8c0b5119d4cec7b284c6b1b39252a03d1e2f2d7451a5895562524c113bb952be8686866040516116fe93929190612fda565b60405180910390a2611719828565ffffffffffff16856121bf565b60005b815181101561040d57600082828151811061173957611739612d2f565b602002602001015190506117656008826affffffffffffffffffffff19166121a190919063ffffffff16565b156117e3576040517fa8ba8721000000000000000000000000000000000000000000000000000000008152606082901c9063a8ba8721906117b0908b908b908b908b9060040161300d565b600060405180830381600087803b1580156117ca57600080fd5b505af11580156117de573d6000803e3d6000fd5b505050505b5060010161171c565b50505050565b6060600060606000611803856121d5565b90506118108787836121f8565b9350600061181d86612231565b905080156118ef5761182f8888611d01565b935066ffffffffffffff841667ffffffffffffffff81111561185357611853612986565b6040519080825280601f01601f19166020018201604052801561187d576020820181803683370190505b5092506020830160005b828160ff1610156118ec57600061189f8b8b8461226e565b905060006118bc888460ff166028026038011c64ffffffffff1690565b90506118cb82600083876122ee565b6118d58185612ea0565b9350505080806118e490613046565b915050611887565b50505b505093509350939050565b602081015160408201516000905b9050915091565b6040805160018082528183019092526000918291829160208083019080368337019050509050838160008151811061194957611949612d2f565b6020908102919091010152600080806119a27f7462776f726c6400000000000000000053797374656d73000000000000000000857e150200140100000000000000000000000000000000000000000000000000006117f2565b925092509250610fac8383836123ba565b606081601081901b60006119c6836123c6565b90508271ffffffffffffffffffffffffffffffffffff19831615611a0757611a0271ffffffffffffffffffffffffffffffffffff1984166123dd565b611a3e565b6040518060400160405280600681526020017f3c726f6f743e00000000000000000000000000000000000000000000000000008152505b6fffffffffffffffffffffffffffffffff19831615611a6557611a60836123dd565b611a9c565b6040518060400160405280600681526020017f3c726f6f743e00000000000000000000000000000000000000000000000000008152505b604051602001611aae93929190613065565b6040516020818303038152906040529350505050919050565b611ad18282612463565b61074157611ade826119b3565b816040517fd787b7370000000000000000000000000000000000000000000000000000000081526004016102719291906130f3565b604080516001808252818301909252600091829190602080830190803683370190505090508281600081518110611b4c57611b4c612d2f565b602090810291909101015260006107d67f7462776f726c6400000000000000000042616c616e63657300000000000000008383630100080160dd1b6111f1565b604080516001808252818301909252600091602080830190803683370190505090508281600081518110611bc257611bc2612d2f565b6020026020010181815250506108e47f7462776f726c6400000000000000000042616c616e636573000000000000000060001b82600085604051602001611c0b91815260200190565b60408051601f19818403018152919052630100080160dd1b61121e565b60006060836001600160a01b03166000611c438589896124a6565b604051611c50919061311e565b60006040518083038185875af1925050503d8060008114611c8d576040519150601f19603f3d011682016040523d82523d6000602084013e611c92565b606091505b509097909650945050505050565b60006060836001600160a01b0316611cb98488886124a6565b604051611cc6919061311e565b600060405180830381855af49150503d8060008114611c8d576040519150601f19603f3d011682016040523d82523d6000602084013e611c92565b6000610fe5611d1084846124d5565b5490565b613a3160f11b877fffff0000000000000000000000000000000000000000000000000000000000001614611d9e57613a3160f11b8788604051602001611d5c91815260200190565b60408051601f19818403018152908290527f31b4668300000000000000000000000000000000000000000000000000000000825261027193929160040161313a565b6000611db9828760ff166028026038011c64ffffffffff1690565b9050600083518564ffffffffff1683611dd2919061317b565b611ddc9190612ea0565b9050808214158015611dfe575081611df4868861318e565b64ffffffffff1614155b15611e4e576040517fa65010b400000000000000000000000000000000000000000000000000000000815264ffffffffff8088166004830152808716602483015283166044820152606401610271565b818664ffffffffff161115611e9f576040517f7e8578d30000000000000000000000000000000000000000000000000000000081526004810183905264ffffffffff87166024820152604401610271565b6000611eac84898461252b565b90506000611eb98b612118565b905060005b8151811015611f84576000828281518110611edb57611edb612d2f565b60200260200101519050611f076010826affffffffffffffffffffff19166121a190919063ffffffff16565b15611f7b57606081901c6001600160a01b03166355eb5a288e8e8e8e8e8d8f6040518863ffffffff1660e01b8152600401611f4897969594939291906131b3565b600060405180830381600087803b158015611f6257600080fd5b505af1158015611f76573d6000803e3d6000fd5b505050505b50600101611ebe565b5064ffffffffff881660005b8a60ff168160ff161015611fc357611fb7878260ff166028026038011c64ffffffffff1690565b90910190600101611f90565b508b7ffe158a7adba34e256807c8a149028d3162918713c3838afc643ce9f96716ebfd8c8c848c888d604051611ffe96959493929190613211565b60405180910390a25082841461201f57600061201a8c8c6124d5565b839055505b600061202c8c8c8c61226e565b9050612040818a64ffffffffff16896121bf565b5060005b815181101561210a57600082828151811061206157612061612d2f565b6020026020010151905061208d6020826affffffffffffffffffffff19166121a190919063ffffffff16565b1561210157606081901c6001600160a01b031663635845338e8e8e8e8e8a8f6040518863ffffffff1660e01b81526004016120ce97969594939291906131b3565b600060405180830381600087803b1580156120e857600080fd5b505af11580156120fc573d6000803e3d6000fd5b505050505b50600101612044565b505050505050505050505050565b6040805160018082528183019092526060916000919060208083019080368337019050509050828160008151811061215257612152612d2f565b6020908102919091010152600061218a7f746273746f726500000000000000000053746f7265486f6f6b7300000000000083836125f9565b90506107d661219c8260008451612633565b6126c1565b60008160ff16826121b28560581c90565b1660ff1614905092915050565b6108e4838383516121d08560200190565b6126d2565b600060086121e56002602061317b565b6121ef919061326d565b9190911c919050565b6060816000036122175750604080516020810190915260008152610fe5565b60006122238585611471565b90506106b081600085612791565b600060086001806122446002602061317b565b61224e919061317b565b612258919061317b565b612262919061326d565b8260ff911c1692915050565b60008383604051602001612283929190612f88565b604051602081830303815290604052805190602001208260f81b7effffffffffffffffffffffffffffffffffffffffffffffffffffffffffffff19167f3b4102da22e32d82fc925482184f16c09fd4281692720b87d124aef6da48a0f1181860001c90509392505050565b821561237557602083106123185760208304840193506020838161231457612314612fc4565b0692505b821561237557602083900360008184101561233b5750600019600884021c612345565b50600019600882021c5b8554600886021b8184511682198216178452508184116123665750506117ec565b50600194909401939182900391015b5b602082106123975783548152600190930192601f1990910190602001612376565b81156117ec576000600019600884021c8251865482191691161782525050505050565b60008061130f856127b4565b60006123d460706010612ea0565b9190911b919050565b606060005b6010811015612433576fffffffffffffffffffffffffffffffff198316600882021b7fff000000000000000000000000000000000000000000000000000000000000001615612433576001016123e2565b604080516fffffffffffffffffffffffffffffffff198516602082015281516030909101909152818152806107d6565b6000612496616e7360f01b7dffffffffffffffffffffffffffff00000000000000000000000000000000851617836127d0565b80610fe55750610fe583836127d0565b60608383836040516020016124bd93929190613284565b60405160208183030381529060405290509392505050565b600082826040516020016124ea929190612f88565b60408051601f1981840301815291905280516020909101207f14e2fcc58e58e68ec7edc30c8d50dccc3ce2714a623ec81f46b6a63922d76569189392505050565b600064ffffffffff82111561256f576040517f7149a3c100000000000000000000000000000000000000000000000000000000815260048101839052602401610271565b8366ffffffffffffff811660ff851660280260380182901c64ffffffffff168085106125a157808503820191506125a9565b848103820391505b5064ffffffffff6038602860ff8816020181811b197fffffffffffffffffffffffffffffffffffffffffffffffffff000000000000009490941690921792909216918416901b1790509392505050565b60606107d661260985858561226e565b600061262e856126198989611d01565b9060ff166028026038011c64ffffffffff1690565b612791565b6000818311806126435750835182115b15612680578383836040517f23230fa3000000000000000000000000000000000000000000000000000000008152600401610271939291906132c3565b6020840161268e8482612ea0565b9050600061269c858561317b565b6fffffffffffffffffffffffffffffffff1660809290921b9190911795945050505050565b60606000610fe58360156000612899565b821561274c57602083106126fc576020830484019350602083816126f8576126f8612fc4565b0692505b821561274c5760208390036000600019600885021c1990506008850281811c91508351811c905081198754168282161787555081841161273d5750506117ec565b50600194909401939182900391015b5b6020821061276e5780518455600190930192601f199091019060200161274d565b81156117ec576000600019600884021c8554835182191691161785555050505050565b60405160208101601f19603f84840101166040528282526114f8858585846122ee565b6020810151603482015160609190911c9060009060f81c611908565b60408051600280825260608201835260009283929190602083019080368337019050509050838160008151811061280957612809612d2f565b602002602001018181525050826001600160a01b031660001b8160018151811061283557612835612d2f565b6020908102919091010152600061288d7f7462776f726c640000000000000000005265736f75726365416363657373000083837e010100010000000000000000000000000000000000000000000000000000006111f1565b90506106b08160f81c90565b606060006128a78560801c90565b90506fffffffffffffffffffffffffffffffff851660008582816128cd576128cd612fc4565b04905060405193506020840160208202810160405281855260005b82811015612908578451871c8252938701936020909101906001016128e8565b50505050509392505050565b610412806132e983390190565b60006020828403121561293357600080fd5b81357fffffffff0000000000000000000000000000000000000000000000000000000081168114610fe557600080fd5b803571ffffffffffffffffffffffffffffffffffff1981168114610bc657600080fd5b634e487b7160e01b600052604160045260246000fd5b604051601f8201601f1916810167ffffffffffffffff811182821017156129c5576129c5612986565b604052919050565b600067ffffffffffffffff8211156129e7576129e7612986565b50601f01601f191660200190565b600082601f830112612a0657600080fd5b8135612a19612a14826129cd565b61299c565b818152846020838601011115612a2e57600080fd5b816020850160208301376000918101602001919091529392505050565b6000806000806000806000806000806101408b8d031215612a6b57600080fd5b612a748b612963565b995060208b013567ffffffffffffffff80821115612a9157600080fd5b612a9d8e838f016129f5565b9a5060408d0135915080821115612ab357600080fd5b50612ac08d828e016129f5565b9a9d999c50999a60608101359a5060808101359960a0820135995060c0820135985060e08201359750610100820135965061012090910135945092505050565b60005b83811015612b1b578181015183820152602001612b03565b50506000910152565b7f68747470733a2f2f736b797374726966652d6d657461646174612e6c6174746981527f636578797a2e776f726b6572732e6465762f6d657461646174612f0000000000602082015260008251612b8281603b850160208701612b00565b7f2f00000000000000000000000000000000000000000000000000000000000000603b939091019283015250603c01919050565b600060208284031215612bc857600080fd5b5051919050565b80516020808301519190811015612bf0576000198160200360031b1b821691505b50919050565b60008151808452612c0e816020860160208601612b00565b601f01601f19169290920160200192915050565b71ffffffffffffffffffffffffffffffffffff1983168152604060208201526000825160606040840152612c5960a0840182612bf6565b905060208401517fffffffffffffffffffffffffffffffffffffffffffffffffffffffffffffffc080858403016060860152612c958383612bf6565b9250604086015191508085840301608086015250612cb38282612bf6565b9695505050505050565b6001600160a01b03831681526040602082015260006107d66040830184612bf6565b6000815160208301517fffffffff0000000000000000000000000000000000000000000000000000000080821693506004831015612d275780818460040360031b1b83161693505b505050919050565b634e487b7160e01b600052603260045260246000fd5b60008151808452602080850194506020840160005b83811015612d7657815187529582019590820190600101612d5a565b509495945050505050565b848152608060208201526000612d9a6080830186612d45565b60ff949094166040830152506060015292915050565b85815260a060208201526000612dc960a0830187612d45565b60ff861660408401528281036060840152612de48186612bf6565b9150508260808301529695505050505050565b8281526040602082015260006107d66040830184612bf6565b600082601f830112612e2157600080fd5b8151612e2f612a14826129cd565b818152846020838601011115612e4457600080fd5b6107d6826020830160208701612b00565b600060208284031215612e6757600080fd5b815167ffffffffffffffff811115612e7e57600080fd5b6107d684828501612e10565b634e487b7160e01b600052601160045260246000fd5b8082018082111561017757610177612e8a565b848152608060208201526000612ecc6080830186612d45565b60ff851660408401528281036060840152612ee78185612bf6565b979650505050505050565b838152606060208201526000612f0b6060830185612d45565b9050826040830152949350505050565b600080600060608486031215612f3057600080fd5b835167ffffffffffffffff80821115612f4857600080fd5b612f5487838801612e10565b9450602086015193506040860151915080821115612f7157600080fd5b50612f7e86828701612e10565b9150509250925092565b8281526000602080830184516020860160005b82811015612fb757815184529284019290840190600101612f9b565b5091979650505050505050565b634e487b7160e01b600052601260045260246000fd5b606081526000612fed6060830186612d45565b65ffffffffffff851660208401528281036040840152612cb38185612bf6565b8481526080602082015260006130266080830186612d45565b65ffffffffffff851660408401528281036060840152612ee78185612bf6565b600060ff821660ff810361305c5761305c612e8a565b60010192915050565b7fffff0000000000000000000000000000000000000000000000000000000000008416815260007f3a0000000000000000000000000000000000000000000000000000000000000080600284015284516130c6816003860160208901612b00565b8084019050816003820152845191506130e6826004830160208801612b00565b0160040195945050505050565b6040815260006131066040830185612bf6565b90506001600160a01b03831660208301529392505050565b60008251613130818460208701612b00565b9190910192915050565b7fffff000000000000000000000000000000000000000000000000000000000000841681528260208201526060604082015260006106b06060830184612bf6565b8181038181111561017757610177612e8a565b64ffffffffff8181168382160190808211156131ac576131ac612e8a565b5092915050565b87815260e0602082015260006131cc60e0830189612d45565b60ff8816604084015264ffffffffff87811660608501528616608084015260a0830185905282810360c08401526132038185612bf6565b9a9950505050505050505050565b60c08152600061322460c0830189612d45565b60ff8816602084015265ffffffffffff8716604084015264ffffffffff8616606084015284608084015282810360a08401526132608185612bf6565b9998505050505050505050565b808202811582820484141761017757610177612e8a565b60008451613296818460208901612b00565b60609490941b6bffffffffffffffffffffffff191691909301908152601481019190915260340192915050565b6060815260006132d66060830186612bf6565b6020830194909452506040015291905056fe608060405234801561001057600080fd5b506103f2806100206000396000f3fe608060405234801561001057600080fd5b50600436106100415760003560e01c806301ffc9a714610046578063973d8f991461006d578063c332303114610082575b600080fd5b6100596100543660046101f0565b610095565b604051901515815260200160405180910390f35b61008061007b366004610268565b505050565b005b610080610090366004610268565b61012e565b60007fffffffff0000000000000000000000000000000000000000000000000000000082167f540fbfa800000000000000000000000000000000000000000000000000000000148061012857507fffffffff0000000000000000000000000000000000000000000000000000000082167f01ffc9a700000000000000000000000000000000000000000000000000000000145b92915050565b60006101398261036c565b90507fdc478d23000000000000000000000000000000000000000000000000000000007fffffffff000000000000000000000000000000000000000000000000000000008216016101ea576040517f08c379a000000000000000000000000000000000000000000000000000000000815260206004820152601f60248201527f7468697320746f6b656e206973206e6f6e2d7472616e736665727261626c6500604482015260640160405180910390fd5b50505050565b60006020828403121561020257600080fd5b81357fffffffff000000000000000000000000000000000000000000000000000000008116811461023257600080fd5b9392505050565b7f4e487b7100000000000000000000000000000000000000000000000000000000600052604160045260246000fd5b60008060006060848603121561027d57600080fd5b833573ffffffffffffffffffffffffffffffffffffffff811681146102a157600080fd5b925060208401359150604084013567ffffffffffffffff808211156102c557600080fd5b818601915086601f8301126102d957600080fd5b8135818111156102eb576102eb610239565b604051601f82017fffffffffffffffffffffffffffffffffffffffffffffffffffffffffffffffe0908116603f0116810190838211818310171561033157610331610239565b8160405282815289602084870101111561034a57600080fd5b8260208601602083013760006020848301015280955050505050509250925092565b6000815160208301517fffffffff00000000000000000000000000000000000000000000000000000000808216935060048310156103b45780818460040360031b1b83161693505b50505091905056fea2646970667358221220a282738eb6e1033bef4c2ff4a4f43c02177c443ad5403a271cbcaf8b23abfe4e64736f6c63430008180033a264697066735822122039e0975b11828821c7d9b8478bfb90ffbfe0476ed7131b7585b00af674dcdbd764736f6c63430008180033","linkReferences":{}},"methodIdentifiers":{"_msgSender()":"119df25f","_msgValue()":"45ec9354","_world()":"e1af802c","createNewSeasonPass(bytes14,string,string,uint256,uint256,uint256,uint256,uint256,uint256,uint256)":"c27f4b8c","supportsInterface(bytes4)":"01ffc9a7"},"id":313}