{"abi":[{"type":"function","name":"_msgSender","inputs":[],"outputs":[{"name":"sender","type":"address","internalType":"address"}],"stateMutability":"view"},{"type":"function","name":"_msgValue","inputs":[],"outputs":[{"name":"value","type":"uint256","internalType":"uint256"}],"stateMutability":"pure"},{"type":"function","name":"_world","inputs":[],"outputs":[{"name":"","type":"address","internalType":"address"}],"stateMutability":"view"},{"type":"function","name":"initDelegation","inputs":[{"name":"delegatee","type":"address","internalType":"address"},{"name":"maxTimestamp","type":"uint256","internalType":"uint256"}],"outputs":[],"stateMutability":"nonpayable"},{"type":"function","name":"supportsInterface","inputs":[{"name":"interfaceId","type":"bytes4","internalType":"bytes4"}],"outputs":[{"name":"","type":"bool","internalType":"bool"}],"stateMutability":"pure"},{"type":"function","name":"verify","inputs":[{"name":"delegator","type":"address","internalType":"address"},{"name":"","type":"bytes32","internalType":"ResourceId"},{"name":"","type":"bytes","internalType":"bytes"}],"outputs":[{"name":"","type":"bool","internalType":"bool"}],"stateMutability":"view"},{"type":"event","name":"Store_SpliceStaticData","inputs":[{"name":"tableId","type":"bytes32","indexed":true,"internalType":"ResourceId"},{"name":"keyTuple","type":"bytes32[]","indexed":false,"internalType":"bytes32[]"},{"name":"start","type":"uint48","indexed":false,"internalType":"uint48"},{"name":"data","type":"bytes","indexed":false,"internalType":"bytes"}],"anonymous":false},{"type":"error","name":"Slice_OutOfBounds","inputs":[{"name":"data","type":"bytes","internalType":"bytes"},{"name":"start","type":"uint256","internalType":"uint256"},{"name":"end","type":"uint256","internalType":"uint256"}]}],"bytecode":{"object":"0x608060405234801561001057600080fd5b506112fd806100206000396000f3fe608060405234801561001057600080fd5b50600436106100725760003560e01c806345ec93541161005057806345ec9354146100df578063d043756a146100f2578063e1af802c1461010757600080fd5b806301ffc9a714610077578063119df25f1461009f5780631a86b550146100cc575b600080fd5b61008a610085366004610efb565b61010f565b60405190151581526020015b60405180910390f35b6100a76101f4565b60405173ffffffffffffffffffffffffffffffffffffffff9091168152602001610096565b61008a6100da366004610f77565b610203565b604051601f193601358152602001610096565b610105610100366004611042565b610223565b005b6100a7610239565b60007fffffffff0000000000000000000000000000000000000000000000000000000082167f1a86b5500000000000000000000000000000000000000000000000000000000014806101a257507fffffffff0000000000000000000000000000000000000000000000000000000082167fb5dee12700000000000000000000000000000000000000000000000000000000145b806101ee57507fffffffff0000000000000000000000000000000000000000000000000000000082167f01ffc9a700000000000000000000000000000000000000000000000000000000145b92915050565b60006101fe610243565b905090565b600080610217856102126101f4565b610275565b42111595945050505050565b61023561022e6101f4565b8383610361565b5050565b60006101fe61046c565b7fffffffffffffffffffffffffffffffffffffffffffffffffffffffffffffffcc36013560601c806102725750335b90565b604080516002808252606082018352600092839291906020830190803683370190505090508373ffffffffffffffffffffffffffffffffffffffff1660001b816000815181106102c7576102c761106c565b6020026020010181815250508273ffffffffffffffffffffffffffffffffffffffff1660001b816001815181106103005761030061106c565b602090810291909101015260006103587f7462000000000000000000000000000054696d65626f756e6444656c6567617483837e20010020000000000000000000000000000000000000000000000000000000610476565b95945050505050565b6040805160028082526060820183526000926020830190803683370190505090508373ffffffffffffffffffffffffffffffffffffffff1660001b816000815181106103af576103af61106c565b6020026020010181815250508273ffffffffffffffffffffffffffffffffffffffff1660001b816001815181106103e8576103e861106c565b6020026020010181815250506104667f7462000000000000000000000000000054696d65626f756e6444656c6567617460001b8260008560405160200161043191815260200190565b60408051601f198184030181529190527e20010020000000000000000000000000000000000000000000000000000000610555565b50505050565b60006101fe610625565b600080610481610625565b90503073ffffffffffffffffffffffffffffffffffffffff8216036104b4576104ac86868686610671565b91505061054d565b6040517f8c364d5900000000000000000000000000000000000000000000000000000000815273ffffffffffffffffffffffffffffffffffffffff821690638c364d599061050c9089908990899089906004016110be565b602060405180830381865afa158015610529573d6000803e3d6000fd5b505050506040513d601f19601f820116820180604052508101906104ac91906110ed565b949350505050565b600061055f610625565b90503073ffffffffffffffffffffffffffffffffffffffff8216036105905761058b868686868661069e565b61061d565b6040517f390baae000000000000000000000000000000000000000000000000000000000815273ffffffffffffffffffffffffffffffffffffffff82169063390baae0906105ea908990899089908990899060040161114c565b600060405180830381600087803b15801561060457600080fd5b505af1158015610618573d6000803e3d6000fd5b505050505b505050505050565b7f629a4c26e296b22a8e0856e9f6ecb2d1008d7e00081111962cd175fa7488e1755460009073ffffffffffffffffffffffffffffffffffffffff168061066c573391505090565b919050565b600061035861068086866106ba565b60ff858116601b0360080285901c166106998587610710565b610749565b6106b385856106ad8487610710565b8561079a565b5050505050565b600082826040516020016106cf929190611193565b60408051601f1981840301815291905280516020909101207f86425bff6b57326c7859e89024fe4f238ca327a1ae4a230180dd2f0e88aaa7d9189392505050565b600080805b8360ff168110156107415761073760ff601b83900360080287901c16836111e5565b9150600101610715565b509392505050565b60006020821061076f5760208204840193506020828161076b5761076b6111f8565b0691505b508254600882021b602082900380841115610741576001850154600882021c82179150509392505050565b7f6f74000000000000000000000000000000000000000000000000000000000000847fffff000000000000000000000000000000000000000000000000000000000000160361082457837f8c0b5119d4cec7b284c6b1b39252a03d1e2f2d7451a5895562524c113bb952be8484846040516108179392919061120e565b60405180910390a2610466565b600061083085856106ba565b9050600061083d86610a3e565b905060005b815181101561091257600082828151811061085f5761085f61106c565b6020026020010151905061088b6004826affffffffffffffffffffff1916610ac790919063ffffffff16565b15610909576040517f964f667d000000000000000000000000000000000000000000000000000000008152606082901c9063964f667d906108d6908b908b908b908b9060040161124b565b600060405180830381600087803b1580156108f057600080fd5b505af1158015610904573d6000803e3d6000fd5b505050505b50600101610842565b50857f8c0b5119d4cec7b284c6b1b39252a03d1e2f2d7451a5895562524c113bb952be8686866040516109479392919061120e565b60405180910390a2610962828565ffffffffffff1685610ae5565b60005b8151811015610a355760008282815181106109825761098261106c565b602002602001015190506109ae6008826affffffffffffffffffffff1916610ac790919063ffffffff16565b15610a2c576040517fa8ba8721000000000000000000000000000000000000000000000000000000008152606082901c9063a8ba8721906109f9908b908b908b908b9060040161124b565b600060405180830381600087803b158015610a1357600080fd5b505af1158015610a27573d6000803e3d6000fd5b505050505b50600101610965565b50505050505050565b60408051600180825281830190925260609160009190602080830190803683370190505090508281600081518110610a7857610a7861106c565b60209081029190910101526000610ab07f746273746f726500000000000000000053746f7265486f6f6b730000000000008383610b00565b905061054d610ac28260008451610b3a565b610bd1565b60008160ff1682610ad88560581c90565b1660ff1614905092915050565b610afb83838351610af68560200190565b610be9565b505050565b606061054d610b10858585610ca8565b6000610b3585610b208989610d28565b9060ff166028026038011c64ffffffffff1690565b610d3b565b600081831180610b4a5750835182115b15610b90578383836040517f23230fa3000000000000000000000000000000000000000000000000000000008152600401610b879392919061128f565b60405180910390fd5b60208401610b9e84826111e5565b90506000610bac85856112b4565b6fffffffffffffffffffffffffffffffff1660809290921b9190911795945050505050565b60606000610be28360156000610d5e565b9392505050565b8215610c635760208310610c1357602083048401935060208381610c0f57610c0f6111f8565b0692505b8215610c635760208390036000600019600885021c1990506008850281811c91508351811c9050811987541682821617875550818411610c54575050610466565b50600194909401939182900391015b5b60208210610c855780518455600190930192601f1990910190602001610c64565b8115610466576000600019600884021c8554835182191691161785555050505050565b60008383604051602001610cbd929190611193565b604051602081830303815290604052805190602001208260f81b7effffffffffffffffffffffffffffffffffffffffffffffffffffffffffffff19167f3b4102da22e32d82fc925482184f16c09fd4281692720b87d124aef6da48a0f1181860001c90509392505050565b6000610be2610d378484610dd9565b5490565b60405160208101601f19603f848401011660405282825261074185858584610e2f565b60606000610d6c8560801c90565b90506fffffffffffffffffffffffffffffffff85166000858281610d9257610d926111f8565b04905060405193506020840160208202810160405281855260005b82811015610dcd578451871c825293870193602090910190600101610dad565b50505050509392505050565b60008282604051602001610dee929190611193565b60408051601f1981840301815291905280516020909101207f14e2fcc58e58e68ec7edc30c8d50dccc3ce2714a623ec81f46b6a63922d76569189392505050565b8215610eb65760208310610e5957602083048401935060208381610e5557610e556111f8565b0692505b8215610eb6576020839003600081841015610e7c5750600019600884021c610e86565b50600019600882021c5b8554600886021b818451168219821617845250818411610ea7575050610466565b50600194909401939182900391015b5b60208210610ed85783548152600190930192601f1990910190602001610eb7565b8115610466576000600019600884021c8251865482191691161782525050505050565b600060208284031215610f0d57600080fd5b81357fffffffff0000000000000000000000000000000000000000000000000000000081168114610be257600080fd5b803573ffffffffffffffffffffffffffffffffffffffff8116811461066c57600080fd5b634e487b7160e01b600052604160045260246000fd5b600080600060608486031215610f8c57600080fd5b610f9584610f3d565b925060208401359150604084013567ffffffffffffffff80821115610fb957600080fd5b818601915086601f830112610fcd57600080fd5b813581811115610fdf57610fdf610f61565b604051601f8201601f19908116603f0116810190838211818310171561100757611007610f61565b8160405282815289602084870101111561102057600080fd5b8260208601602083013760006020848301015280955050505050509250925092565b6000806040838503121561105557600080fd5b61105e83610f3d565b946020939093013593505050565b634e487b7160e01b600052603260045260246000fd5b60008151808452602080850194506020840160005b838110156110b357815187529582019590820190600101611097565b509495945050505050565b8481526080602082015260006110d76080830186611082565b60ff949094166040830152506060015292915050565b6000602082840312156110ff57600080fd5b5051919050565b6000815180845260005b8181101561112c57602081850181015186830182015201611110565b506000602082860101526020601f19601f83011685010191505092915050565b85815260a06020820152600061116560a0830187611082565b60ff8616604084015282810360608401526111808186611106565b9150508260808301529695505050505050565b8281526000602080830184516020860160005b828110156111c2578151845292840192908401906001016111a6565b5091979650505050505050565b634e487b7160e01b600052601160045260246000fd5b808201808211156101ee576101ee6111cf565b634e487b7160e01b600052601260045260246000fd5b6060815260006112216060830186611082565b65ffffffffffff8516602084015282810360408401526112418185611106565b9695505050505050565b8481526080602082015260006112646080830186611082565b65ffffffffffff8516604084015282810360608401526112848185611106565b979650505050505050565b6060815260006112a26060830186611106565b60208301949094525060400152919050565b818103818111156101ee576101ee6111cf56fea26469706673582212206ef439ecb5493bf522b8f987a983b06bbde045a621ec7b3cbc26b956cf49e89c64736f6c63430008180033","linkReferences":{}},"methodIdentifiers":{"_msgSender()":"119df25f","_msgValue()":"45ec9354","_world()":"e1af802c","initDelegation(address,uint256)":"d043756a","supportsInterface(bytes4)":"01ffc9a7","verify(address,bytes32,bytes)":"1a86b550"},"id":93}