{"abi":[{"type":"function","name":"_msgSender","inputs":[],"outputs":[{"name":"sender","type":"address","internalType":"address"}],"stateMutability":"view"},{"type":"function","name":"_msgValue","inputs":[],"outputs":[{"name":"value","type":"uint256","internalType":"uint256"}],"stateMutability":"pure"},{"type":"function","name":"_world","inputs":[],"outputs":[{"name":"","type":"address","internalType":"address"}],"stateMutability":"view"},{"type":"function","name":"createMatch","inputs":[{"name":"name","type":"string","internalType":"string"},{"name":"claimedFirstMatchInWindow","type":"bytes32","internalType":"bytes32"},{"name":"matchEntity","type":"bytes32","internalType":"bytes32"},{"name":"levelId","type":"bytes32","internalType":"bytes32"}],"outputs":[],"stateMutability":"nonpayable"},{"type":"function","name":"createMatchSeasonPass","inputs":[{"name":"name","type":"string","internalType":"string"},{"name":"claimedFirstMatchInWindow","type":"bytes32","internalType":"bytes32"},{"name":"matchEntity","type":"bytes32","internalType":"bytes32"},{"name":"levelId","type":"bytes32","internalType":"bytes32"},{"name":"systemId","type":"bytes32","internalType":"ResourceId"},{"name":"entranceFee","type":"uint256","internalType":"uint256"},{"name":"rewardPercentages","type":"uint256[]","internalType":"uint256[]"}],"outputs":[],"stateMutability":"nonpayable"},{"type":"function","name":"createMatchSkyKey","inputs":[{"name":"name","type":"string","internalType":"string"},{"name":"claimedFirstMatchInWindow","type":"bytes32","internalType":"bytes32"},{"name":"matchEntity","type":"bytes32","internalType":"bytes32"},{"name":"levelId","type":"bytes32","internalType":"bytes32"},{"name":"systemId","type":"bytes32","internalType":"ResourceId"},{"name":"entranceFee","type":"uint256","internalType":"uint256"},{"name":"rewardPercentages","type":"uint256[]","internalType":"uint256[]"},{"name":"registrationTime","type":"uint256","internalType":"uint256"}],"outputs":[],"stateMutability":"nonpayable"},{"type":"function","name":"supportsInterface","inputs":[{"name":"interfaceId","type":"bytes4","internalType":"bytes4"}],"outputs":[{"name":"","type":"bool","internalType":"bool"}],"stateMutability":"pure"},{"type":"event","name":"Store_SetRecord","inputs":[{"name":"tableId","type":"bytes32","indexed":true,"internalType":"ResourceId"},{"name":"keyTuple","type":"bytes32[]","indexed":false,"internalType":"bytes32[]"},{"name":"staticData","type":"bytes","indexed":false,"internalType":"bytes"},{"name":"encodedLengths","type":"bytes32","indexed":false,"internalType":"EncodedLengths"},{"name":"dynamicData","type":"bytes","indexed":false,"internalType":"bytes"}],"anonymous":false},{"type":"event","name":"Store_SpliceDynamicData","inputs":[{"name":"tableId","type":"bytes32","indexed":true,"internalType":"ResourceId"},{"name":"keyTuple","type":"bytes32[]","indexed":false,"internalType":"bytes32[]"},{"name":"dynamicFieldIndex","type":"uint8","indexed":false,"internalType":"uint8"},{"name":"start","type":"uint48","indexed":false,"internalType":"uint48"},{"name":"deleteCount","type":"uint40","indexed":false,"internalType":"uint40"},{"name":"encodedLengths","type":"bytes32","indexed":false,"internalType":"EncodedLengths"},{"name":"data","type":"bytes","indexed":false,"internalType":"bytes"}],"anonymous":false},{"type":"event","name":"Store_SpliceStaticData","inputs":[{"name":"tableId","type":"bytes32","indexed":true,"internalType":"ResourceId"},{"name":"keyTuple","type":"bytes32[]","indexed":false,"internalType":"bytes32[]"},{"name":"start","type":"uint48","indexed":false,"internalType":"uint48"},{"name":"data","type":"bytes","indexed":false,"internalType":"bytes"}],"anonymous":false},{"type":"error","name":"EncodedLengths_InvalidLength","inputs":[{"name":"length","type":"uint256","internalType":"uint256"}]},{"type":"error","name":"PackedPtrLen__LenOverflow","inputs":[]},{"type":"error","name":"PackedPtrLen__PtrOverflow","inputs":[]},{"type":"error","name":"Slice_OutOfBounds","inputs":[{"name":"data","type":"bytes","internalType":"bytes"},{"name":"start","type":"uint256","internalType":"uint256"},{"name":"end","type":"uint256","internalType":"uint256"}]},{"type":"error","name":"Store_IndexOutOfBounds","inputs":[{"name":"length","type":"uint256","internalType":"uint256"},{"name":"accessedIndex","type":"uint256","internalType":"uint256"}]},{"type":"error","name":"Store_InvalidResourceType","inputs":[{"name":"expected","type":"bytes2","internalType":"bytes2"},{"name":"resourceId","type":"bytes32","internalType":"ResourceId"},{"name":"resourceIdString","type":"string","internalType":"string"}]},{"type":"error","name":"Store_InvalidSplice","inputs":[{"name":"startWithinField","type":"uint40","internalType":"uint40"},{"name":"deleteCount","type":"uint40","internalType":"uint40"},{"name":"fieldLength","type":"uint40","internalType":"uint40"}]},{"type":"error","name":"StrChar__InvalidUTF8","inputs":[]}],"bytecode":{"object":"0x608060405234801561001057600080fd5b506153d7806100206000396000f3fe60806040523480156200001157600080fd5b5060043610620000875760003560e01c806345ec9354116200006257806345ec935414620000f45780634ba6de631462000108578063e1af802c146200011f578063f9059113146200012957600080fd5b806301ffc9a7146200008c578063119df25f14620000b8578063127de47a14620000db575b600080fd5b620000a36200009d3660046200431d565b62000140565b60405190151581526020015b60405180910390f35b620000c2620001da565b6040516001600160a01b039091168152602001620000af565b620000f2620000ec36600462004432565b620001eb565b005b604051601f193601358152602001620000af565b620000f26200011936600462004513565b62000300565b620000c26200057e565b620000f26200013a366004620045ae565b6200058a565b60007fffffffff0000000000000000000000000000000000000000000000000000000082167fb5dee127000000000000000000000000000000000000000000000000000000001480620001d457507fffffffff0000000000000000000000000000000000000000000000000000000082167f01ffc9a700000000000000000000000000000000000000000000000000000000145b92915050565b6000620001e66200061e565b905090565b620001f562000651565b1580620002115750620002116200020b620001da565b620006b1565b620002635760405162461bcd60e51b815260206004820152600f60248201527f776f726c64206973206c6f636b6564000000000000000000000000000000000060448201526064015b60405180910390fd5b6200026e81620006c8565b806200029c57506200028962000283620001da565b62000773565b80156200029c57506200029c8162000783565b620002ea5760405162461bcd60e51b815260206004820152601d60248201527f74686973206c6576656c206973206e6f7420696e20726f746174696f6e00000060448201526064016200025a565b620002fa84848484600062000819565b50505050565b6200030a62000651565b1580620003205750620003206200020b620001da565b6200036e5760405162461bcd60e51b815260206004820152600f60248201527f776f726c64206973206c6f636b6564000000000000000000000000000000000060448201526064016200025a565b60006200037a620001da565b9050620003878162000773565b620003fa5760405162461bcd60e51b8152602060048201526024808201527f63616c6c657220646f6573206e6f7420686176652074686520736561736f6e2060448201527f706173730000000000000000000000000000000000000000000000000000000060648201526084016200025a565b837fffff00000000000000000000000000000000000000000000000000000000000016151580620004565750620004318460101b90565b7fffffffffffffffffffffffffffffffffffffffffffffffffffffffffffff00001615155b15620004f65760006200046862000a82565b905060006200047662000ad9565b9050600062000486838562000b27565b9050818110620004d95760405162461bcd60e51b815260206004820152601b60248201527f70726976617465206d61746368206c696d69742072656163686564000000000060448201526064016200025a565b620004f28385620004ec84600162004669565b62000be9565b5050505b6200050185620006c8565b80620005135750620005138562000783565b620005615760405162461bcd60e51b815260206004820152601d60248201527f74686973206c6576656c206973206e6f7420696e20726f746174696f6e00000060448201526064016200025a565b6200057488888888888888600062000cc5565b5050505050505050565b6000620001e662000e0d565b6200059462000651565b1580620005aa5750620005aa6200020b620001da565b620005f85760405162461bcd60e51b815260206004820152600f60248201527f776f726c64206973206c6f636b6564000000000000000000000000000000000060448201526064016200025a565b6200060c62000606620001da565b62000e19565b62000574888888888888888862000cc5565b7fffffffffffffffffffffffffffffffffffffffffffffffffffffffffffffffcc36013560601c806200064e5750335b90565b6040805160008082526020820190925260006200069d7f74620000000000000000000000000000536b79506f6f6c436f6e6669670000008383681f418000480805050560b21b62000e7f565b9050620006aa8160f81c90565b9250505090565b6000620001d4620006c162000f47565b8362000f94565b6040805160018082528183019092526000918291906020808301908036833701905050905082816000815181106200070457620007046200467f565b602090810291909101015260006200075e7f746200000000000000000000000000004c6576656c496e5374616e646172645283837e0101000100000000000000000000000000000000000000000000000000000062000e7f565b90506200076b8160f81c90565b949350505050565b6000620001d4620006c162000a82565b604080516001808252818301909252600091829190602080830190803683370190505090508281600081518110620007bf57620007bf6200467f565b602090810291909101015260006200075e7f746200000000000000000000000000004c6576656c496e536561736f6e50617383837e0101000100000000000000000000000000000000000000000000000000000062000e7f565b601862000826866200102f565b1115620008765760405162461bcd60e51b815260206004820152600d60248201527f6e616d6520746f6f206c6f6e670000000000000000000000000000000000000060448201526064016200025a565b620008818362001054565b15620008d05760405162461bcd60e51b815260206004820152601960248201527f74686973206d6174636820616c7265616479206578697374730000000000000060448201526064016200025a565b6000620008e16201518042620046ab565b90506000620008f082620010eb565b90506107d08110620009455760405162461bcd60e51b815260206004820152601e60248201527f746f6f206d616e79206d617463686573206372656174656420746f646179000060448201526064016200025a565b6200095d826200095783600162004669565b6200116c565b6000620009796200096d620001da565b6001600160a01b031690565b9050620009996200098962000f47565b62000993620001da565b62000f94565b620009c657620009c6620009ac6200057e565b620009b66200057e565b620009c0620011f8565b62001245565b6000620009d26200057e565b604051620009e0906200430f565b6001600160a01b039091168152602001604051809103906000f08015801562000a0d573d6000803e3d6000fd5b509050600081905060006040518060c0016040528088815260200160008152602001600f8152602001898152602001858152602001836001600160a01b0316815250905062000a5d89826200144d565b62000a69898c6200155b565b62000a75898b620015ce565b5050505050505050505050565b60408051600080825260208201909252600062000acf7f74620000000000000000000000000000536b79506f6f6c436f6e666967000000836004681f418000480805050560b21b62000e7f565b60601c9392505050565b60408051600080825260208201909252600062000b207f74620000000000000000000000000000536561736f6e506173735072697661748383630100080160dd1b62000e7f565b9392505050565b60408051600280825260608201835260009283929190602083019080368337019050509050836001600160a01b031660001b8160008151811062000b6f5762000b6f6200467f565b602002602001018181525050826001600160a01b031660001b8160018151811062000b9e5762000b9e6200467f565b6020908102919091010152600062000be07f74620000000000000000000000000000507269766174654d61746368657343728383630100080160dd1b62000e7f565b95945050505050565b604080516002808252606082018352600092602083019080368337019050509050836001600160a01b031660001b8160008151811062000c2d5762000c2d6200467f565b602002602001018181525050826001600160a01b031660001b8160018151811062000c5c5762000c5c6200467f565b602002602001018181525050620002fa7f74620000000000000000000000000000507269766174654d617463686573437260001b8260008560405160200162000ca791815260200190565b60408051601f19818403018152919052630100080160dd1b6200183f565b82158062000cdd5750606462000cdb83620018fe565b145b62000d2b5760405162461bcd60e51b815260206004820152601e60248201527f70657263656e7461676573206d7573742061646420757020746f20313030000060448201526064016200025a565b82158062000d71575062000d60857f537061776e536574746c656d656e74000000000000000000000000000000000062001947565b62000d6d90600162004669565b8251145b62000de55760405162461bcd60e51b815260206004820152602960248201527f7468657265206d7573742062652070657263656e746167657320666f7220656160448201527f636820656e74697479000000000000000000000000000000000000000000000060648201526084016200025a565b62000df4888888888562000819565b62000e008685620019ed565b6200057486848462001a71565b6000620001e662001b13565b62000e2e62000e2762000f47565b8262000f94565b62000e7c5760405162461bcd60e51b815260206004820181905260248201527f63616c6c657220646f6573206e6f7420686176652074686520736b79206b657960448201526064016200025a565b50565b60008062000e8c62001b13565b9050306001600160a01b0382160362000eb65762000ead8686868662001b53565b9150506200076b565b6040517f8c364d590000000000000000000000000000000000000000000000000000000081526001600160a01b03821690638c364d599062000f039089908990899089906004016200470c565b602060405180830381865afa15801562000f21573d6000803e3d6000fd5b505050506040513d601f19601f8201168201806040525081019062000ead91906200473d565b60408051600080825260208201909252600062000acf7f74620000000000000000000000000000536b79506f6f6c436f6e666967000000836005681f418000480805050560b21b62000e7f565b600080836001600160a01b03166339f898bc6040518163ffffffff1660e01b8152600401602060405180830381865afa15801562000fd6573d6000803e3d6000fd5b505050506040513d601f19601f8201168201806040525081019062000ffc91906200473d565b90506000620010156200100f8360101b90565b62001b86565b9050600062001025828662001bd5565b1195945050505050565b60008062001047620010418462001c3f565b62001c4c565b905062000b208162001c96565b6040805160018082528183019092526000918291906020808301908036833701905050905082816000815181106200109057620010906200467f565b602090810291909101015260006200076b7f746200000000000000000000000000004d61746368436f6e66696700000000008360027eb406002020202020140000000000000000000000000000000000000000000062000e7f565b604080516001808252818301909252600091829190602080830190803683370190505090508260001b816000815181106200112a576200112a6200467f565b602090810291909101015260006200076b7f746200000000000000000000000000004d6174636865735065724461790000008383630100080160dd1b62000e7f565b604080516001808252818301909252600091602080830190803683370190505090508260001b81600081518110620011a857620011a86200467f565b602002602001018181525050620011f37f746200000000000000000000000000004d61746368657350657244617900000060001b8260008560405160200162000ca791815260200190565b505050565b60408051600080825260208201909252600062000b207f74620000000000000000000000000000536b79506f6f6c436f6e666967000000836001681f418000480805050560b21b62000e7f565b60006200125162001cd6565b90506000816001600160a01b03166339f898bc6040518163ffffffff1660e01b8152600401602060405180830381865afa15801562001294573d6000803e3d6000fd5b505050506040513d601f19601f82011682018060405250810190620012ba91906200473d565b6040516001600160a01b03861660248201526044810185905290915060009060640160408051601f198184030181529181526020820180517bffffffffffffffffffffffffffffffffffffffffffffffffffffffff167fa9059cbb00000000000000000000000000000000000000000000000000000000179052519091506000906001600160a01b038816908190633ae7af0890620013609087908790602401620047ab565b60408051601f198184030181529181526020820180517bffffffffffffffffffffffffffffffffffffffffffffffffffffffff1660e09490941b939093179092529051620013af9250620047c6565b600060405180830381855af49150503d8060008114620013ec576040519150601f19603f3d011682016040523d82523d6000602084013e620013f1565b606091505b5050905080620014445760405162461bcd60e51b815260206004820152601560248201527f746f6b656e207472616e73666572206661696c6564000000000000000000000060448201526064016200025a565b50505050505050565b6000620014d7826000015183602001518460400151856060015186608001518760a0015160408051602081019790975286810195909552606080870194909452608086019290925260a0850152901b7fffffffffffffffffffffffffffffffffffffffff0000000000000000000000001660c0830152805160b481840301815260d4909201905290565b6040805160018082528183019092529192506000916060918391906020808301908036833701905050905085816000815181106200151957620015196200467f565b6020908102919091010152620015537f746200000000000000000000000000004d61746368436f6e66696700000000008286868662001d23565b505050505050565b6040805160018082528183019092526000916020808301908036833701905050905082816000815181106200159457620015946200467f565b6020908102919091010152620011f37f746200000000000000000000000000004d617463684e616d65000000000000008260008562001da0565b6000620015da62001e5c565b620015e7906001620047e4565b9050620015f5838262001ec5565b620016008162001fa8565b60006200160d846200201d565b905060006200161c82620020b4565b51905060006200162c82620020e2565b905060008463ffffffff1660010362001647575085620016d1565b600080620016558862002177565b9150915081620016cd5760405162461bcd60e51b8152602060048201526024808201527f636f756c64206e6f742066696e64206669727374206d6174636820696e20776960448201527f6e646f770000000000000000000000000000000000000000000000000000000060648201526084016200025a565b9150505b6000620016de8262002279565b90506000620016ee82886200480b565b63ffffffff169050600062001703826200231a565b905060006200171162001cd6565b9050806001600160a01b031663a9059cbb6200172d8d62002407565b6040517fffffffff0000000000000000000000000000000000000000000000000000000060e084901b1681526001600160a01b039091166004820152602481018590526044016020604051808303816000875af115801562001793573d6000803e3d6000fd5b505050506040513d601f19601f82011682018060405250810190620017b991906200482b565b50620017c78b4284620024a9565b60005b865181101562001827576000606484898481518110620017ee57620017ee6200467f565b60200260200101516200180291906200484f565b6200180e9190620046ab565b90506200181d8d838362002540565b50600101620017ca565b50620018338962001fa8565b62000a75898c620025e9565b60006200184b62001b13565b9050306001600160a01b0382160362001873576200186d868686868662002676565b62001553565b6040517f390baae00000000000000000000000000000000000000000000000000000000081526001600160a01b0382169063390baae090620018c2908990899089908990899060040162004869565b600060405180830381600087803b158015620018dd57600080fd5b505af1158015620018f2573d6000803e3d6000fd5b50505050505050505050565b6000805b825181101562001941578281815181106200192157620019216200467f565b60200260200101518262001936919062004669565b915060010162001902565b50919050565b6040805160028082526060820183526000928392919060208301908036833701905050905083816000815181106200198357620019836200467f565b6020026020010181815250508281600181518110620019a657620019a66200467f565b60209081029190910101526000620019e07f746200000000000000000000000000004c6576656c54656d706c61746573496e83836200268f565b6020900495945050505050565b60408051600180825281830190925260009160208083019080368337019050509050828160008151811062001a265762001a266200467f565b602002602001018181525050620011f37f746200000000000000000000000000004d61746368416363657373436f6e747260001b8260008560405160200162000ca791815260200190565b600062001a7e836200275c565b9050600062001a8d8362002788565b9050600062001a9c846200279c565b6040805160018082528183019092529192506000919060208083019080368337019050509050868160008151811062001ad95762001ad96200467f565b6020908102919091010152620014447f746200000000000000000000000000004d6174636853776565707374616b65008286868662001d23565b7f629a4c26e296b22a8e0856e9f6ecb2d1008d7e00081111962cd175fa7488e175546000906001600160a01b03168062001b4e573391505090565b919050565b600062000be062001b658686620027bb565b60ff858116601b0360080285901c1662001b80858762002813565b62002848565b6000620001d47f7462000000000000000000000000000000000000000000000000000000000000837f42616c616e6365730000000000000000000000000000000000000000000000006200289e565b60408051600180825281830190925260009182919060208083019080368337019050509050826001600160a01b031660001b8160008151811062001c1d5762001c1d6200467f565b6020908102919091010152600062000be0858383630100080160dd1b62000e7f565b6000620001d48262002927565b6040805180820190915260008082526020820152604051806040016040528062001c768460801c90565b81526020016fffffffffffffffffffffffffffffffff8416905292915050565b60208101518151600091015b825181111562001cc75762001cb98360016200293d565b505060018201915062001ca2565b50600060209092019190915290565b60408051600080825260208201909252600062000acf7f74620000000000000000000000000000536b79506f6f6c436f6e666967000000836003681f418000480805050560b21b62000e7f565b600062001d2f62001b13565b9050306001600160a01b0382160362001d51576200186d8686868686620029f5565b6040517f298314fb0000000000000000000000000000000000000000000000000000000081526001600160a01b0382169063298314fb90620018c29089908990899089908990600401620048b4565b600062001dac62001b13565b9050306001600160a01b0382160362001dd35762001dcd8585858562002a0f565b62001e55565b6040517fef6ea8620000000000000000000000000000000000000000000000000000000081526001600160a01b0382169063ef6ea8629062001e209088908890889088906004016200490b565b600060405180830381600087803b15801562001e3b57600080fd5b505af115801562001e50573d6000803e3d6000fd5b505050505b5050505050565b60408051600080825260208201909252600062001ebb7f746200000000000000000000000000004c6173744d61746368496e646578000083837e0401000400000000000000000000000000000000000000000000000000000062000e7f565b60e01c9392505050565b60408051600180825281830190925260009160208083019080368337019050509050828160008151811062001efe5762001efe6200467f565b602002602001018181525050620011f37f746200000000000000000000000000004d61746368496e64657800000000000060001b8260008560405160200162001f72919060e09190911b7fffffffff0000000000000000000000000000000000000000000000000000000016815260040190565b60408051601f198184030181529190527e040100040000000000000000000000000000000000000000000000000000006200183f565b60408051600080825260208201835260e084901b7fffffffff0000000000000000000000000000000000000000000000000000000016928201929092529062002019907f746200000000000000000000000000004c6173744d61746368496e64657800009083906044820162001f72565b5050565b6040805160018082528183019092526000918291906020808301908036833701905050905082816000815181106200205957620020596200467f565b602090810291909101015260006200076b7f746200000000000000000000000000004d61746368436f6e66696700000000008360037eb406002020202020140000000000000000000000000000000000000000000062000e7f565b6060620001d4827f537061776e536574746c656d656e74000000000000000000000000000000000062002a4f565b60408051600180825281830190925260609160009190602080830190803683370190505090508260001b816000815181106200212257620021226200467f565b602090810291909101015260006200215c7f746200000000000000000000000000004d617463685265776172645065726365838362002afd565b90506200076b62002171826000845162002bbe565b62002c54565b6000806000620021906200218a62002c67565b62002cb4565b905060006200219f8562002cd4565b90506000620021ae8662002279565b9050856000620021bf838662002d6a565b90506000841580620021d15750858510155b9050808015620021de5750815b15620021f257506001989650505050505050565b81158015620021fe5750805b156200221257506000989650505050505050565b60015b60048163ffffffff1610156200226d576200223b620022358287620047e4565b62002dbe565b9350620022488462002cd4565b9550868610620022645750600199929850919650505050505050565b60010162002215565b50505050505050915091565b604080516001808252818301909252600091829190602080830190803683370190505090508281600081518110620022b557620022b56200467f565b602090810291909101015260006200230f7f746200000000000000000000000000004d61746368496e64657800000000000083837e0401000400000000000000000000000000000000000000000000000000000062000e7f565b60e01c949350505050565b60008062002327620011f8565b905061012c831015620023415762000b208160036200484f565b6101f4831015620023595762000b208160026200484f565b6103208310156200237f576064620023738260966200484f565b62000b209190620046ab565b6103e883101562002399576064620023738260786200484f565b6104b0831015620023aa5792915050565b610578831015620023c45760646200237382605a6200484f565b6106a4831015620023de5760646200237382604b6200484f565b6107d0831015620023f85760646200237382603c6200484f565b6064620023738260326200484f565b6040805160018082528183019092526000918291906020808301908036833701905050905082816000815181106200244357620024436200467f565b602090810291909101015260006200249e7f746200000000000000000000000000004d61746368436f6e66696700000000008360057eb406002020202020140000000000000000000000000000000000000000000062000e7f565b60601c949350505050565b6040805160208082018590528183018490528251808303840181526001606080850182815260a08601909652919460009492938593919291608001908036833701905050905086816000815181106200250657620025066200467f565b6020908102919091010152620014447f746200000000000000000000000000004d61746368536b7900000000000000008286868662001d23565b60408051600280825260608201835260009260208301908036833701905050905083816000815181106200257857620025786200467f565b6020026020010181815250508260001b816001815181106200259e576200259e6200467f565b602002602001018181525050620002fa7f746200000000000000000000000000004d61746368526577617264000000000060001b8260008560405160200162000ca791815260200190565b604080516001808252818301909252600091602080830190803683370190505090508263ffffffff1660001b816000815181106200262b576200262b6200467f565b602002602001018181525050620011f37f746200000000000000000000000000004d61746368496e646578546f456e746960001b8260008560405160200162000ca791815260200190565b62001e55858562002688848762002813565b8562002dcb565b6000806200269c62001b13565b9050306001600160a01b03821603620026c557620026bc8585856200308a565b91505062000b20565b6040517fdbbf0e210000000000000000000000000000000000000000000000000000000081526001600160a01b0382169063dbbf0e2190620027109088908890889060040162004943565b602060405180830381865afa1580156200272e573d6000803e3d6000fd5b505050506040513d601f19601f82011682018060405250810190620026bc91906200473d565b509392505050565b6060816040516020016200277291815260200190565b6040516020818303038152906040529050919050565b6000620001d48251602002603881901b1790565b6060620027a982620030b2565b604051602001620027729190620047c6565b60008282604051602001620027d292919062004971565b60408051601f1981840301815291905280516020909101207f86425bff6b57326c7859e89024fe4f238ca327a1ae4a230180dd2f0e88aaa7d9189392505050565b600080805b8360ff1681101562002754576200283d60ff601b83900360080287901c168362004669565b915060010162002818565b60006020821062002872576020820484019350602082816200286e576200286e62004695565b0691505b508254600882021b60208290038084111562002754576001850154600882021c82179150509392505050565b6000620028ae6070601062004669565b7fffff00000000000000000000000000000000000000000000000000000000000085167dffffffffffffffffffffffffffff00000000000000000000000000000000601086901c16177fffffffffffffffffffffffffffffffff00000000000000000000000000000000841690911c1790509392505050565b60008060208301905062000b20818451620030c4565b81515160006200294d82620030d2565b90508360200151811115620029a557821562002995576040517fc0c0a5c700000000000000000000000000000000000000000000000000000000815260040160405180910390fd5b50825160010183526000620029ee565b80600003620029e757821562002995576040517fc0c0a5c700000000000000000000000000000000000000000000000000000000815260040160405180910390fd5b8351810184525b9250929050565b62001e55858585858562002a098b6200332a565b620033b4565b600062002a1d858562003721565b9050600062002a3b828560ff166028026038011c64ffffffffff1690565b905062001553868686600085888862003737565b60408051600280825260608083018452926000929190602083019080368337019050509050838160008151811062002a8b5762002a8b6200467f565b602002602001018181525050828160018151811062002aae5762002aae6200467f565b6020908102919091010152600062002ae87f746200000000000000000000000000004c6576656c54656d706c61746573496e838362002afd565b905062000be062002171826000845162002bbe565b6060600062002b0b62001b13565b9050306001600160a01b0382160362002b2b57620026bc85858562003ba9565b6040517f1e7889770000000000000000000000000000000000000000000000000000000081526001600160a01b03821690631e7889779062002b769088908890889060040162004943565b600060405180830381865afa15801562002b94573d6000803e3d6000fd5b505050506040513d6000823e601f3d908101601f19168201604052620026bc9190810190620049af565b60008183118062002bcf5750835182115b1562002c0f578383836040517f23230fa30000000000000000000000000000000000000000000000000000000081526004016200025a9392919062004a26565b6020840162002c1f848262004669565b9050600062002c2f858562004a4d565b6fffffffffffffffffffffffffffffffff1660809290921b9190911795945050505050565b6060600062000b20836020600062003bd5565b60408051600080825260208201909252600062000b207f74620000000000000000000000000000536b79506f6f6c436f6e666967000000836002681f418000480805050560b21b62000e7f565b6000428183821162002cc85760006200076b565b6200076b848362004a4d565b60408051600180825281830190925260009182919060208083019080368337019050509050828160008151811062002d105762002d106200467f565b602090810291909101015260006200076b7f746200000000000000000000000000004d61746368536b79000000000000000083837e4002002020000000000000000000000000000000000000000000000000000062000e7f565b60008062002d7a6001856200480b565b90508063ffffffff1660000362002d96576001915050620001d4565b600062002da38262002dbe565b9050600062002db28262002cd4565b90941195945050505050565b6000620001d48262003c56565b7f6f74000000000000000000000000000000000000000000000000000000000000847fffff000000000000000000000000000000000000000000000000000000000000160362002e5957837f8c0b5119d4cec7b284c6b1b39252a03d1e2f2d7451a5895562524c113bb952be84848460405162002e4b9392919062004a63565b60405180910390a2620002fa565b600062002e678585620027bb565b9050600062002e768662003cdd565b905060005b815181101562002f5757600082828151811062002e9c5762002e9c6200467f565b6020026020010151905062002eca6004826affffffffffffffffffffff191662003d6f90919063ffffffff16565b1562002f4d576040517f964f667d000000000000000000000000000000000000000000000000000000008152606082901c9063964f667d9062002f18908b908b908b908b9060040162004aa4565b600060405180830381600087803b15801562002f3357600080fd5b505af115801562002f48573d6000803e3d6000fd5b505050505b5060010162002e7b565b50857f8c0b5119d4cec7b284c6b1b39252a03d1e2f2d7451a5895562524c113bb952be86868660405162002f8e9392919062004a63565b60405180910390a262002fab828565ffffffffffff168562003d8e565b60005b81518110156200144457600082828151811062002fcf5762002fcf6200467f565b6020026020010151905062002ffd6008826affffffffffffffffffffff191662003d6f90919063ffffffff16565b1562003080576040517fa8ba8721000000000000000000000000000000000000000000000000000000008152606082901c9063a8ba8721906200304b908b908b908b908b9060040162004aa4565b600060405180830381600087803b1580156200306657600080fd5b505af11580156200307b573d6000803e3d6000fd5b505050505b5060010162002fae565b60006200076b826200309d868662003721565b9060ff166028026038011c64ffffffffff1690565b60608162000b20816020600062003da7565b600062000b20838362003dff565b600081811a607f8111620030e95750600192915050565b6000620030f98260ff1662003e0d565b90508060020362003153578160ff1660c2111580156200311d575060df8260ff1611155b8015620031395750620031398460015b1a608060c09091161490565b1562003149575060029392505050565b5060009392505050565b806003036200325257600184901a600060ff841660e01480156200317b57508160ff1660a011155b80156200318c575060bf8260ff1611155b80620031bc57508360ff1660e111158015620031ac575060ec8460ff1611155b8015620031bc575060c082166080145b80620031ec57508360ff1660ed148015620031db57508160ff16608011155b8015620031ec5750609f8260ff1611155b806200321c57508360ff1660ee111580156200320c575060ef8460ff1611155b80156200321c575060c082166080145b9050808015620032345750620032348660026200312d565b15620032465750600395945050505050565b50600095945050505050565b806004036200314957600184901a600060ff841660f01480156200327a57508160ff16609011155b80156200328b575060bf8260ff1611155b80620032bb57508360ff1660f111158015620032ab575060f38460ff1611155b8015620032bb575060c082166080145b80620032eb57508360ff1660f4148015620032da57508160ff16608011155b8015620032eb5750608f8260ff1611155b9050808015620033035750620033038660026200312d565b8015620033185750620033188660036200312d565b15620032465750600495945050505050565b60007f8b9d8c8b908d9affffffffffffffffffab9e9d939a8d0000000000000000000082016200337a57507e60030220202000000000000000000000000000000000000000000000000000919050565b620001d4620033aa7f746273746f72650000000000000000005461626c6573000000000000000000008462003e71565b6020600062002848565b7f6f74000000000000000000000000000000000000000000000000000000000000867fffff00000000000000000000000000000000000000000000000000000000000016036200344457857f8dbb3a9672eebfd3773e72dd9c102393436816d832c7ba9e1e1ac8fcadcac7a98686868660405162003436949392919062004ae1565b60405180910390a262001553565b6000620034518762003cdd565b905060005b8151811015620035365760008282815181106200347757620034776200467f565b60200260200101519050620034a56001826affffffffffffffffffffff191662003d6f90919063ffffffff16565b156200352c576040517f57066c9c000000000000000000000000000000000000000000000000000000008152606082901c906357066c9c90620034f7908c908c908c908c908c908c9060040162004b26565b600060405180830381600087803b1580156200351257600080fd5b505af115801562003527573d6000803e3d6000fd5b505050505b5060010162003456565b50867f8dbb3a9672eebfd3773e72dd9c102393436816d832c7ba9e1e1ac8fcadcac7a9878787876040516200356f949392919062004ae1565b60405180910390a26000620035858888620027bb565b905060006020870190506200359f82600089518462003e8e565b6000620035ac8562003f58565b11156200363e576000620035c18a8a62003f9d565b878155905060208601915060008060005b620035dd8862003f58565b8160ff1610156200363957620035f58d8d8362003ff5565b9250620036118a8260ff166028026038011c64ffffffffff1690565b915062003622836000848862003e8e565b6200362e828662004669565b9450600101620035d2565b505050505b60005b8351811015620018f25760008482815181106200366257620036626200467f565b60200260200101519050620036906002826affffffffffffffffffffff191662003d6f90919063ffffffff16565b1562003717576040517f5b28cdaf000000000000000000000000000000000000000000000000000000008152606082901c90635b28cdaf90620036e2908e908e908e908e908e908e9060040162004b26565b600060405180830381600087803b158015620036fd57600080fd5b505af115801562003712573d6000803e3d6000fd5b505050505b5060010162003641565b600062000b2062003733848462003f9d565b5490565b7f7462000000000000000000000000000000000000000000000000000000000000877fffff0000000000000000000000000000000000000000000000000000000000001614620037fb577f74620000000000000000000000000000000000000000000000000000000000008788604051602001620037b791815260200190565b60408051601f19818403018152908290527f31b466830000000000000000000000000000000000000000000000000000000082526200025a93929160040162004b85565b600062003817828760ff166028026038011c64ffffffffff1690565b9050600083518564ffffffffff168362003832919062004a4d565b6200383e919062004669565b90508082141580156200386357508162003859868862004bc8565b64ffffffffff1614155b15620038b5576040517fa65010b400000000000000000000000000000000000000000000000000000000815264ffffffffff80881660048301528087166024830152831660448201526064016200025a565b818664ffffffffff16111562003908576040517f7e8578d30000000000000000000000000000000000000000000000000000000081526004810183905264ffffffffff871660248201526044016200025a565b60006200391784898462004077565b90506000620039268b62003cdd565b905060005b8151811015620039fd5760008282815181106200394c576200394c6200467f565b602002602001015190506200397a6010826affffffffffffffffffffff191662003d6f90919063ffffffff16565b15620039f357606081901c6001600160a01b03166355eb5a288e8e8e8e8e8d8f6040518863ffffffff1660e01b8152600401620039be979695949392919062004be9565b600060405180830381600087803b158015620039d957600080fd5b505af1158015620039ee573d6000803e3d6000fd5b505050505b506001016200392b565b5064ffffffffff881660005b8a60ff168160ff16101562003a3f5762003a32878260ff166028026038011c64ffffffffff1690565b9091019060010162003a09565b508b7ffe158a7adba34e256807c8a149028d3162918713c3838afc643ce9f96716ebfd8c8c848c888d60405162003a7c9695949392919062004c4b565b60405180910390a25082841462003aa057600062003a9b8c8c62003f9d565b839055505b600062003aaf8c8c8c62003ff5565b905062003ac5818a64ffffffffff168962003d8e565b5060005b815181101562003b9b57600082828151811062003aea5762003aea6200467f565b6020026020010151905062003b186020826affffffffffffffffffffff191662003d6f90919063ffffffff16565b1562003b9157606081901c6001600160a01b031663635845338e8e8e8e8e8a8f6040518863ffffffff1660e01b815260040162003b5c979695949392919062004be9565b600060405180830381600087803b15801562003b7757600080fd5b505af115801562003b8c573d6000803e3d6000fd5b505050505b5060010162003ac9565b505050505050505050505050565b60606200076b62003bbc85858562003ff5565b600062003bcf856200309d898962003721565b62004149565b6060600062003be48560801c90565b90506fffffffffffffffffffffffffffffffff8516600085828162003c0d5762003c0d62004695565b04905060405193506020840160208202810160405281855260005b8281101562003c4a578451871c82529387019360209091019060010162003c28565b50505050509392505050565b604080516001808252818301909252600091829190602080830190803683370190505090508263ffffffff1660001b8160008151811062003c9b5762003c9b6200467f565b602090810291909101015260006200076b7f746200000000000000000000000000004d61746368496e646578546f456e74698383630100080160dd1b62000e7f565b6040805160018082528183019092526060916000919060208083019080368337019050509050828160008151811062003d1a5762003d1a6200467f565b6020908102919091010152600062003d547f746273746f726500000000000000000053746f7265486f6f6b73000000000000838362003ba9565b90506200076b62003d69826000845162002bbe565b6200416e565b60008160ff168262003d818560581c90565b1660ff1614905092915050565b620011f38383835162003da18560200190565b62003e8e565b8251606090600062003dba85836200484f565b9050604051925060208301601f19603f83860101166040528184526000602088015b8482101562003c4a578051871b8352918701916001919091019060200162003ddc565b600062000b20838362004181565b6000608082101562003e2157506001919050565b60c282101562003e3357506000919050565b60e082101562003e4557506002919050565b60f082101562003e5757506003919050565b60f582101562003e6957506004919050565b506000919050565b6040805160208101849052908101829052600090606001620027d2565b821562003f10576020831062003ebd5760208304840193506020838162003eb95762003eb962004695565b0692505b821562003f105760208390036000600019600885021c1990506008850281811c91508351811c905081198754168282161787555081841162003f01575050620002fa565b50600194909401939182900391015b5b6020821062003f345780518455600190930192601f199091019060200162003f11565b8115620002fa576000600019600884021c8554835182191691161785555050505050565b6000600860018062003f6d6002602062004a4d565b62003f79919062004a4d565b62003f85919062004a4d565b62003f9191906200484f565b8260ff911c1692915050565b6000828260405160200162003fb492919062004971565b60408051601f1981840301815291905280516020909101207f14e2fcc58e58e68ec7edc30c8d50dccc3ce2714a623ec81f46b6a63922d76569189392505050565b600083836040516020016200400c92919062004971565b604051602081830303815290604052805190602001208260f81b7effffffffffffffffffffffffffffffffffffffffffffffffffffffffffffff19167f3b4102da22e32d82fc925482184f16c09fd4281692720b87d124aef6da48a0f1181860001c90509392505050565b600064ffffffffff821115620040bd576040517f7149a3c1000000000000000000000000000000000000000000000000000000008152600481018390526024016200025a565b8366ffffffffffffff811660ff851660280260380182901c64ffffffffff16808510620040f15780850382019150620040f9565b848103820391505b5064ffffffffff6038602860ff8816020181811b197fffffffffffffffffffffffffffffffffffffffffffffffffff000000000000009490941690921792909216918416901b1790509392505050565b60405160208101601f19603f8484010116604052828252620027548585858462004236565b6060600062000b20836015600062003bd5565b60006fffffffffffffffffffffffffffffffff831115620041ce576040517ffee7506f00000000000000000000000000000000000000000000000000000000815260040160405180910390fd5b6fffffffffffffffffffffffffffffffff82111562004219576040517f3b6b098d00000000000000000000000000000000000000000000000000000000815260040160405180910390fd5b506fffffffffffffffffffffffffffffffff1660809190911b1790565b8215620042c75760208310620042655760208304840193506020838162004261576200426162004695565b0692505b8215620042c75760208390036000818410156200428b5750600019600884021c62004295565b50600019600882021c5b8554600886021b818451168219821617845250818411620042b8575050620002fa565b50600194909401939182900391015b5b60208210620042eb5783548152600190930192601f1990910190602001620042c8565b8115620002fa576000600019600884021c8251865482191691161782525050505050565b6106f68062004cac83390190565b6000602082840312156200433057600080fd5b81357fffffffff000000000000000000000000000000000000000000000000000000008116811462000b2057600080fd5b634e487b7160e01b600052604160045260246000fd5b604051601f8201601f1916810167ffffffffffffffff81118282101715620043a357620043a362004361565b604052919050565b600067ffffffffffffffff821115620043c857620043c862004361565b50601f01601f191660200190565b600082601f830112620043e857600080fd5b8135620043ff620043f982620043ab565b62004377565b8181528460208386010111156200441557600080fd5b816020850160208301376000918101602001919091529392505050565b600080600080608085870312156200444957600080fd5b843567ffffffffffffffff8111156200446157600080fd5b6200446f87828801620043d6565b97602087013597506040870135966060013595509350505050565b600082601f8301126200449c57600080fd5b8135602067ffffffffffffffff821115620044bb57620044bb62004361565b8160051b620044cc82820162004377565b9283528481018201928281019087851115620044e757600080fd5b83870192505b848310156200450857823582529183019190830190620044ed565b979650505050505050565b600080600080600080600060e0888a0312156200452f57600080fd5b873567ffffffffffffffff808211156200454857600080fd5b620045568b838c01620043d6565b985060208a0135975060408a0135965060608a0135955060808a0135945060a08a0135935060c08a01359150808211156200459057600080fd5b506200459f8a828b016200448a565b91505092959891949750929550565b600080600080600080600080610100898b031215620045cc57600080fd5b883567ffffffffffffffff80821115620045e557600080fd5b620045f38c838d01620043d6565b995060208b0135985060408b0135975060608b0135965060808b0135955060a08b0135945060c08b01359150808211156200462d57600080fd5b506200463c8b828c016200448a565b92505060e089013590509295985092959890939650565b634e487b7160e01b600052601160045260246000fd5b80820180821115620001d457620001d462004653565b634e487b7160e01b600052603260045260246000fd5b634e487b7160e01b600052601260045260246000fd5b600082620046c957634e487b7160e01b600052601260045260246000fd5b500490565b60008151808452602080850194506020840160005b838110156200470157815187529582019590820190600101620046e3565b509495945050505050565b848152608060208201526000620047276080830186620046ce565b60ff949094166040830152506060015292915050565b6000602082840312156200475057600080fd5b5051919050565b60005b83811015620047745781810151838201526020016200475a565b50506000910152565b600081518084526200479781602086016020860162004757565b601f01601f19169290920160200192915050565b8281526040602082015260006200076b60408301846200477d565b60008251620047da81846020870162004757565b9190910192915050565b63ffffffff81811683821601908082111562004804576200480462004653565b5092915050565b63ffffffff82811682821603908082111562004804576200480462004653565b6000602082840312156200483e57600080fd5b8151801515811462000b2057600080fd5b8082028115828204841417620001d457620001d462004653565b85815260a0602082015260006200488460a0830187620046ce565b60ff861660408401528281036060840152620048a181866200477d565b9150508260808301529695505050505050565b85815260a060208201526000620048cf60a0830187620046ce565b8281036040840152620048e381876200477d565b90508460608401528281036080840152620048ff81856200477d565b98975050505050505050565b848152608060208201526000620049266080830186620046ce565b60ff8516604084015282810360608401526200450881856200477d565b8381526060602082015260006200495e6060830185620046ce565b905060ff83166040830152949350505050565b8281526000602080830184516020860160005b82811015620049a25781518452928401929084019060010162004984565b5091979650505050505050565b600060208284031215620049c257600080fd5b815167ffffffffffffffff811115620049da57600080fd5b8201601f81018413620049ec57600080fd5b8051620049fd620043f982620043ab565b81815285602083850101111562004a1357600080fd5b62000be082602083016020860162004757565b60608152600062004a3b60608301866200477d565b60208301949094525060400152919050565b81810381811115620001d457620001d462004653565b60608152600062004a786060830186620046ce565b65ffffffffffff85166020840152828103604084015262004a9a81856200477d565b9695505050505050565b84815260806020820152600062004abf6080830186620046ce565b65ffffffffffff8516604084015282810360608401526200450881856200477d565b60808152600062004af66080830187620046ce565b828103602084015262004b0a81876200477d565b905084604084015282810360608401526200450881856200477d565b86815260c06020820152600062004b4160c0830188620046ce565b828103604084015262004b5581886200477d565b9050856060840152828103608084015262004b7181866200477d565b9150508260a0830152979650505050505050565b7fffff0000000000000000000000000000000000000000000000000000000000008416815282602082015260606040820152600062000be060608301846200477d565b64ffffffffff81811683821601908082111562004804576200480462004653565b87815260e06020820152600062004c0460e0830189620046ce565b60ff8816604084015264ffffffffff87811660608501528616608084015260a0830185905282810360c084015262004c3d81856200477d565b9a9950505050505050505050565b60c08152600062004c6060c0830189620046ce565b60ff8816602084015265ffffffffffff8716604084015264ffffffffff8616606084015284608084015282810360a084015262004c9e81856200477d565b999850505050505050505056fe608060405234801561001057600080fd5b506040516106f63803806106f683398101604081905261002f9161007e565b600080546001600160a01b0319166001600160a01b03831690811782556040518392907f8be0079c531659141344cd1fd0a4f28419497f9722a3daafe3b4186f6b6457e0908290a350506100ae565b60006020828403121561009057600080fd5b81516001600160a01b03811681146100a757600080fd5b9392505050565b610639806100bd6000396000f3fe60806040526004361061003f5760003560e01c80636e2d44ae146100445780638da5cb5b1461006e578063edee6239146100c0578063f2fde38b146100d3575b600080fd5b6100576100523660046104c0565b6100f5565b60405161006592919061053b565b60405180910390f35b34801561007a57600080fd5b5060005461009b9073ffffffffffffffffffffffffffffffffffffffff1681565b60405173ffffffffffffffffffffffffffffffffffffffff9091168152602001610065565b6100576100ce366004610577565b6101f4565b3480156100df57600080fd5b506100f36100ee3660046105c5565b6102ea565b005b6000805460609073ffffffffffffffffffffffffffffffffffffffff16331461017f576040517f08c379a000000000000000000000000000000000000000000000000000000000815260206004820152600c60248201527f554e415554484f52495a4544000000000000000000000000000000000000000060448201526064015b60405180910390fd5b8473ffffffffffffffffffffffffffffffffffffffff1683856040516101a591906105e7565b60006040518083038185875af1925050503d80600081146101e2576040519150601f19603f3d011682016040523d82523d6000602084013e6101e7565b606091505b5090969095509350505050565b6000805460609073ffffffffffffffffffffffffffffffffffffffff163314610279576040517f08c379a000000000000000000000000000000000000000000000000000000000815260206004820152600c60248201527f554e415554484f52495a454400000000000000000000000000000000000000006044820152606401610176565b8373ffffffffffffffffffffffffffffffffffffffff168360405161029e91906105e7565b600060405180830381855af49150503d80600081146102d9576040519150601f19603f3d011682016040523d82523d6000602084013e6102de565b606091505b50909590945092505050565b60005473ffffffffffffffffffffffffffffffffffffffff16331461036b576040517f08c379a000000000000000000000000000000000000000000000000000000000815260206004820152600c60248201527f554e415554484f52495a454400000000000000000000000000000000000000006044820152606401610176565b600080547fffffffffffffffffffffffff00000000000000000000000000000000000000001673ffffffffffffffffffffffffffffffffffffffff83169081178255604051909133917f8be0079c531659141344cd1fd0a4f28419497f9722a3daafe3b4186f6b6457e09190a350565b803573ffffffffffffffffffffffffffffffffffffffff811681146103ff57600080fd5b919050565b7f4e487b7100000000000000000000000000000000000000000000000000000000600052604160045260246000fd5b600082601f83011261044457600080fd5b813567ffffffffffffffff8082111561045f5761045f610404565b604051601f8301601f19908116603f0116810190828211818310171561048757610487610404565b816040528381528660208588010111156104a057600080fd5b836020870160208301376000602085830101528094505050505092915050565b6000806000606084860312156104d557600080fd5b6104de846103db565b9250602084013567ffffffffffffffff8111156104fa57600080fd5b61050686828701610433565b925050604084013590509250925092565b60005b8381101561053257818101518382015260200161051a565b50506000910152565b82151581526040602082015260008251806040840152610562816060850160208701610517565b601f01601f1916919091016060019392505050565b6000806040838503121561058a57600080fd5b610593836103db565b9150602083013567ffffffffffffffff8111156105af57600080fd5b6105bb85828601610433565b9150509250929050565b6000602082840312156105d757600080fd5b6105e0826103db565b9392505050565b600082516105f9818460208701610517565b919091019291505056fea264697066735822122008ce7305dc1ab5e1c60892426995b97463925ffcb2accda7bff6e0e695dd25bb64736f6c63430008180033a26469706673582212208bf8700973178d4c94f24c76a62c5777836bddf4f499a7e0808ce7baa5b510f564736f6c63430008180033","linkReferences":{}},"methodIdentifiers":{"_msgSender()":"119df25f","_msgValue()":"45ec9354","_world()":"e1af802c","createMatch(string,bytes32,bytes32,bytes32)":"127de47a","createMatchSeasonPass(string,bytes32,bytes32,bytes32,bytes32,uint256,uint256[])":"4ba6de63","createMatchSkyKey(string,bytes32,bytes32,bytes32,bytes32,uint256,uint256[],uint256)":"f9059113","supportsInterface(bytes4)":"01ffc9a7"},"id":318}