{"abi":[{"type":"function","name":"_msgSender","inputs":[],"outputs":[{"name":"sender","type":"address","internalType":"address"}],"stateMutability":"view"},{"type":"function","name":"_msgValue","inputs":[],"outputs":[{"name":"value","type":"uint256","internalType":"uint256"}],"stateMutability":"pure"},{"type":"function","name":"_world","inputs":[],"outputs":[{"name":"","type":"address","internalType":"address"}],"stateMutability":"view"},{"type":"function","name":"setHeroInRotation","inputs":[{"name":"template","type":"bytes32","internalType":"bytes32"},{"name":"inRotation","type":"bool","internalType":"bool"}],"outputs":[],"stateMutability":"nonpayable"},{"type":"function","name":"setHeroInSeasonPassRotation","inputs":[{"name":"template","type":"bytes32","internalType":"bytes32"},{"name":"inRotation","type":"bool","internalType":"bool"}],"outputs":[],"stateMutability":"nonpayable"},{"type":"function","name":"supportsInterface","inputs":[{"name":"interfaceId","type":"bytes4","internalType":"bytes4"}],"outputs":[{"name":"","type":"bool","internalType":"bool"}],"stateMutability":"pure"},{"type":"event","name":"Store_SpliceStaticData","inputs":[{"name":"tableId","type":"bytes32","indexed":true,"internalType":"ResourceId"},{"name":"keyTuple","type":"bytes32[]","indexed":false,"internalType":"bytes32[]"},{"name":"start","type":"uint48","indexed":false,"internalType":"uint48"},{"name":"data","type":"bytes","indexed":false,"internalType":"bytes"}],"anonymous":false},{"type":"error","name":"Slice_OutOfBounds","inputs":[{"name":"data","type":"bytes","internalType":"bytes"},{"name":"start","type":"uint256","internalType":"uint256"},{"name":"end","type":"uint256","internalType":"uint256"}]}],"bytecode":{"object":"0x608060405234801561001057600080fd5b5061142b806100206000396000f3fe608060405234801561001057600080fd5b50600436106100725760003560e01c80637e425c1a116100505780637e425c1a146100df578063cc27da3e146100f4578063e1af802c1461010757600080fd5b806301ffc9a714610077578063119df25f1461009f57806345ec9354146100cc575b600080fd5b61008a6100853660046110d8565b61010f565b60405190151581526020015b60405180910390f35b6100a76101a8565b60405173ffffffffffffffffffffffffffffffffffffffff9091168152602001610096565b604051601f193601358152602001610096565b6100f26100ed36600461111a565b6101b7565b005b6100f261010236600461111a565b6101d5565b6100a76101ea565b60007fffffffff0000000000000000000000000000000000000000000000000000000082167fb5dee1270000000000000000000000000000000000000000000000000000000014806101a257507fffffffff0000000000000000000000000000000000000000000000000000000082167f01ffc9a700000000000000000000000000000000000000000000000000000000145b92915050565b60006101b26101f4565b905090565b6101c76101c26101a8565b610226565b6101d182826102a5565b5050565b6101e06101c26101a8565b6101d18282610363565b60006101b26103e7565b7fffffffffffffffffffffffffffffffffffffffffffffffffffffffffffffffcc36013560601c806102235750335b90565b6102376102316103f1565b82610459565b6102a2576040517f08c379a000000000000000000000000000000000000000000000000000000000815260206004820181905260248201527f63616c6c657220646f6573206e6f7420686176652074686520736b79206b657960448201526064015b60405180910390fd5b50565b6040805160018082528183019092526000916020808301908036833701905050905082816000815181106102db576102db61114f565b60200260200101818152505061035e7f746200000000000000000000000000004865726f496e536561736f6e5061737360001b8260008560405160200161032991151560f81b815260010190565b60408051601f198184030181529190527e010100010000000000000000000000000000000000000000000000000000006104f9565b505050565b6040805160018082528183019092526000916020808301908036833701905050905082816000815181106103995761039961114f565b60200260200101818152505061035e7f746200000000000000000000000000004865726f496e526f746174696f6e000060001b8260008560405160200161032991151560f81b815260010190565b60006101b26105c9565b60408051600080825260208201909252600061044f7f74620000000000000000000000000000536b79506f6f6c436f6e6669670000008360057e7d060001202014141400000000000000000000000000000000000000000000610615565b60601c9392505050565b6000808373ffffffffffffffffffffffffffffffffffffffff166339f898bc6040518163ffffffff1660e01b8152600401602060405180830381865afa1580156104a7573d6000803e3d6000fd5b505050506040513d601f19601f820116820180604052508101906104cb919061117e565b905060006104e16104dc8360101b90565b6106f4565b905060006104ef8286610741565b1195945050505050565b60006105036105c9565b90503073ffffffffffffffffffffffffffffffffffffffff8216036105345761052f86868686866107d4565b6105c1565b6040517f390baae000000000000000000000000000000000000000000000000000000000815273ffffffffffffffffffffffffffffffffffffffff82169063390baae09061058e9089908990899089908990600401611219565b600060405180830381600087803b1580156105a857600080fd5b505af11580156105bc573d6000803e3d6000fd5b505050505b505050505050565b7f629a4c26e296b22a8e0856e9f6ecb2d1008d7e00081111962cd175fa7488e1755460009073ffffffffffffffffffffffffffffffffffffffff1680610610573391505090565b919050565b6000806106206105c9565b90503073ffffffffffffffffffffffffffffffffffffffff8216036106535761064b868686866107f0565b9150506106ec565b6040517f8c364d5900000000000000000000000000000000000000000000000000000000815273ffffffffffffffffffffffffffffffffffffffff821690638c364d59906106ab908990899089908990600401611260565b602060405180830381865afa1580156106c8573d6000803e3d6000fd5b505050506040513d601f19601f8201168201806040525081019061064b919061117e565b949350505050565b60006101a27f7462000000000000000000000000000000000000000000000000000000000000837f42616c616e63657300000000000000000000000000000000000000000000000061081d565b604080516001808252818301909252600091829190602080830190803683370190505090508273ffffffffffffffffffffffffffffffffffffffff1660001b816000815181106107935761079361114f565b602090810291909101015260006107cb8583837e20010020000000000000000000000000000000000000000000000000000000610615565b95945050505050565b6107e985856107e384876108a4565b856108dd565b5050505050565b60006107cb6107ff8686610b82565b60ff858116601b0360080285901c1661081885876108a4565b610bd8565b600061082b607060106112be565b7fffff00000000000000000000000000000000000000000000000000000000000085167dffffffffffffffffffffffffffff00000000000000000000000000000000601086901c16177fffffffffffffffffffffffffffffffff00000000000000000000000000000000841690911c1790509392505050565b600080805b8360ff168110156108d5576108cb60ff601b83900360080287901c16836112be565b91506001016108a9565b509392505050565b7f6f74000000000000000000000000000000000000000000000000000000000000847fffff000000000000000000000000000000000000000000000000000000000000160361096757837f8c0b5119d4cec7b284c6b1b39252a03d1e2f2d7451a5895562524c113bb952be84848460405161095a939291906112d1565b60405180910390a2610b7c565b60006109738585610b82565b9050600061098086610c29565b905060005b8151811015610a555760008282815181106109a2576109a261114f565b602002602001015190506109ce6004826affffffffffffffffffffff1916610cb290919063ffffffff16565b15610a4c576040517f964f667d000000000000000000000000000000000000000000000000000000008152606082901c9063964f667d90610a19908b908b908b908b9060040161130e565b600060405180830381600087803b158015610a3357600080fd5b505af1158015610a47573d6000803e3d6000fd5b505050505b50600101610985565b50857f8c0b5119d4cec7b284c6b1b39252a03d1e2f2d7451a5895562524c113bb952be868686604051610a8a939291906112d1565b60405180910390a2610aa5828565ffffffffffff1685610cd0565b60005b8151811015610b78576000828281518110610ac557610ac561114f565b60200260200101519050610af16008826affffffffffffffffffffff1916610cb290919063ffffffff16565b15610b6f576040517fa8ba8721000000000000000000000000000000000000000000000000000000008152606082901c9063a8ba872190610b3c908b908b908b908b9060040161130e565b600060405180830381600087803b158015610b5657600080fd5b505af1158015610b6a573d6000803e3d6000fd5b505050505b50600101610aa8565b5050505b50505050565b60008282604051602001610b97929190611352565b60408051601f1981840301815291905280516020909101207f86425bff6b57326c7859e89024fe4f238ca327a1ae4a230180dd2f0e88aaa7d9189392505050565b600060208210610bfe57602082048401935060208281610bfa57610bfa61138e565b0691505b508254600882021b6020829003808411156108d5576001850154600882021c82179150509392505050565b60408051600180825281830190925260609160009190602080830190803683370190505090508281600081518110610c6357610c6361114f565b60209081029190910101526000610c9b7f746273746f726500000000000000000053746f7265486f6f6b730000000000008383610ce6565b90506106ec610cad8260008451610d20565b610dae565b60008160ff1682610cc38560581c90565b1660ff1614905092915050565b61035e83838351610ce18560200190565b610dc6565b60606106ec610cf6858585610e85565b6000610d1b85610d068989610f05565b9060ff166028026038011c64ffffffffff1690565b610f18565b600081831180610d305750835182115b15610d6d578383836040517f23230fa3000000000000000000000000000000000000000000000000000000008152600401610299939291906113bd565b60208401610d7b84826112be565b90506000610d8985856113e2565b6fffffffffffffffffffffffffffffffff1660809290921b9190911795945050505050565b60606000610dbf8360156000610f3b565b9392505050565b8215610e405760208310610df057602083048401935060208381610dec57610dec61138e565b0692505b8215610e405760208390036000600019600885021c1990506008850281811c91508351811c9050811987541682821617875550818411610e31575050610b7c565b50600194909401939182900391015b5b60208210610e625780518455600190930192601f1990910190602001610e41565b8115610b7c576000600019600884021c8554835182191691161785555050505050565b60008383604051602001610e9a929190611352565b604051602081830303815290604052805190602001208260f81b7effffffffffffffffffffffffffffffffffffffffffffffffffffffffffffff19167f3b4102da22e32d82fc925482184f16c09fd4281692720b87d124aef6da48a0f1181860001c90509392505050565b6000610dbf610f148484610fb6565b5490565b60405160208101601f19603f84840101166040528282526108d58585858461100c565b60606000610f498560801c90565b90506fffffffffffffffffffffffffffffffff85166000858281610f6f57610f6f61138e565b04905060405193506020840160208202810160405281855260005b82811015610faa578451871c825293870193602090910190600101610f8a565b50505050509392505050565b60008282604051602001610fcb929190611352565b60408051601f1981840301815291905280516020909101207f14e2fcc58e58e68ec7edc30c8d50dccc3ce2714a623ec81f46b6a63922d76569189392505050565b82156110935760208310611036576020830484019350602083816110325761103261138e565b0692505b82156110935760208390036000818410156110595750600019600884021c611063565b50600019600882021c5b8554600886021b818451168219821617845250818411611084575050610b7c565b50600194909401939182900391015b5b602082106110b55783548152600190930192601f1990910190602001611094565b8115610b7c576000600019600884021c8251865482191691161782525050505050565b6000602082840312156110ea57600080fd5b81357fffffffff0000000000000000000000000000000000000000000000000000000081168114610dbf57600080fd5b6000806040838503121561112d57600080fd5b823591506020830135801515811461114457600080fd5b809150509250929050565b7f4e487b7100000000000000000000000000000000000000000000000000000000600052603260045260246000fd5b60006020828403121561119057600080fd5b5051919050565b60008151808452602080850194506020840160005b838110156111c8578151875295820195908201906001016111ac565b509495945050505050565b6000815180845260005b818110156111f9576020818501810151868301820152016111dd565b506000602082860101526020601f19601f83011685010191505092915050565b85815260a06020820152600061123260a0830187611197565b60ff86166040840152828103606084015261124d81866111d3565b9150508260808301529695505050505050565b8481526080602082015260006112796080830186611197565b60ff949094166040830152506060015292915050565b7f4e487b7100000000000000000000000000000000000000000000000000000000600052601160045260246000fd5b808201808211156101a2576101a261128f565b6060815260006112e46060830186611197565b65ffffffffffff85166020840152828103604084015261130481856111d3565b9695505050505050565b8481526080602082015260006113276080830186611197565b65ffffffffffff85166040840152828103606084015261134781856111d3565b979650505050505050565b8281526000602080830184516020860160005b8281101561138157815184529284019290840190600101611365565b5091979650505050505050565b7f4e487b7100000000000000000000000000000000000000000000000000000000600052601260045260246000fd5b6060815260006113d060608301866111d3565b60208301949094525060400152919050565b818103818111156101a2576101a261128f56fea2646970667358221220e68f6317d5fde532d93d7dcf7a04ea6bbb67513cb89b9914f21e1d514c6c5b2064736f6c63430008180033","linkReferences":{}},"methodIdentifiers":{"_msgSender()":"119df25f","_msgValue()":"45ec9354","_world()":"e1af802c","setHeroInRotation(bytes32,bool)":"cc27da3e","setHeroInSeasonPassRotation(bytes32,bool)":"7e425c1a","supportsInterface(bytes4)":"01ffc9a7"},"id":314}