{"abi":[{"type":"function","name":"_msgSender","inputs":[],"outputs":[{"name":"sender","type":"address","internalType":"address"}],"stateMutability":"view"},{"type":"function","name":"_msgValue","inputs":[],"outputs":[{"name":"value","type":"uint256","internalType":"uint256"}],"stateMutability":"pure"},{"type":"function","name":"_world","inputs":[],"outputs":[{"name":"","type":"address","internalType":"address"}],"stateMutability":"view"},{"type":"function","name":"install","inputs":[{"name":"encodedArgs","type":"bytes","internalType":"bytes"}],"outputs":[],"stateMutability":"nonpayable"},{"type":"function","name":"installRoot","inputs":[{"name":"","type":"bytes","internalType":"bytes"}],"outputs":[],"stateMutability":"pure"},{"type":"function","name":"supportsInterface","inputs":[{"name":"interfaceId","type":"bytes4","internalType":"bytes4"}],"outputs":[{"name":"","type":"bool","internalType":"bool"}],"stateMutability":"pure"},{"type":"event","name":"Store_SetRecord","inputs":[{"name":"tableId","type":"bytes32","indexed":true,"internalType":"ResourceId"},{"name":"keyTuple","type":"bytes32[]","indexed":false,"internalType":"bytes32[]"},{"name":"staticData","type":"bytes","indexed":false,"internalType":"bytes"},{"name":"encodedLengths","type":"bytes32","indexed":false,"internalType":"EncodedLengths"},{"name":"dynamicData","type":"bytes","indexed":false,"internalType":"bytes"}],"anonymous":false},{"type":"event","name":"Store_SpliceStaticData","inputs":[{"name":"tableId","type":"bytes32","indexed":true,"internalType":"ResourceId"},{"name":"keyTuple","type":"bytes32[]","indexed":false,"internalType":"bytes32[]"},{"name":"start","type":"uint48","indexed":false,"internalType":"uint48"},{"name":"data","type":"bytes","indexed":false,"internalType":"bytes"}],"anonymous":false},{"type":"error","name":"ERC20Module_InvalidNamespace","inputs":[{"name":"namespace","type":"bytes14","internalType":"bytes14"}]},{"type":"error","name":"FieldLayout_Empty","inputs":[]},{"type":"error","name":"FieldLayout_InvalidStaticDataLength","inputs":[{"name":"staticDataLength","type":"uint256","internalType":"uint256"},{"name":"computedStaticDataLength","type":"uint256","internalType":"uint256"}]},{"type":"error","name":"FieldLayout_StaticLengthDoesNotFitInAWord","inputs":[{"name":"index","type":"uint256","internalType":"uint256"}]},{"type":"error","name":"FieldLayout_StaticLengthIsNotZero","inputs":[{"name":"index","type":"uint256","internalType":"uint256"}]},{"type":"error","name":"FieldLayout_StaticLengthIsZero","inputs":[{"name":"index","type":"uint256","internalType":"uint256"}]},{"type":"error","name":"FieldLayout_TooManyDynamicFields","inputs":[{"name":"numFields","type":"uint256","internalType":"uint256"},{"name":"maxFields","type":"uint256","internalType":"uint256"}]},{"type":"error","name":"FieldLayout_TooManyFields","inputs":[{"name":"numFields","type":"uint256","internalType":"uint256"},{"name":"maxFields","type":"uint256","internalType":"uint256"}]},{"type":"error","name":"Module_AlreadyInstalled","inputs":[]},{"type":"error","name":"Module_MissingDependency","inputs":[{"name":"dependency","type":"address","internalType":"address"}]},{"type":"error","name":"Module_NonRootInstallNotSupported","inputs":[]},{"type":"error","name":"Module_RootInstallNotSupported","inputs":[]},{"type":"error","name":"Schema_InvalidLength","inputs":[{"name":"length","type":"uint256","internalType":"uint256"}]},{"type":"error","name":"Schema_StaticTypeAfterDynamicType","inputs":[]},{"type":"error","name":"Slice_OutOfBounds","inputs":[{"name":"data","type":"bytes","internalType":"bytes"},{"name":"start","type":"uint256","internalType":"uint256"},{"name":"end","type":"uint256","internalType":"uint256"}]},{"type":"error","name":"Store_InvalidFieldNamesLength","inputs":[{"name":"expected","type":"uint256","internalType":"uint256"},{"name":"received","type":"uint256","internalType":"uint256"}]},{"type":"error","name":"Store_InvalidKeyNamesLength","inputs":[{"name":"expected","type":"uint256","internalType":"uint256"},{"name":"received","type":"uint256","internalType":"uint256"}]},{"type":"error","name":"Store_InvalidResourceType","inputs":[{"name":"expected","type":"bytes2","internalType":"bytes2"},{"name":"resourceId","type":"bytes32","internalType":"ResourceId"},{"name":"resourceIdString","type":"string","internalType":"string"}]},{"type":"error","name":"Store_InvalidStaticDataLength","inputs":[{"name":"expected","type":"uint256","internalType":"uint256"},{"name":"received","type":"uint256","internalType":"uint256"}]},{"type":"error","name":"Store_InvalidValueSchemaDynamicLength","inputs":[{"name":"expected","type":"uint256","internalType":"uint256"},{"name":"received","type":"uint256","internalType":"uint256"}]},{"type":"error","name":"Store_InvalidValueSchemaLength","inputs":[{"name":"expected","type":"uint256","internalType":"uint256"},{"name":"received","type":"uint256","internalType":"uint256"}]},{"type":"error","name":"Store_InvalidValueSchemaStaticLength","inputs":[{"name":"expected","type":"uint256","internalType":"uint256"},{"name":"received","type":"uint256","internalType":"uint256"}]},{"type":"error","name":"Store_TableAlreadyExists","inputs":[{"name":"tableId","type":"bytes32","internalType":"ResourceId"},{"name":"tableIdString","type":"string","internalType":"string"}]}],"bytecode":{"object":"0x60c0604081905230608052620000159062000053565b604051809103906000f08015801562000032573d6000803e3d6000fd5b506001600160a01b031660a0523480156200004c57600080fd5b5062000061565b61482780620033e683390190565b60805160a05161335f6200008760003960006102d7015260006101fb015261335f6000f3fe608060405234801561001057600080fd5b50600436106100725760003560e01c806345ec93541161005057806345ec9354146100d45780637c5b0335146100e7578063e1af802c146100fa57600080fd5b806301ffc9a714610077578063119df25f1461009f57806313861fb5146100bf575b600080fd5b61008a610085366004612b1b565b610102565b60405190151581526020015b60405180910390f35b6100a76101e7565b6040516001600160a01b039091168152602001610096565b6100d26100cd366004612bf5565b6101f6565b005b604051601f193601358152602001610096565b6100d26100f5366004612bf5565b610749565b6100a761077b565b60007fffffffff0000000000000000000000000000000000000000000000000000000082167f6fdd1c8000000000000000000000000000000000000000000000000000000000148061019557507fffffffff0000000000000000000000000000000000000000000000000000000082167fb5dee12700000000000000000000000000000000000000000000000000000000145b806101e157507fffffffff0000000000000000000000000000000000000000000000000000000082167f01ffc9a700000000000000000000000000000000000000000000000000000000145b92915050565b60006101f1610785565b905090565b6102207f0000000000000000000000000000000000000000000000000000000000000000826107b7565b600080828060200190518101906102379190612ce9565b90925090507f9a8d9ccdcfd28f8a8f8f9a8c000000000000000000000000000000000000000071ffffffffffffffffffffffffffffffffffff198316016102c6576040517f0f31c63c00000000000000000000000000000000000000000000000000000000815271ffffffffffffffffffffffffffffffffffff19831660048201526024015b60405180910390fd5b60006102d061077b565b90506000807f00000000000000000000000000000000000000000000000000000000000000006001600160a01b0316838660405160240161033b9291906001600160a01b0392909216825271ffffffffffffffffffffffffffffffffffff1916602082015260400190565b60408051601f198184030181529181526020820180517bffffffffffffffffffffffffffffffffffffffffffffffffffffffff167f472466c2000000000000000000000000000000000000000000000000000000001790525161039e9190612dc1565b600060405180830381855af49150503d80600081146103d9576040519150601f19603f3d011682016040523d82523d6000602084013e6103de565b606091505b5091509150816103f1576103f1816107fc565b6104036103fd86610804565b85610836565b600061040e866108d8565b9050600061041c8583610925565b90507f6e730000000000000000000000000000000000000000000000000000000000007dffffffffffffffffffffffffffff00000000000000000000000000000000601089901c16176001600160a01b03861663ef5d6bbb8261047d6101e7565b6040517fffffffff0000000000000000000000000000000000000000000000000000000060e085901b16815260048101929092526001600160a01b03166024820152604401600060405180830381600087803b1580156104dc57600080fd5b505af11580156104f0573d6000803e3d6000fd5b505060408051613a3160f11b60208201527f65726332302d707570706574000000000000000000000000000000000000000060228201527f45524332305265676973747279000000000000000000000000000000000000006030820152610572935001905060405160208183030381529060405261056d90612ddd565b610c23565b6106bf576040517f6e7300000000000000000000000000000000000000000000000000000000000060208201527f65726332302d707570706574000000000000000000000000000000000000000060228201526001600160a01b0387169063b29e4089906030016040516020818303038152906040526105f190612ddd565b6040518263ffffffff1660e01b815260040161060f91815260200190565b600060405180830381600087803b15801561062957600080fd5b505af115801561063d573d6000803e3d6000fd5b505060408051613a3160f11b60208201527f65726332302d707570706574000000000000000000000000000000000000000060228201527f455243323052656769737472790000000000000000000000000000000000000060308201526106bf93500190506040516020818303038152906040526106ba90612ddd565b610cb0565b60408051613a3160f11b60208201527f65726332302d707570706574000000000000000000000000000000000000000060228201527f4552433230526567697374727900000000000000000000000000000000000000603082015261073e910160405160208183030381529060405261073790612ddd565b8284610d2c565b505050505050505050565b6040517fb6622fc000000000000000000000000000000000000000000000000000000000815260040160405180910390fd5b60006101f1610dec565b7fffffffffffffffffffffffffffffffffffffffffffffffffffffffffffffffcc36013560601c806107b45750335b90565b6107c18282610df6565b156107f8576040517f1401206800000000000000000000000000000000000000000000000000000000815260040160405180910390fd5b5050565b805160208201fd5b60006101e1613a3160f11b837f4d65746164617461000000000000000000000000000000000000000000000000610e10565b600061088582600001516040805160f89290921b7fff00000000000000000000000000000000000000000000000000000000000000166020830152805160018184030181526021909201905290565b9050600061089b83602001518460400151610e96565b905060006108b184602001518560400151610eb3565b6040805160008152602081019091529091506108d08682868686610edf565b505050505050565b60006101e17f7379000000000000000000000000000000000000000000000000000000000000837f455243323053797374656d000000000000000000000000000000000000000000610e10565b604080517f737900000000000000000000000000000000000000000000000000000000000060208201527f707570706574000000000000000000000000000000000000000000000000000060228201527f466163746f72790000000000000000000000000000000000000000000000000060308201526000916001600160a01b03851691633ae7af0891016040516020818303038152906040526109c890612ddd565b6040516024810186905260440160408051601f198184030181529181526020820180517bffffffffffffffffffffffffffffffffffffffffffffffffffffffff167fb9eb8bfb00000000000000000000000000000000000000000000000000000000179052517fffffffff0000000000000000000000000000000000000000000000000000000060e085901b168152610a65929190600401612e2d565b6000604051808303816000875af1158015610a84573d6000803e3d6000fd5b505050506040513d6000823e601f3d908101601f19168201604052610aac9190810190612e46565b806020019051810190610abf9190612e8f565b90506001600160a01b03831663bfdfaff77f6e730000000000000000000000000000000000000000000000000000000000007dffffffffffffffffffffffffffff00000000000000000000000000000000851617604080517f737900000000000000000000000000000000000000000000000000000000000060208201527f707570706574000000000000000000000000000000000000000000000000000060228201527f44656c65676174696f6e00000000000000000000000000000000000000000000603082015201604051602081830303815290604052610ba290612ddd565b604080516000815260208101918290527fffffffff0000000000000000000000000000000000000000000000000000000060e086901b16909152610beb92919060248101612eb8565b600060405180830381600087803b158015610c0557600080fd5b505af1158015610c19573d6000803e3d6000fd5b5050505092915050565b604080516001808252818301909252600091829190602080830190803683370190505090508281600081518110610c5c57610c5c612ed7565b60209081029190910101526000610c9c7f746273746f72650000000000000000005265736f7572636549647300000000008383630101000160d81b610f94565b9050610ca88160f81c90565b949350505050565b610d29817e140100140000000000000000000000000000000000000000000000000000007e2001005f0000000000000000000000000000000000000000000000000000007e14010061000000000000000000000000000000000000000000000000000000610d1c611051565b610d246110d6565b61114d565b50565b604080516001808252818301909252600091602080830190803683370190505090508281600081518110610d6257610d62612ed7565b602002602001018181525050610de68482600085604051602001610db1919060609190911b7fffffffffffffffffffffffffffffffffffffffff00000000000000000000000016815260140190565b60408051601f198184030181529190527e14010014000000000000000000000000000000000000000000000000000000611207565b50505050565b60006101f161127d565b6000610e098383805190602001206112bc565b9392505050565b6000610e1e60706010612f03565b7fffffffffffffffffffffffffffffffff000000000000000000000000000000008316901c601084901c7dffffffffffffffffffffffffffff00000000000000000000000000000000167fffff0000000000000000000000000000000000000000000000000000000000008616171790509392505050565b8151815160009181810160389190911b1760609190911b17610e09565b60608282604051602001610ec8929190612f16565b604051602081830303815290604052905092915050565b6000610ee961127d565b9050306001600160a01b03821603610f0d57610f088686868686611376565b6108d0565b6040517f298314fb0000000000000000000000000000000000000000000000000000000081526001600160a01b0382169063298314fb90610f5a9089908990899089908990600401612f81565b600060405180830381600087803b158015610f7457600080fd5b505af1158015610f88573d6000803e3d6000fd5b50505050505050505050565b600080610f9f61127d565b9050306001600160a01b03821603610fc557610fbd86868686611393565b915050610ca8565b6040517f8c364d590000000000000000000000000000000000000000000000000000000081526001600160a01b03821690638c364d5990611010908990899089908990600401612fd2565b602060405180830381865afa15801561102d573d6000803e3d6000fd5b505050506040513d601f19601f82011682018060405250810190610fbd9190613001565b604080516001808252818301909252606091816020015b60608152602001906001900390816110685790505090506040518060400160405280600b81526020017f6e616d6573706163654964000000000000000000000000000000000000000000815250816000815181106110c8576110c8612ed7565b602002602001018190525090565b604080516001808252818301909252606091816020015b60608152602001906001900390816110ed5790505090506040518060400160405280600c81526020017f746f6b656e416464726573730000000000000000000000000000000000000000815250816000815181106110c8576110c8612ed7565b600061115761127d565b9050306001600160a01b0382160361117c576111778787878787876113c0565b6111fe565b6040517f0ba51f490000000000000000000000000000000000000000000000000000000081526001600160a01b03821690630ba51f49906111cb908a908a908a908a908a908a90600401613074565b600060405180830381600087803b1580156111e557600080fd5b505af11580156111f9573d6000803e3d6000fd5b505050505b50505050505050565b600061121161127d565b9050306001600160a01b0382160361123057610f088686868686611873565b6040517f390baae00000000000000000000000000000000000000000000000000000000081526001600160a01b0382169063390baae090610f5a90899089908990899089906004016130be565b7f629a4c26e296b22a8e0856e9f6ecb2d1008d7e00081111962cd175fa7488e175546000906001600160a01b0316806112b7573391505090565b919050565b60408051600280825260608201835260009283929190602083019080368337019050509050836001600160a01b031660001b8160008151811061130157611301612ed7565b602002602001018181525050828160018151811061132157611321612ed7565b602090810291909101015260006113617f7462776f726c64000000000000000000496e7374616c6c65644d6f64756c65738383630101000160d81b610f94565b905061136d8160f81c90565b95945050505050565b61138c85858585856113878b611888565b61190d565b5050505050565b600061136d6113a28686611c2b565b60ff858116601b0360080285901c166113bb8587611c81565b611cba565b613a3160f11b867fffff000000000000000000000000000000000000000000000000000000000000161480159061141e5750611bdd60f21b867fffff0000000000000000000000000000000000000000000000000000000000001614155b1561147f57613a3160f11b868760405160200161143d91815260200190565b60408051601f19818403018152908290527f31b466830000000000000000000000000000000000000000000000000000000082526102bd939291600401613105565b61148885611d0b565b611493846001611f52565b61149e836000611f52565b60e084901c60e885901c0160ff168251146114fe5760e084901c60e885901c0160ff1682516040517f0f72cb98000000000000000000000000000000000000000000000000000000008152600481019290925260248201526044016102bd565b60e085901c60e886901c0160ff1681511461155e5760e085901c60e886901c0160ff1681516040517f7dec4c00000000000000000000000000000000000000000000000000000000008152600481019290925260248201526044016102bd565b60e085901c60e886901c0160ff1660e084901c60e885901c0160ff16146115d65760e085901c60e886901c0160ff1660e084901c60e885901c0160ff166040517ff29d4d88000000000000000000000000000000000000000000000000000000008152600481019290925260248201526044016102bd565b6115df856120ee565b6115e8846120ee565b1461163a576115f6856120ee565b6115ff846120ee565b6040517f65cc0adf000000000000000000000000000000000000000000000000000000008152600481019290925260248201526044016102bd565b61164385612120565b61164c84612120565b1461169e5761165a85612120565b61166384612120565b6040517fedea9587000000000000000000000000000000000000000000000000000000008152600481019290925260248201526044016102bd565b60005b6116aa866120ee565b811015611745576116d46116be858361213d565b60c58111156116cf576116cf613146565b61215e565b6008601b8390030287901c60ff161461173d576008601b8290030286901c60ff166117026116be868461213d565b6040517f254c7db4000000000000000000000000000000000000000000000000000000008152600481019290925260248201526044016102bd565b6001016116a1565b506000611787613a3160f11b61175b8960101b90565b60101c7fffff000000000000000000000000000000000000000000000000000000000000919091161790565b9050600061179e611bdd60f21b61175b8a60101b90565b90506117a9826121be565b806117b857506117b8816121be565b156118125787886040516020016117d191815260200190565b60408051601f19818403018152908290527fdfaaf9cf0000000000000000000000000000000000000000000000000000000082526102bd9291600401612e2d565b61185e888888888860405160200161182a919061315c565b6040516020818303038152906040528860405160200161184a919061315c565b604051602081830303815290604052612237565b61186988600161230e565b5050505050505050565b61138c85856118828487611c81565b856123b4565b60007f8b9d8c8b908d9affffffffffffffffffab9e9d939a8d0000000000000000000082016118d757507e60030220202000000000000000000000000000000000000000000000000000919050565b6101e16119047f746273746f72650000000000000000005461626c65730000000000000000000084612634565b60206000611cba565b611bdd60f21b867fffff000000000000000000000000000000000000000000000000000000000000160361197e57857f8dbb3a9672eebfd3773e72dd9c102393436816d832c7ba9e1e1ac8fcadcac7a986868686604051611971949392919061316f565b60405180910390a26108d0565b600061198987612650565b905060005b8151811015611a625760008282815181106119ab576119ab612ed7565b602002602001015190506119d76001826affffffffffffffffffffff19166126d990919063ffffffff16565b15611a59576040517f57066c9c000000000000000000000000000000000000000000000000000000008152606082901c906357066c9c90611a26908c908c908c908c908c908c906004016131b9565b600060405180830381600087803b158015611a4057600080fd5b505af1158015611a54573d6000803e3d6000fd5b505050505b5060010161198e565b50867f8dbb3a9672eebfd3773e72dd9c102393436816d832c7ba9e1e1ac8fcadcac7a987878787604051611a99949392919061316f565b60405180910390a26000611aad8888611c2b565b90506000602087019050611ac58260008951846126f7565b6000611ad085612120565b1115611b54576000611ae28a8a6127b6565b878155905060208601915060008060005b611afc88612120565b8160ff161015611b4f57611b118d8d8361280c565b9250611b2c8a8260ff166028026038011c64ffffffffff1690565b9150611b3b83600084886126f7565b611b458286612f03565b9450600101611af3565b505050505b60005b8351811015610f88576000848281518110611b7457611b74612ed7565b60200260200101519050611ba06002826affffffffffffffffffffff19166126d990919063ffffffff16565b15611c22576040517f5b28cdaf000000000000000000000000000000000000000000000000000000008152606082901c90635b28cdaf90611bef908e908e908e908e908e908e906004016131b9565b600060405180830381600087803b158015611c0957600080fd5b505af1158015611c1d573d6000803e3d6000fd5b505050505b50600101611b57565b60008282604051602001611c40929190613212565b60408051601f1981840301815291905280516020909101207f86425bff6b57326c7859e89024fe4f238ca327a1ae4a230180dd2f0e88aaa7d9189392505050565b600080805b8360ff16811015611cb257611ca860ff601b83900360080287901c1683612f03565b9150600101611c86565b509392505050565b600060208210611ce057602082048401935060208281611cdc57611cdc61324e565b0691505b508254600882021b602082900380841115611cb2576001850154600882021c82179150509392505050565b80611d42576040517fa019e4da00000000000000000000000000000000000000000000000000000000815260040160405180910390fd5b6000611d4d82612120565b90506005811115611d94576040517f6793df6200000000000000000000000000000000000000000000000000000000815260048101829052600560248201526044016102bd565b6000611d9f836120ee565b90506000611dad8383612f03565b9050601c811115611df4576040517fecd893b900000000000000000000000000000000000000000000000000000000815260048101829052601c60248201526044016102bd565b6000805b83811015611e9f5760ff601b82900360080287901c166000819003611e4c576040517f53b2dd05000000000000000000000000000000000000000000000000000000008152600481018390526024016102bd565b6020811115611e8a576040517f7237f237000000000000000000000000000000000000000000000000000000008152600481018390526024016102bd565b611e948184612f03565b925050600101611df8565b50611ea98561288c565b8114611ef557611eb88561288c565b6040517feba964de0000000000000000000000000000000000000000000000000000000081526004810191909152602481018290526044016102bd565b825b601c8110156108d05760ff601b82900360080287901c168015611f49576040517f1d8d44db000000000000000000000000000000000000000000000000000000008152600481018390526024016102bd565b50600101611ef7565b80158015611f5e575081155b15611f7f5760405163d498615960e01b8152600060048201526024016102bd565b6000611f8a83612120565b90506005811115611fb15760405163d498615960e01b8152600481018290526024016102bd565b6000611fbc846120ee565b90506000611fca8383612f03565b9050601c811115611ff15760405163d498615960e01b8152600481018290526024016102bd565b6000805b8381101561205d57600061200c6116be898461213d565b905080600003612048576040517ff44b422000000000000000000000000000000000000000000000000000000000815260040160405180910390fd5b6120528184612f03565b925050600101611ff5565b506120678661288c565b8114612092576120768661288c565b60405163d498615960e01b81526004016102bd91815260200190565b825b828110156111fe5760006120ab6116be898461213d565b905080156120e5576040517ff44b422000000000000000000000000000000000000000000000000000000000815260040160405180910390fd5b50600101612094565b60006008600161210060026020613264565b61210a9190613264565b6121149190613277565b8260ff911c1692915050565b6000600860018061213360026020613264565b6121009190613264565b6000601b8290036008028360ff911c1660c5811115610e0957610e09613146565b6000808260c581111561217357612173613146565b60ff169050606181101561218d57601f1660010192915050565b60618360c58111156121a1576121a1613146565b036121af5750601492915050565b50600092915050565b50919050565b6040805160018082528183019092526000918291906020808301908036833701905050905082816000815181106121f7576121f7612ed7565b60209081029190910101526000610c9c7f746273746f72650000000000000000005265736f7572636549647300000000008383630101000160d81b611393565b60408051602081018790528082018690526060808201869052825180830390910181526080909101909152600061226e8484610e96565b9050600061227c8585610eb3565b604080516001808252818301909252919250600091906020808301908036833701905050905089816000815181106122b6576122b6612ed7565b6020908102919091010152610f887f746273746f72650000000000000000005461626c657300000000000000000000828686867e6003022020200000000000000000000000000000000000000000000000000061190d565b60408051600180825281830190925260009160208083019080368337019050509050828160008151811061234457612344612ed7565b6020026020010181815250506123af7f746273746f72650000000000000000005265736f75726365496473000000000060001b8260008560405160200161239291151560f81b815260010190565b60408051601f19818403018152919052630101000160d81b611873565b505050565b611bdd60f21b847fffff000000000000000000000000000000000000000000000000000000000000160361242357837f8c0b5119d4cec7b284c6b1b39252a03d1e2f2d7451a5895562524c113bb952be8484846040516124169392919061328e565b60405180910390a2610de6565b600061242f8585611c2b565b9050600061243c86612650565b905060005b815181101561251157600082828151811061245e5761245e612ed7565b6020026020010151905061248a6004826affffffffffffffffffffff19166126d990919063ffffffff16565b15612508576040517f964f667d000000000000000000000000000000000000000000000000000000008152606082901c9063964f667d906124d5908b908b908b908b906004016132cb565b600060405180830381600087803b1580156124ef57600080fd5b505af1158015612503573d6000803e3d6000fd5b505050505b50600101612441565b50857f8c0b5119d4cec7b284c6b1b39252a03d1e2f2d7451a5895562524c113bb952be8686866040516125469392919061328e565b60405180910390a2612561828565ffffffffffff16856128af565b60005b81518110156111fe57600082828151811061258157612581612ed7565b602002602001015190506125ad6008826affffffffffffffffffffff19166126d990919063ffffffff16565b1561262b576040517fa8ba8721000000000000000000000000000000000000000000000000000000008152606082901c9063a8ba8721906125f8908b908b908b908b906004016132cb565b600060405180830381600087803b15801561261257600080fd5b505af1158015612626573d6000803e3d6000fd5b505050505b50600101612564565b6040805160208101849052908101829052600090606001611c40565b6040805160018082528183019092526060916000919060208083019080368337019050509050828160008151811061268a5761268a612ed7565b602090810291909101015260006126c27f746273746f726500000000000000000053746f7265486f6f6b7300000000000083836128c5565b9050610ca86126d482600084516128ff565b61298d565b60008160ff16826126ea8560581c90565b1660ff1614905092915050565b821561277157602083106127215760208304840193506020838161271d5761271d61324e565b0692505b82156127715760208390036000600019600885021c1990506008850281811c91508351811c9050811987541682821617875550818411612762575050610de6565b50600194909401939182900391015b5b602082106127935780518455600190930192601f1990910190602001612772565b8115610de6576000600019600884021c8554835182191691161785555050505050565b600082826040516020016127cb929190613212565b60408051601f1981840301815291905280516020909101207f14e2fcc58e58e68ec7edc30c8d50dccc3ce2714a623ec81f46b6a63922d76569189392505050565b60008383604051602001612821929190613212565b604051602081830303815290604052805190602001208260f81b7effffffffffffffffffffffffffffffffffffffffffffffffffffffffffffff19167f3b4102da22e32d82fc925482184f16c09fd4281692720b87d124aef6da48a0f1181860001c90509392505050565b6000600861289c60026020613264565b6128a69190613277565b9190911c919050565b6123af838383516128c08560200190565b6126f7565b6060610ca86128d585858561280c565b60006128fa856128e5898961299e565b9060ff166028026038011c64ffffffffff1690565b6129b1565b60008183118061290f5750835182115b1561294c578383836040517f23230fa30000000000000000000000000000000000000000000000000000000081526004016102bd93929190613304565b6020840161295a8482612f03565b905060006129688585613264565b6fffffffffffffffffffffffffffffffff1660809290921b9190911795945050505050565b60606000610e0983601560006129d4565b6000610e096129ad84846127b6565b5490565b60405160208101601f19603f8484010116604052828252611cb285858584612a4f565b606060006129e28560801c90565b90506fffffffffffffffffffffffffffffffff85166000858281612a0857612a0861324e565b04905060405193506020840160208202810160405281855260005b82811015612a43578451871c825293870193602090910190600101612a23565b50505050509392505050565b8215612ad65760208310612a7957602083048401935060208381612a7557612a7561324e565b0692505b8215612ad6576020839003600081841015612a9c5750600019600884021c612aa6565b50600019600882021c5b8554600886021b818451168219821617845250818411612ac7575050610de6565b50600194909401939182900391015b5b60208210612af85783548152600190930192601f1990910190602001612ad7565b8115610de6576000600019600884021c8251865482191691161782525050505050565b600060208284031215612b2d57600080fd5b81357fffffffff0000000000000000000000000000000000000000000000000000000081168114610e0957600080fd5b634e487b7160e01b600052604160045260246000fd5b6040516060810167ffffffffffffffff81118282101715612b9657612b96612b5d565b60405290565b604051601f8201601f1916810167ffffffffffffffff81118282101715612bc557612bc5612b5d565b604052919050565b600067ffffffffffffffff821115612be757612be7612b5d565b50601f01601f191660200190565b600060208284031215612c0757600080fd5b813567ffffffffffffffff811115612c1e57600080fd5b8201601f81018413612c2f57600080fd5b8035612c42612c3d82612bcd565b612b9c565b818152856020838501011115612c5757600080fd5b81602084016020830137600091810160200191909152949350505050565b60005b83811015612c90578181015183820152602001612c78565b50506000910152565b6000612ca7612c3d84612bcd565b9050828152838383011115612cbb57600080fd5b610e09836020830184612c75565b600082601f830112612cda57600080fd5b610e0983835160208501612c99565b60008060408385031215612cfc57600080fd5b825171ffffffffffffffffffffffffffffffffffff1981168114612d1f57600080fd5b602084015190925067ffffffffffffffff80821115612d3d57600080fd5b9084019060608287031215612d5157600080fd5b612d59612b73565b825160ff81168114612d6a57600080fd5b8152602083015182811115612d7e57600080fd5b612d8a88828601612cc9565b602083015250604083015182811115612da257600080fd5b612dae88828601612cc9565b6040830152508093505050509250929050565b60008251612dd3818460208701612c75565b9190910192915050565b805160208083015191908110156121b85760001960209190910360031b1b16919050565b60008151808452612e19816020860160208601612c75565b601f01601f19169290920160200192915050565b828152604060208201526000610ca86040830184612e01565b600060208284031215612e5857600080fd5b815167ffffffffffffffff811115612e6f57600080fd5b8201601f81018413612e8057600080fd5b610ca884825160208401612c99565b600060208284031215612ea157600080fd5b81516001600160a01b0381168114610e0957600080fd5b83815282602082015260606040820152600061136d6060830184612e01565b634e487b7160e01b600052603260045260246000fd5b634e487b7160e01b600052601160045260246000fd5b808201808211156101e1576101e1612eed565b60008351612f28818460208801612c75565b835190830190612f3c818360208801612c75565b01949350505050565b60008151808452602080850194506020840160005b83811015612f7657815187529582019590820190600101612f5a565b509495945050505050565b85815260a060208201526000612f9a60a0830187612f45565b8281036040840152612fac8187612e01565b90508460608401528281036080840152612fc68185612e01565b98975050505050505050565b848152608060208201526000612feb6080830186612f45565b60ff949094166040830152506060015292915050565b60006020828403121561301357600080fd5b5051919050565b60008282518085526020808601955060208260051b8401016020860160005b8481101561306757601f19868403018952613055838351612e01565b98840198925090830190600101613039565b5090979650505050505050565b86815285602082015284604082015283606082015260c06080820152600061309f60c083018561301a565b82810360a08401526130b1818561301a565b9998505050505050505050565b85815260a0602082015260006130d760a0830187612f45565b60ff8616604084015282810360608401526130f28186612e01565b9150508260808301529695505050505050565b7fffff0000000000000000000000000000000000000000000000000000000000008416815282602082015260606040820152600061136d6060830184612e01565b634e487b7160e01b600052602160045260246000fd5b602081526000610e09602083018461301a565b6080815260006131826080830187612f45565b82810360208401526131948187612e01565b905084604084015282810360608401526131ae8185612e01565b979650505050505050565b86815260c0602082015260006131d260c0830188612f45565b82810360408401526131e48188612e01565b905085606084015282810360808401526131fe8186612e01565b9150508260a0830152979650505050505050565b8281526000602080830184516020860160005b8281101561324157815184529284019290840190600101613225565b5091979650505050505050565b634e487b7160e01b600052601260045260246000fd5b818103818111156101e1576101e1612eed565b80820281158282048414176101e1576101e1612eed565b6060815260006132a16060830186612f45565b65ffffffffffff8516602084015282810360408401526132c18185612e01565b9695505050505050565b8481526080602082015260006132e46080830186612f45565b65ffffffffffff8516604084015282810360608401526131ae8185612e01565b6060815260006133176060830186612e01565b6020830194909452506040015291905056fea2646970667358221220609d39c86d408cf2c4b18dbc853bc3e2695cdc1126097b1d9ffac27aeffdb37c64736f6c63430008180033608060405234801561001057600080fd5b50614807806100206000396000f3fe608060405234801561001057600080fd5b506004361061002b5760003560e01c8063472466c214610030575b600080fd5b61004361003e3660046120b2565b610045565b005b6000601082901c7dffffffffffffffffffffffffffff00000000000000000000000000000000167f6e73000000000000000000000000000000000000000000000000000000000000176040517fb29e40890000000000000000000000000000000000000000000000000000000081526004810182905290915073ffffffffffffffffffffffffffffffffffffffff84169063b29e408990602401600060405180830381600087803b1580156100f957600080fd5b505af115801561010d573d6000803e3d6000fd5b5050505061012261011d83610222565b61025a565b61013361012e836102d6565b610308565b61014461013f83610374565b6103a6565b8273ffffffffffffffffffffffffffffffffffffffff16633350b6a9610169846103fc565b604051610175906120a5565b604051809103906000f080158015610191573d6000803e3d6000fd5b506040517fffffffff0000000000000000000000000000000000000000000000000000000060e085901b168152600481019290925273ffffffffffffffffffffffffffffffffffffffff16602482015260016044820152606401600060405180830381600087803b15801561020557600080fd5b505af1158015610219573d6000803e3d6000fd5b50505050505050565b6000610254613a3160f11b837f416c6c6f77616e63657300000000000000000000000000000000000000000000610445565b92915050565b6102d3817e200100200000000000000000000000000000000000000000000000000000007e280200616100000000000000000000000000000000000000000000000000007e2001001f0000000000000000000000000000000000000000000000000000006102c66104cc565b6102ce6105a4565b61061b565b50565b6000610254613a3160f11b837f42616c616e636573000000000000000000000000000000000000000000000000610445565b6102d3817e200100200000000000000000000000000000000000000000000000000000007e140100610000000000000000000000000000000000000000000000000000007e2001001f0000000000000000000000000000000000000000000000000000006102c66106ee565b6000610254613a3160f11b837f4d65746164617461000000000000000000000000000000000000000000000000610445565b6102d3817e0101020100000000000000000000000000000000000000000000000000000060007e01010200c5c5000000000000000000000000000000000000000000000000006103f4610765565b6102ce610798565b60006102547f7379000000000000000000000000000000000000000000000000000000000000837f455243323053797374656d0000000000000000000000000000000000000000005b60006104536070601061213f565b7fffff00000000000000000000000000000000000000000000000000000000000085167dffffffffffffffffffffffffffff00000000000000000000000000000000601086901c16177fffffffffffffffffffffffffffffffff00000000000000000000000000000000841690911c1790509392505050565b6040805160028082526060828101909352816020015b60608152602001906001900390816104e25790505090506040518060400160405280600781526020017f6163636f756e74000000000000000000000000000000000000000000000000008152508160008151811061054257610542612152565b60200260200101819052506040518060400160405280600781526020017f7370656e646572000000000000000000000000000000000000000000000000008152508160018151811061059657610596612152565b602002602001018190525090565b604080516001808252818301909252606091816020015b60608152602001906001900390816105bb5790505090506040518060400160405280600581526020017f76616c75650000000000000000000000000000000000000000000000000000008152508160008151811061059657610596612152565b60006106256108b8565b90503073ffffffffffffffffffffffffffffffffffffffff82160361065757610652878787878787610904565b610219565b6040517f0ba51f4900000000000000000000000000000000000000000000000000000000815273ffffffffffffffffffffffffffffffffffffffff821690630ba51f49906106b3908a908a908a908a908a908a90600401612212565b600060405180830381600087803b1580156106cd57600080fd5b505af11580156106e1573d6000803e3d6000fd5b5050505050505050505050565b604080516001808252818301909252606091816020015b60608152602001906001900390816107055790505090506040518060400160405280600781526020017f6163636f756e74000000000000000000000000000000000000000000000000008152508160008151811061059657610596612152565b60408051600080825260208201909252606091610792565b606081526020019060019003908161077d5790505b50905090565b60408051600380825260808201909252606091816020015b60608152602001906001900390816107b05790505090506040518060400160405280600881526020017f646563696d616c730000000000000000000000000000000000000000000000008152508160008151811061081057610810612152565b60200260200101819052506040518060400160405280600481526020017f6e616d65000000000000000000000000000000000000000000000000000000008152508160018151811061086457610864612152565b60200260200101819052506040518060400160405280600681526020017f73796d626f6c00000000000000000000000000000000000000000000000000008152508160028151811061059657610596612152565b7f629a4c26e296b22a8e0856e9f6ecb2d1008d7e00081111962cd175fa7488e1755460009073ffffffffffffffffffffffffffffffffffffffff16806108ff573391505090565b919050565b613a3160f11b867fffff00000000000000000000000000000000000000000000000000000000000016148015906109625750611bdd60f21b867fffff0000000000000000000000000000000000000000000000000000000000001614155b156109cc57613a3160f11b868760405160200161098191815260200190565b60408051601f19818403018152908290527f31b466830000000000000000000000000000000000000000000000000000000082526109c393929160040161225c565b60405180910390fd5b6109d585610dc0565b6109e084600161100f565b6109eb83600061100f565b60e084901c60e885901c0160ff16825114610a4b5760e084901c60e885901c0160ff1682516040517f0f72cb98000000000000000000000000000000000000000000000000000000008152600481019290925260248201526044016109c3565b60e085901c60e886901c0160ff16815114610aab5760e085901c60e886901c0160ff1681516040517f7dec4c00000000000000000000000000000000000000000000000000000000008152600481019290925260248201526044016109c3565b60e085901c60e886901c0160ff1660e084901c60e885901c0160ff1614610b235760e085901c60e886901c0160ff1660e084901c60e885901c0160ff166040517ff29d4d88000000000000000000000000000000000000000000000000000000008152600481019290925260248201526044016109c3565b610b2c856111ab565b610b35846111ab565b14610b8757610b43856111ab565b610b4c846111ab565b6040517f65cc0adf000000000000000000000000000000000000000000000000000000008152600481019290925260248201526044016109c3565b610b90856111dd565b610b99846111dd565b14610beb57610ba7856111dd565b610bb0846111dd565b6040517fedea9587000000000000000000000000000000000000000000000000000000008152600481019290925260248201526044016109c3565b60005b610bf7866111ab565b811015610c9257610c21610c0b85836111fa565b60c5811115610c1c57610c1c61229d565b611222565b6008601b8390030287901c60ff1614610c8a576008601b8290030286901c60ff16610c4f610c0b86846111fa565b6040517f254c7db4000000000000000000000000000000000000000000000000000000008152600481019290925260248201526044016109c3565b600101610bee565b506000610cd4613a3160f11b610ca88960101b90565b60101c7fffff000000000000000000000000000000000000000000000000000000000000919091161790565b90506000610ceb611bdd60f21b610ca88a60101b90565b9050610cf68261127c565b80610d055750610d058161127c565b15610d5f578788604051602001610d1e91815260200190565b60408051601f19818403018152908290527fdfaaf9cf0000000000000000000000000000000000000000000000000000000082526109c392916004016122b3565b610dab8888888888604051602001610d7791906122cc565b60405160208183030381529060405288604051602001610d9791906122cc565b604051602081830303815290604052611321565b610db6886001611404565b5050505050505050565b80610df7576040517fa019e4da00000000000000000000000000000000000000000000000000000000815260040160405180910390fd5b6000610e02826111dd565b90506005811115610e49576040517f6793df6200000000000000000000000000000000000000000000000000000000815260048101829052600560248201526044016109c3565b6000610e54836111ab565b90506000610e62838361213f565b9050601c811115610ea9576040517fecd893b900000000000000000000000000000000000000000000000000000000815260048101829052601c60248201526044016109c3565b6000805b83811015610f545760ff601b82900360080287901c166000819003610f01576040517f53b2dd05000000000000000000000000000000000000000000000000000000008152600481018390526024016109c3565b6020811115610f3f576040517f7237f237000000000000000000000000000000000000000000000000000000008152600481018390526024016109c3565b610f49818461213f565b925050600101610ead565b50610f5e856114c2565b8114610faa57610f6d856114c2565b6040517feba964de0000000000000000000000000000000000000000000000000000000081526004810191909152602481018290526044016109c3565b825b601c8110156110075760ff601b82900360080287901c168015610ffe576040517f1d8d44db000000000000000000000000000000000000000000000000000000008152600481018390526024016109c3565b50600101610fac565b505050505050565b8015801561101b575081155b1561103c5760405163d498615960e01b8152600060048201526024016109c3565b6000611047836111dd565b9050600581111561106e5760405163d498615960e01b8152600481018290526024016109c3565b6000611079846111ab565b90506000611087838361213f565b9050601c8111156110ae5760405163d498615960e01b8152600481018290526024016109c3565b6000805b8381101561111a5760006110c9610c0b89846111fa565b905080600003611105576040517ff44b422000000000000000000000000000000000000000000000000000000000815260040160405180910390fd5b61110f818461213f565b9250506001016110b2565b50611124866114c2565b811461114f57611133866114c2565b60405163d498615960e01b81526004016109c391815260200190565b825b82811015610219576000611168610c0b89846111fa565b905080156111a2576040517ff44b422000000000000000000000000000000000000000000000000000000000815260040160405180910390fd5b50600101611151565b6000600860016111bd600260206122df565b6111c791906122df565b6111d191906122f2565b8260ff911c1692915050565b600060086001806111f0600260206122df565b6111bd91906122df565b6000601b8290036008028360ff911c1660c581111561121b5761121b61229d565b9392505050565b6000808260c58111156112375761123761229d565b60ff169050606181101561125157601f1660010192915050565b60618360c58111156112655761126561229d565b036112735750601492915050565b50600092915050565b6040805160018082528183019092526000918291906020808301908036833701905050905082816000815181106112b5576112b5612152565b6020908102919091010152600061130d7f746273746f72650000000000000000005265736f75726365496473000000000083837e010100010000000000000000000000000000000000000000000000000000006114e5565b90506113198160f81c90565b949350505050565b604080516020810187905280820186905260608082018690528251808303909101815260809091019091526000611358848461151b565b905060006113668585611538565b604080516001808252818301909252919250600091906020808301908036833701905050905089816000815181106113a0576113a0612152565b60209081029190910101526113f87f746273746f72650000000000000000005461626c657300000000000000000000828686867e60030220202000000000000000000000000000000000000000000000000000611564565b50505050505050505050565b60408051600180825281830190925260009160208083019080368337019050509050828160008151811061143a5761143a612152565b6020026020010181815250506114bd7f746273746f72650000000000000000005265736f75726365496473000000000060001b8260008560405160200161148891151560f81b815260010190565b60408051601f198184030181529190527e01010001000000000000000000000000000000000000000000000000000000611882565b505050565b600060086114d2600260206122df565b6114dc91906122f2565b9190911c919050565b60006115126114f4868661189e565b60ff858116601b0360080285901c1661150d85876118f4565b61192d565b95945050505050565b8151815160009181810160389190911b1760609190911b1761121b565b6060828260405160200161154d929190612309565b604051602081830303815290604052905092915050565b611bdd60f21b867fffff00000000000000000000000000000000000000000000000000000000000016036115d557857f8dbb3a9672eebfd3773e72dd9c102393436816d832c7ba9e1e1ac8fcadcac7a9868686866040516115c89493929190612374565b60405180910390a2611007565b60006115e08761197e565b905060005b81518110156116b957600082828151811061160257611602612152565b6020026020010151905061162e6001826affffffffffffffffffffff1916611a0790919063ffffffff16565b156116b0576040517f57066c9c000000000000000000000000000000000000000000000000000000008152606082901c906357066c9c9061167d908c908c908c908c908c908c906004016123be565b600060405180830381600087803b15801561169757600080fd5b505af11580156116ab573d6000803e3d6000fd5b505050505b506001016115e5565b50867f8dbb3a9672eebfd3773e72dd9c102393436816d832c7ba9e1e1ac8fcadcac7a9878787876040516116f09493929190612374565b60405180910390a26000611704888861189e565b9050600060208701905061171c826000895184611a25565b6000611727856111dd565b11156117ab5760006117398a8a611ae3565b878155905060208601915060008060005b611753886111dd565b8160ff1610156117a6576117688d8d83611b39565b92506117838a8260ff166028026038011c64ffffffffff1690565b91506117928360008488611a25565b61179c828661213f565b945060010161174a565b505050505b60005b83518110156113f85760008482815181106117cb576117cb612152565b602002602001015190506117f76002826affffffffffffffffffffff1916611a0790919063ffffffff16565b15611879576040517f5b28cdaf000000000000000000000000000000000000000000000000000000008152606082901c90635b28cdaf90611846908e908e908e908e908e908e906004016123be565b600060405180830381600087803b15801561186057600080fd5b505af1158015611874573d6000803e3d6000fd5b505050505b506001016117ae565b611897858561189184876118f4565b85611bb9565b5050505050565b600082826040516020016118b3929190612417565b60408051601f1981840301815291905280516020909101207f86425bff6b57326c7859e89024fe4f238ca327a1ae4a230180dd2f0e88aaa7d9189392505050565b600080805b8360ff168110156119255761191b60ff601b83900360080287901c168361213f565b91506001016118f9565b509392505050565b6000602082106119535760208204840193506020828161194f5761194f612453565b0691505b508254600882021b602082900380841115611925576001850154600882021c82179150509392505050565b604080516001808252818301909252606091600091906020808301908036833701905050905082816000815181106119b8576119b8612152565b602090810291909101015260006119f07f746273746f726500000000000000000053746f7265486f6f6b730000000000008383611e39565b9050611319611a028260008451611e73565b611f01565b60008160ff1682611a188560581c90565b1660ff1614905092915050565b8215611a9f5760208310611a4f57602083048401935060208381611a4b57611a4b612453565b0692505b8215611a9f5760208390036000600019600885021c1990506008850281811c91508351811c9050811987541682821617875550818411611a90575050611add565b50600194909401939182900391015b5b60208210611ac15780518455600190930192601f1990910190602001611aa0565b8115611add5783548151600019600885021c9182169119161784555b50505050565b60008282604051602001611af8929190612417565b60408051601f1981840301815291905280516020909101207f14e2fcc58e58e68ec7edc30c8d50dccc3ce2714a623ec81f46b6a63922d76569189392505050565b60008383604051602001611b4e929190612417565b604051602081830303815290604052805190602001208260f81b7effffffffffffffffffffffffffffffffffffffffffffffffffffffffffffff19167f3b4102da22e32d82fc925482184f16c09fd4281692720b87d124aef6da48a0f1181860001c90509392505050565b611bdd60f21b847fffff0000000000000000000000000000000000000000000000000000000000001603611c2857837f8c0b5119d4cec7b284c6b1b39252a03d1e2f2d7451a5895562524c113bb952be848484604051611c1b93929190612469565b60405180910390a2611add565b6000611c34858561189e565b90506000611c418661197e565b905060005b8151811015611d16576000828281518110611c6357611c63612152565b60200260200101519050611c8f6004826affffffffffffffffffffff1916611a0790919063ffffffff16565b15611d0d576040517f964f667d000000000000000000000000000000000000000000000000000000008152606082901c9063964f667d90611cda908b908b908b908b906004016124a6565b600060405180830381600087803b158015611cf457600080fd5b505af1158015611d08573d6000803e3d6000fd5b505050505b50600101611c46565b50857f8c0b5119d4cec7b284c6b1b39252a03d1e2f2d7451a5895562524c113bb952be868686604051611d4b93929190612469565b60405180910390a2611d66828565ffffffffffff1685611f12565b60005b8151811015610219576000828281518110611d8657611d86612152565b60200260200101519050611db26008826affffffffffffffffffffff1916611a0790919063ffffffff16565b15611e30576040517fa8ba8721000000000000000000000000000000000000000000000000000000008152606082901c9063a8ba872190611dfd908b908b908b908b906004016124a6565b600060405180830381600087803b158015611e1757600080fd5b505af1158015611e2b573d6000803e3d6000fd5b505050505b50600101611d69565b6060611319611e49858585611b39565b6000611e6e85611e598989611f28565b9060ff166028026038011c64ffffffffff1690565b611f3b565b600081831180611e835750835182115b15611ec0578383836040517f23230fa30000000000000000000000000000000000000000000000000000000081526004016109c3939291906124df565b60208401611ece848261213f565b90506000611edc85856122df565b6fffffffffffffffffffffffffffffffff1660809290921b9190911795945050505050565b6060600061121b8360156000611f5e565b6114bd83838351611f238560200190565b611a25565b600061121b611f378484611ae3565b5490565b60405160208101601f19603f848401011660405282825261192585858584611fd9565b60606000611f6c8560801c90565b90506fffffffffffffffffffffffffffffffff85166000858281611f9257611f92612453565b04905060405193506020840160208202810160405281855260005b82811015611fcd578451871c825293870193602090910190600101611fad565b50505050509392505050565b8215612060576020831061200357602083048401935060208381611fff57611fff612453565b0692505b82156120605760208390036000818410156120265750600019600884021c612030565b50600019600882021c5b8554600886021b818451168219821617845250818411612051575050611add565b50600194909401939182900391015b5b602082106120825783548152600190930192601f1990910190602001612061565b8115611add576000600019600884021c8251865482191691161782525050505050565b6122cd8061250583390190565b600080604083850312156120c557600080fd5b823573ffffffffffffffffffffffffffffffffffffffff811681146120e957600080fd5b915060208301357fffffffffffffffffffffffffffff0000000000000000000000000000000000008116811461211e57600080fd5b809150509250929050565b634e487b7160e01b600052601160045260246000fd5b8082018082111561025457610254612129565b634e487b7160e01b600052603260045260246000fd5b60005b8381101561218357818101518382015260200161216b565b50506000910152565b600081518084526121a4816020860160208601612168565b601f01601f19169290920160200192915050565b60008282518085526020808601955060208260051b8401016020860160005b8481101561220557601f198684030189526121f383835161218c565b988401989250908301906001016121d7565b5090979650505050505050565b86815285602082015284604082015283606082015260c06080820152600061223d60c08301856121b8565b82810360a084015261224f81856121b8565b9998505050505050505050565b7fffff00000000000000000000000000000000000000000000000000000000000084168152826020820152606060408201526000611512606083018461218c565b634e487b7160e01b600052602160045260246000fd5b828152604060208201526000611319604083018461218c565b60208152600061121b60208301846121b8565b8181038181111561025457610254612129565b808202811582820484141761025457610254612129565b6000835161231b818460208801612168565b83519083019061232f818360208801612168565b01949350505050565b60008151808452602080850194506020840160005b838110156123695781518752958201959082019060010161234d565b509495945050505050565b6080815260006123876080830187612338565b8281036020840152612399818761218c565b905084604084015282810360608401526123b3818561218c565b979650505050505050565b86815260c0602082015260006123d760c0830188612338565b82810360408401526123e9818861218c565b90508560608401528281036080840152612403818661218c565b9150508260a0830152979650505050505050565b8281526000602080830184516020860160005b828110156124465781518452928401929084019060010161242a565b5091979650505050505050565b634e487b7160e01b600052601260045260246000fd5b60608152600061247c6060830186612338565b65ffffffffffff85166020840152828103604084015261249c818561218c565b9695505050505050565b8481526080602082015260006124bf6080830186612338565b65ffffffffffff8516604084015282810360608401526123b3818561218c565b6060815260006124f2606083018661218c565b6020830194909452506040015291905056fe608060405234801561001057600080fd5b506122ad806100206000396000f3fe608060405234801561001057600080fd5b50600436106100f55760003560e01c806340c10f19116100975780639dc29fac116100665780639dc29fac146101e8578063a9059cbb146101fb578063dd62ed3e1461020e578063e1af802c1461022157600080fd5b806340c10f19146101ad57806345ec9354146101c257806370a08231146101cd57806395d89b41146101e057600080fd5b8063119df25f116100d3578063119df25f1461014a57806318160ddd1461016a57806323b872dd14610180578063313ce5671461019357600080fd5b806301ffc9a7146100fa57806306fdde0314610122578063095ea7b314610137575b600080fd5b61010d610108366004611d13565b610229565b60405190151581526020015b60405180910390f35b61012a6102c2565b6040516101199190611da5565b61010d610145366004611dcf565b6102e1565b610152610303565b6040516001600160a01b039091168152602001610119565b61017261030d565b604051908152602001610119565b61010d61018e366004611df9565b610327565b61019b610357565b60405160ff9091168152602001610119565b6101c06101bb366004611dcf565b61036c565b005b36601f190135610172565b6101726101db366004611e35565b6103cc565b61012a6103e7565b6101c06101f6366004611dcf565b6103fc565b61010d610209366004611dcf565b610453565b61017261021c366004611e50565b61046b565b610152610487565b60007fffffffff0000000000000000000000000000000000000000000000000000000082167fb5dee1270000000000000000000000000000000000000000000000000000000014806102bc57507fffffffff0000000000000000000000000000000000000000000000000000000082167f01ffc9a700000000000000000000000000000000000000000000000000000000145b92915050565b60606102dc6102d76102d2610491565b6104af565b6104e1565b905090565b6000806102ec610303565b90506102f9818585610507565b5060019392505050565b60006102dc610665565b60006102dc61032261031d610491565b610697565b6106c9565b600080610332610303565b905061033f8582856106ee565b61034a858585610776565b60019150505b9392505050565b60006102dc6103676102d2610491565b61080c565b610374610854565b6001600160a01b0382166103bc576040517fec442f05000000000000000000000000000000000000000000000000000000008152600060048201526024015b60405180910390fd5b6103c86000838361086f565b5050565b60006102bc6103e16103dc610491565b610a37565b83610a69565b60606102dc6103f76102d2610491565b610ad7565b610404610854565b6001600160a01b038216610447576040517f96c6fd1e000000000000000000000000000000000000000000000000000000008152600060048201526024016103b3565b6103c88260008361086f565b60008061045e610303565b90506102f9818585610776565b600061035061048061047b610491565b610af6565b8484610b28565b60006102dc610bc3565b60008061049d30610bcd565b90506104a98160101b90565b91505090565b60006102bc613a3160f11b837f4d65746164617461000000000000000000000000000000000000000000000000610c52565b604080516000808252602082019092526060916104ff848383610cca565b949350505050565b6001600160a01b03831661054a576040517fe602df05000000000000000000000000000000000000000000000000000000008152600060048201526024016103b3565b6001600160a01b03821661058d576040517f94280d62000000000000000000000000000000000000000000000000000000008152600060048201526024016103b3565b6105a361059b61047b610491565b848484610d91565b6105ab610e48565b6001600160a01b031663c9a34acd7f8c5be1e5ebec7d5bd14f71427d1e84f3dd0314c0f7b2291e5b200ac8c7c3b9256105ea866001600160a01b031690565b6001600160a01b0386166040805160208101889052016040516020818303038152906040526040518563ffffffff1660e01b815260040161062e9493929190611e99565b600060405180830381600087803b15801561064857600080fd5b505af115801561065c573d6000803e3d6000fd5b50505050505050565b7fffffffffffffffffffffffffffffffffffffffffffffffffffffffffffffffcc36013560601c806106945750335b90565b60006102bc613a3160f11b837f546f74616c537570706c79000000000000000000000000000000000000000000610c52565b6040805160008082526020820190925260006104ff848383630100080160dd1b610f23565b60006107056106fe61047b610491565b8585610b28565b905060001981146107705781811015610763576040517ffb8f41b20000000000000000000000000000000000000000000000000000000081526001600160a01b038416600482015260248101829052604481018390526064016103b3565b6107708484848403610507565b50505050565b6001600160a01b0383166107b9576040517f96c6fd1e000000000000000000000000000000000000000000000000000000008152600060048201526024016103b3565b6001600160a01b0382166107fc576040517fec442f05000000000000000000000000000000000000000000000000000000008152600060048201526024016103b3565b61080783838361086f565b505050565b6040805160008082526020820190925260006108498483837e01010201000000000000000000000000000000000000000000000000000000610f23565b60f81c949350505050565b61086d61086030610bcd565b610868610303565b610fe0565b565b6000610879610491565b9050600061088682610697565b9050600061089383610a37565b90506001600160a01b0386166108c5576108c082856108b1856106c9565b6108bb9190611ed4565b611081565b610935565b60006108d18288610a69565b905084811015610926576040517fe450d38c0000000000000000000000000000000000000000000000000000000081526001600160a01b038816600482015260248101829052604481018690526064016103b3565b61093382888784036110a8565b505b6001600160a01b03851661095c576109578285610951856106c9565b03611081565b610972565b61097281868661096c858a610a69565b016110a8565b61097a610e48565b6001600160a01b031663c9a34acd7fddf252ad1be2c89b69c2b068fc378daa952ba7f163c4a11628f55a4df523b3ef6109b9896001600160a01b031690565b6001600160a01b03891660408051602081018b9052016040516020818303038152906040526040518563ffffffff1660e01b81526004016109fd9493929190611e99565b600060405180830381600087803b158015610a1757600080fd5b505af1158015610a2b573d6000803e3d6000fd5b50505050505050505050565b60006102bc613a3160f11b837f42616c616e636573000000000000000000000000000000000000000000000000610c52565b60408051600180825281830190925260009182919060208083019080368337019050509050826001600160a01b031660001b81600081518110610aae57610aae611ee7565b60209081029190910101526000610ace858383630100080160dd1b610f23565b95945050505050565b604080516000808252602082019092526060916104ff84836001610cca565b60006102bc613a3160f11b837f416c6c6f77616e63657300000000000000000000000000000000000000000000610c52565b60408051600280825260608201835260009283929190602083019080368337019050509050836001600160a01b031660001b81600081518110610b6d57610b6d611ee7565b602002602001018181525050826001600160a01b031660001b81600181518110610b9957610b99611ee7565b60209081029190910101526000610bb9868383630100080160dd1b610f23565b9695505050505050565b60006102dc611110565b60408051600180825281830190925260009182919060208083019080368337019050509050826001600160a01b031660001b81600081518110610c1257610c12611ee7565b602090810291909101015260006104ff7f7462776f726c6400000000000000000053797374656d526567697374727900008383630100080160dd1b610f23565b6000610c6060706010611ed4565b7fffff00000000000000000000000000000000000000000000000000000000000085167dffffffffffffffffffffffffffff00000000000000000000000000000000601086901c16176fffffffffffffffffffffffffffffffff19841690911c1790509392505050565b60606000610cd6611110565b9050306001600160a01b03821603610cfb57610cf385858561114f565b915050610350565b6040517f1e7889770000000000000000000000000000000000000000000000000000000081526001600160a01b03821690631e78897790610d4490889088908890600401611f39565b600060405180830381865afa158015610d61573d6000803e3d6000fd5b505050506040513d6000823e601f3d908101601f19168201604052610cf39190810190611f65565b509392505050565b604080516002808252606082018352600092602083019080368337019050509050836001600160a01b031660001b81600081518110610dd257610dd2611ee7565b602002602001018181525050826001600160a01b031660001b81600181518110610dfe57610dfe611ee7565b602002602001018181525050610e418582600085604051602001610e2491815260200190565b60408051601f19818403018152919052630100080160dd1b611189565b5050505050565b600080610e5430610bcd565b60408051613a3160f11b60208201527f707570706574000000000000000000000000000000000000000000000000000060228201527f50757070657452656769737472790000000000000000000000000000000000006030820152919250600091610ed89101604051602081830303815290604052610ed290612012565b8361120c565b90506001600160a01b0381166102bc576040517f9434f7e1000000000000000000000000000000000000000000000000000000008152306004820152602481018390526044016103b3565b600080610f2e611110565b9050306001600160a01b03821603610f5457610f4c86868686611289565b9150506104ff565b6040517f8c364d590000000000000000000000000000000000000000000000000000000081526001600160a01b03821690638c364d5990610f9f908990899089908990600401612039565b602060405180830381865afa158015610fbc573d6000803e3d6000fd5b505050506040513d601f19601f82011682018060405250810190610f4c9190612068565b6001600160a01b0381166110357f6e730000000000000000000000000000000000000000000000000000000000007dffffffffffffffffffffffffffff000000000000000000000000000000008516176112b6565b6001600160a01b0316146103c85761104c82611352565b816040517fd787b7370000000000000000000000000000000000000000000000000000000081526004016103b3929190612081565b60408051600080825260208201835291810183905290610807908490839060608201610e24565b60408051600180825281830190925260009160208083019080368337019050509050826001600160a01b031660001b816000815181106110ea576110ea611ee7565b6020026020010181815250506107708482600085604051602001610e2491815260200190565b7f629a4c26e296b22a8e0856e9f6ecb2d1008d7e00081111962cd175fa7488e175546000906001600160a01b03168061114a573391505090565b919050565b60606104ff61115f858585611480565b60006111848561116f8989611500565b9060ff166028026038011c64ffffffffff1690565b611513565b6000611193611110565b9050306001600160a01b038216036111b7576111b28686868686611536565b611204565b6040517f390baae00000000000000000000000000000000000000000000000000000000081526001600160a01b0382169063390baae0906109fd90899089908990899089906004016120ac565b505050505050565b60408051600180825281830190925260009182919060208083019080368337019050509050828160008151811061124557611245611ee7565b6020908102919091010152600061127d8583837e14010014000000000000000000000000000000000000000000000000000000610f23565b60601c95945050505050565b6000610ace611298868661154b565b60ff858116601b0360080285901c166112b185876115a1565b6115d2565b6040805160018082528183019092526000918291906020808301908036833701905050905082816000815181106112ef576112ef611ee7565b602090810291909101015260006113477f7462776f726c640000000000000000004e616d6573706163654f776e6572000083837e14010014000000000000000000000000000000000000000000000000000000610f23565b60601c949350505050565b606081601081901b600061136583611623565b9050827fffffffffffffffffffffffffffff0000000000000000000000000000000000008316156113c0576113bb7fffffffffffffffffffffffffffff000000000000000000000000000000000000841661163a565b6113f7565b6040518060400160405280600681526020017f3c726f6f743e00000000000000000000000000000000000000000000000000008152505b6fffffffffffffffffffffffffffffffff1983161561141e576114198361163a565b611455565b6040518060400160405280600681526020017f3c726f6f743e00000000000000000000000000000000000000000000000000008152505b604051602001611467939291906120f3565b6040516020818303038152906040529350505050919050565b60008383604051602001611495929190612181565b604051602081830303815290604052805190602001208260f81b7effffffffffffffffffffffffffffffffffffffffffffffffffffffffffffff19167f3b4102da22e32d82fc925482184f16c09fd4281692720b87d124aef6da48a0f1181860001c90509392505050565b600061035061150f84846116c0565b5490565b60405160208101601f19603f8484010116604052828252610d8985858584611716565b610e41858561154584876115a1565b856117e2565b60008282604051602001611560929190612181565b60408051601f1981840301815291905280516020909101207f86425bff6b57326c7859e89024fe4f238ca327a1ae4a230180dd2f0e88aaa7d9189392505050565b600080805b8360ff16811015610d89576115c860ff601b83900360080287901c1683611ed4565b91506001016115a6565b6000602082106115f8576020820484019350602082816115f4576115f46121bd565b0691505b508254600882021b602082900380841115610d89576001850154600882021c82179150509392505050565b600061163160706010611ed4565b9190911b919050565b606060005b6010811015611690576fffffffffffffffffffffffffffffffff198316600882021b7fff0000000000000000000000000000000000000000000000000000000000000016156116905760010161163f565b604080516fffffffffffffffffffffffffffffffff198516602082015281516030909101909152818152806104ff565b600082826040516020016116d5929190612181565b60408051601f1981840301815291905280516020909101207f14e2fcc58e58e68ec7edc30c8d50dccc3ce2714a623ec81f46b6a63922d76569189392505050565b821561179d57602083106117405760208304840193506020838161173c5761173c6121bd565b0692505b821561179d5760208390036000818410156117635750600019600884021c61176d565b50600019600882021c5b8554600886021b81845116821982161784525081841161178e575050610770565b50600194909401939182900391015b5b602082106117bf5783548152600190930192601f199091019060200161179e565b8115610770576000600019600884021c8251865482191691161782525050505050565b7f6f74000000000000000000000000000000000000000000000000000000000000847fffff000000000000000000000000000000000000000000000000000000000000160361186c57837f8c0b5119d4cec7b284c6b1b39252a03d1e2f2d7451a5895562524c113bb952be84848460405161185f939291906121d3565b60405180910390a2610770565b6000611878858561154b565b9050600061188586611a7d565b905060005b815181101561195a5760008282815181106118a7576118a7611ee7565b602002602001015190506118d36004826affffffffffffffffffffff1916611b0690919063ffffffff16565b15611951576040517f964f667d000000000000000000000000000000000000000000000000000000008152606082901c9063964f667d9061191e908b908b908b908b90600401612206565b600060405180830381600087803b15801561193857600080fd5b505af115801561194c573d6000803e3d6000fd5b505050505b5060010161188a565b50857f8c0b5119d4cec7b284c6b1b39252a03d1e2f2d7451a5895562524c113bb952be86868660405161198f939291906121d3565b60405180910390a26119aa828565ffffffffffff1685611b24565b60005b815181101561065c5760008282815181106119ca576119ca611ee7565b602002602001015190506119f66008826affffffffffffffffffffff1916611b0690919063ffffffff16565b15611a74576040517fa8ba8721000000000000000000000000000000000000000000000000000000008152606082901c9063a8ba872190611a41908b908b908b908b90600401612206565b600060405180830381600087803b158015611a5b57600080fd5b505af1158015611a6f573d6000803e3d6000fd5b505050505b506001016119ad565b60408051600180825281830190925260609160009190602080830190803683370190505090508281600081518110611ab757611ab7611ee7565b60209081029190910101526000611aef7f746273746f726500000000000000000053746f7265486f6f6b73000000000000838361114f565b90506104ff611b018260008451611b3a565b611bc8565b60008160ff1682611b178560581c90565b1660ff1614905092915050565b61080783838351611b358560200190565b611bd9565b600081831180611b4a5750835182115b15611b87578383836040517f23230fa30000000000000000000000000000000000000000000000000000000081526004016103b39392919061223f565b60208401611b958482611ed4565b90506000611ba38585612264565b6fffffffffffffffffffffffffffffffff1660809290921b9190911795945050505050565b606060006103508360156000611c98565b8215611c535760208310611c0357602083048401935060208381611bff57611bff6121bd565b0692505b8215611c535760208390036000600019600885021c1990506008850281811c91508351811c9050811987541682821617875550818411611c44575050610770565b50600194909401939182900391015b5b60208210611c755780518455600190930192601f1990910190602001611c54565b8115610770576000600019600884021c8554835182191691161785555050505050565b60606000611ca68560801c90565b90506fffffffffffffffffffffffffffffffff85166000858281611ccc57611ccc6121bd565b04905060405193506020840160208202810160405281855260005b82811015611d07578451871c825293870193602090910190600101611ce7565b50505050509392505050565b600060208284031215611d2557600080fd5b81357fffffffff000000000000000000000000000000000000000000000000000000008116811461035057600080fd5b60005b83811015611d70578181015183820152602001611d58565b50506000910152565b60008151808452611d91816020860160208601611d55565b601f01601f19169290920160200192915050565b6020815260006103506020830184611d79565b80356001600160a01b038116811461114a57600080fd5b60008060408385031215611de257600080fd5b611deb83611db8565b946020939093013593505050565b600080600060608486031215611e0e57600080fd5b611e1784611db8565b9250611e2560208501611db8565b9150604084013590509250925092565b600060208284031215611e4757600080fd5b61035082611db8565b60008060408385031215611e6357600080fd5b611e6c83611db8565b9150611e7a60208401611db8565b90509250929050565b634e487b7160e01b600052604160045260246000fd5b848152836020820152826040820152608060608201526000610bb96080830184611d79565b634e487b7160e01b600052601160045260246000fd5b808201808211156102bc576102bc611ebe565b634e487b7160e01b600052603260045260246000fd5b60008151808452602080850194506020840160005b83811015611f2e57815187529582019590820190600101611f12565b509495945050505050565b838152606060208201526000611f526060830185611efd565b905060ff83166040830152949350505050565b600060208284031215611f7757600080fd5b815167ffffffffffffffff80821115611f8f57600080fd5b818401915084601f830112611fa357600080fd5b815181811115611fb557611fb5611e83565b604051601f8201601f19908116603f01168101908382118183101715611fdd57611fdd611e83565b81604052828152876020848701011115611ff657600080fd5b612007836020830160208801611d55565b979650505050505050565b80516020808301519190811015612033576000198160200360031b1b821691505b50919050565b8481526080602082015260006120526080830186611efd565b60ff949094166040830152506060015292915050565b60006020828403121561207a57600080fd5b5051919050565b6040815260006120946040830185611d79565b90506001600160a01b03831660208301529392505050565b85815260a0602082015260006120c560a0830187611efd565b60ff8616604084015282810360608401526120e08186611d79565b9150508260808301529695505050505050565b7fffff0000000000000000000000000000000000000000000000000000000000008416815260007f3a000000000000000000000000000000000000000000000000000000000000008060028401528451612154816003860160208901611d55565b808401905081600382015284519150612174826004830160208801611d55565b0160040195945050505050565b8281526000602080830184516020860160005b828110156121b057815184529284019290840190600101612194565b5091979650505050505050565b634e487b7160e01b600052601260045260246000fd5b6060815260006121e66060830186611efd565b65ffffffffffff851660208401528281036040840152610bb98185611d79565b84815260806020820152600061221f6080830186611efd565b65ffffffffffff8516604084015282810360608401526120078185611d79565b6060815260006122526060830186611d79565b60208301949094525060400152919050565b818103818111156102bc576102bc611ebe56fea264697066735822122066425bea33ef884970727375b75f7ab3dff45f4de4fb2df70b1373507e80251164736f6c63430008180033a2646970667358221220fe8288df6d77564d8e58fe9448c325bdc4beffb73b66b2767bee41945143308f64736f6c63430008180033","linkReferences":{}},"methodIdentifiers":{"_msgSender()":"119df25f","_msgValue()":"45ec9354","_world()":"e1af802c","install(bytes)":"13861fb5","installRoot(bytes)":"7c5b0335","supportsInterface(bytes4)":"01ffc9a7"},"id":51}