{"abi":[{"type":"function","name":"_msgSender","inputs":[],"outputs":[{"name":"sender","type":"address","internalType":"address"}],"stateMutability":"view"},{"type":"function","name":"_msgValue","inputs":[],"outputs":[{"name":"value","type":"uint256","internalType":"uint256"}],"stateMutability":"pure"},{"type":"function","name":"_world","inputs":[],"outputs":[{"name":"","type":"address","internalType":"address"}],"stateMutability":"view"},{"type":"function","name":"getBets","inputs":[{"name":"_roundId","type":"bytes32","internalType":"bytes32"},{"name":"_teamId","type":"uint8","internalType":"uint8"},{"name":"_betterAddress","type":"address","internalType":"address"}],"outputs":[{"name":"","type":"tuple","internalType":"struct BetsData","components":[{"name":"amount","type":"uint256","internalType":"uint256"},{"name":"winnerAmount","type":"uint256","internalType":"uint256"},{"name":"roundTitle","type":"string","internalType":"string"},{"name":"teamName","type":"string","internalType":"string"}]}],"stateMutability":"view"},{"type":"function","name":"getConfigId","inputs":[],"outputs":[{"name":"","type":"bytes32","internalType":"bytes32"}],"stateMutability":"view"},{"type":"function","name":"getRound","inputs":[{"name":"_roundId","type":"bytes32","internalType":"bytes32"}],"outputs":[{"name":"","type":"tuple","internalType":"struct RoundsData","components":[{"name":"roundCreator","type":"address","internalType":"address"},{"name":"betPeriod","type":"uint256","internalType":"uint256"},{"name":"matchFinished","type":"bool","internalType":"bool"},{"name":"betAmount","type":"uint256","internalType":"uint256"},{"name":"playerAddresses","type":"address[]","internalType":"address[]"},{"name":"teamIds","type":"uint8[]","internalType":"uint8[]"},{"name":"title","type":"string","internalType":"string"}]}],"stateMutability":"view"},{"type":"function","name":"getTeams","inputs":[{"name":"_roundId","type":"bytes32","internalType":"bytes32"},{"name":"_teamId","type":"uint8","internalType":"uint8"}],"outputs":[{"name":"","type":"tuple","internalType":"struct TeamsData","components":[{"name":"betAmount","type":"uint256","internalType":"uint256"},{"name":"winner","type":"bool","internalType":"bool"},{"name":"betAddresses","type":"address[]","internalType":"address[]"},{"name":"name","type":"string","internalType":"string"}]}],"stateMutability":"view"},{"type":"function","name":"supportsInterface","inputs":[{"name":"interfaceId","type":"bytes4","internalType":"bytes4"}],"outputs":[{"name":"","type":"bool","internalType":"bool"}],"stateMutability":"pure"},{"type":"error","name":"Slice_OutOfBounds","inputs":[{"name":"data","type":"bytes","internalType":"bytes"},{"name":"start","type":"uint256","internalType":"uint256"},{"name":"end","type":"uint256","internalType":"uint256"}]}],"bytecode":{"object":"0x608060405234801561001057600080fd5b50611700806100206000396000f3fe608060405234801561001057600080fd5b50600436106100885760003560e01c806347158df91161005b57806347158df91461010a578063634daa111461012a578063dd2be61d14610132578063e1af802c1461015257600080fd5b806301ffc9a71461008d5780630b5276c7146100b5578063119df25f146100d557806345ec9354146100f5575b600080fd5b6100a061009b366004611170565b61015a565b60405190151581526020015b60405180910390f35b6100c86100c33660046111c3565b6101f3565b6040516100ac9190611284565b6100dd610231565b6040516001600160a01b0390911681526020016100ac565b36601f1901355b6040519081526020016100ac565b61011d6101183660046112d3565b610240565b6040516100ac919061131f565b6100fc61027e565b61014561014036600461134f565b61028d565b6040516100ac919061139c565b6100dd6102e1565b60007fffffffff0000000000000000000000000000000000000000000000000000000082167fb5dee1270000000000000000000000000000000000000000000000000000000014806101ed57507fffffffff0000000000000000000000000000000000000000000000000000000082167f01ffc9a700000000000000000000000000000000000000000000000000000000145b92915050565b61022060405180608001604052806000815260200160001515815260200160608152602001606081525090565b61022a83836102eb565b9392505050565b600061023b6103e8565b905090565b61026b6040518060800160405280600081526020016000815260200160608152602001606081525090565b61027684848461041a565b949350505050565b6000610288610544565b919050565b6102d86040518060e0016040528060006001600160a01b0316815260200160008152602001600015158152602001600081526020016060815260200160608152602001606081525090565b6101ed826105a1565b600061023b610696565b61031860405180608001604052806000815260200160001515815260200160608152602001606081525090565b604080516002808252606082018352600092602083019080368337019050509050838160008151811061034d5761034d61143e565b6020026020010181815250508260ff1660001b816001815181106103735761037361143e565b6020908102919091010152600080806103cc7f746200000000000000000000000000005465616d730000000000000000000000857e210202200100000000000000000000000000000000000000000000000000006106a0565b9250925092506103dd838383610770565b979650505050505050565b7fffffffffffffffffffffffffffffffffffffffffffffffffffffffffffffffcc36013560601c806104175750335b90565b6104456040518060800160405280600081526020016000815260200160608152602001606081525090565b6040805160038082526080820190925260009160208201606080368337019050509050848160008151811061047c5761047c61143e565b6020026020010181815250508360ff1660001b816001815181106104a2576104a261143e565b602002602001018181525050826001600160a01b031660001b816002815181106104ce576104ce61143e565b6020908102919091010152600080806105277f7462000000000000000000000000000042657473000000000000000000000000857e400202202000000000000000000000000000000000000000000000000000006106a0565b9250925092506105388383836107ca565b98975050505050505050565b60408051600080825260208201909252600061022a7f74620000000000000000000000000000436f6e6669670000000000000000000083837e20010020000000000000000000000000000000000000000000000000000000610810565b6105ec6040518060e0016040528060006001600160a01b0316815260200160008152602001600015158152602001600081526020016060815260200160608152602001606081525090565b6040805160018082528183019092526000916020808301908036833701905050905082816000815181106106225761062261143e565b60209081029190910101526000808061067b7f74620000000000000000000000000000526f756e647300000000000000000000857e550403142001200000000000000000000000000000000000000000000000006106a0565b92509250925061068c8383836108cd565b9695505050505050565b600061023b61095d565b60606000606060006106b061095d565b9050306001600160a01b038216036106d9576106cd878787610997565b93509350935050610767565b6040517f419b58fd0000000000000000000000000000000000000000000000000000000081526001600160a01b0382169063419b58fd90610722908a908a908a90600401611485565b600060405180830381865afa15801561073f573d6000803e3d6000fd5b505050506040513d6000823e601f3d908101601f191682016040526106cd919081019061152c565b93509350939050565b61079d60405180608001604052806000815260200160001515815260200160608152602001606081525090565b6107a684610a9f565b1515602083015281526107b98383610abe565b606083015260408201529392505050565b6107f56040518060800160405280600081526020016000815260200160608152602001606081525090565b60208401516040850151602083015281526107b98383610b12565b60008061081b61095d565b9050306001600160a01b038216036108415761083986868686610b31565b915050610276565b6040517f8c364d590000000000000000000000000000000000000000000000000000000081526001600160a01b03821690638c364d599061088c908990899089908990600401611599565b602060405180830381865afa1580156108a9573d6000803e3d6000fd5b505050506040513d601f19601f8201168201806040525081019061083991906115c8565b6109186040518060e0016040528060006001600160a01b0316815260200160008152602001600015158152602001600081526020016060815260200160608152602001606081525090565b61092184610b67565b60608501521515604084015260208301526001600160a01b031681526109478383610bb1565b60c084015260a083015260808201529392505050565b7f629a4c26e296b22a8e0856e9f6ecb2d1008d7e00081111962cd175fa7488e175546000906001600160a01b031680610288573391505090565b60606000606060006109a885610c21565b90506109b5878783610c44565b935060006109c286610c7d565b90508015610a94576109d48888610cba565b935066ffffffffffffff841667ffffffffffffffff8111156109f8576109f8611428565b6040519080825280601f01601f191660200182016040528015610a22576020820181803683370190505b5092506020830160005b828160ff161015610a91576000610a448b8b84610ccd565b90506000610a61888460ff166028026038011c64ffffffffff1690565b9050610a708260008387610d4d565b610a7a81856115f7565b935050508080610a899061160a565b915050610a2c565b50505b505093509350939050565b60208101516040820151600090610ab7905b60f81c90565b9050915091565b6060806000603885901c64ffffffffff16610ae2610add868484610e18565b610eaf565b935090508064ffffffffff606087901c1601610b07610b02868484610e18565b610ec0565b925050509250929050565b6060806000603885901c64ffffffffff16610ae2610b02868484610e18565b6000610b5e610b408686610f40565b60ff858116601b0360080285901c16610b598587610f96565b610fcf565b95945050505050565b600080600080610b7b856000016020015190565b60601c9350610b8e856014016020015190565b6054860151909350610b9f90610ab1565b60559590950151939592949392915050565b606080806000603886901c64ffffffffff16610bd1610add878484610e18565b945090508064ffffffffff606088901c1601610bf6610bf1878484610e18565b611020565b935090508064ffffffffff608888901c1601610c16610b02878484610e18565b925050509250925092565b60006008610c3160026020611629565b610c3b919061163c565b9190911c919050565b606081600003610c63575060408051602081019091526000815261022a565b6000610c6f8585610f40565b9050610b5e81600085611031565b60006008600180610c9060026020611629565b610c9a9190611629565b610ca49190611629565b610cae919061163c565b8260ff911c1692915050565b600061022a610cc98484611054565b5490565b60008383604051602001610ce2929190611653565b604051602081830303815290604052805190602001208260f81b7effffffffffffffffffffffffffffffffffffffffffffffffffffffffffffff19167f3b4102da22e32d82fc925482184f16c09fd4281692720b87d124aef6da48a0f1181860001c90509392505050565b8215610dd45760208310610d7757602083048401935060208381610d7357610d7361168f565b0692505b8215610dd4576020839003600081841015610d9a5750600019600884021c610da4565b50600019600882021c5b8554600886021b818451168219821617845250818411610dc5575050610e12565b50600194909401939182900391015b5b60208210610df65783548152600190930192601f1990910190602001610dd5565b8115610e125780518454600019600885021c9182169119161781525b50505050565b600081831180610e285750835182115b15610e6e578383836040517f23230fa3000000000000000000000000000000000000000000000000000000008152600401610e65939291906116a5565b60405180910390fd5b60208401610e7c84826115f7565b90506000610e8a8585611629565b6fffffffffffffffffffffffffffffffff1660809290921b9190911795945050505050565b6060600061022a83601460606110aa565b60606000610ece8360801c90565b90506fffffffffffffffffffffffffffffffff83168067ffffffffffffffff811115610efc57610efc611428565b6040519080825280601f01601f191660200182016040528015610f26576020820181803683370190505b50925060208301610f38838284611125565b505050919050565b60008282604051602001610f55929190611653565b60408051601f1981840301815291905280516020909101207f86425bff6b57326c7859e89024fe4f238ca327a1ae4a230180dd2f0e88aaa7d9189392505050565b600080805b8360ff16811015610fc757610fbd60ff601b83900360080287901c16836115f7565b9150600101610f9b565b509392505050565b600060208210610ff557602082048401935060208281610ff157610ff161168f565b0691505b508254600882021b602082900380841115610fc7576001850154600882021c82179150509392505050565b6060600061022a83600160f86110aa565b60405160208101601f19603f8484010116604052828252610fc785858584610d4d565b60008282604051602001611069929190611653565b60408051601f1981840301815291905280516020909101207f14e2fcc58e58e68ec7edc30c8d50dccc3ce2714a623ec81f46b6a63922d76569189392505050565b606060006110b88560801c90565b90506fffffffffffffffffffffffffffffffff851660008582816110de576110de61168f565b04905060405193506020840160208202810160405281855260005b82811015611119578451871c8252938701936020909101906001016110f9565b50505050509392505050565b5b60208110611145578251825260209283019290910190601f1901611126565b8060000361115257505050565b6000600019600883021c905080835116811985511617835250505050565b60006020828403121561118257600080fd5b81357fffffffff000000000000000000000000000000000000000000000000000000008116811461022a57600080fd5b803560ff8116811461028857600080fd5b600080604083850312156111d657600080fd5b823591506111e6602084016111b2565b90509250929050565b60008151808452602080850194506020840160005b838110156112295781516001600160a01b031687529582019590820190600101611204565b509495945050505050565b60005b8381101561124f578181015183820152602001611237565b50506000910152565b60008151808452611270816020860160208601611234565b601f01601f19169290920160200192915050565b602081528151602082015260208201511515604082015260006040830151608060608401526112b660a08401826111ef565b90506060840151601f19848303016080850152610b5e8282611258565b6000806000606084860312156112e857600080fd5b833592506112f8602085016111b2565b915060408401356001600160a01b038116811461131457600080fd5b809150509250925092565b60208152815160208201526020820151604082015260006040830151608060608401526112b660a0840182611258565b60006020828403121561136157600080fd5b5035919050565b60008151808452602080850194506020840160005b8381101561122957815160ff168752958201959082019060010161137d565b602081526001600160a01b03825116602082015260208201516040820152604082015115156060820152606082015160808201526000608083015160e060a08401526113ec6101008401826111ef565b905060a0840151601f19808584030160c086015261140a8383611368565b925060c08601519150808584030160e086015250610b5e8282611258565b634e487b7160e01b600052604160045260246000fd5b634e487b7160e01b600052603260045260246000fd5b60008151808452602080850194506020840160005b8381101561122957815187529582019590820190600101611469565b83815260606020820152600061149e6060830185611454565b9050826040830152949350505050565b600082601f8301126114bf57600080fd5b815167ffffffffffffffff808211156114da576114da611428565b604051601f8301601f19908116603f0116810190828211818310171561150257611502611428565b8160405283815286602085880101111561151b57600080fd5b61068c846020830160208901611234565b60008060006060848603121561154157600080fd5b835167ffffffffffffffff8082111561155957600080fd5b611565878388016114ae565b945060208601519350604086015191508082111561158257600080fd5b5061158f868287016114ae565b9150509250925092565b8481526080602082015260006115b26080830186611454565b60ff949094166040830152506060015292915050565b6000602082840312156115da57600080fd5b5051919050565b634e487b7160e01b600052601160045260246000fd5b808201808211156101ed576101ed6115e1565b600060ff821660ff8103611620576116206115e1565b60010192915050565b818103818111156101ed576101ed6115e1565b80820281158282048414176101ed576101ed6115e1565b8281526000602080830184516020860160005b8281101561168257815184529284019290840190600101611666565b5091979650505050505050565b634e487b7160e01b600052601260045260246000fd5b6060815260006116b86060830186611258565b6020830194909452506040015291905056fea2646970667358221220507d62b2e9bcbec8720eab23400d4a9e923ee5d69b1ff4b200f562339eb3bbf864736f6c63430008180033","linkReferences":{}},"methodIdentifiers":{"_msgSender()":"119df25f","_msgValue()":"45ec9354","_world()":"e1af802c","getBets(bytes32,uint8,address)":"47158df9","getConfigId()":"634daa11","getRound(bytes32)":"dd2be61d","getTeams(bytes32,uint8)":"0b5276c7","supportsInterface(bytes4)":"01ffc9a7"},"id":269}