{"abi":[{"type":"function","name":"_msgSender","inputs":[],"outputs":[{"name":"sender","type":"address","internalType":"address"}],"stateMutability":"view"},{"type":"function","name":"_msgValue","inputs":[],"outputs":[{"name":"value","type":"uint256","internalType":"uint256"}],"stateMutability":"pure"},{"type":"function","name":"_world","inputs":[],"outputs":[{"name":"","type":"address","internalType":"address"}],"stateMutability":"view"},{"type":"function","name":"isAllowed","inputs":[{"name":"matchEntity","type":"bytes32","internalType":"bytes32"},{"name":"account","type":"address","internalType":"address"}],"outputs":[{"name":"","type":"bool","internalType":"bool"}],"stateMutability":"view"},{"type":"function","name":"setMembers","inputs":[{"name":"matchEntity","type":"bytes32","internalType":"bytes32"},{"name":"accounts","type":"address[]","internalType":"address[]"}],"outputs":[],"stateMutability":"nonpayable"},{"type":"function","name":"supportsInterface","inputs":[{"name":"interfaceId","type":"bytes4","internalType":"bytes4"}],"outputs":[{"name":"","type":"bool","internalType":"bool"}],"stateMutability":"pure"},{"type":"event","name":"Store_SpliceStaticData","inputs":[{"name":"tableId","type":"bytes32","indexed":true,"internalType":"ResourceId"},{"name":"keyTuple","type":"bytes32[]","indexed":false,"internalType":"bytes32[]"},{"name":"start","type":"uint48","indexed":false,"internalType":"uint48"},{"name":"data","type":"bytes","indexed":false,"internalType":"bytes"}],"anonymous":false},{"type":"error","name":"Slice_OutOfBounds","inputs":[{"name":"data","type":"bytes","internalType":"bytes"},{"name":"start","type":"uint256","internalType":"uint256"},{"name":"end","type":"uint256","internalType":"uint256"}]}],"bytecode":{"object":"0x608060405234801561001057600080fd5b506113d3806100206000396000f3fe608060405234801561001057600080fd5b50600436106100725760003560e01c806382027b6d1161005057806382027b6d146100df578063e1af802c146100f2578063f18a2ea0146100fa57600080fd5b806301ffc9a714610077578063119df25f1461009f57806345ec9354146100cc575b600080fd5b61008a610085366004610fc9565b61010f565b60405190151581526020015b60405180910390f35b6100a76101a8565b60405173ffffffffffffffffffffffffffffffffffffffff9091168152602001610096565b604051601f193601358152602001610096565b61008a6100ed36600461102f565b6101b7565b6100a76101ca565b61010d610108366004611071565b6101d4565b005b60007fffffffff0000000000000000000000000000000000000000000000000000000082167fb5dee1270000000000000000000000000000000000000000000000000000000014806101a257507fffffffff0000000000000000000000000000000000000000000000000000000082167f01ffc9a700000000000000000000000000000000000000000000000000000000145b92915050565b60006101b26102b7565b905090565b60006101c383836102e9565b9392505050565b60006101b26103c8565b60006101fa6101e16101a8565b73ffffffffffffffffffffffffffffffffffffffff1690565b90506000610207846103d2565b9050808214610277576040517f08c379a000000000000000000000000000000000000000000000000000000000815260206004820152601b60248201527f43616c6c6572206973206e6f74206d617463682063726561746f72000000000060448201526064015b60405180910390fd5b60005b83518110156102b0576102a88585838151811061029957610299611142565b6020026020010151600161046c565b60010161027a565b5050505050565b7fffffffffffffffffffffffffffffffffffffffffffffffffffffffffffffffcc36013560601c806102e65750335b90565b60408051600280825260608201835260009283929190602083019080368337019050509050838160008151811061032257610322611142565b6020026020010181815250508273ffffffffffffffffffffffffffffffffffffffff1660001b8160018151811061035b5761035b611142565b602090810291909101015260006103b37f746200000000000000000000000000004d61746368416c6c6f7765640000000083837e01010001000000000000000000000000000000000000000000000000000000610563565b90506103bf8160f81c90565b95945050505050565b60006101b261063a565b60408051600180825281830190925260009182919060208083019080368337019050509050828160008151811061040b5761040b611142565b602090810291909101015260006104647f746200000000000000000000000000004d61746368436f6e66696700000000008360047eb4060020202020201400000000000000000000000000000000000000000000610563565b949350505050565b60408051600280825260608201835260009260208301908036833701905050905083816000815181106104a1576104a1611142565b6020026020010181815250508273ffffffffffffffffffffffffffffffffffffffff1660001b816001815181106104da576104da611142565b60200260200101818152505061055d7f746200000000000000000000000000004d61746368416c6c6f7765640000000060001b8260008560405160200161052891151560f81b815260010190565b60408051601f198184030181529190527e01010001000000000000000000000000000000000000000000000000000000610686565b50505050565b60008061056e61063a565b90503073ffffffffffffffffffffffffffffffffffffffff8216036105a15761059986868686610756565b915050610464565b6040517f8c364d5900000000000000000000000000000000000000000000000000000000815273ffffffffffffffffffffffffffffffffffffffff821690638c364d59906105f9908990899089908990600401611194565b602060405180830381865afa158015610616573d6000803e3d6000fd5b505050506040513d601f19601f8201168201806040525081019061059991906111c3565b7f629a4c26e296b22a8e0856e9f6ecb2d1008d7e00081111962cd175fa7488e1755460009073ffffffffffffffffffffffffffffffffffffffff1680610681573391505090565b919050565b600061069061063a565b90503073ffffffffffffffffffffffffffffffffffffffff8216036106c1576106bc8686868686610783565b61074e565b6040517f390baae000000000000000000000000000000000000000000000000000000000815273ffffffffffffffffffffffffffffffffffffffff82169063390baae09061071b9089908990899089908990600401611222565b600060405180830381600087803b15801561073557600080fd5b505af1158015610749573d6000803e3d6000fd5b505050505b505050505050565b60006103bf6107658686610798565b60ff858116601b0360080285901c1661077e85876107ee565b610827565b6102b0858561079284876107ee565b85610878565b600082826040516020016107ad929190611269565b60408051601f1981840301815291905280516020909101207f86425bff6b57326c7859e89024fe4f238ca327a1ae4a230180dd2f0e88aaa7d9189392505050565b600080805b8360ff1681101561081f5761081560ff601b83900360080287901c16836112bb565b91506001016107f3565b509392505050565b60006020821061084d57602082048401935060208281610849576108496112ce565b0691505b508254600882021b60208290038084111561081f576001850154600882021c82179150509392505050565b7f6f74000000000000000000000000000000000000000000000000000000000000847fffff000000000000000000000000000000000000000000000000000000000000160361090257837f8c0b5119d4cec7b284c6b1b39252a03d1e2f2d7451a5895562524c113bb952be8484846040516108f5939291906112e4565b60405180910390a261055d565b600061090e8585610798565b9050600061091b86610b1c565b905060005b81518110156109f057600082828151811061093d5761093d611142565b602002602001015190506109696004826affffffffffffffffffffff1916610ba590919063ffffffff16565b156109e7576040517f964f667d000000000000000000000000000000000000000000000000000000008152606082901c9063964f667d906109b4908b908b908b908b90600401611321565b600060405180830381600087803b1580156109ce57600080fd5b505af11580156109e2573d6000803e3d6000fd5b505050505b50600101610920565b50857f8c0b5119d4cec7b284c6b1b39252a03d1e2f2d7451a5895562524c113bb952be868686604051610a25939291906112e4565b60405180910390a2610a40828565ffffffffffff1685610bc3565b60005b8151811015610b13576000828281518110610a6057610a60611142565b60200260200101519050610a8c6008826affffffffffffffffffffff1916610ba590919063ffffffff16565b15610b0a576040517fa8ba8721000000000000000000000000000000000000000000000000000000008152606082901c9063a8ba872190610ad7908b908b908b908b90600401611321565b600060405180830381600087803b158015610af157600080fd5b505af1158015610b05573d6000803e3d6000fd5b505050505b50600101610a43565b50505050505050565b60408051600180825281830190925260609160009190602080830190803683370190505090508281600081518110610b5657610b56611142565b60209081029190910101526000610b8e7f746273746f726500000000000000000053746f7265486f6f6b730000000000008383610bde565b9050610464610ba08260008451610c18565b610ca6565b60008160ff1682610bb68560581c90565b1660ff1614905092915050565b610bd983838351610bd48560200190565b610cb7565b505050565b6060610464610bee858585610d76565b6000610c1385610bfe8989610df6565b9060ff166028026038011c64ffffffffff1690565b610e09565b600081831180610c285750835182115b15610c65578383836040517f23230fa300000000000000000000000000000000000000000000000000000000815260040161026e93929190611365565b60208401610c7384826112bb565b90506000610c81858561138a565b6fffffffffffffffffffffffffffffffff1660809290921b9190911795945050505050565b606060006101c38360156000610e2c565b8215610d315760208310610ce157602083048401935060208381610cdd57610cdd6112ce565b0692505b8215610d315760208390036000600019600885021c1990506008850281811c91508351811c9050811987541682821617875550818411610d2257505061055d565b50600194909401939182900391015b5b60208210610d535780518455600190930192601f1990910190602001610d32565b811561055d576000600019600884021c8554835182191691161785555050505050565b60008383604051602001610d8b929190611269565b604051602081830303815290604052805190602001208260f81b7effffffffffffffffffffffffffffffffffffffffffffffffffffffffffffff19167f3b4102da22e32d82fc925482184f16c09fd4281692720b87d124aef6da48a0f1181860001c90509392505050565b60006101c3610e058484610ea7565b5490565b60405160208101601f19603f848401011660405282825261081f85858584610efd565b60606000610e3a8560801c90565b90506fffffffffffffffffffffffffffffffff85166000858281610e6057610e606112ce565b04905060405193506020840160208202810160405281855260005b82811015610e9b578451871c825293870193602090910190600101610e7b565b50505050509392505050565b60008282604051602001610ebc929190611269565b60408051601f1981840301815291905280516020909101207f14e2fcc58e58e68ec7edc30c8d50dccc3ce2714a623ec81f46b6a63922d76569189392505050565b8215610f845760208310610f2757602083048401935060208381610f2357610f236112ce565b0692505b8215610f84576020839003600081841015610f4a5750600019600884021c610f54565b50600019600882021c5b8554600886021b818451168219821617845250818411610f7557505061055d565b50600194909401939182900391015b5b60208210610fa65783548152600190930192601f1990910190602001610f85565b811561055d576000600019600884021c8251865482191691161782525050505050565b600060208284031215610fdb57600080fd5b81357fffffffff00000000000000000000000000000000000000000000000000000000811681146101c357600080fd5b803573ffffffffffffffffffffffffffffffffffffffff8116811461068157600080fd5b6000806040838503121561104257600080fd5b823591506110526020840161100b565b90509250929050565b634e487b7160e01b600052604160045260246000fd5b6000806040838503121561108457600080fd5b8235915060208084013567ffffffffffffffff808211156110a457600080fd5b818601915086601f8301126110b857600080fd5b8135818111156110ca576110ca61105b565b8060051b604051601f19603f830116810181811085821117156110ef576110ef61105b565b60405291825284820192508381018501918983111561110d57600080fd5b938501935b82851015611132576111238561100b565b84529385019392850192611112565b8096505050505050509250929050565b634e487b7160e01b600052603260045260246000fd5b60008151808452602080850194506020840160005b838110156111895781518752958201959082019060010161116d565b509495945050505050565b8481526080602082015260006111ad6080830186611158565b60ff949094166040830152506060015292915050565b6000602082840312156111d557600080fd5b5051919050565b6000815180845260005b81811015611202576020818501810151868301820152016111e6565b506000602082860101526020601f19601f83011685010191505092915050565b85815260a06020820152600061123b60a0830187611158565b60ff86166040840152828103606084015261125681866111dc565b9150508260808301529695505050505050565b8281526000602080830184516020860160005b828110156112985781518452928401929084019060010161127c565b5091979650505050505050565b634e487b7160e01b600052601160045260246000fd5b808201808211156101a2576101a26112a5565b634e487b7160e01b600052601260045260246000fd5b6060815260006112f76060830186611158565b65ffffffffffff85166020840152828103604084015261131781856111dc565b9695505050505050565b84815260806020820152600061133a6080830186611158565b65ffffffffffff85166040840152828103606084015261135a81856111dc565b979650505050505050565b60608152600061137860608301866111dc565b60208301949094525060400152919050565b818103818111156101a2576101a26112a556fea26469706673582212200ca468000b3d527ddd91bdbe73fdb1fc9c880fcac366da8a3bfb40c71368378f64736f6c63430008180033","linkReferences":{}},"methodIdentifiers":{"_msgSender()":"119df25f","_msgValue()":"45ec9354","_world()":"e1af802c","isAllowed(bytes32,address)":"82027b6d","setMembers(bytes32,address[])":"f18a2ea0","supportsInterface(bytes4)":"01ffc9a7"},"id":309}