{"abi":[{"type":"function","name":"_msgSender","inputs":[],"outputs":[{"name":"sender","type":"address","internalType":"address"}],"stateMutability":"view"},{"type":"function","name":"_msgValue","inputs":[],"outputs":[{"name":"value","type":"uint256","internalType":"uint256"}],"stateMutability":"pure"},{"type":"function","name":"_world","inputs":[],"outputs":[{"name":"","type":"address","internalType":"address"}],"stateMutability":"view"},{"type":"function","name":"install","inputs":[{"name":"","type":"bytes","internalType":"bytes"}],"outputs":[],"stateMutability":"nonpayable"},{"type":"function","name":"installRoot","inputs":[{"name":"","type":"bytes","internalType":"bytes"}],"outputs":[],"stateMutability":"nonpayable"},{"type":"function","name":"supportsInterface","inputs":[{"name":"interfaceId","type":"bytes4","internalType":"bytes4"}],"outputs":[{"name":"","type":"bool","internalType":"bool"}],"stateMutability":"pure"},{"type":"event","name":"Store_SetRecord","inputs":[{"name":"tableId","type":"bytes32","indexed":true,"internalType":"ResourceId"},{"name":"keyTuple","type":"bytes32[]","indexed":false,"internalType":"bytes32[]"},{"name":"staticData","type":"bytes","indexed":false,"internalType":"bytes"},{"name":"encodedLengths","type":"bytes32","indexed":false,"internalType":"EncodedLengths"},{"name":"dynamicData","type":"bytes","indexed":false,"internalType":"bytes"}],"anonymous":false},{"type":"event","name":"Store_SpliceStaticData","inputs":[{"name":"tableId","type":"bytes32","indexed":true,"internalType":"ResourceId"},{"name":"keyTuple","type":"bytes32[]","indexed":false,"internalType":"bytes32[]"},{"name":"start","type":"uint48","indexed":false,"internalType":"uint48"},{"name":"data","type":"bytes","indexed":false,"internalType":"bytes"}],"anonymous":false},{"type":"error","name":"FieldLayout_Empty","inputs":[]},{"type":"error","name":"FieldLayout_InvalidStaticDataLength","inputs":[{"name":"staticDataLength","type":"uint256","internalType":"uint256"},{"name":"computedStaticDataLength","type":"uint256","internalType":"uint256"}]},{"type":"error","name":"FieldLayout_StaticLengthDoesNotFitInAWord","inputs":[{"name":"index","type":"uint256","internalType":"uint256"}]},{"type":"error","name":"FieldLayout_StaticLengthIsNotZero","inputs":[{"name":"index","type":"uint256","internalType":"uint256"}]},{"type":"error","name":"FieldLayout_StaticLengthIsZero","inputs":[{"name":"index","type":"uint256","internalType":"uint256"}]},{"type":"error","name":"FieldLayout_TooManyDynamicFields","inputs":[{"name":"numFields","type":"uint256","internalType":"uint256"},{"name":"maxFields","type":"uint256","internalType":"uint256"}]},{"type":"error","name":"FieldLayout_TooManyFields","inputs":[{"name":"numFields","type":"uint256","internalType":"uint256"},{"name":"maxFields","type":"uint256","internalType":"uint256"}]},{"type":"error","name":"Module_AlreadyInstalled","inputs":[]},{"type":"error","name":"Module_MissingDependency","inputs":[{"name":"dependency","type":"address","internalType":"address"}]},{"type":"error","name":"Module_NonRootInstallNotSupported","inputs":[]},{"type":"error","name":"Module_RootInstallNotSupported","inputs":[]},{"type":"error","name":"Schema_InvalidLength","inputs":[{"name":"length","type":"uint256","internalType":"uint256"}]},{"type":"error","name":"Schema_StaticTypeAfterDynamicType","inputs":[]},{"type":"error","name":"Slice_OutOfBounds","inputs":[{"name":"data","type":"bytes","internalType":"bytes"},{"name":"start","type":"uint256","internalType":"uint256"},{"name":"end","type":"uint256","internalType":"uint256"}]},{"type":"error","name":"Store_InvalidFieldNamesLength","inputs":[{"name":"expected","type":"uint256","internalType":"uint256"},{"name":"received","type":"uint256","internalType":"uint256"}]},{"type":"error","name":"Store_InvalidKeyNamesLength","inputs":[{"name":"expected","type":"uint256","internalType":"uint256"},{"name":"received","type":"uint256","internalType":"uint256"}]},{"type":"error","name":"Store_InvalidResourceType","inputs":[{"name":"expected","type":"bytes2","internalType":"bytes2"},{"name":"resourceId","type":"bytes32","internalType":"ResourceId"},{"name":"resourceIdString","type":"string","internalType":"string"}]},{"type":"error","name":"Store_InvalidStaticDataLength","inputs":[{"name":"expected","type":"uint256","internalType":"uint256"},{"name":"received","type":"uint256","internalType":"uint256"}]},{"type":"error","name":"Store_InvalidValueSchemaDynamicLength","inputs":[{"name":"expected","type":"uint256","internalType":"uint256"},{"name":"received","type":"uint256","internalType":"uint256"}]},{"type":"error","name":"Store_InvalidValueSchemaLength","inputs":[{"name":"expected","type":"uint256","internalType":"uint256"},{"name":"received","type":"uint256","internalType":"uint256"}]},{"type":"error","name":"Store_InvalidValueSchemaStaticLength","inputs":[{"name":"expected","type":"uint256","internalType":"uint256"},{"name":"received","type":"uint256","internalType":"uint256"}]},{"type":"error","name":"Store_TableAlreadyExists","inputs":[{"name":"tableId","type":"bytes32","internalType":"ResourceId"},{"name":"tableIdString","type":"string","internalType":"string"}]}],"bytecode":{"object":"0x60e060408190523060805262000015906200008b565b604051809103906000f08015801562000032573d6000803e3d6000fd5b506001600160a01b031660a0526040516200004d9062000099565b604051809103906000f0801580156200006a573d6000803e3d6000fd5b506001600160a01b031660c0523480156200008457600080fd5b50620000a7565b6108a580620029e983390190565b6125a6806200328e83390190565b60805160a05160c051612907620000e2600039600081816103cb015261073a0152600081816104d8015261088f0152600050506129076000f3fe608060405234801561001057600080fd5b50600436106100725760003560e01c806345ec93541161005057806345ec9354146100d45780637c5b0335146100e7578063e1af802c146100fa57600080fd5b806301ffc9a714610077578063119df25f1461009f57806313861fb5146100bf575b600080fd5b61008a6100853660046123ad565b610102565b60405190151581526020015b60405180910390f35b6100a76101e7565b6040516001600160a01b039091168152602001610096565b6100d26100cd366004612405565b6101f6565b005b604051601f193601358152602001610096565b6100d26100f5366004612405565b61053d565b6100a7610965565b60007fffffffff0000000000000000000000000000000000000000000000000000000082167f6fdd1c8000000000000000000000000000000000000000000000000000000000148061019557507fffffffff0000000000000000000000000000000000000000000000000000000082167fb5dee12700000000000000000000000000000000000000000000000000000000145b806101e157507fffffffff0000000000000000000000000000000000000000000000000000000082167f01ffc9a700000000000000000000000000000000000000000000000000000000145b92915050565b60006101f161096f565b905090565b6000610200610965565b6040517f6e730000000000000000000000000000000000000000000000000000000000006020820152651c1d5c1c195d60d21b60228201529091506001600160a01b0382169063b29e408990603001604051602081830303815290604052610267906124b6565b6040518263ffffffff1660e01b815260040161028591815260200190565b600060405180830381600087803b15801561029f57600080fd5b505af11580156102b3573d6000803e3d6000fd5b505060408051613a3160f11b6020820152651c1d5c1c195d60d21b60228201527f5075707065745265676973747279000000000000000000000000000000000000603082015261031f93500190505b60405160208183030381529060405261031a906124b6565b6109a1565b6040805161737960f01b6020820152651c1d5c1c195d60d21b60228201527f466163746f72790000000000000000000000000000000000000000000000000060308201526001600160a01b03831691633350b6a9910160405160208183030381529060405261038d906124b6565b6040517fffffffff0000000000000000000000000000000000000000000000000000000060e084901b16815260048101919091526001600160a01b037f000000000000000000000000000000000000000000000000000000000000000016602482015260016044820152606401600060405180830381600087803b15801561041457600080fd5b505af1158015610428573d6000803e3d6000fd5b50506040805161737960f01b6020820152651c1d5c1c195d60d21b60228201527f44656c65676174696f6e0000000000000000000000000000000000000000000060308201526001600160a01b0385169350633350b6a992500160405160208183030381529060405261049a906124b6565b6040517fffffffff0000000000000000000000000000000000000000000000000000000060e084901b16815260048101919091526001600160a01b037f000000000000000000000000000000000000000000000000000000000000000016602482015260016044820152606401600060405180830381600087803b15801561052157600080fd5b505af1158015610535573d6000803e3d6000fd5b505050505050565b6000610547610965565b6040517f6e730000000000000000000000000000000000000000000000000000000000006020820152651c1d5c1c195d60d21b602282015290915060009081906001600160a01b03841690819063b29e4089906030016040516020818303038152906040526105b5906124b6565b6040516024016105c791815260200190565b60408051601f198184030181529181526020820180517bffffffffffffffffffffffffffffffffffffffffffffffffffffffff1660e09490941b93909317909252905161061492506124fe565b600060405180830381855af49150503d806000811461064f576040519150601f19603f3d011682016040523d82523d6000602084013e610654565b606091505b5091509150816106675761066781610a1d565b60408051613a3160f11b6020820152651c1d5c1c195d60d21b60228201527f507570706574526567697374727900000000000000000000000000000000000060308201526106b59101610302565b6040805161737960f01b6020820152651c1d5c1c195d60d21b60228201527f466163746f72790000000000000000000000000000000000000000000000000060308201526001600160a01b038516918291633350b6a99101604051602081830303815290604052610725906124b6565b60405160248101919091526001600160a01b037f00000000000000000000000000000000000000000000000000000000000000001660448201526001606482015260840160408051601f198184030181529181526020820180517bffffffffffffffffffffffffffffffffffffffffffffffffffffffff1660e09490941b9390931790925290516107b692506124fe565b600060405180830381855af49150503d80600081146107f1576040519150601f19603f3d011682016040523d82523d6000602084013e6107f6565b606091505b5090925090508161080a5761080a81610a1d565b6040805161737960f01b6020820152651c1d5c1c195d60d21b60228201527f44656c65676174696f6e0000000000000000000000000000000000000000000060308201526001600160a01b038516918291633350b6a9910160405160208183030381529060405261087a906124b6565b60405160248101919091526001600160a01b037f00000000000000000000000000000000000000000000000000000000000000001660448201526001606482015260840160408051601f198184030181529181526020820180517bffffffffffffffffffffffffffffffffffffffffffffffffffffffff1660e09490941b93909317909252905161090b92506124fe565b600060405180830381855af49150503d8060008114610946576040519150601f19603f3d011682016040523d82523d6000602084013e61094b565b606091505b5090925090508161095f5761095f81610a1d565b50505050565b60006101f1610a25565b7fffffffffffffffffffffffffffffffffffffffffffffffffffffffffffffffcc36013560601c8061099e5750335b90565b610a1a817e140100140000000000000000000000000000000000000000000000000000007e2001005f0000000000000000000000000000000000000000000000000000007e14010061000000000000000000000000000000000000000000000000000000610a0d610a2f565b610a15610ab4565b610b14565b50565b805160208201fd5b60006101f1610bce565b604080516001808252818301909252606091816020015b6060815260200190600190039081610a465790505090506040518060400160405280600881526020017f73797374656d496400000000000000000000000000000000000000000000000081525081600081518110610aa657610aa661251a565b602002602001018190525090565b604080516001808252818301909252606091816020015b6060815260200190600190039081610acb579050509050604051806040016040528060068152602001651c1d5c1c195d60d21b81525081600081518110610aa657610aa661251a565b6000610b1e610bce565b9050306001600160a01b03821603610b4357610b3e878787878787610c0d565b610bc5565b6040517f0ba51f490000000000000000000000000000000000000000000000000000000081526001600160a01b03821690630ba51f4990610b92908a908a908a908a908a908a906004016125b6565b600060405180830381600087803b158015610bac57600080fd5b505af1158015610bc0573d6000803e3d6000fd5b505050505b50505050505050565b7f629a4c26e296b22a8e0856e9f6ecb2d1008d7e00081111962cd175fa7488e175546000906001600160a01b031680610c08573391505090565b919050565b613a3160f11b867fffff0000000000000000000000000000000000000000000000000000000000001614801590610c6b5750611bdd60f21b867fffff0000000000000000000000000000000000000000000000000000000000001614155b15610cd557613a3160f11b8687604051602001610c8a91815260200190565b60408051601f19818403018152908290527f31b46683000000000000000000000000000000000000000000000000000000008252610ccc939291600401612600565b60405180910390fd5b610cde856110c9565b610ce9846001611310565b610cf4836000611310565b60e084901c60e885901c0160ff16825114610d545760e084901c60e885901c0160ff1682516040517f0f72cb9800000000000000000000000000000000000000000000000000000000815260048101929092526024820152604401610ccc565b60e085901c60e886901c0160ff16815114610db45760e085901c60e886901c0160ff1681516040517f7dec4c0000000000000000000000000000000000000000000000000000000000815260048101929092526024820152604401610ccc565b60e085901c60e886901c0160ff1660e084901c60e885901c0160ff1614610e2c5760e085901c60e886901c0160ff1660e084901c60e885901c0160ff166040517ff29d4d8800000000000000000000000000000000000000000000000000000000815260048101929092526024820152604401610ccc565b610e35856114ac565b610e3e846114ac565b14610e9057610e4c856114ac565b610e55846114ac565b6040517f65cc0adf00000000000000000000000000000000000000000000000000000000815260048101929092526024820152604401610ccc565b610e99856114de565b610ea2846114de565b14610ef457610eb0856114de565b610eb9846114de565b6040517fedea958700000000000000000000000000000000000000000000000000000000815260048101929092526024820152604401610ccc565b60005b610f00866114ac565b811015610f9b57610f2a610f1485836114fb565b60c5811115610f2557610f25612641565b611523565b6008601b8390030287901c60ff1614610f93576008601b8290030286901c60ff16610f58610f1486846114fb565b6040517f254c7db400000000000000000000000000000000000000000000000000000000815260048101929092526024820152604401610ccc565b600101610ef7565b506000610fdd613a3160f11b610fb18960101b90565b60101c7fffff000000000000000000000000000000000000000000000000000000000000919091161790565b90506000610ff4611bdd60f21b610fb18a60101b90565b9050610fff82611583565b8061100e575061100e81611583565b1561106857878860405160200161102791815260200190565b60408051601f19818403018152908290527fdfaaf9cf000000000000000000000000000000000000000000000000000000008252610ccc9291600401612657565b6110b488888888886040516020016110809190612670565b604051602081830303815290604052886040516020016110a09190612670565b604051602081830303815290604052611628565b6110bf88600161170b565b5050505050505050565b80611100576040517fa019e4da00000000000000000000000000000000000000000000000000000000815260040160405180910390fd5b600061110b826114de565b90506005811115611152576040517f6793df620000000000000000000000000000000000000000000000000000000081526004810182905260056024820152604401610ccc565b600061115d836114ac565b9050600061116b8383612699565b9050601c8111156111b2576040517fecd893b900000000000000000000000000000000000000000000000000000000815260048101829052601c6024820152604401610ccc565b6000805b8381101561125d5760ff601b82900360080287901c16600081900361120a576040517f53b2dd0500000000000000000000000000000000000000000000000000000000815260048101839052602401610ccc565b6020811115611248576040517f7237f23700000000000000000000000000000000000000000000000000000000815260048101839052602401610ccc565b6112528184612699565b9250506001016111b6565b50611267856117c9565b81146112b357611276856117c9565b6040517feba964de000000000000000000000000000000000000000000000000000000008152600481019190915260248101829052604401610ccc565b825b601c8110156105355760ff601b82900360080287901c168015611307576040517f1d8d44db00000000000000000000000000000000000000000000000000000000815260048101839052602401610ccc565b506001016112b5565b8015801561131c575081155b1561133d5760405163d498615960e01b815260006004820152602401610ccc565b6000611348836114de565b9050600581111561136f5760405163d498615960e01b815260048101829052602401610ccc565b600061137a846114ac565b905060006113888383612699565b9050601c8111156113af5760405163d498615960e01b815260048101829052602401610ccc565b6000805b8381101561141b5760006113ca610f1489846114fb565b905080600003611406576040517ff44b422000000000000000000000000000000000000000000000000000000000815260040160405180910390fd5b6114108184612699565b9250506001016113b3565b50611425866117c9565b811461145057611434866117c9565b60405163d498615960e01b8152600401610ccc91815260200190565b825b82811015610bc5576000611469610f1489846114fb565b905080156114a3576040517ff44b422000000000000000000000000000000000000000000000000000000000815260040160405180910390fd5b50600101611452565b6000600860016114be600260206126ac565b6114c891906126ac565b6114d291906126bf565b8260ff911c1692915050565b600060086001806114f1600260206126ac565b6114be91906126ac565b6000601b8290036008028360ff911c1660c581111561151c5761151c612641565b9392505050565b6000808260c581111561153857611538612641565b60ff169050606181101561155257601f1660010192915050565b60618360c581111561156657611566612641565b036115745750601492915050565b50600092915050565b50919050565b6040805160018082528183019092526000918291906020808301908036833701905050905082816000815181106115bc576115bc61251a565b602090810291909101015260006116147f746273746f72650000000000000000005265736f75726365496473000000000083837e010100010000000000000000000000000000000000000000000000000000006117ec565b90506116208160f81c90565b949350505050565b60408051602081018790528082018690526060808201869052825180830390910181526080909101909152600061165f8484611822565b9050600061166d858561183f565b604080516001808252818301909252919250600091906020808301908036833701905050905089816000815181106116a7576116a761251a565b60209081029190910101526116ff7f746273746f72650000000000000000005461626c657300000000000000000000828686867e6003022020200000000000000000000000000000000000000000000000000061186b565b50505050505050505050565b6040805160018082528183019092526000916020808301908036833701905050905082816000815181106117415761174161251a565b6020026020010181815250506117c47f746273746f72650000000000000000005265736f75726365496473000000000060001b8260008560405160200161178f91151560f81b815260010190565b60408051601f198184030181529190527e01010001000000000000000000000000000000000000000000000000000000611b89565b505050565b600060086117d9600260206126ac565b6117e391906126bf565b9190911c919050565b60006118196117fb8686611ba5565b60ff858116601b0360080285901c166118148587611bfb565b611c34565b95945050505050565b8151815160009181810160389190911b1760609190911b1761151c565b606082826040516020016118549291906126d6565b604051602081830303815290604052905092915050565b611bdd60f21b867fffff00000000000000000000000000000000000000000000000000000000000016036118dc57857f8dbb3a9672eebfd3773e72dd9c102393436816d832c7ba9e1e1ac8fcadcac7a9868686866040516118cf9493929190612741565b60405180910390a2610535565b60006118e787611c85565b905060005b81518110156119c05760008282815181106119095761190961251a565b602002602001015190506119356001826affffffffffffffffffffff1916611d0e90919063ffffffff16565b156119b7576040517f57066c9c000000000000000000000000000000000000000000000000000000008152606082901c906357066c9c90611984908c908c908c908c908c908c9060040161278b565b600060405180830381600087803b15801561199e57600080fd5b505af11580156119b2573d6000803e3d6000fd5b505050505b506001016118ec565b50867f8dbb3a9672eebfd3773e72dd9c102393436816d832c7ba9e1e1ac8fcadcac7a9878787876040516119f79493929190612741565b60405180910390a26000611a0b8888611ba5565b90506000602087019050611a23826000895184611d2c565b6000611a2e856114de565b1115611ab2576000611a408a8a611deb565b878155905060208601915060008060005b611a5a886114de565b8160ff161015611aad57611a6f8d8d83611e41565b9250611a8a8a8260ff166028026038011c64ffffffffff1690565b9150611a998360008488611d2c565b611aa38286612699565b9450600101611a51565b505050505b60005b83518110156116ff576000848281518110611ad257611ad261251a565b60200260200101519050611afe6002826affffffffffffffffffffff1916611d0e90919063ffffffff16565b15611b80576040517f5b28cdaf000000000000000000000000000000000000000000000000000000008152606082901c90635b28cdaf90611b4d908e908e908e908e908e908e9060040161278b565b600060405180830381600087803b158015611b6757600080fd5b505af1158015611b7b573d6000803e3d6000fd5b505050505b50600101611ab5565b611b9e8585611b988487611bfb565b85611ec1565b5050505050565b60008282604051602001611bba9291906127e4565b60408051601f1981840301815291905280516020909101207f86425bff6b57326c7859e89024fe4f238ca327a1ae4a230180dd2f0e88aaa7d9189392505050565b600080805b8360ff16811015611c2c57611c2260ff601b83900360080287901c1683612699565b9150600101611c00565b509392505050565b600060208210611c5a57602082048401935060208281611c5657611c56612820565b0691505b508254600882021b602082900380841115611c2c576001850154600882021c82179150509392505050565b60408051600180825281830190925260609160009190602080830190803683370190505090508281600081518110611cbf57611cbf61251a565b60209081029190910101526000611cf77f746273746f726500000000000000000053746f7265486f6f6b730000000000008383612141565b9050611620611d09826000845161217b565b612209565b60008160ff1682611d1f8560581c90565b1660ff1614905092915050565b8215611da65760208310611d5657602083048401935060208381611d5257611d52612820565b0692505b8215611da65760208390036000600019600885021c1990506008850281811c91508351811c9050811987541682821617875550818411611d9757505061095f565b50600194909401939182900391015b5b60208210611dc85780518455600190930192601f1990910190602001611da7565b811561095f576000600019600884021c8554835182191691161785555050505050565b60008282604051602001611e009291906127e4565b60408051601f1981840301815291905280516020909101207f14e2fcc58e58e68ec7edc30c8d50dccc3ce2714a623ec81f46b6a63922d76569189392505050565b60008383604051602001611e569291906127e4565b604051602081830303815290604052805190602001208260f81b7effffffffffffffffffffffffffffffffffffffffffffffffffffffffffffff19167f3b4102da22e32d82fc925482184f16c09fd4281692720b87d124aef6da48a0f1181860001c90509392505050565b611bdd60f21b847fffff0000000000000000000000000000000000000000000000000000000000001603611f3057837f8c0b5119d4cec7b284c6b1b39252a03d1e2f2d7451a5895562524c113bb952be848484604051611f2393929190612836565b60405180910390a261095f565b6000611f3c8585611ba5565b90506000611f4986611c85565b905060005b815181101561201e576000828281518110611f6b57611f6b61251a565b60200260200101519050611f976004826affffffffffffffffffffff1916611d0e90919063ffffffff16565b15612015576040517f964f667d000000000000000000000000000000000000000000000000000000008152606082901c9063964f667d90611fe2908b908b908b908b90600401612873565b600060405180830381600087803b158015611ffc57600080fd5b505af1158015612010573d6000803e3d6000fd5b505050505b50600101611f4e565b50857f8c0b5119d4cec7b284c6b1b39252a03d1e2f2d7451a5895562524c113bb952be86868660405161205393929190612836565b60405180910390a261206e828565ffffffffffff168561221a565b60005b8151811015610bc557600082828151811061208e5761208e61251a565b602002602001015190506120ba6008826affffffffffffffffffffff1916611d0e90919063ffffffff16565b15612138576040517fa8ba8721000000000000000000000000000000000000000000000000000000008152606082901c9063a8ba872190612105908b908b908b908b90600401612873565b600060405180830381600087803b15801561211f57600080fd5b505af1158015612133573d6000803e3d6000fd5b505050505b50600101612071565b6060611620612151858585611e41565b6000612176856121618989612230565b9060ff166028026038011c64ffffffffff1690565b612243565b60008183118061218b5750835182115b156121c8578383836040517f23230fa3000000000000000000000000000000000000000000000000000000008152600401610ccc939291906128ac565b602084016121d68482612699565b905060006121e485856126ac565b6fffffffffffffffffffffffffffffffff1660809290921b9190911795945050505050565b6060600061151c8360156000612266565b6117c48383835161222b8560200190565b611d2c565b600061151c61223f8484611deb565b5490565b60405160208101601f19603f8484010116604052828252611c2c858585846122e1565b606060006122748560801c90565b90506fffffffffffffffffffffffffffffffff8516600085828161229a5761229a612820565b04905060405193506020840160208202810160405281855260005b828110156122d5578451871c8252938701936020909101906001016122b5565b50505050509392505050565b8215612368576020831061230b5760208304840193506020838161230757612307612820565b0692505b821561236857602083900360008184101561232e5750600019600884021c612338565b50600019600882021c5b8554600886021b81845116821982161784525081841161235957505061095f565b50600194909401939182900391015b5b6020821061238a5783548152600190930192601f1990910190602001612369565b811561095f576000600019600884021c8251865482191691161782525050505050565b6000602082840312156123bf57600080fd5b81357fffffffff000000000000000000000000000000000000000000000000000000008116811461151c57600080fd5b634e487b7160e01b600052604160045260246000fd5b60006020828403121561241757600080fd5b813567ffffffffffffffff8082111561242f57600080fd5b818401915084601f83011261244357600080fd5b813581811115612455576124556123ef565b604051601f8201601f19908116603f0116810190838211818310171561247d5761247d6123ef565b8160405282815287602084870101111561249657600080fd5b826020860160208301376000928101602001929092525095945050505050565b8051602080830151919081101561157d5760001960209190910360031b1b16919050565b60005b838110156124f55781810151838201526020016124dd565b50506000910152565b600082516125108184602087016124da565b9190910192915050565b634e487b7160e01b600052603260045260246000fd5b600081518084526125488160208601602086016124da565b601f01601f19169290920160200192915050565b60008282518085526020808601955060208260051b8401016020860160005b848110156125a957601f19868403018952612597838351612530565b9884019892509083019060010161257b565b5090979650505050505050565b86815285602082015284604082015283606082015260c0608082015260006125e160c083018561255c565b82810360a08401526125f3818561255c565b9998505050505050505050565b7fffff000000000000000000000000000000000000000000000000000000000000841681528260208201526060604082015260006118196060830184612530565b634e487b7160e01b600052602160045260246000fd5b8281526040602082015260006116206040830184612530565b60208152600061151c602083018461255c565b634e487b7160e01b600052601160045260246000fd5b808201808211156101e1576101e1612683565b818103818111156101e1576101e1612683565b80820281158282048414176101e1576101e1612683565b600083516126e88184602088016124da565b8351908301906126fc8183602088016124da565b01949350505050565b60008151808452602080850194506020840160005b838110156127365781518752958201959082019060010161271a565b509495945050505050565b6080815260006127546080830187612705565b82810360208401526127668187612530565b905084604084015282810360608401526127808185612530565b979650505050505050565b86815260c0602082015260006127a460c0830188612705565b82810360408401526127b68188612530565b905085606084015282810360808401526127d08186612530565b9150508260a0830152979650505050505050565b8281526000602080830184516020860160005b82811015612813578151845292840192908401906001016127f7565b5091979650505050505050565b634e487b7160e01b600052601260045260246000fd5b6060815260006128496060830186612705565b65ffffffffffff8516602084015282810360408401526128698185612530565b9695505050505050565b84815260806020820152600061288c6080830186612705565b65ffffffffffff8516604084015282810360608401526127808185612530565b6060815260006128bf6060830186612530565b6020830194909452506040015291905056fea26469706673582212204f792844e908ac4210543a253386f743d7e99dcb7bfa6d449309aeebe0ea49a964736f6c63430008180033608060405234801561001057600080fd5b50610885806100206000396000f3fe608060405234801561001057600080fd5b50600436106100675760003560e01c80631a86b550116100505780631a86b550146100c157806345ec9354146100d4578063e1af802c146100e757600080fd5b806301ffc9a71461006c578063119df25f14610094575b600080fd5b61007f61007a3660046105c6565b6100ef565b60405190151581526020015b60405180910390f35b61009c6101d4565b60405173ffffffffffffffffffffffffffffffffffffffff909116815260200161008b565b61007f6100cf366004610625565b6101e3565b604051601f19360135815260200161008b565b61009c6102c2565b60007fffffffff0000000000000000000000000000000000000000000000000000000082167f1a86b55000000000000000000000000000000000000000000000000000000000148061018257507fffffffff0000000000000000000000000000000000000000000000000000000082167fb5dee12700000000000000000000000000000000000000000000000000000000145b806101ce57507fffffffff0000000000000000000000000000000000000000000000000000000082167f01ffc9a700000000000000000000000000000000000000000000000000000000145b92915050565b60006101de6102cc565b905090565b6000806101ee6101d4565b604080517f746200000000000000000000000000000000000000000000000000000000000060208201527f707570706574000000000000000000000000000000000000000000000000000060228201527f5075707065745265676973747279000000000000000000000000000000000000603082015291925073ffffffffffffffffffffffffffffffffffffffff8316916102a2910160405160208183030381529060405261029c9061070b565b866102fe565b73ffffffffffffffffffffffffffffffffffffffff161495945050505050565b60006101de61037b565b7fffffffffffffffffffffffffffffffffffffffffffffffffffffffffffffffcc36013560601c806102fb5750335b90565b60408051600180825281830190925260009182919060208083019080368337019050509050828160008151811061033757610337610750565b6020908102919091010152600061036f8583837e14010014000000000000000000000000000000000000000000000000000000610385565b60601c95945050505050565b60006101de610464565b600080610390610464565b90503073ffffffffffffffffffffffffffffffffffffffff8216036103c3576103bb868686866104b0565b91505061045c565b6040517f8c364d5900000000000000000000000000000000000000000000000000000000815273ffffffffffffffffffffffffffffffffffffffff821690638c364d599061041b908990899089908990600401610766565b602060405180830381865afa158015610438573d6000803e3d6000fd5b505050506040513d601f19601f820116820180604052508101906103bb91906107c3565b949350505050565b7f629a4c26e296b22a8e0856e9f6ecb2d1008d7e00081111962cd175fa7488e1755460009073ffffffffffffffffffffffffffffffffffffffff16806104ab573391505090565b919050565b60006104dd6104bf86866104e6565b60ff858116601b0360080285901c166104d8858761053c565b610575565b95945050505050565b600082826040516020016104fb9291906107dc565b60408051601f1981840301815291905280516020909101207f86425bff6b57326c7859e89024fe4f238ca327a1ae4a230180dd2f0e88aaa7d9189392505050565b600080805b8360ff1681101561056d5761056360ff601b83900360080287901c1683610818565b9150600101610541565b509392505050565b60006020821061059b5760208204840193506020828161059757610597610839565b0691505b508254600882021b60208290038084111561056d576001850154600882021c82179150509392505050565b6000602082840312156105d857600080fd5b81357fffffffff000000000000000000000000000000000000000000000000000000008116811461060857600080fd5b9392505050565b634e487b7160e01b600052604160045260246000fd5b60008060006060848603121561063a57600080fd5b833573ffffffffffffffffffffffffffffffffffffffff8116811461065e57600080fd5b925060208401359150604084013567ffffffffffffffff8082111561068257600080fd5b818601915086601f83011261069657600080fd5b8135818111156106a8576106a861060f565b604051601f8201601f19908116603f011681019083821181831017156106d0576106d061060f565b816040528281528960208487010111156106e957600080fd5b8260208601602083013760006020848301015280955050505050509250925092565b8051602080830151919081101561074a577fffffffffffffffffffffffffffffffffffffffffffffffffffffffffffffffff8160200360031b1b821691505b50919050565b634e487b7160e01b600052603260045260246000fd5b60006080820186835260206080602085015281875180845260a08601915060208901935060005b818110156107a95784518352938301939183019160010161078d565b505060ff9690961660408501525050506060015292915050565b6000602082840312156107d557600080fd5b5051919050565b8281526000602080830184516020860160005b8281101561080b578151845292840192908401906001016107ef565b5091979650505050505050565b808201808211156101ce57634e487b7160e01b600052601160045260246000fd5b634e487b7160e01b600052601260045260246000fdfea2646970667358221220927e1fcbb740e7e770ef78c07c8270d7d29a297992706a409ae60022212afd7a64736f6c63430008180033608060405234801561001057600080fd5b50612586806100206000396000f3fe608060405234801561001057600080fd5b50600436106100675760003560e01c806345ec93541161005057806345ec9354146100c1578063b9eb8bfb146100d4578063e1af802c146100e757600080fd5b806301ffc9a71461006c578063119df25f14610094575b600080fd5b61007f61007a36600461118f565b6100ef565b60405190151581526020015b60405180910390f35b61009c610188565b60405173ffffffffffffffffffffffffffffffffffffffff909116815260200161008b565b604051601f19360135815260200161008b565b61009c6100e23660046111d1565b610197565b61009c6102a0565b60007fffffffff0000000000000000000000000000000000000000000000000000000082167fb5dee12700000000000000000000000000000000000000000000000000000000148061018257507fffffffff0000000000000000000000000000000000000000000000000000000082167f01ffc9a700000000000000000000000000000000000000000000000000000000145b92915050565b60006101926102aa565b905090565b60006101aa826101a5610188565b6102dc565b6101b26102a0565b826040516101bf90611182565b73ffffffffffffffffffffffffffffffffffffffff90921682526020820152604001604051809103906000f0801580156101fd573d6000803e3d6000fd5b50604080517f746200000000000000000000000000000000000000000000000000000000000060208201527f707570706574000000000000000000000000000000000000000000000000000060228201527f5075707065745265676973747279000000000000000000000000000000000000603082015291925061029b9101604051602081830303815290604052610294906111ea565b83836103a4565b919050565b6000610192610464565b7fffffffffffffffffffffffffffffffffffffffffffffffffffffffffffffffcc36013560601c806102d95750335b90565b73ffffffffffffffffffffffffffffffffffffffff811661033e7f6e730000000000000000000000000000000000000000000000000000000000007dffffffffffffffffffffffffffff0000000000000000000000000000000085161761046e565b73ffffffffffffffffffffffffffffffffffffffff16146103a0576103628261050a565b816040517fd787b737000000000000000000000000000000000000000000000000000000008152600401610397929190611261565b60405180910390fd5b5050565b6040805160018082528183019092526000916020808301908036833701905050905082816000815181106103da576103da611299565b60200260200101818152505061045e8482600085604051602001610429919060609190911b7fffffffffffffffffffffffffffffffffffffffff00000000000000000000000016815260140190565b60408051601f198184030181529190527e14010014000000000000000000000000000000000000000000000000000000610647565b50505050565b6000610192610717565b6040805160018082528183019092526000918291906020808301908036833701905050905082816000815181106104a7576104a7611299565b602090810291909101015260006104ff7f7462776f726c640000000000000000004e616d6573706163654f776e6572000083837e1401001400000000000000000000000000000000000000000000000000000061075e565b60601c949350505050565b606081601081901b600061051d8361083d565b9050827fffffffffffffffffffffffffffff000000000000000000000000000000000000831615610578576105737fffffffffffffffffffffffffffff0000000000000000000000000000000000008416610854565b6105af565b6040518060400160405280600681526020017f3c726f6f743e00000000000000000000000000000000000000000000000000008152505b7fffffffffffffffffffffffffffffffff000000000000000000000000000000008316156105e5576105e083610854565b61061c565b6040518060400160405280600681526020017f3c726f6f743e00000000000000000000000000000000000000000000000000008152505b60405160200161062e939291906112c8565b6040516020818303038152906040529350505050919050565b6000610651610717565b90503073ffffffffffffffffffffffffffffffffffffffff8216036106825761067d86868686866108f8565b61070f565b6040517f390baae000000000000000000000000000000000000000000000000000000000815273ffffffffffffffffffffffffffffffffffffffff82169063390baae0906106dc9089908990899089908990600401611392565b600060405180830381600087803b1580156106f657600080fd5b505af115801561070a573d6000803e3d6000fd5b505050505b505050505050565b7f629a4c26e296b22a8e0856e9f6ecb2d1008d7e00081111962cd175fa7488e1755460009073ffffffffffffffffffffffffffffffffffffffff168061029b573391505090565b600080610769610717565b90503073ffffffffffffffffffffffffffffffffffffffff82160361079c5761079486868686610914565b915050610835565b6040517f8c364d5900000000000000000000000000000000000000000000000000000000815273ffffffffffffffffffffffffffffffffffffffff821690638c364d59906107f49089908990899089906004016113d9565b602060405180830381865afa158015610811573d6000803e3d6000fd5b505050506040513d601f19601f820116820180604052508101906107949190611408565b949350505050565b600061084b60706010611450565b9190911b919050565b606060005b60108110156108b9577fffffffffffffffffffffffffffffffff000000000000000000000000000000008316600882021b7fff0000000000000000000000000000000000000000000000000000000000000016156108b957600101610859565b604080517fffffffffffffffffffffffffffffffff00000000000000000000000000000000851660208201528151603090910190915281815280610835565b61090d8585610907848761094a565b85610983565b5050505050565b60006109416109238686610c27565b60ff858116601b0360080285901c1661093c858761094a565b610c7d565b95945050505050565b600080805b8360ff1681101561097b5761097160ff601b83900360080287901c1683611450565b915060010161094f565b509392505050565b7f6f74000000000000000000000000000000000000000000000000000000000000847fffff0000000000000000000000000000000000000000000000000000000000001603610a0d57837f8c0b5119d4cec7b284c6b1b39252a03d1e2f2d7451a5895562524c113bb952be848484604051610a0093929190611463565b60405180910390a261045e565b6000610a198585610c27565b90506000610a2686610cce565b905060005b8151811015610afb576000828281518110610a4857610a48611299565b60200260200101519050610a746004826affffffffffffffffffffff1916610d5790919063ffffffff16565b15610af2576040517f964f667d000000000000000000000000000000000000000000000000000000008152606082901c9063964f667d90610abf908b908b908b908b906004016114a0565b600060405180830381600087803b158015610ad957600080fd5b505af1158015610aed573d6000803e3d6000fd5b505050505b50600101610a2b565b50857f8c0b5119d4cec7b284c6b1b39252a03d1e2f2d7451a5895562524c113bb952be868686604051610b3093929190611463565b60405180910390a2610b4b828565ffffffffffff1685610d75565b60005b8151811015610c1e576000828281518110610b6b57610b6b611299565b60200260200101519050610b976008826affffffffffffffffffffff1916610d5790919063ffffffff16565b15610c15576040517fa8ba8721000000000000000000000000000000000000000000000000000000008152606082901c9063a8ba872190610be2908b908b908b908b906004016114a0565b600060405180830381600087803b158015610bfc57600080fd5b505af1158015610c10573d6000803e3d6000fd5b505050505b50600101610b4e565b50505050505050565b60008282604051602001610c3c9291906114e4565b60408051601f1981840301815291905280516020909101207f86425bff6b57326c7859e89024fe4f238ca327a1ae4a230180dd2f0e88aaa7d9189392505050565b600060208210610ca357602082048401935060208281610c9f57610c9f611520565b0691505b508254600882021b60208290038084111561097b576001850154600882021c82179150509392505050565b60408051600180825281830190925260609160009190602080830190803683370190505090508281600081518110610d0857610d08611299565b60209081029190910101526000610d407f746273746f726500000000000000000053746f7265486f6f6b730000000000008383610d90565b9050610835610d528260008451610dca565b610e58565b60008160ff1682610d688560581c90565b1660ff1614905092915050565b610d8b83838351610d868560200190565b610e70565b505050565b6060610835610da0858585610f2f565b6000610dc585610db08989610faf565b9060ff166028026038011c64ffffffffff1690565b610fc2565b600081831180610dda5750835182115b15610e17578383836040517f23230fa30000000000000000000000000000000000000000000000000000000081526004016103979392919061154f565b60208401610e258482611450565b90506000610e338585611574565b6fffffffffffffffffffffffffffffffff1660809290921b9190911795945050505050565b60606000610e698360156000610fe5565b9392505050565b8215610eea5760208310610e9a57602083048401935060208381610e9657610e96611520565b0692505b8215610eea5760208390036000600019600885021c1990506008850281811c91508351811c9050811987541682821617875550818411610edb57505061045e565b50600194909401939182900391015b5b60208210610f0c5780518455600190930192601f1990910190602001610eeb565b811561045e576000600019600884021c8554835182191691161785555050505050565b60008383604051602001610f449291906114e4565b604051602081830303815290604052805190602001208260f81b7effffffffffffffffffffffffffffffffffffffffffffffffffffffffffffff19167f3b4102da22e32d82fc925482184f16c09fd4281692720b87d124aef6da48a0f1181860001c90509392505050565b6000610e69610fbe8484611060565b5490565b60405160208101601f19603f848401011660405282825261097b858585846110b6565b60606000610ff38560801c90565b90506fffffffffffffffffffffffffffffffff8516600085828161101957611019611520565b04905060405193506020840160208202810160405281855260005b82811015611054578451871c825293870193602090910190600101611034565b50505050509392505050565b600082826040516020016110759291906114e4565b60408051601f1981840301815291905280516020909101207f14e2fcc58e58e68ec7edc30c8d50dccc3ce2714a623ec81f46b6a63922d76569189392505050565b821561113d57602083106110e0576020830484019350602083816110dc576110dc611520565b0692505b821561113d5760208390036000818410156111035750600019600884021c61110d565b50600019600882021c5b8554600886021b81845116821982161784525081841161112e57505061045e565b50600194909401939182900391015b5b6020821061115f5783548152600190930192601f199091019060200161113e565b811561045e576000600019600884021c8251865482191691161782525050505050565b610fc98061158883390190565b6000602082840312156111a157600080fd5b81357fffffffff0000000000000000000000000000000000000000000000000000000081168114610e6957600080fd5b6000602082840312156111e357600080fd5b5035919050565b8051602080830151919081101561120b576000198160200360031b1b821691505b50919050565b60005b8381101561122c578181015183820152602001611214565b50506000910152565b6000815180845261124d816020860160208601611211565b601f01601f19169290920160200192915050565b6040815260006112746040830185611235565b905073ffffffffffffffffffffffffffffffffffffffff831660208301529392505050565b7f4e487b7100000000000000000000000000000000000000000000000000000000600052603260045260246000fd5b7fffff0000000000000000000000000000000000000000000000000000000000008416815260007f3a000000000000000000000000000000000000000000000000000000000000008060028401528451611329816003860160208901611211565b808401905081600382015284519150611349826004830160208801611211565b0160040195945050505050565b60008151808452602080850194506020840160005b838110156113875781518752958201959082019060010161136b565b509495945050505050565b85815260a0602082015260006113ab60a0830187611356565b60ff8616604084015282810360608401526113c68186611235565b9150508260808301529695505050505050565b8481526080602082015260006113f26080830186611356565b60ff949094166040830152506060015292915050565b60006020828403121561141a57600080fd5b5051919050565b7f4e487b7100000000000000000000000000000000000000000000000000000000600052601160045260246000fd5b8082018082111561018257610182611421565b6060815260006114766060830186611356565b65ffffffffffff8516602084015282810360408401526114968185611235565b9695505050505050565b8481526080602082015260006114b96080830186611356565b65ffffffffffff8516604084015282810360608401526114d98185611235565b979650505050505050565b8281526000602080830184516020860160005b82811015611513578151845292840192908401906001016114f7565b5091979650505050505050565b7f4e487b7100000000000000000000000000000000000000000000000000000000600052601260045260246000fd5b6060815260006115626060830186611235565b60208301949094525060400152919050565b818103818111156101825761018261142156fe60c060405234801561001057600080fd5b50604051610fc9380380610fc983398101604081905261002f9161007c565b6001600160a01b038216608081905260a08290527f629a4c26e296b22a8e0856e9f6ecb2d1008d7e00081111962cd175fa7488e17580546001600160a01b031916909117905550506100b6565b6000806040838503121561008f57600080fd5b82516001600160a01b03811681146100a657600080fd5b6020939093015192949293505050565b60805160a051610ec66101036000396000818160e1015281816101b401528181610239015281816102b70152818161032e01526103a101526000818160b201526101630152610ec66000f3fe608060405234801561001057600080fd5b50600436106100725760003560e01c8063c9a34acd11610050578063c9a34acd146101f9578063d72a26651461020c578063e2ed58bd1461021f57610072565b806330b67baa1461015e57806339f898bc146101af57806366c93bdb146101e4575b6040517f894ecc5800000000000000000000000000000000000000000000000000000000815260009073ffffffffffffffffffffffffffffffffffffffff7f0000000000000000000000000000000000000000000000000000000000000000169063894ecc589061010d9033907f000000000000000000000000000000000000000000000000000000000000000090869036906004016109e7565b6000604051808303816000875af115801561012c573d6000803e3d6000fd5b505050506040513d6000823e601f3d908101601f191682016040526101549190810190610b17565b9050805160208201f35b6101857f000000000000000000000000000000000000000000000000000000000000000081565b60405173ffffffffffffffffffffffffffffffffffffffff90911681526020015b60405180910390f35b6101d67f000000000000000000000000000000000000000000000000000000000000000081565b6040519081526020016101a6565b6101f76101f2366004610ba5565b610232565b005b6101f7610207366004610c09565b6102b0565b6101f761021a366004610c63565b610327565b6101f761022d366004610caa565b61039a565b600061025d7f000000000000000000000000000000000000000000000000000000000000000061040f565b5090503373ffffffffffffffffffffffffffffffffffffffff82161461029d576040516398d49b0360e01b81523360048201526024015b60405180910390fd5b82848688855160208701a4505050505050565b60006102db7f000000000000000000000000000000000000000000000000000000000000000061040f565b5090503373ffffffffffffffffffffffffffffffffffffffff821614610316576040516398d49b0360e01b8152336004820152602401610294565b828486845160208601a35050505050565b60006103527f000000000000000000000000000000000000000000000000000000000000000061040f565b5090503373ffffffffffffffffffffffffffffffffffffffff82161461038d576040516398d49b0360e01b8152336004820152602401610294565b82825160208401a1505050565b60006103c57f000000000000000000000000000000000000000000000000000000000000000061040f565b5090503373ffffffffffffffffffffffffffffffffffffffff821614610400576040516398d49b0360e01b8152336004820152602401610294565b8284835160208501a250505050565b6040805160018082528183019092526000918291829160208083019080368337019050509050838160008151811061044957610449610cfa565b6020908102919091010152600080806104a27f7462776f726c6400000000000000000053797374656d73000000000000000000857e150200140100000000000000000000000000000000000000000000000000006104c7565b5050602081015160349091015160609190911c9860f89190911c975095505050505050565b60606000606060006104d76105b1565b90503073ffffffffffffffffffffffffffffffffffffffff82160361050d576105018787876105fd565b935093509350506105a8565b6040517f419b58fd00000000000000000000000000000000000000000000000000000000815273ffffffffffffffffffffffffffffffffffffffff82169063419b58fd90610563908a908a908a90600401610d10565b600060405180830381865afa158015610580573d6000803e3d6000fd5b505050506040513d6000823e601f3d908101601f191682016040526105019190810190610d69565b93509350939050565b7f629a4c26e296b22a8e0856e9f6ecb2d1008d7e00081111962cd175fa7488e1755460009073ffffffffffffffffffffffffffffffffffffffff16806105f8573391505090565b919050565b606060006060600061060e85610705565b905061061b878783610728565b935060006106288661076c565b905080156106fa5761063a88886107a9565b935066ffffffffffffff841667ffffffffffffffff81111561065e5761065e610a3a565b6040519080825280601f01601f191660200182016040528015610688576020820181803683370190505b5092506020830160005b828160ff1610156106f75760006106aa8b8b846107c5565b905060006106c7888460ff166028026038011c64ffffffffff1690565b90506106d68260008387610845565b6106e08185610de2565b9350505080806106ef90610df5565b915050610692565b50505b505093509350939050565b6000600861071560026020610e14565b61071f9190610e27565b9190911c919050565b6060816000036107475750604080516020810190915260008152610765565b60006107538585610910565b905061076181600085610966565b9150505b9392505050565b6000600860018061077f60026020610e14565b6107899190610e14565b6107939190610e14565b61079d9190610e27565b8260ff911c1692915050565b60006107bc6107b88484610991565b5490565b90505b92915050565b600083836040516020016107da929190610e3e565b604051602081830303815290604052805190602001208260f81b7effffffffffffffffffffffffffffffffffffffffffffffffffffffffffffff19167f3b4102da22e32d82fc925482184f16c09fd4281692720b87d124aef6da48a0f1181860001c90509392505050565b82156108cc576020831061086f5760208304840193506020838161086b5761086b610e7a565b0692505b82156108cc5760208390036000818410156108925750600019600884021c61089c565b50600019600882021c5b8554600886021b8184511682198216178452508184116108bd57505061090a565b50600194909401939182900391015b5b602082106108ee5783548152600190930192601f19909101906020016108cd565b811561090a5780518454600019600885021c9182169119161781525b50505050565b60008282604051602001610925929190610e3e565b60408051601f1981840301815291905280516020909101207f86425bff6b57326c7859e89024fe4f238ca327a1ae4a230180dd2f0e88aaa7d9189392505050565b60405160208101601f19603f848401011660405282825261098985858584610845565b509392505050565b600082826040516020016109a6929190610e3e565b60408051601f1981840301815291905280516020909101207f14e2fcc58e58e68ec7edc30c8d50dccc3ce2714a623ec81f46b6a63922d76569189392505050565b73ffffffffffffffffffffffffffffffffffffffff8516815283602082015260606040820152816060820152818360808301376000818301608090810191909152601f909201601f191601019392505050565b634e487b7160e01b600052604160045260246000fd5b604051601f8201601f1916810167ffffffffffffffff81118282101715610a7957610a79610a3a565b604052919050565b600067ffffffffffffffff821115610a9b57610a9b610a3a565b50601f01601f191660200190565b600082601f830112610aba57600080fd5b8151610acd610ac882610a81565b610a50565b8181526020856020848701011115610ae457600080fd5b60005b83811015610b02578581018201518382018301528101610ae7565b50506000918101602001919091529392505050565b600060208284031215610b2957600080fd5b815167ffffffffffffffff811115610b4057600080fd5b610b4c84828501610aa9565b949350505050565b600082601f830112610b6557600080fd5b8135610b73610ac882610a81565b818152846020838601011115610b8857600080fd5b816020850160208301376000918101602001919091529392505050565b600080600080600060a08688031215610bbd57600080fd5b85359450602086013593506040860135925060608601359150608086013567ffffffffffffffff811115610bf057600080fd5b610bfc88828901610b54565b9150509295509295909350565b60008060008060808587031215610c1f57600080fd5b843593506020850135925060408501359150606085013567ffffffffffffffff811115610c4b57600080fd5b610c5787828801610b54565b91505092959194509250565b60008060408385031215610c7657600080fd5b82359150602083013567ffffffffffffffff811115610c9457600080fd5b610ca085828601610b54565b9150509250929050565b600080600060608486031215610cbf57600080fd5b8335925060208401359150604084013567ffffffffffffffff811115610ce457600080fd5b610cf086828701610b54565b9150509250925092565b634e487b7160e01b600052603260045260246000fd5b60006060820185835260206060602085015281865180845260808601915060208801935060005b81811015610d5357845183529383019391830191600101610d37565b5050809350505050826040830152949350505050565b600080600060608486031215610d7e57600080fd5b835167ffffffffffffffff80821115610d9657600080fd5b610da287838801610aa9565b9450602086015193506040860151915080821115610dbf57600080fd5b50610cf086828701610aa9565b634e487b7160e01b600052601160045260246000fd5b808201808211156107bf576107bf610dcc565b600060ff821660ff8103610e0b57610e0b610dcc565b60010192915050565b818103818111156107bf576107bf610dcc565b80820281158282048414176107bf576107bf610dcc565b8281526000602080830184516020860160005b82811015610e6d57815184529284019290840190600101610e51565b5091979650505050505050565b634e487b7160e01b600052601260045260246000fdfea2646970667358221220669ab900057fac2a98cc4304debf8a620277fd03e7ddbf4cfd75b8f313ce214064736f6c63430008180033a2646970667358221220b483f639629ef1be88df162a5416f47a4dc1805a210c018b9c5fa8dee533a85664736f6c63430008180033","linkReferences":{}},"methodIdentifiers":{"_msgSender()":"119df25f","_msgValue()":"45ec9354","_world()":"e1af802c","install(bytes)":"13861fb5","installRoot(bytes)":"7c5b0335","supportsInterface(bytes4)":"01ffc9a7"},"id":85}