{"abi":[{"type":"function","name":"_msgSender","inputs":[],"outputs":[{"name":"sender","type":"address","internalType":"address"}],"stateMutability":"view"},{"type":"function","name":"_msgValue","inputs":[],"outputs":[{"name":"value","type":"uint256","internalType":"uint256"}],"stateMutability":"pure"},{"type":"function","name":"_world","inputs":[],"outputs":[{"name":"","type":"address","internalType":"address"}],"stateMutability":"view"},{"type":"function","name":"allowance","inputs":[{"name":"owner","type":"address","internalType":"address"},{"name":"spender","type":"address","internalType":"address"}],"outputs":[{"name":"","type":"uint256","internalType":"uint256"}],"stateMutability":"view"},{"type":"function","name":"approve","inputs":[{"name":"spender","type":"address","internalType":"address"},{"name":"value","type":"uint256","internalType":"uint256"}],"outputs":[{"name":"","type":"bool","internalType":"bool"}],"stateMutability":"nonpayable"},{"type":"function","name":"balanceOf","inputs":[{"name":"account","type":"address","internalType":"address"}],"outputs":[{"name":"","type":"uint256","internalType":"uint256"}],"stateMutability":"view"},{"type":"function","name":"burn","inputs":[{"name":"account","type":"address","internalType":"address"},{"name":"value","type":"uint256","internalType":"uint256"}],"outputs":[],"stateMutability":"nonpayable"},{"type":"function","name":"decimals","inputs":[],"outputs":[{"name":"","type":"uint8","internalType":"uint8"}],"stateMutability":"view"},{"type":"function","name":"mint","inputs":[{"name":"account","type":"address","internalType":"address"},{"name":"value","type":"uint256","internalType":"uint256"}],"outputs":[],"stateMutability":"nonpayable"},{"type":"function","name":"name","inputs":[],"outputs":[{"name":"","type":"string","internalType":"string"}],"stateMutability":"view"},{"type":"function","name":"supportsInterface","inputs":[{"name":"interfaceId","type":"bytes4","internalType":"bytes4"}],"outputs":[{"name":"","type":"bool","internalType":"bool"}],"stateMutability":"pure"},{"type":"function","name":"symbol","inputs":[],"outputs":[{"name":"","type":"string","internalType":"string"}],"stateMutability":"view"},{"type":"function","name":"totalSupply","inputs":[],"outputs":[{"name":"","type":"uint256","internalType":"uint256"}],"stateMutability":"view"},{"type":"function","name":"transfer","inputs":[{"name":"to","type":"address","internalType":"address"},{"name":"value","type":"uint256","internalType":"uint256"}],"outputs":[{"name":"","type":"bool","internalType":"bool"}],"stateMutability":"nonpayable"},{"type":"function","name":"transferFrom","inputs":[{"name":"from","type":"address","internalType":"address"},{"name":"to","type":"address","internalType":"address"},{"name":"value","type":"uint256","internalType":"uint256"}],"outputs":[{"name":"","type":"bool","internalType":"bool"}],"stateMutability":"nonpayable"},{"type":"event","name":"Approval","inputs":[{"name":"owner","type":"address","indexed":true,"internalType":"address"},{"name":"spender","type":"address","indexed":true,"internalType":"address"},{"name":"value","type":"uint256","indexed":false,"internalType":"uint256"}],"anonymous":false},{"type":"event","name":"Store_SpliceStaticData","inputs":[{"name":"tableId","type":"bytes32","indexed":true,"internalType":"ResourceId"},{"name":"keyTuple","type":"bytes32[]","indexed":false,"internalType":"bytes32[]"},{"name":"start","type":"uint48","indexed":false,"internalType":"uint48"},{"name":"data","type":"bytes","indexed":false,"internalType":"bytes"}],"anonymous":false},{"type":"event","name":"Transfer","inputs":[{"name":"from","type":"address","indexed":true,"internalType":"address"},{"name":"to","type":"address","indexed":true,"internalType":"address"},{"name":"value","type":"uint256","indexed":false,"internalType":"uint256"}],"anonymous":false},{"type":"error","name":"ERC20InsufficientAllowance","inputs":[{"name":"spender","type":"address","internalType":"address"},{"name":"allowance","type":"uint256","internalType":"uint256"},{"name":"needed","type":"uint256","internalType":"uint256"}]},{"type":"error","name":"ERC20InsufficientBalance","inputs":[{"name":"sender","type":"address","internalType":"address"},{"name":"balance","type":"uint256","internalType":"uint256"},{"name":"needed","type":"uint256","internalType":"uint256"}]},{"type":"error","name":"ERC20InvalidApprover","inputs":[{"name":"approver","type":"address","internalType":"address"}]},{"type":"error","name":"ERC20InvalidReceiver","inputs":[{"name":"receiver","type":"address","internalType":"address"}]},{"type":"error","name":"ERC20InvalidSender","inputs":[{"name":"sender","type":"address","internalType":"address"}]},{"type":"error","name":"ERC20InvalidSpender","inputs":[{"name":"spender","type":"address","internalType":"address"}]},{"type":"error","name":"PuppetMaster_NoPuppet","inputs":[{"name":"systemAddress","type":"address","internalType":"address"},{"name":"systemId","type":"bytes32","internalType":"ResourceId"}]},{"type":"error","name":"Slice_OutOfBounds","inputs":[{"name":"data","type":"bytes","internalType":"bytes"},{"name":"start","type":"uint256","internalType":"uint256"},{"name":"end","type":"uint256","internalType":"uint256"}]},{"type":"error","name":"World_AccessDenied","inputs":[{"name":"resource","type":"string","internalType":"string"},{"name":"caller","type":"address","internalType":"address"}]}],"bytecode":{"object":"0x608060405234801561001057600080fd5b506122ad806100206000396000f3fe608060405234801561001057600080fd5b50600436106100f55760003560e01c806340c10f19116100975780639dc29fac116100665780639dc29fac146101e8578063a9059cbb146101fb578063dd62ed3e1461020e578063e1af802c1461022157600080fd5b806340c10f19146101ad57806345ec9354146101c257806370a08231146101cd57806395d89b41146101e057600080fd5b8063119df25f116100d3578063119df25f1461014a57806318160ddd1461016a57806323b872dd14610180578063313ce5671461019357600080fd5b806301ffc9a7146100fa57806306fdde0314610122578063095ea7b314610137575b600080fd5b61010d610108366004611d13565b610229565b60405190151581526020015b60405180910390f35b61012a6102c2565b6040516101199190611da5565b61010d610145366004611dcf565b6102e1565b610152610303565b6040516001600160a01b039091168152602001610119565b61017261030d565b604051908152602001610119565b61010d61018e366004611df9565b610327565b61019b610357565b60405160ff9091168152602001610119565b6101c06101bb366004611dcf565b61036c565b005b36601f190135610172565b6101726101db366004611e35565b6103cc565b61012a6103e7565b6101c06101f6366004611dcf565b6103fc565b61010d610209366004611dcf565b610453565b61017261021c366004611e50565b61046b565b610152610487565b60007fffffffff0000000000000000000000000000000000000000000000000000000082167fb5dee1270000000000000000000000000000000000000000000000000000000014806102bc57507fffffffff0000000000000000000000000000000000000000000000000000000082167f01ffc9a700000000000000000000000000000000000000000000000000000000145b92915050565b60606102dc6102d76102d2610491565b6104af565b6104e1565b905090565b6000806102ec610303565b90506102f9818585610507565b5060019392505050565b60006102dc610665565b60006102dc61032261031d610491565b610697565b6106c9565b600080610332610303565b905061033f8582856106ee565b61034a858585610776565b60019150505b9392505050565b60006102dc6103676102d2610491565b61080c565b610374610854565b6001600160a01b0382166103bc576040517fec442f05000000000000000000000000000000000000000000000000000000008152600060048201526024015b60405180910390fd5b6103c86000838361086f565b5050565b60006102bc6103e16103dc610491565b610a37565b83610a69565b60606102dc6103f76102d2610491565b610ad7565b610404610854565b6001600160a01b038216610447576040517f96c6fd1e000000000000000000000000000000000000000000000000000000008152600060048201526024016103b3565b6103c88260008361086f565b60008061045e610303565b90506102f9818585610776565b600061035061048061047b610491565b610af6565b8484610b28565b60006102dc610bc3565b60008061049d30610bcd565b90506104a98160101b90565b91505090565b60006102bc613a3160f11b837f4d65746164617461000000000000000000000000000000000000000000000000610c52565b604080516000808252602082019092526060916104ff848383610cca565b949350505050565b6001600160a01b03831661054a576040517fe602df05000000000000000000000000000000000000000000000000000000008152600060048201526024016103b3565b6001600160a01b03821661058d576040517f94280d62000000000000000000000000000000000000000000000000000000008152600060048201526024016103b3565b6105a361059b61047b610491565b848484610d91565b6105ab610e48565b6001600160a01b031663c9a34acd7f8c5be1e5ebec7d5bd14f71427d1e84f3dd0314c0f7b2291e5b200ac8c7c3b9256105ea866001600160a01b031690565b6001600160a01b0386166040805160208101889052016040516020818303038152906040526040518563ffffffff1660e01b815260040161062e9493929190611e99565b600060405180830381600087803b15801561064857600080fd5b505af115801561065c573d6000803e3d6000fd5b50505050505050565b7fffffffffffffffffffffffffffffffffffffffffffffffffffffffffffffffcc36013560601c806106945750335b90565b60006102bc613a3160f11b837f546f74616c537570706c79000000000000000000000000000000000000000000610c52565b6040805160008082526020820190925260006104ff848383630100080160dd1b610f23565b60006107056106fe61047b610491565b8585610b28565b905060001981146107705781811015610763576040517ffb8f41b20000000000000000000000000000000000000000000000000000000081526001600160a01b038416600482015260248101829052604481018390526064016103b3565b6107708484848403610507565b50505050565b6001600160a01b0383166107b9576040517f96c6fd1e000000000000000000000000000000000000000000000000000000008152600060048201526024016103b3565b6001600160a01b0382166107fc576040517fec442f05000000000000000000000000000000000000000000000000000000008152600060048201526024016103b3565b61080783838361086f565b505050565b6040805160008082526020820190925260006108498483837e01010201000000000000000000000000000000000000000000000000000000610f23565b60f81c949350505050565b61086d61086030610bcd565b610868610303565b610fe0565b565b6000610879610491565b9050600061088682610697565b9050600061089383610a37565b90506001600160a01b0386166108c5576108c082856108b1856106c9565b6108bb9190611ed4565b611081565b610935565b60006108d18288610a69565b905084811015610926576040517fe450d38c0000000000000000000000000000000000000000000000000000000081526001600160a01b038816600482015260248101829052604481018690526064016103b3565b61093382888784036110a8565b505b6001600160a01b03851661095c576109578285610951856106c9565b03611081565b610972565b61097281868661096c858a610a69565b016110a8565b61097a610e48565b6001600160a01b031663c9a34acd7fddf252ad1be2c89b69c2b068fc378daa952ba7f163c4a11628f55a4df523b3ef6109b9896001600160a01b031690565b6001600160a01b03891660408051602081018b9052016040516020818303038152906040526040518563ffffffff1660e01b81526004016109fd9493929190611e99565b600060405180830381600087803b158015610a1757600080fd5b505af1158015610a2b573d6000803e3d6000fd5b50505050505050505050565b60006102bc613a3160f11b837f42616c616e636573000000000000000000000000000000000000000000000000610c52565b60408051600180825281830190925260009182919060208083019080368337019050509050826001600160a01b031660001b81600081518110610aae57610aae611ee7565b60209081029190910101526000610ace858383630100080160dd1b610f23565b95945050505050565b604080516000808252602082019092526060916104ff84836001610cca565b60006102bc613a3160f11b837f416c6c6f77616e63657300000000000000000000000000000000000000000000610c52565b60408051600280825260608201835260009283929190602083019080368337019050509050836001600160a01b031660001b81600081518110610b6d57610b6d611ee7565b602002602001018181525050826001600160a01b031660001b81600181518110610b9957610b99611ee7565b60209081029190910101526000610bb9868383630100080160dd1b610f23565b9695505050505050565b60006102dc611110565b60408051600180825281830190925260009182919060208083019080368337019050509050826001600160a01b031660001b81600081518110610c1257610c12611ee7565b602090810291909101015260006104ff7f7462776f726c6400000000000000000053797374656d526567697374727900008383630100080160dd1b610f23565b6000610c6060706010611ed4565b7fffff00000000000000000000000000000000000000000000000000000000000085167dffffffffffffffffffffffffffff00000000000000000000000000000000601086901c16176fffffffffffffffffffffffffffffffff19841690911c1790509392505050565b60606000610cd6611110565b9050306001600160a01b03821603610cfb57610cf385858561114f565b915050610350565b6040517f1e7889770000000000000000000000000000000000000000000000000000000081526001600160a01b03821690631e78897790610d4490889088908890600401611f39565b600060405180830381865afa158015610d61573d6000803e3d6000fd5b505050506040513d6000823e601f3d908101601f19168201604052610cf39190810190611f65565b509392505050565b604080516002808252606082018352600092602083019080368337019050509050836001600160a01b031660001b81600081518110610dd257610dd2611ee7565b602002602001018181525050826001600160a01b031660001b81600181518110610dfe57610dfe611ee7565b602002602001018181525050610e418582600085604051602001610e2491815260200190565b60408051601f19818403018152919052630100080160dd1b611189565b5050505050565b600080610e5430610bcd565b60408051613a3160f11b60208201527f707570706574000000000000000000000000000000000000000000000000000060228201527f50757070657452656769737472790000000000000000000000000000000000006030820152919250600091610ed89101604051602081830303815290604052610ed290612012565b8361120c565b90506001600160a01b0381166102bc576040517f9434f7e1000000000000000000000000000000000000000000000000000000008152306004820152602481018390526044016103b3565b600080610f2e611110565b9050306001600160a01b03821603610f5457610f4c86868686611289565b9150506104ff565b6040517f8c364d590000000000000000000000000000000000000000000000000000000081526001600160a01b03821690638c364d5990610f9f908990899089908990600401612039565b602060405180830381865afa158015610fbc573d6000803e3d6000fd5b505050506040513d601f19601f82011682018060405250810190610f4c9190612068565b6001600160a01b0381166110357f6e730000000000000000000000000000000000000000000000000000000000007dffffffffffffffffffffffffffff000000000000000000000000000000008516176112b6565b6001600160a01b0316146103c85761104c82611352565b816040517fd787b7370000000000000000000000000000000000000000000000000000000081526004016103b3929190612081565b60408051600080825260208201835291810183905290610807908490839060608201610e24565b60408051600180825281830190925260009160208083019080368337019050509050826001600160a01b031660001b816000815181106110ea576110ea611ee7565b6020026020010181815250506107708482600085604051602001610e2491815260200190565b7f629a4c26e296b22a8e0856e9f6ecb2d1008d7e00081111962cd175fa7488e175546000906001600160a01b03168061114a573391505090565b919050565b60606104ff61115f858585611480565b60006111848561116f8989611500565b9060ff166028026038011c64ffffffffff1690565b611513565b6000611193611110565b9050306001600160a01b038216036111b7576111b28686868686611536565b611204565b6040517f390baae00000000000000000000000000000000000000000000000000000000081526001600160a01b0382169063390baae0906109fd90899089908990899089906004016120ac565b505050505050565b60408051600180825281830190925260009182919060208083019080368337019050509050828160008151811061124557611245611ee7565b6020908102919091010152600061127d8583837e14010014000000000000000000000000000000000000000000000000000000610f23565b60601c95945050505050565b6000610ace611298868661154b565b60ff858116601b0360080285901c166112b185876115a1565b6115d2565b6040805160018082528183019092526000918291906020808301908036833701905050905082816000815181106112ef576112ef611ee7565b602090810291909101015260006113477f7462776f726c640000000000000000004e616d6573706163654f776e6572000083837e14010014000000000000000000000000000000000000000000000000000000610f23565b60601c949350505050565b606081601081901b600061136583611623565b9050827fffffffffffffffffffffffffffff0000000000000000000000000000000000008316156113c0576113bb7fffffffffffffffffffffffffffff000000000000000000000000000000000000841661163a565b6113f7565b6040518060400160405280600681526020017f3c726f6f743e00000000000000000000000000000000000000000000000000008152505b6fffffffffffffffffffffffffffffffff1983161561141e576114198361163a565b611455565b6040518060400160405280600681526020017f3c726f6f743e00000000000000000000000000000000000000000000000000008152505b604051602001611467939291906120f3565b6040516020818303038152906040529350505050919050565b60008383604051602001611495929190612181565b604051602081830303815290604052805190602001208260f81b7effffffffffffffffffffffffffffffffffffffffffffffffffffffffffffff19167f3b4102da22e32d82fc925482184f16c09fd4281692720b87d124aef6da48a0f1181860001c90509392505050565b600061035061150f84846116c0565b5490565b60405160208101601f19603f8484010116604052828252610d8985858584611716565b610e41858561154584876115a1565b856117e2565b60008282604051602001611560929190612181565b60408051601f1981840301815291905280516020909101207f86425bff6b57326c7859e89024fe4f238ca327a1ae4a230180dd2f0e88aaa7d9189392505050565b600080805b8360ff16811015610d89576115c860ff601b83900360080287901c1683611ed4565b91506001016115a6565b6000602082106115f8576020820484019350602082816115f4576115f46121bd565b0691505b508254600882021b602082900380841115610d89576001850154600882021c82179150509392505050565b600061163160706010611ed4565b9190911b919050565b606060005b6010811015611690576fffffffffffffffffffffffffffffffff198316600882021b7fff0000000000000000000000000000000000000000000000000000000000000016156116905760010161163f565b604080516fffffffffffffffffffffffffffffffff198516602082015281516030909101909152818152806104ff565b600082826040516020016116d5929190612181565b60408051601f1981840301815291905280516020909101207f14e2fcc58e58e68ec7edc30c8d50dccc3ce2714a623ec81f46b6a63922d76569189392505050565b821561179d57602083106117405760208304840193506020838161173c5761173c6121bd565b0692505b821561179d5760208390036000818410156117635750600019600884021c61176d565b50600019600882021c5b8554600886021b81845116821982161784525081841161178e575050610770565b50600194909401939182900391015b5b602082106117bf5783548152600190930192601f199091019060200161179e565b8115610770576000600019600884021c8251865482191691161782525050505050565b7f6f74000000000000000000000000000000000000000000000000000000000000847fffff000000000000000000000000000000000000000000000000000000000000160361186c57837f8c0b5119d4cec7b284c6b1b39252a03d1e2f2d7451a5895562524c113bb952be84848460405161185f939291906121d3565b60405180910390a2610770565b6000611878858561154b565b9050600061188586611a7d565b905060005b815181101561195a5760008282815181106118a7576118a7611ee7565b602002602001015190506118d36004826affffffffffffffffffffff1916611b0690919063ffffffff16565b15611951576040517f964f667d000000000000000000000000000000000000000000000000000000008152606082901c9063964f667d9061191e908b908b908b908b90600401612206565b600060405180830381600087803b15801561193857600080fd5b505af115801561194c573d6000803e3d6000fd5b505050505b5060010161188a565b50857f8c0b5119d4cec7b284c6b1b39252a03d1e2f2d7451a5895562524c113bb952be86868660405161198f939291906121d3565b60405180910390a26119aa828565ffffffffffff1685611b24565b60005b815181101561065c5760008282815181106119ca576119ca611ee7565b602002602001015190506119f66008826affffffffffffffffffffff1916611b0690919063ffffffff16565b15611a74576040517fa8ba8721000000000000000000000000000000000000000000000000000000008152606082901c9063a8ba872190611a41908b908b908b908b90600401612206565b600060405180830381600087803b158015611a5b57600080fd5b505af1158015611a6f573d6000803e3d6000fd5b505050505b506001016119ad565b60408051600180825281830190925260609160009190602080830190803683370190505090508281600081518110611ab757611ab7611ee7565b60209081029190910101526000611aef7f746273746f726500000000000000000053746f7265486f6f6b73000000000000838361114f565b90506104ff611b018260008451611b3a565b611bc8565b60008160ff1682611b178560581c90565b1660ff1614905092915050565b61080783838351611b358560200190565b611bd9565b600081831180611b4a5750835182115b15611b87578383836040517f23230fa30000000000000000000000000000000000000000000000000000000081526004016103b39392919061223f565b60208401611b958482611ed4565b90506000611ba38585612264565b6fffffffffffffffffffffffffffffffff1660809290921b9190911795945050505050565b606060006103508360156000611c98565b8215611c535760208310611c0357602083048401935060208381611bff57611bff6121bd565b0692505b8215611c535760208390036000600019600885021c1990506008850281811c91508351811c9050811987541682821617875550818411611c44575050610770565b50600194909401939182900391015b5b60208210611c755780518455600190930192601f1990910190602001611c54565b8115610770576000600019600884021c8554835182191691161785555050505050565b60606000611ca68560801c90565b90506fffffffffffffffffffffffffffffffff85166000858281611ccc57611ccc6121bd565b04905060405193506020840160208202810160405281855260005b82811015611d07578451871c825293870193602090910190600101611ce7565b50505050509392505050565b600060208284031215611d2557600080fd5b81357fffffffff000000000000000000000000000000000000000000000000000000008116811461035057600080fd5b60005b83811015611d70578181015183820152602001611d58565b50506000910152565b60008151808452611d91816020860160208601611d55565b601f01601f19169290920160200192915050565b6020815260006103506020830184611d79565b80356001600160a01b038116811461114a57600080fd5b60008060408385031215611de257600080fd5b611deb83611db8565b946020939093013593505050565b600080600060608486031215611e0e57600080fd5b611e1784611db8565b9250611e2560208501611db8565b9150604084013590509250925092565b600060208284031215611e4757600080fd5b61035082611db8565b60008060408385031215611e6357600080fd5b611e6c83611db8565b9150611e7a60208401611db8565b90509250929050565b634e487b7160e01b600052604160045260246000fd5b848152836020820152826040820152608060608201526000610bb96080830184611d79565b634e487b7160e01b600052601160045260246000fd5b808201808211156102bc576102bc611ebe565b634e487b7160e01b600052603260045260246000fd5b60008151808452602080850194506020840160005b83811015611f2e57815187529582019590820190600101611f12565b509495945050505050565b838152606060208201526000611f526060830185611efd565b905060ff83166040830152949350505050565b600060208284031215611f7757600080fd5b815167ffffffffffffffff80821115611f8f57600080fd5b818401915084601f830112611fa357600080fd5b815181811115611fb557611fb5611e83565b604051601f8201601f19908116603f01168101908382118183101715611fdd57611fdd611e83565b81604052828152876020848701011115611ff657600080fd5b612007836020830160208801611d55565b979650505050505050565b80516020808301519190811015612033576000198160200360031b1b821691505b50919050565b8481526080602082015260006120526080830186611efd565b60ff949094166040830152506060015292915050565b60006020828403121561207a57600080fd5b5051919050565b6040815260006120946040830185611d79565b90506001600160a01b03831660208301529392505050565b85815260a0602082015260006120c560a0830187611efd565b60ff8616604084015282810360608401526120e08186611d79565b9150508260808301529695505050505050565b7fffff0000000000000000000000000000000000000000000000000000000000008416815260007f3a000000000000000000000000000000000000000000000000000000000000008060028401528451612154816003860160208901611d55565b808401905081600382015284519150612174826004830160208801611d55565b0160040195945050505050565b8281526000602080830184516020860160005b828110156121b057815184529284019290840190600101612194565b5091979650505050505050565b634e487b7160e01b600052601260045260246000fd5b6060815260006121e66060830186611efd565b65ffffffffffff851660208401528281036040840152610bb98185611d79565b84815260806020820152600061221f6080830186611efd565b65ffffffffffff8516604084015282810360608401526120078185611d79565b6060815260006122526060830186611d79565b60208301949094525060400152919050565b818103818111156102bc576102bc611ebe56fea264697066735822122066425bea33ef884970727375b75f7ab3dff45f4de4fb2df70b1373507e80251164736f6c63430008180033","linkReferences":{}},"methodIdentifiers":{"_msgSender()":"119df25f","_msgValue()":"45ec9354","_world()":"e1af802c","allowance(address,address)":"dd62ed3e","approve(address,uint256)":"095ea7b3","balanceOf(address)":"70a08231","burn(address,uint256)":"9dc29fac","decimals()":"313ce567","mint(address,uint256)":"40c10f19","name()":"06fdde03","supportsInterface(bytes4)":"01ffc9a7","symbol()":"95d89b41","totalSupply()":"18160ddd","transfer(address,uint256)":"a9059cbb","transferFrom(address,address,uint256)":"23b872dd"},"id":52}