{"abi":[{"type":"function","name":"_msgSender","inputs":[],"outputs":[{"name":"sender","type":"address","internalType":"address"}],"stateMutability":"view"},{"type":"function","name":"_msgValue","inputs":[],"outputs":[{"name":"value","type":"uint256","internalType":"uint256"}],"stateMutability":"pure"},{"type":"function","name":"_world","inputs":[],"outputs":[{"name":"","type":"address","internalType":"address"}],"stateMutability":"view"},{"type":"function","name":"createPuppet","inputs":[{"name":"systemId","type":"bytes32","internalType":"ResourceId"}],"outputs":[{"name":"puppet","type":"address","internalType":"address"}],"stateMutability":"nonpayable"},{"type":"function","name":"supportsInterface","inputs":[{"name":"interfaceId","type":"bytes4","internalType":"bytes4"}],"outputs":[{"name":"","type":"bool","internalType":"bool"}],"stateMutability":"pure"},{"type":"event","name":"Store_SpliceStaticData","inputs":[{"name":"tableId","type":"bytes32","indexed":true,"internalType":"ResourceId"},{"name":"keyTuple","type":"bytes32[]","indexed":false,"internalType":"bytes32[]"},{"name":"start","type":"uint48","indexed":false,"internalType":"uint48"},{"name":"data","type":"bytes","indexed":false,"internalType":"bytes"}],"anonymous":false},{"type":"error","name":"Slice_OutOfBounds","inputs":[{"name":"data","type":"bytes","internalType":"bytes"},{"name":"start","type":"uint256","internalType":"uint256"},{"name":"end","type":"uint256","internalType":"uint256"}]},{"type":"error","name":"World_AccessDenied","inputs":[{"name":"resource","type":"string","internalType":"string"},{"name":"caller","type":"address","internalType":"address"}]}],"bytecode":{"object":"0x608060405234801561001057600080fd5b50612586806100206000396000f3fe608060405234801561001057600080fd5b50600436106100675760003560e01c806345ec93541161005057806345ec9354146100c1578063b9eb8bfb146100d4578063e1af802c146100e757600080fd5b806301ffc9a71461006c578063119df25f14610094575b600080fd5b61007f61007a36600461118f565b6100ef565b60405190151581526020015b60405180910390f35b61009c610188565b60405173ffffffffffffffffffffffffffffffffffffffff909116815260200161008b565b604051601f19360135815260200161008b565b61009c6100e23660046111d1565b610197565b61009c6102a0565b60007fffffffff0000000000000000000000000000000000000000000000000000000082167fb5dee12700000000000000000000000000000000000000000000000000000000148061018257507fffffffff0000000000000000000000000000000000000000000000000000000082167f01ffc9a700000000000000000000000000000000000000000000000000000000145b92915050565b60006101926102aa565b905090565b60006101aa826101a5610188565b6102dc565b6101b26102a0565b826040516101bf90611182565b73ffffffffffffffffffffffffffffffffffffffff90921682526020820152604001604051809103906000f0801580156101fd573d6000803e3d6000fd5b50604080517f746200000000000000000000000000000000000000000000000000000000000060208201527f707570706574000000000000000000000000000000000000000000000000000060228201527f5075707065745265676973747279000000000000000000000000000000000000603082015291925061029b9101604051602081830303815290604052610294906111ea565b83836103a4565b919050565b6000610192610464565b7fffffffffffffffffffffffffffffffffffffffffffffffffffffffffffffffcc36013560601c806102d95750335b90565b73ffffffffffffffffffffffffffffffffffffffff811661033e7f6e730000000000000000000000000000000000000000000000000000000000007dffffffffffffffffffffffffffff0000000000000000000000000000000085161761046e565b73ffffffffffffffffffffffffffffffffffffffff16146103a0576103628261050a565b816040517fd787b737000000000000000000000000000000000000000000000000000000008152600401610397929190611261565b60405180910390fd5b5050565b6040805160018082528183019092526000916020808301908036833701905050905082816000815181106103da576103da611299565b60200260200101818152505061045e8482600085604051602001610429919060609190911b7fffffffffffffffffffffffffffffffffffffffff00000000000000000000000016815260140190565b60408051601f198184030181529190527e14010014000000000000000000000000000000000000000000000000000000610647565b50505050565b6000610192610717565b6040805160018082528183019092526000918291906020808301908036833701905050905082816000815181106104a7576104a7611299565b602090810291909101015260006104ff7f7462776f726c640000000000000000004e616d6573706163654f776e6572000083837e1401001400000000000000000000000000000000000000000000000000000061075e565b60601c949350505050565b606081601081901b600061051d8361083d565b9050827fffffffffffffffffffffffffffff000000000000000000000000000000000000831615610578576105737fffffffffffffffffffffffffffff0000000000000000000000000000000000008416610854565b6105af565b6040518060400160405280600681526020017f3c726f6f743e00000000000000000000000000000000000000000000000000008152505b7fffffffffffffffffffffffffffffffff000000000000000000000000000000008316156105e5576105e083610854565b61061c565b6040518060400160405280600681526020017f3c726f6f743e00000000000000000000000000000000000000000000000000008152505b60405160200161062e939291906112c8565b6040516020818303038152906040529350505050919050565b6000610651610717565b90503073ffffffffffffffffffffffffffffffffffffffff8216036106825761067d86868686866108f8565b61070f565b6040517f390baae000000000000000000000000000000000000000000000000000000000815273ffffffffffffffffffffffffffffffffffffffff82169063390baae0906106dc9089908990899089908990600401611392565b600060405180830381600087803b1580156106f657600080fd5b505af115801561070a573d6000803e3d6000fd5b505050505b505050505050565b7f629a4c26e296b22a8e0856e9f6ecb2d1008d7e00081111962cd175fa7488e1755460009073ffffffffffffffffffffffffffffffffffffffff168061029b573391505090565b600080610769610717565b90503073ffffffffffffffffffffffffffffffffffffffff82160361079c5761079486868686610914565b915050610835565b6040517f8c364d5900000000000000000000000000000000000000000000000000000000815273ffffffffffffffffffffffffffffffffffffffff821690638c364d59906107f49089908990899089906004016113d9565b602060405180830381865afa158015610811573d6000803e3d6000fd5b505050506040513d601f19601f820116820180604052508101906107949190611408565b949350505050565b600061084b60706010611450565b9190911b919050565b606060005b60108110156108b9577fffffffffffffffffffffffffffffffff000000000000000000000000000000008316600882021b7fff0000000000000000000000000000000000000000000000000000000000000016156108b957600101610859565b604080517fffffffffffffffffffffffffffffffff00000000000000000000000000000000851660208201528151603090910190915281815280610835565b61090d8585610907848761094a565b85610983565b5050505050565b60006109416109238686610c27565b60ff858116601b0360080285901c1661093c858761094a565b610c7d565b95945050505050565b600080805b8360ff1681101561097b5761097160ff601b83900360080287901c1683611450565b915060010161094f565b509392505050565b7f6f74000000000000000000000000000000000000000000000000000000000000847fffff0000000000000000000000000000000000000000000000000000000000001603610a0d57837f8c0b5119d4cec7b284c6b1b39252a03d1e2f2d7451a5895562524c113bb952be848484604051610a0093929190611463565b60405180910390a261045e565b6000610a198585610c27565b90506000610a2686610cce565b905060005b8151811015610afb576000828281518110610a4857610a48611299565b60200260200101519050610a746004826affffffffffffffffffffff1916610d5790919063ffffffff16565b15610af2576040517f964f667d000000000000000000000000000000000000000000000000000000008152606082901c9063964f667d90610abf908b908b908b908b906004016114a0565b600060405180830381600087803b158015610ad957600080fd5b505af1158015610aed573d6000803e3d6000fd5b505050505b50600101610a2b565b50857f8c0b5119d4cec7b284c6b1b39252a03d1e2f2d7451a5895562524c113bb952be868686604051610b3093929190611463565b60405180910390a2610b4b828565ffffffffffff1685610d75565b60005b8151811015610c1e576000828281518110610b6b57610b6b611299565b60200260200101519050610b976008826affffffffffffffffffffff1916610d5790919063ffffffff16565b15610c15576040517fa8ba8721000000000000000000000000000000000000000000000000000000008152606082901c9063a8ba872190610be2908b908b908b908b906004016114a0565b600060405180830381600087803b158015610bfc57600080fd5b505af1158015610c10573d6000803e3d6000fd5b505050505b50600101610b4e565b50505050505050565b60008282604051602001610c3c9291906114e4565b60408051601f1981840301815291905280516020909101207f86425bff6b57326c7859e89024fe4f238ca327a1ae4a230180dd2f0e88aaa7d9189392505050565b600060208210610ca357602082048401935060208281610c9f57610c9f611520565b0691505b508254600882021b60208290038084111561097b576001850154600882021c82179150509392505050565b60408051600180825281830190925260609160009190602080830190803683370190505090508281600081518110610d0857610d08611299565b60209081029190910101526000610d407f746273746f726500000000000000000053746f7265486f6f6b730000000000008383610d90565b9050610835610d528260008451610dca565b610e58565b60008160ff1682610d688560581c90565b1660ff1614905092915050565b610d8b83838351610d868560200190565b610e70565b505050565b6060610835610da0858585610f2f565b6000610dc585610db08989610faf565b9060ff166028026038011c64ffffffffff1690565b610fc2565b600081831180610dda5750835182115b15610e17578383836040517f23230fa30000000000000000000000000000000000000000000000000000000081526004016103979392919061154f565b60208401610e258482611450565b90506000610e338585611574565b6fffffffffffffffffffffffffffffffff1660809290921b9190911795945050505050565b60606000610e698360156000610fe5565b9392505050565b8215610eea5760208310610e9a57602083048401935060208381610e9657610e96611520565b0692505b8215610eea5760208390036000600019600885021c1990506008850281811c91508351811c9050811987541682821617875550818411610edb57505061045e565b50600194909401939182900391015b5b60208210610f0c5780518455600190930192601f1990910190602001610eeb565b811561045e576000600019600884021c8554835182191691161785555050505050565b60008383604051602001610f449291906114e4565b604051602081830303815290604052805190602001208260f81b7effffffffffffffffffffffffffffffffffffffffffffffffffffffffffffff19167f3b4102da22e32d82fc925482184f16c09fd4281692720b87d124aef6da48a0f1181860001c90509392505050565b6000610e69610fbe8484611060565b5490565b60405160208101601f19603f848401011660405282825261097b858585846110b6565b60606000610ff38560801c90565b90506fffffffffffffffffffffffffffffffff8516600085828161101957611019611520565b04905060405193506020840160208202810160405281855260005b82811015611054578451871c825293870193602090910190600101611034565b50505050509392505050565b600082826040516020016110759291906114e4565b60408051601f1981840301815291905280516020909101207f14e2fcc58e58e68ec7edc30c8d50dccc3ce2714a623ec81f46b6a63922d76569189392505050565b821561113d57602083106110e0576020830484019350602083816110dc576110dc611520565b0692505b821561113d5760208390036000818410156111035750600019600884021c61110d565b50600019600882021c5b8554600886021b81845116821982161784525081841161112e57505061045e565b50600194909401939182900391015b5b6020821061115f5783548152600190930192601f199091019060200161113e565b811561045e576000600019600884021c8251865482191691161782525050505050565b610fc98061158883390190565b6000602082840312156111a157600080fd5b81357fffffffff0000000000000000000000000000000000000000000000000000000081168114610e6957600080fd5b6000602082840312156111e357600080fd5b5035919050565b8051602080830151919081101561120b576000198160200360031b1b821691505b50919050565b60005b8381101561122c578181015183820152602001611214565b50506000910152565b6000815180845261124d816020860160208601611211565b601f01601f19169290920160200192915050565b6040815260006112746040830185611235565b905073ffffffffffffffffffffffffffffffffffffffff831660208301529392505050565b7f4e487b7100000000000000000000000000000000000000000000000000000000600052603260045260246000fd5b7fffff0000000000000000000000000000000000000000000000000000000000008416815260007f3a000000000000000000000000000000000000000000000000000000000000008060028401528451611329816003860160208901611211565b808401905081600382015284519150611349826004830160208801611211565b0160040195945050505050565b60008151808452602080850194506020840160005b838110156113875781518752958201959082019060010161136b565b509495945050505050565b85815260a0602082015260006113ab60a0830187611356565b60ff8616604084015282810360608401526113c68186611235565b9150508260808301529695505050505050565b8481526080602082015260006113f26080830186611356565b60ff949094166040830152506060015292915050565b60006020828403121561141a57600080fd5b5051919050565b7f4e487b7100000000000000000000000000000000000000000000000000000000600052601160045260246000fd5b8082018082111561018257610182611421565b6060815260006114766060830186611356565b65ffffffffffff8516602084015282810360408401526114968185611235565b9695505050505050565b8481526080602082015260006114b96080830186611356565b65ffffffffffff8516604084015282810360608401526114d98185611235565b979650505050505050565b8281526000602080830184516020860160005b82811015611513578151845292840192908401906001016114f7565b5091979650505050505050565b7f4e487b7100000000000000000000000000000000000000000000000000000000600052601260045260246000fd5b6060815260006115626060830186611235565b60208301949094525060400152919050565b818103818111156101825761018261142156fe60c060405234801561001057600080fd5b50604051610fc9380380610fc983398101604081905261002f9161007c565b6001600160a01b038216608081905260a08290527f629a4c26e296b22a8e0856e9f6ecb2d1008d7e00081111962cd175fa7488e17580546001600160a01b031916909117905550506100b6565b6000806040838503121561008f57600080fd5b82516001600160a01b03811681146100a657600080fd5b6020939093015192949293505050565b60805160a051610ec66101036000396000818160e1015281816101b401528181610239015281816102b70152818161032e01526103a101526000818160b201526101630152610ec66000f3fe608060405234801561001057600080fd5b50600436106100725760003560e01c8063c9a34acd11610050578063c9a34acd146101f9578063d72a26651461020c578063e2ed58bd1461021f57610072565b806330b67baa1461015e57806339f898bc146101af57806366c93bdb146101e4575b6040517f894ecc5800000000000000000000000000000000000000000000000000000000815260009073ffffffffffffffffffffffffffffffffffffffff7f0000000000000000000000000000000000000000000000000000000000000000169063894ecc589061010d9033907f000000000000000000000000000000000000000000000000000000000000000090869036906004016109e7565b6000604051808303816000875af115801561012c573d6000803e3d6000fd5b505050506040513d6000823e601f3d908101601f191682016040526101549190810190610b17565b9050805160208201f35b6101857f000000000000000000000000000000000000000000000000000000000000000081565b60405173ffffffffffffffffffffffffffffffffffffffff90911681526020015b60405180910390f35b6101d67f000000000000000000000000000000000000000000000000000000000000000081565b6040519081526020016101a6565b6101f76101f2366004610ba5565b610232565b005b6101f7610207366004610c09565b6102b0565b6101f761021a366004610c63565b610327565b6101f761022d366004610caa565b61039a565b600061025d7f000000000000000000000000000000000000000000000000000000000000000061040f565b5090503373ffffffffffffffffffffffffffffffffffffffff82161461029d576040516398d49b0360e01b81523360048201526024015b60405180910390fd5b82848688855160208701a4505050505050565b60006102db7f000000000000000000000000000000000000000000000000000000000000000061040f565b5090503373ffffffffffffffffffffffffffffffffffffffff821614610316576040516398d49b0360e01b8152336004820152602401610294565b828486845160208601a35050505050565b60006103527f000000000000000000000000000000000000000000000000000000000000000061040f565b5090503373ffffffffffffffffffffffffffffffffffffffff82161461038d576040516398d49b0360e01b8152336004820152602401610294565b82825160208401a1505050565b60006103c57f000000000000000000000000000000000000000000000000000000000000000061040f565b5090503373ffffffffffffffffffffffffffffffffffffffff821614610400576040516398d49b0360e01b8152336004820152602401610294565b8284835160208501a250505050565b6040805160018082528183019092526000918291829160208083019080368337019050509050838160008151811061044957610449610cfa565b6020908102919091010152600080806104a27f7462776f726c6400000000000000000053797374656d73000000000000000000857e150200140100000000000000000000000000000000000000000000000000006104c7565b5050602081015160349091015160609190911c9860f89190911c975095505050505050565b60606000606060006104d76105b1565b90503073ffffffffffffffffffffffffffffffffffffffff82160361050d576105018787876105fd565b935093509350506105a8565b6040517f419b58fd00000000000000000000000000000000000000000000000000000000815273ffffffffffffffffffffffffffffffffffffffff82169063419b58fd90610563908a908a908a90600401610d10565b600060405180830381865afa158015610580573d6000803e3d6000fd5b505050506040513d6000823e601f3d908101601f191682016040526105019190810190610d69565b93509350939050565b7f629a4c26e296b22a8e0856e9f6ecb2d1008d7e00081111962cd175fa7488e1755460009073ffffffffffffffffffffffffffffffffffffffff16806105f8573391505090565b919050565b606060006060600061060e85610705565b905061061b878783610728565b935060006106288661076c565b905080156106fa5761063a88886107a9565b935066ffffffffffffff841667ffffffffffffffff81111561065e5761065e610a3a565b6040519080825280601f01601f191660200182016040528015610688576020820181803683370190505b5092506020830160005b828160ff1610156106f75760006106aa8b8b846107c5565b905060006106c7888460ff166028026038011c64ffffffffff1690565b90506106d68260008387610845565b6106e08185610de2565b9350505080806106ef90610df5565b915050610692565b50505b505093509350939050565b6000600861071560026020610e14565b61071f9190610e27565b9190911c919050565b6060816000036107475750604080516020810190915260008152610765565b60006107538585610910565b905061076181600085610966565b9150505b9392505050565b6000600860018061077f60026020610e14565b6107899190610e14565b6107939190610e14565b61079d9190610e27565b8260ff911c1692915050565b60006107bc6107b88484610991565b5490565b90505b92915050565b600083836040516020016107da929190610e3e565b604051602081830303815290604052805190602001208260f81b7effffffffffffffffffffffffffffffffffffffffffffffffffffffffffffff19167f3b4102da22e32d82fc925482184f16c09fd4281692720b87d124aef6da48a0f1181860001c90509392505050565b82156108cc576020831061086f5760208304840193506020838161086b5761086b610e7a565b0692505b82156108cc5760208390036000818410156108925750600019600884021c61089c565b50600019600882021c5b8554600886021b8184511682198216178452508184116108bd57505061090a565b50600194909401939182900391015b5b602082106108ee5783548152600190930192601f19909101906020016108cd565b811561090a5780518454600019600885021c9182169119161781525b50505050565b60008282604051602001610925929190610e3e565b60408051601f1981840301815291905280516020909101207f86425bff6b57326c7859e89024fe4f238ca327a1ae4a230180dd2f0e88aaa7d9189392505050565b60405160208101601f19603f848401011660405282825261098985858584610845565b509392505050565b600082826040516020016109a6929190610e3e565b60408051601f1981840301815291905280516020909101207f14e2fcc58e58e68ec7edc30c8d50dccc3ce2714a623ec81f46b6a63922d76569189392505050565b73ffffffffffffffffffffffffffffffffffffffff8516815283602082015260606040820152816060820152818360808301376000818301608090810191909152601f909201601f191601019392505050565b634e487b7160e01b600052604160045260246000fd5b604051601f8201601f1916810167ffffffffffffffff81118282101715610a7957610a79610a3a565b604052919050565b600067ffffffffffffffff821115610a9b57610a9b610a3a565b50601f01601f191660200190565b600082601f830112610aba57600080fd5b8151610acd610ac882610a81565b610a50565b8181526020856020848701011115610ae457600080fd5b60005b83811015610b02578581018201518382018301528101610ae7565b50506000918101602001919091529392505050565b600060208284031215610b2957600080fd5b815167ffffffffffffffff811115610b4057600080fd5b610b4c84828501610aa9565b949350505050565b600082601f830112610b6557600080fd5b8135610b73610ac882610a81565b818152846020838601011115610b8857600080fd5b816020850160208301376000918101602001919091529392505050565b600080600080600060a08688031215610bbd57600080fd5b85359450602086013593506040860135925060608601359150608086013567ffffffffffffffff811115610bf057600080fd5b610bfc88828901610b54565b9150509295509295909350565b60008060008060808587031215610c1f57600080fd5b843593506020850135925060408501359150606085013567ffffffffffffffff811115610c4b57600080fd5b610c5787828801610b54565b91505092959194509250565b60008060408385031215610c7657600080fd5b82359150602083013567ffffffffffffffff811115610c9457600080fd5b610ca085828601610b54565b9150509250929050565b600080600060608486031215610cbf57600080fd5b8335925060208401359150604084013567ffffffffffffffff811115610ce457600080fd5b610cf086828701610b54565b9150509250925092565b634e487b7160e01b600052603260045260246000fd5b60006060820185835260206060602085015281865180845260808601915060208801935060005b81811015610d5357845183529383019391830191600101610d37565b5050809350505050826040830152949350505050565b600080600060608486031215610d7e57600080fd5b835167ffffffffffffffff80821115610d9657600080fd5b610da287838801610aa9565b9450602086015193506040860151915080821115610dbf57600080fd5b50610cf086828701610aa9565b634e487b7160e01b600052601160045260246000fd5b808201808211156107bf576107bf610dcc565b600060ff821660ff8103610e0b57610e0b610dcc565b60010192915050565b818103818111156107bf576107bf610dcc565b80820281158282048414176107bf576107bf610dcc565b8281526000602080830184516020860160005b82811015610e6d57815184529284019290840190600101610e51565b5091979650505050505050565b634e487b7160e01b600052601260045260246000fdfea2646970667358221220669ab900057fac2a98cc4304debf8a620277fd03e7ddbf4cfd75b8f313ce214064736f6c63430008180033a2646970667358221220b483f639629ef1be88df162a5416f47a4dc1805a210c018b9c5fa8dee533a85664736f6c63430008180033","linkReferences":{}},"methodIdentifiers":{"_msgSender()":"119df25f","_msgValue()":"45ec9354","_world()":"e1af802c","createPuppet(bytes32)":"b9eb8bfb","supportsInterface(bytes4)":"01ffc9a7"},"id":83}