{"abi":[{"type":"function","name":"_msgSender","inputs":[],"outputs":[{"name":"sender","type":"address","internalType":"address"}],"stateMutability":"view"},{"type":"function","name":"_msgValue","inputs":[],"outputs":[{"name":"value","type":"uint256","internalType":"uint256"}],"stateMutability":"pure"},{"type":"function","name":"_world","inputs":[],"outputs":[{"name":"","type":"address","internalType":"address"}],"stateMutability":"view"},{"type":"function","name":"initDelegation","inputs":[{"name":"delegatee","type":"address","internalType":"address"},{"name":"systemId","type":"bytes32","internalType":"ResourceId"},{"name":"callData","type":"bytes","internalType":"bytes"},{"name":"numCalls","type":"uint256","internalType":"uint256"}],"outputs":[],"stateMutability":"nonpayable"},{"type":"function","name":"supportsInterface","inputs":[{"name":"interfaceId","type":"bytes4","internalType":"bytes4"}],"outputs":[{"name":"","type":"bool","internalType":"bool"}],"stateMutability":"pure"},{"type":"function","name":"verify","inputs":[{"name":"delegator","type":"address","internalType":"address"},{"name":"systemId","type":"bytes32","internalType":"ResourceId"},{"name":"callData","type":"bytes","internalType":"bytes"}],"outputs":[{"name":"","type":"bool","internalType":"bool"}],"stateMutability":"nonpayable"},{"type":"event","name":"Store_DeleteRecord","inputs":[{"name":"tableId","type":"bytes32","indexed":true,"internalType":"ResourceId"},{"name":"keyTuple","type":"bytes32[]","indexed":false,"internalType":"bytes32[]"}],"anonymous":false},{"type":"event","name":"Store_SpliceStaticData","inputs":[{"name":"tableId","type":"bytes32","indexed":true,"internalType":"ResourceId"},{"name":"keyTuple","type":"bytes32[]","indexed":false,"internalType":"bytes32[]"},{"name":"start","type":"uint48","indexed":false,"internalType":"uint48"},{"name":"data","type":"bytes","indexed":false,"internalType":"bytes"}],"anonymous":false},{"type":"error","name":"Slice_OutOfBounds","inputs":[{"name":"data","type":"bytes","internalType":"bytes"},{"name":"start","type":"uint256","internalType":"uint256"},{"name":"end","type":"uint256","internalType":"uint256"}]}],"bytecode":{"object":"0x608060405234801561001057600080fd5b506119fc806100206000396000f3fe608060405234801561001057600080fd5b50600436106100725760003560e01c806332c0520f1161005057806332c0520f146100d257806345ec9354146100e7578063e1af802c146100fa57600080fd5b806301ffc9a714610077578063119df25f1461009f5780631a86b550146100bf575b600080fd5b61008a61008536600461152b565b610102565b60405190151581526020015b60405180910390f35b6100a76101e7565b6040516001600160a01b039091168152602001610096565b61008a6100cd366004611627565b6101f6565b6100e56100e036600461167e565b610268565b005b604051601f193601358152602001610096565b6100a7610289565b60007fffffffff0000000000000000000000000000000000000000000000000000000082167f1a86b55000000000000000000000000000000000000000000000000000000000148061019557507fffffffff0000000000000000000000000000000000000000000000000000000082167fb5dee12700000000000000000000000000000000000000000000000000000000145b806101e157507fffffffff0000000000000000000000000000000000000000000000000000000082167f01ffc9a700000000000000000000000000000000000000000000000000000000145b92915050565b60006101f1610293565b905090565b80516020820120600090816102148661020d6101e7565b87856102c5565b90508060010361023c576102318661022a6101e7565b87856103dc565b600192505050610261565b801561025a5760001901610231866102526101e7565b8785856104c7565b6000925050505b9392505050565b6102836102736101e7565b85858580519060200120856104c7565b50505050565b60006101f16105fc565b7fffffffffffffffffffffffffffffffffffffffffffffffffffffffffffffffcc36013560601c806102c25750335b90565b60408051600480825260a0820190925260009182919060208201608080368337019050509050856001600160a01b031660001b8160008151811061030b5761030b6116dd565b602002602001018181525050846001600160a01b031660001b81600181518110610337576103376116dd565b6020026020010181815250508381600281518110610357576103576116dd565b6020026020010181815250508281600381518110610377576103776116dd565b602090810291909101015260006103cf7f7462000000000000000000000000000043616c6c626f756e6444656c6567617483837e20010020000000000000000000000000000000000000000000000000000000610606565b925050505b949350505050565b60408051600480825260a0820190925260009160208201608080368337019050509050846001600160a01b031660001b8160008151811061041f5761041f6116dd565b602002602001018181525050836001600160a01b031660001b8160018151811061044b5761044b6116dd565b602002602001018181525050828160028151811061046b5761046b6116dd565b602002602001018181525050818160038151811061048b5761048b6116dd565b60209081029190910101526104c07f7462000000000000000000000000000043616c6c626f756e6444656c65676174826106c3565b5050505050565b60408051600480825260a0820190925260009160208201608080368337019050509050856001600160a01b031660001b8160008151811061050a5761050a6116dd565b602002602001018181525050846001600160a01b031660001b81600181518110610536576105366116dd565b6020026020010181815250508381600281518110610556576105566116dd565b6020026020010181815250508281600381518110610576576105766116dd565b6020026020010181815250506105f47f7462000000000000000000000000000043616c6c626f756e6444656c6567617460001b826000856040516020016105bf91815260200190565b60408051601f198184030181529190527e2001002000000000000000000000000000000000000000000000000000000061076c565b505050505050565b60006101f1610821565b600080610611610821565b9050306001600160a01b038216036106375761062f86868686610860565b9150506103d4565b6040517f8c364d590000000000000000000000000000000000000000000000000000000081526001600160a01b03821690638c364d599061068290899089908990899060040161172f565b602060405180830381865afa15801561069f573d6000803e3d6000fd5b505050506040513d601f19601f8201168201806040525081019061062f919061175e565b60006106cd610821565b9050306001600160a01b038216036106ee576106e98383610896565b505050565b6040517f505a181d0000000000000000000000000000000000000000000000000000000081526001600160a01b0382169063505a181d906107359086908690600401611777565b600060405180830381600087803b15801561074f57600080fd5b505af1158015610763573d6000803e3d6000fd5b50505050505050565b6000610776610821565b9050306001600160a01b0382160361079a5761079586868686866108ad565b6105f4565b6040517f390baae00000000000000000000000000000000000000000000000000000000081526001600160a01b0382169063390baae0906107e790899089908990899089906004016117d6565b600060405180830381600087803b15801561080157600080fd5b505af1158015610815573d6000803e3d6000fd5b50505050505050505050565b7f629a4c26e296b22a8e0856e9f6ecb2d1008d7e00081111962cd175fa7488e175546000906001600160a01b03168061085b573391505090565b919050565b600061088d61086f86866108c2565b60ff858116601b0360080285901c166108888587610918565b610951565b95945050505050565b6108a982826108a4856109a2565b610a27565b5050565b6104c085856108bc8487610918565b85610d26565b600082826040516020016108d792919061181d565b60408051601f1981840301815291905280516020909101207f86425bff6b57326c7859e89024fe4f238ca327a1ae4a230180dd2f0e88aaa7d9189392505050565b600080805b8360ff168110156109495761093f60ff601b83900360080287901c168361186f565b915060010161091d565b509392505050565b6000602082106109775760208204840193506020828161097357610973611882565b0691505b508254600882021b602082900380841115610949576001850154600882021c82179150509392505050565b60007f8b9d8c8b908d9affffffffffffffffffab9e9d939a8d0000000000000000000082016109f157507e60030220202000000000000000000000000000000000000000000000000000919050565b6101e1610a1e7f746273746f72650000000000000000005461626c65730000000000000000000084610fc1565b60206000610951565b7f6f74000000000000000000000000000000000000000000000000000000000000837fffff0000000000000000000000000000000000000000000000000000000000001603610aad57827f0e1f72f429eb97e64878619984a91e687ae91610348b9ff4216782cc96e49d0783604051610aa09190611898565b60405180910390a2505050565b6000610ab884610fdd565b905060005b8151811015610b8b576000828281518110610ada57610ada6116dd565b60200260200101519050610b066040826affffffffffffffffffffff191661106690919063ffffffff16565b15610b82576040517f9faeaf45000000000000000000000000000000000000000000000000000000008152606082901c90639faeaf4590610b4f908990899089906004016118ab565b600060405180830381600087803b158015610b6957600080fd5b505af1158015610b7d573d6000803e3d6000fd5b505050505b50600101610abd565b50837f0e1f72f429eb97e64878619984a91e687ae91610348b9ff4216782cc96e49d0784604051610bbc9190611898565b60405180910390a26000610bd085856108c2565b9050610c29816000610be186611084565b67ffffffffffffffff811115610bf957610bf9611584565b6040519080825280601f01601f191660200182016040528015610c23576020820181803683370190505b506110a7565b6000610c34846110bd565b1115610c55576000610c4686866110fa565b9050610c53816020611150565b505b60005b82518110156105f4576000838281518110610c7557610c756116dd565b60200260200101519050610ca16080826affffffffffffffffffffff191661106690919063ffffffff16565b15610d1d576040517f83b5c95b000000000000000000000000000000000000000000000000000000008152606082901c906383b5c95b90610cea908a908a908a906004016118ab565b600060405180830381600087803b158015610d0457600080fd5b505af1158015610d18573d6000803e3d6000fd5b505050505b50600101610c58565b7f6f74000000000000000000000000000000000000000000000000000000000000847fffff0000000000000000000000000000000000000000000000000000000000001603610db057837f8c0b5119d4cec7b284c6b1b39252a03d1e2f2d7451a5895562524c113bb952be848484604051610da3939291906118d4565b60405180910390a2610283565b6000610dbc85856108c2565b90506000610dc986610fdd565b905060005b8151811015610e9e576000828281518110610deb57610deb6116dd565b60200260200101519050610e176004826affffffffffffffffffffff191661106690919063ffffffff16565b15610e95576040517f964f667d000000000000000000000000000000000000000000000000000000008152606082901c9063964f667d90610e62908b908b908b908b90600401611911565b600060405180830381600087803b158015610e7c57600080fd5b505af1158015610e90573d6000803e3d6000fd5b505050505b50600101610dce565b50857f8c0b5119d4cec7b284c6b1b39252a03d1e2f2d7451a5895562524c113bb952be868686604051610ed3939291906118d4565b60405180910390a2610eee828565ffffffffffff16856110a7565b60005b8151811015610763576000828281518110610f0e57610f0e6116dd565b60200260200101519050610f3a6008826affffffffffffffffffffff191661106690919063ffffffff16565b15610fb8576040517fa8ba8721000000000000000000000000000000000000000000000000000000008152606082901c9063a8ba872190610f85908b908b908b908b90600401611911565b600060405180830381600087803b158015610f9f57600080fd5b505af1158015610fb3573d6000803e3d6000fd5b505050505b50600101610ef1565b60408051602081018490529081018290526000906060016108d7565b60408051600180825281830190925260609160009190602080830190803683370190505090508281600081518110611017576110176116dd565b6020908102919091010152600061104f7f746273746f726500000000000000000053746f7265486f6f6b73000000000000838361118d565b90506103d461106182600084516111c7565b61125e565b60008160ff16826110778560581c90565b1660ff1614905092915050565b6000600861109460026020611955565b61109e9190611968565b9190911c919050565b6106e9838383516110b88560200190565b61126f565b600060086001806110d060026020611955565b6110da9190611955565b6110e49190611955565b6110ee9190611968565b8260ff911c1692915050565b6000828260405160200161110f92919061181d565b60408051601f1981840301815291905280516020909101207f14e2fcc58e58e68ec7edc30c8d50dccc3ce2714a623ec81f46b6a63922d76569189392505050565b6000602061115f83601f61186f565b611169919061197f565b611173908461186f565b90505b808310156106e95760008355600183019250611176565b60606103d461119d85858561132e565b60006111c2856111ad89896113ae565b9060ff166028026038011c64ffffffffff1690565b6113c1565b6000818311806111d75750835182115b1561121d578383836040517f23230fa3000000000000000000000000000000000000000000000000000000008152600401611214939291906119a1565b60405180910390fd5b6020840161122b848261186f565b905060006112398585611955565b6fffffffffffffffffffffffffffffffff1660809290921b9190911795945050505050565b6060600061026183601560006113e4565b82156112e957602083106112995760208304840193506020838161129557611295611882565b0692505b82156112e95760208390036000600019600885021c1990506008850281811c91508351811c90508119875416828216178755508184116112da575050610283565b50600194909401939182900391015b5b6020821061130b5780518455600190930192601f19909101906020016112ea565b8115610283576000600019600884021c8554835182191691161785555050505050565b6000838360405160200161134392919061181d565b604051602081830303815290604052805190602001208260f81b7effffffffffffffffffffffffffffffffffffffffffffffffffffffffffffff19167f3b4102da22e32d82fc925482184f16c09fd4281692720b87d124aef6da48a0f1181860001c90509392505050565b60006102616113bd84846110fa565b5490565b60405160208101601f19603f84840101166040528282526109498585858461145f565b606060006113f28560801c90565b90506fffffffffffffffffffffffffffffffff8516600085828161141857611418611882565b04905060405193506020840160208202810160405281855260005b82811015611453578451871c825293870193602090910190600101611433565b50505050509392505050565b82156114e657602083106114895760208304840193506020838161148557611485611882565b0692505b82156114e65760208390036000818410156114ac5750600019600884021c6114b6565b50600019600882021c5b8554600886021b8184511682198216178452508184116114d7575050610283565b50600194909401939182900391015b5b602082106115085783548152600190930192601f19909101906020016114e7565b8115610283576000600019600884021c8251865482191691161782525050505050565b60006020828403121561153d57600080fd5b81357fffffffff000000000000000000000000000000000000000000000000000000008116811461026157600080fd5b80356001600160a01b038116811461085b57600080fd5b634e487b7160e01b600052604160045260246000fd5b600082601f8301126115ab57600080fd5b813567ffffffffffffffff808211156115c6576115c6611584565b604051601f8301601f19908116603f011681019082821181831017156115ee576115ee611584565b8160405283815286602085880101111561160757600080fd5b836020870160208301376000602085830101528094505050505092915050565b60008060006060848603121561163c57600080fd5b6116458461156d565b925060208401359150604084013567ffffffffffffffff81111561166857600080fd5b6116748682870161159a565b9150509250925092565b6000806000806080858703121561169457600080fd5b61169d8561156d565b935060208501359250604085013567ffffffffffffffff8111156116c057600080fd5b6116cc8782880161159a565b949793965093946060013593505050565b634e487b7160e01b600052603260045260246000fd5b60008151808452602080850194506020840160005b8381101561172457815187529582019590820190600101611708565b509495945050505050565b84815260806020820152600061174860808301866116f3565b60ff949094166040830152506060015292915050565b60006020828403121561177057600080fd5b5051919050565b8281526040602082015260006103d460408301846116f3565b6000815180845260005b818110156117b65760208185018101518683018201520161179a565b506000602082860101526020601f19601f83011685010191505092915050565b85815260a0602082015260006117ef60a08301876116f3565b60ff86166040840152828103606084015261180a8186611790565b9150508260808301529695505050505050565b8281526000602080830184516020860160005b8281101561184c57815184529284019290840190600101611830565b5091979650505050505050565b634e487b7160e01b600052601160045260246000fd5b808201808211156101e1576101e1611859565b634e487b7160e01b600052601260045260246000fd5b60208152600061026160208301846116f3565b8381526060602082015260006118c460608301856116f3565b9050826040830152949350505050565b6060815260006118e760608301866116f3565b65ffffffffffff8516602084015282810360408401526119078185611790565b9695505050505050565b84815260806020820152600061192a60808301866116f3565b65ffffffffffff85166040840152828103606084015261194a8185611790565b979650505050505050565b818103818111156101e1576101e1611859565b80820281158282048414176101e1576101e1611859565b60008261199c57634e487b7160e01b600052601260045260246000fd5b500490565b6060815260006119b46060830186611790565b6020830194909452506040015291905056fea2646970667358221220a146c1db9224d93e1b59cd877db5f457857d58ad2bda1f11796ba6b88440d1f864736f6c63430008180033","linkReferences":{}},"methodIdentifiers":{"_msgSender()":"119df25f","_msgValue()":"45ec9354","_world()":"e1af802c","initDelegation(address,bytes32,bytes,uint256)":"32c0520f","supportsInterface(bytes4)":"01ffc9a7","verify(address,bytes32,bytes)":"1a86b550"},"id":90}