{"abi":[{"type":"function","name":"register","inputs":[{"name":"world","type":"address","internalType":"contract IBaseWorld"},{"name":"namespace","type":"bytes14","internalType":"bytes14"}],"outputs":[],"stateMutability":"nonpayable"},{"type":"event","name":"Store_SetRecord","inputs":[{"name":"tableId","type":"bytes32","indexed":true,"internalType":"ResourceId"},{"name":"keyTuple","type":"bytes32[]","indexed":false,"internalType":"bytes32[]"},{"name":"staticData","type":"bytes","indexed":false,"internalType":"bytes"},{"name":"encodedLengths","type":"bytes32","indexed":false,"internalType":"EncodedLengths"},{"name":"dynamicData","type":"bytes","indexed":false,"internalType":"bytes"}],"anonymous":false},{"type":"event","name":"Store_SpliceStaticData","inputs":[{"name":"tableId","type":"bytes32","indexed":true,"internalType":"ResourceId"},{"name":"keyTuple","type":"bytes32[]","indexed":false,"internalType":"bytes32[]"},{"name":"start","type":"uint48","indexed":false,"internalType":"uint48"},{"name":"data","type":"bytes","indexed":false,"internalType":"bytes"}],"anonymous":false},{"type":"error","name":"FieldLayout_Empty","inputs":[]},{"type":"error","name":"FieldLayout_InvalidStaticDataLength","inputs":[{"name":"staticDataLength","type":"uint256","internalType":"uint256"},{"name":"computedStaticDataLength","type":"uint256","internalType":"uint256"}]},{"type":"error","name":"FieldLayout_StaticLengthDoesNotFitInAWord","inputs":[{"name":"index","type":"uint256","internalType":"uint256"}]},{"type":"error","name":"FieldLayout_StaticLengthIsNotZero","inputs":[{"name":"index","type":"uint256","internalType":"uint256"}]},{"type":"error","name":"FieldLayout_StaticLengthIsZero","inputs":[{"name":"index","type":"uint256","internalType":"uint256"}]},{"type":"error","name":"FieldLayout_TooManyDynamicFields","inputs":[{"name":"numFields","type":"uint256","internalType":"uint256"},{"name":"maxFields","type":"uint256","internalType":"uint256"}]},{"type":"error","name":"FieldLayout_TooManyFields","inputs":[{"name":"numFields","type":"uint256","internalType":"uint256"},{"name":"maxFields","type":"uint256","internalType":"uint256"}]},{"type":"error","name":"Schema_InvalidLength","inputs":[{"name":"length","type":"uint256","internalType":"uint256"}]},{"type":"error","name":"Schema_StaticTypeAfterDynamicType","inputs":[]},{"type":"error","name":"Slice_OutOfBounds","inputs":[{"name":"data","type":"bytes","internalType":"bytes"},{"name":"start","type":"uint256","internalType":"uint256"},{"name":"end","type":"uint256","internalType":"uint256"}]},{"type":"error","name":"Store_InvalidFieldNamesLength","inputs":[{"name":"expected","type":"uint256","internalType":"uint256"},{"name":"received","type":"uint256","internalType":"uint256"}]},{"type":"error","name":"Store_InvalidKeyNamesLength","inputs":[{"name":"expected","type":"uint256","internalType":"uint256"},{"name":"received","type":"uint256","internalType":"uint256"}]},{"type":"error","name":"Store_InvalidResourceType","inputs":[{"name":"expected","type":"bytes2","internalType":"bytes2"},{"name":"resourceId","type":"bytes32","internalType":"ResourceId"},{"name":"resourceIdString","type":"string","internalType":"string"}]},{"type":"error","name":"Store_InvalidStaticDataLength","inputs":[{"name":"expected","type":"uint256","internalType":"uint256"},{"name":"received","type":"uint256","internalType":"uint256"}]},{"type":"error","name":"Store_InvalidValueSchemaDynamicLength","inputs":[{"name":"expected","type":"uint256","internalType":"uint256"},{"name":"received","type":"uint256","internalType":"uint256"}]},{"type":"error","name":"Store_InvalidValueSchemaLength","inputs":[{"name":"expected","type":"uint256","internalType":"uint256"},{"name":"received","type":"uint256","internalType":"uint256"}]},{"type":"error","name":"Store_InvalidValueSchemaStaticLength","inputs":[{"name":"expected","type":"uint256","internalType":"uint256"},{"name":"received","type":"uint256","internalType":"uint256"}]},{"type":"error","name":"Store_TableAlreadyExists","inputs":[{"name":"tableId","type":"bytes32","internalType":"ResourceId"},{"name":"tableIdString","type":"string","internalType":"string"}]}],"bytecode":{"object":"0x608060405234801561001057600080fd5b506155f3806100206000396000f3fe608060405234801561001057600080fd5b506004361061002b5760003560e01c8063472466c214610030575b600080fd5b61004361003e366004612453565b610045565b005b6000601082901c7dffffffffffffffffffffffffffff00000000000000000000000000000000167f6e73000000000000000000000000000000000000000000000000000000000000176040517fb29e40890000000000000000000000000000000000000000000000000000000081526004810182905290915073ffffffffffffffffffffffffffffffffffffffff84169063b29e408990602401600060405180830381600087803b1580156100f957600080fd5b505af115801561010d573d6000803e3d6000fd5b5050505061012261011d83610255565b61028d565b61013361012e83610309565b61033b565b61014461013f83610397565b6103c9565b61015561015083610425565b610457565b610166610161836104af565b6104e1565b6101776101728361053d565b61056f565b8273ffffffffffffffffffffffffffffffffffffffff16633350b6a961019c846105c1565b6040516101a890612446565b604051809103906000f0801580156101c4573d6000803e3d6000fd5b506040517fffffffff0000000000000000000000000000000000000000000000000000000060e085901b168152600481019290925273ffffffffffffffffffffffffffffffffffffffff16602482015260016044820152606401600060405180830381600087803b15801561023857600080fd5b505af115801561024c573d6000803e3d6000fd5b50505050505050565b6000610287613a3160f11b837f4f70657261746f72417070726f76616c0000000000000000000000000000000061060a565b92915050565b610306817e010100010000000000000000000000000000000000000000000000000000007e280200616100000000000000000000000000000000000000000000000000007e010100600000000000000000000000000000000000000000000000000000006102f9610691565b610301610769565b6107e0565b50565b6000610287613a3160f11b837f4f776e657273000000000000000000000000000000000000000000000000000061060a565b610306817e14010014000000000000000000000000000000000000000000000000000000632001001f60d81b7e1401006100000000000000000000000000000000000000000000000000000061038f6108b3565b61030161092a565b6000610287613a3160f11b837f546f6b656e417070726f76616c0000000000000000000000000000000000000061060a565b610306817e14010014000000000000000000000000000000000000000000000000000000632001001f60d81b7e1401006100000000000000000000000000000000000000000000000000000061041d6108b3565b6103016109a1565b6000610287613a3160f11b837f546f6b656e55524900000000000000000000000000000000000000000000000061060a565b610306817c0100000000000000000000000000000000000000000000000000000000632001001f60d81b7c01c50000000000000000000000000000000000000000000000000000006104a76108b3565b610301610a18565b6000610287613a3160f11b837f42616c616e63657300000000000000000000000000000000000000000000000061060a565b610306817e200100200000000000000000000000000000000000000000000000000000007e14010061000000000000000000000000000000000000000000000000000000632001001f60d81b6105356109a1565b610301610a8f565b6000610287613a3160f11b837f4d6574616461746100000000000000000000000000000000000000000000000061060a565b610306817c030000000000000000000000000000000000000000000000000000000060007c03c5c5c5000000000000000000000000000000000000000000000000006105b9610b06565b610301610b39565b60006102877f7379000000000000000000000000000000000000000000000000000000000000837f45524337323153797374656d00000000000000000000000000000000000000005b6000610618607060106124e0565b7fffff00000000000000000000000000000000000000000000000000000000000085167dffffffffffffffffffffffffffff00000000000000000000000000000000601086901c16177fffffffffffffffffffffffffffffffff00000000000000000000000000000000841690911c1790509392505050565b6040805160028082526060828101909352816020015b60608152602001906001900390816106a75790505090506040518060400160405280600581526020017f6f776e657200000000000000000000000000000000000000000000000000000081525081600081518110610707576107076124f3565b60200260200101819052506040518060400160405280600881526020017f6f70657261746f720000000000000000000000000000000000000000000000008152508160018151811061075b5761075b6124f3565b602002602001018190525090565b604080516001808252818301909252606091816020015b60608152602001906001900390816107805790505090506040518060400160405280600881526020017f617070726f7665640000000000000000000000000000000000000000000000008152508160008151811061075b5761075b6124f3565b60006107ea610c59565b90503073ffffffffffffffffffffffffffffffffffffffff82160361081c57610817878787878787610ca5565b61024c565b6040517f0ba51f4900000000000000000000000000000000000000000000000000000000815273ffffffffffffffffffffffffffffffffffffffff821690630ba51f4990610878908a908a908a908a908a908a906004016125b3565b600060405180830381600087803b15801561089257600080fd5b505af11580156108a6573d6000803e3d6000fd5b5050505050505050505050565b604080516001808252818301909252606091816020015b60608152602001906001900390816108ca5790505090506040518060400160405280600781526020017f746f6b656e4964000000000000000000000000000000000000000000000000008152508160008151811061075b5761075b6124f3565b604080516001808252818301909252606091816020015b60608152602001906001900390816109415790505090506040518060400160405280600581526020017f6f776e65720000000000000000000000000000000000000000000000000000008152508160008151811061075b5761075b6124f3565b604080516001808252818301909252606091816020015b60608152602001906001900390816109b85790505090506040518060400160405280600781526020017f6163636f756e74000000000000000000000000000000000000000000000000008152508160008151811061075b5761075b6124f3565b604080516001808252818301909252606091816020015b6060815260200190600190039081610a2f5790505090506040518060400160405280600881526020017f746f6b656e5552490000000000000000000000000000000000000000000000008152508160008151811061075b5761075b6124f3565b604080516001808252818301909252606091816020015b6060815260200190600190039081610aa65790505090506040518060400160405280600581526020017f76616c75650000000000000000000000000000000000000000000000000000008152508160008151811061075b5761075b6124f3565b60408051600080825260208201909252606091610b33565b6060815260200190600190039081610b1e5790505b50905090565b60408051600380825260808201909252606091816020015b6060815260200190600190039081610b515790505090506040518060400160405280600481526020017f6e616d650000000000000000000000000000000000000000000000000000000081525081600081518110610bb157610bb16124f3565b60200260200101819052506040518060400160405280600681526020017f73796d626f6c000000000000000000000000000000000000000000000000000081525081600181518110610c0557610c056124f3565b60200260200101819052506040518060400160405280600781526020017f62617365555249000000000000000000000000000000000000000000000000008152508160028151811061075b5761075b6124f3565b7f629a4c26e296b22a8e0856e9f6ecb2d1008d7e00081111962cd175fa7488e1755460009073ffffffffffffffffffffffffffffffffffffffff1680610ca0573391505090565b919050565b613a3160f11b867fffff0000000000000000000000000000000000000000000000000000000000001614801590610d035750611bdd60f21b867fffff0000000000000000000000000000000000000000000000000000000000001614155b15610d6d57613a3160f11b8687604051602001610d2291815260200190565b60408051601f19818403018152908290527f31b46683000000000000000000000000000000000000000000000000000000008252610d649392916004016125fd565b60405180910390fd5b610d7685611161565b610d818460016113b0565b610d8c8360006113b0565b60e084901c60e885901c0160ff16825114610dec5760e084901c60e885901c0160ff1682516040517f0f72cb9800000000000000000000000000000000000000000000000000000000815260048101929092526024820152604401610d64565b60e085901c60e886901c0160ff16815114610e4c5760e085901c60e886901c0160ff1681516040517f7dec4c0000000000000000000000000000000000000000000000000000000000815260048101929092526024820152604401610d64565b60e085901c60e886901c0160ff1660e084901c60e885901c0160ff1614610ec45760e085901c60e886901c0160ff1660e084901c60e885901c0160ff166040517ff29d4d8800000000000000000000000000000000000000000000000000000000815260048101929092526024820152604401610d64565b610ecd8561154c565b610ed68461154c565b14610f2857610ee48561154c565b610eed8461154c565b6040517f65cc0adf00000000000000000000000000000000000000000000000000000000815260048101929092526024820152604401610d64565b610f318561157e565b610f3a8461157e565b14610f8c57610f488561157e565b610f518461157e565b6040517fedea958700000000000000000000000000000000000000000000000000000000815260048101929092526024820152604401610d64565b60005b610f988661154c565b81101561103357610fc2610fac858361159b565b60c5811115610fbd57610fbd61263e565b6115c3565b6008601b8390030287901c60ff161461102b576008601b8290030286901c60ff16610ff0610fac868461159b565b6040517f254c7db400000000000000000000000000000000000000000000000000000000815260048101929092526024820152604401610d64565b600101610f8f565b506000611075613a3160f11b6110498960101b90565b60101c7fffff000000000000000000000000000000000000000000000000000000000000919091161790565b9050600061108c611bdd60f21b6110498a60101b90565b90506110978261161d565b806110a657506110a68161161d565b156111005787886040516020016110bf91815260200190565b60408051601f19818403018152908290527fdfaaf9cf000000000000000000000000000000000000000000000000000000008252610d649291600401612654565b61114c8888888888604051602001611118919061266d565b60405160208183030381529060405288604051602001611138919061266d565b6040516020818303038152906040526116c2565b6111578860016117a5565b5050505050505050565b80611198576040517fa019e4da00000000000000000000000000000000000000000000000000000000815260040160405180910390fd5b60006111a38261157e565b905060058111156111ea576040517f6793df620000000000000000000000000000000000000000000000000000000081526004810182905260056024820152604401610d64565b60006111f58361154c565b9050600061120383836124e0565b9050601c81111561124a576040517fecd893b900000000000000000000000000000000000000000000000000000000815260048101829052601c6024820152604401610d64565b6000805b838110156112f55760ff601b82900360080287901c1660008190036112a2576040517f53b2dd0500000000000000000000000000000000000000000000000000000000815260048101839052602401610d64565b60208111156112e0576040517f7237f23700000000000000000000000000000000000000000000000000000000815260048101839052602401610d64565b6112ea81846124e0565b92505060010161124e565b506112ff85611863565b811461134b5761130e85611863565b6040517feba964de000000000000000000000000000000000000000000000000000000008152600481019190915260248101829052604401610d64565b825b601c8110156113a85760ff601b82900360080287901c16801561139f576040517f1d8d44db00000000000000000000000000000000000000000000000000000000815260048101839052602401610d64565b5060010161134d565b505050505050565b801580156113bc575081155b156113dd5760405163d498615960e01b815260006004820152602401610d64565b60006113e88361157e565b9050600581111561140f5760405163d498615960e01b815260048101829052602401610d64565b600061141a8461154c565b9050600061142883836124e0565b9050601c81111561144f5760405163d498615960e01b815260048101829052602401610d64565b6000805b838110156114bb57600061146a610fac898461159b565b9050806000036114a6576040517ff44b422000000000000000000000000000000000000000000000000000000000815260040160405180910390fd5b6114b081846124e0565b925050600101611453565b506114c586611863565b81146114f0576114d486611863565b60405163d498615960e01b8152600401610d6491815260200190565b825b8281101561024c576000611509610fac898461159b565b90508015611543576040517ff44b422000000000000000000000000000000000000000000000000000000000815260040160405180910390fd5b506001016114f2565b60006008600161155e60026020612680565b6115689190612680565b6115729190612693565b8260ff911c1692915050565b6000600860018061159160026020612680565b61155e9190612680565b6000601b8290036008028360ff911c1660c58111156115bc576115bc61263e565b9392505050565b6000808260c58111156115d8576115d861263e565b60ff16905060618110156115f257601f1660010192915050565b60618360c58111156116065761160661263e565b036116145750601492915050565b50600092915050565b604080516001808252818301909252600091829190602080830190803683370190505090508281600081518110611656576116566124f3565b602090810291909101015260006116ae7f746273746f72650000000000000000005265736f75726365496473000000000083837e01010001000000000000000000000000000000000000000000000000000000611886565b90506116ba8160f81c90565b949350505050565b6040805160208101879052808201869052606080820186905282518083039091018152608090910190915260006116f984846118bc565b9050600061170785856118d9565b60408051600180825281830190925291925060009190602080830190803683370190505090508981600081518110611741576117416124f3565b60209081029190910101526117997f746273746f72650000000000000000005461626c657300000000000000000000828686867e60030220202000000000000000000000000000000000000000000000000000611905565b50505050505050505050565b6040805160018082528183019092526000916020808301908036833701905050905082816000815181106117db576117db6124f3565b60200260200101818152505061185e7f746273746f72650000000000000000005265736f75726365496473000000000060001b8260008560405160200161182991151560f81b815260010190565b60408051601f198184030181529190527e01010001000000000000000000000000000000000000000000000000000000611c23565b505050565b6000600861187360026020612680565b61187d9190612693565b9190911c919050565b60006118b36118958686611c3f565b60ff858116601b0360080285901c166118ae8587611c95565b611cce565b95945050505050565b8151815160009181810160389190911b1760609190911b176115bc565b606082826040516020016118ee9291906126aa565b604051602081830303815290604052905092915050565b611bdd60f21b867fffff000000000000000000000000000000000000000000000000000000000000160361197657857f8dbb3a9672eebfd3773e72dd9c102393436816d832c7ba9e1e1ac8fcadcac7a9868686866040516119699493929190612715565b60405180910390a26113a8565b600061198187611d1f565b905060005b8151811015611a5a5760008282815181106119a3576119a36124f3565b602002602001015190506119cf6001826affffffffffffffffffffff1916611da890919063ffffffff16565b15611a51576040517f57066c9c000000000000000000000000000000000000000000000000000000008152606082901c906357066c9c90611a1e908c908c908c908c908c908c9060040161275f565b600060405180830381600087803b158015611a3857600080fd5b505af1158015611a4c573d6000803e3d6000fd5b505050505b50600101611986565b50867f8dbb3a9672eebfd3773e72dd9c102393436816d832c7ba9e1e1ac8fcadcac7a987878787604051611a919493929190612715565b60405180910390a26000611aa58888611c3f565b90506000602087019050611abd826000895184611dc6565b6000611ac88561157e565b1115611b4c576000611ada8a8a611e84565b878155905060208601915060008060005b611af48861157e565b8160ff161015611b4757611b098d8d83611eda565b9250611b248a8260ff166028026038011c64ffffffffff1690565b9150611b338360008488611dc6565b611b3d82866124e0565b9450600101611aeb565b505050505b60005b8351811015611799576000848281518110611b6c57611b6c6124f3565b60200260200101519050611b986002826affffffffffffffffffffff1916611da890919063ffffffff16565b15611c1a576040517f5b28cdaf000000000000000000000000000000000000000000000000000000008152606082901c90635b28cdaf90611be7908e908e908e908e908e908e9060040161275f565b600060405180830381600087803b158015611c0157600080fd5b505af1158015611c15573d6000803e3d6000fd5b505050505b50600101611b4f565b611c388585611c328487611c95565b85611f5a565b5050505050565b60008282604051602001611c549291906127b8565b60408051601f1981840301815291905280516020909101207f86425bff6b57326c7859e89024fe4f238ca327a1ae4a230180dd2f0e88aaa7d9189392505050565b600080805b8360ff16811015611cc657611cbc60ff601b83900360080287901c16836124e0565b9150600101611c9a565b509392505050565b600060208210611cf457602082048401935060208281611cf057611cf06127f4565b0691505b508254600882021b602082900380841115611cc6576001850154600882021c82179150509392505050565b60408051600180825281830190925260609160009190602080830190803683370190505090508281600081518110611d5957611d596124f3565b60209081029190910101526000611d917f746273746f726500000000000000000053746f7265486f6f6b7300000000000083836121da565b90506116ba611da38260008451612214565b6122a2565b60008160ff1682611db98560581c90565b1660ff1614905092915050565b8215611e405760208310611df057602083048401935060208381611dec57611dec6127f4565b0692505b8215611e405760208390036000600019600885021c1990506008850281811c91508351811c9050811987541682821617875550818411611e31575050611e7e565b50600194909401939182900391015b5b60208210611e625780518455600190930192601f1990910190602001611e41565b8115611e7e5783548151600019600885021c9182169119161784555b50505050565b60008282604051602001611e999291906127b8565b60408051601f1981840301815291905280516020909101207f14e2fcc58e58e68ec7edc30c8d50dccc3ce2714a623ec81f46b6a63922d76569189392505050565b60008383604051602001611eef9291906127b8565b604051602081830303815290604052805190602001208260f81b7effffffffffffffffffffffffffffffffffffffffffffffffffffffffffffff19167f3b4102da22e32d82fc925482184f16c09fd4281692720b87d124aef6da48a0f1181860001c90509392505050565b611bdd60f21b847fffff0000000000000000000000000000000000000000000000000000000000001603611fc957837f8c0b5119d4cec7b284c6b1b39252a03d1e2f2d7451a5895562524c113bb952be848484604051611fbc9392919061280a565b60405180910390a2611e7e565b6000611fd58585611c3f565b90506000611fe286611d1f565b905060005b81518110156120b7576000828281518110612004576120046124f3565b602002602001015190506120306004826affffffffffffffffffffff1916611da890919063ffffffff16565b156120ae576040517f964f667d000000000000000000000000000000000000000000000000000000008152606082901c9063964f667d9061207b908b908b908b908b90600401612847565b600060405180830381600087803b15801561209557600080fd5b505af11580156120a9573d6000803e3d6000fd5b505050505b50600101611fe7565b50857f8c0b5119d4cec7b284c6b1b39252a03d1e2f2d7451a5895562524c113bb952be8686866040516120ec9392919061280a565b60405180910390a2612107828565ffffffffffff16856122b3565b60005b815181101561024c576000828281518110612127576121276124f3565b602002602001015190506121536008826affffffffffffffffffffff1916611da890919063ffffffff16565b156121d1576040517fa8ba8721000000000000000000000000000000000000000000000000000000008152606082901c9063a8ba87219061219e908b908b908b908b90600401612847565b600060405180830381600087803b1580156121b857600080fd5b505af11580156121cc573d6000803e3d6000fd5b505050505b5060010161210a565b60606116ba6121ea858585611eda565b600061220f856121fa89896122c9565b9060ff166028026038011c64ffffffffff1690565b6122dc565b6000818311806122245750835182115b15612261578383836040517f23230fa3000000000000000000000000000000000000000000000000000000008152600401610d6493929190612880565b6020840161226f84826124e0565b9050600061227d8585612680565b6fffffffffffffffffffffffffffffffff1660809290921b9190911795945050505050565b606060006115bc83601560006122ff565b61185e838383516122c48560200190565b611dc6565b60006115bc6122d88484611e84565b5490565b60405160208101601f19603f8484010116604052828252611cc68585858461237a565b6060600061230d8560801c90565b90506fffffffffffffffffffffffffffffffff85166000858281612333576123336127f4565b04905060405193506020840160208202810160405281855260005b8281101561236e578451871c82529387019360209091019060010161234e565b50505050509392505050565b821561240157602083106123a4576020830484019350602083816123a0576123a06127f4565b0692505b82156124015760208390036000818410156123c75750600019600884021c6123d1565b50600019600882021c5b8554600886021b8184511682198216178452508184116123f2575050611e7e565b50600194909401939182900391015b5b602082106124235783548152600190930192601f1990910190602001612402565b8115611e7e576000600019600884021c8251865482191691161782525050505050565b612d18806128a683390190565b6000806040838503121561246657600080fd5b823573ffffffffffffffffffffffffffffffffffffffff8116811461248a57600080fd5b915060208301357fffffffffffffffffffffffffffff000000000000000000000000000000000000811681146124bf57600080fd5b809150509250929050565b634e487b7160e01b600052601160045260246000fd5b80820180821115610287576102876124ca565b634e487b7160e01b600052603260045260246000fd5b60005b8381101561252457818101518382015260200161250c565b50506000910152565b60008151808452612545816020860160208601612509565b601f01601f19169290920160200192915050565b60008282518085526020808601955060208260051b8401016020860160005b848110156125a657601f1986840301895261259483835161252d565b98840198925090830190600101612578565b5090979650505050505050565b86815285602082015284604082015283606082015260c0608082015260006125de60c0830185612559565b82810360a08401526125f08185612559565b9998505050505050505050565b7fffff000000000000000000000000000000000000000000000000000000000000841681528260208201526060604082015260006118b3606083018461252d565b634e487b7160e01b600052602160045260246000fd5b8281526040602082015260006116ba604083018461252d565b6020815260006115bc6020830184612559565b81810381811115610287576102876124ca565b8082028115828204841417610287576102876124ca565b600083516126bc818460208801612509565b8351908301906126d0818360208801612509565b01949350505050565b60008151808452602080850194506020840160005b8381101561270a578151875295820195908201906001016126ee565b509495945050505050565b60808152600061272860808301876126d9565b828103602084015261273a818761252d565b90508460408401528281036060840152612754818561252d565b979650505050505050565b86815260c06020820152600061277860c08301886126d9565b828103604084015261278a818861252d565b905085606084015282810360808401526127a4818661252d565b9150508260a0830152979650505050505050565b8281526000602080830184516020860160005b828110156127e7578151845292840192908401906001016127cb565b5091979650505050505050565b634e487b7160e01b600052601260045260246000fd5b60608152600061281d60608301866126d9565b65ffffffffffff85166020840152828103604084015261283d818561252d565b9695505050505050565b84815260806020820152600061286060808301866126d9565b65ffffffffffff851660408401528281036060840152612754818561252d565b606081526000612893606083018661252d565b6020830194909452506040015291905056fe608060405234801561001057600080fd5b50612cf8806100206000396000f3fe608060405234801561001057600080fd5b506004361061016c5760003560e01c80636352211e116100cd578063a22cb46511610081578063c87b56dd11610066578063c87b56dd146102d1578063e1af802c146102e4578063e985e9c5146102ec57600080fd5b8063a22cb465146102ab578063b88d4fde146102be57600080fd5b80638832e6e3116100b25780638832e6e31461027d57806395d89b4114610290578063a14481941461029857600080fd5b80636352211e1461025757806370a082311461026a57600080fd5b806323b872dd1161012457806342842e0e1161010957806342842e0e1461021c57806342966c681461022f57806345ec93541461024257600080fd5b806323b872dd146101f657806340c10f191461020957600080fd5b8063081812fc11610155578063081812fc146101ae578063095ea7b3146101d9578063119df25f146101ee57600080fd5b806301ffc9a71461017157806306fdde0314610199575b600080fd5b61018461017f36600461254b565b6102ff565b60405190151581526020015b60405180910390f35b6101a1610398565b60405161019091906125b8565b6101c16101bc3660046125cb565b6103b7565b6040516001600160a01b039091168152602001610190565b6101ec6101e73660046125fb565b6103cc565b005b6101c16103e2565b6101ec610204366004612625565b6103ec565b6101ec6102173660046125fb565b61049c565b6101ec61022a366004612625565b6104ae565b6101ec61023d3660046125cb565b6104ce565b36601f1901355b604051908152602001610190565b6101c16102653660046125cb565b6104e2565b610249610278366004612661565b6104ed565b6101ec61028b366004612741565b61054b565b6101a161055e565b6101ec6102a63660046125fb565b610573565b6101ec6102b9366004612798565b610595565b6101ec6102cc3660046127d4565b6105a7565b6101a16102df3660046125cb565b6105be565b6101c1610648565b6101846102fa36600461283c565b610652565b60007fffffffff0000000000000000000000000000000000000000000000000000000082167fb5dee12700000000000000000000000000000000000000000000000000000000148061039257507fffffffff0000000000000000000000000000000000000000000000000000000082167f01ffc9a700000000000000000000000000000000000000000000000000000000145b92915050565b60606103b26103ad6103a8610675565b610693565b6106c5565b905090565b60006103c2826106e3565b5061039282610734565b6103de82826103d96103e2565b61074f565b5050565b60006103b261075c565b6001600160a01b03821661041b57604051633250574960e11b8152600060048201526024015b60405180910390fd5b600061042f838361042a6103e2565b61078e565b9050836001600160a01b0316816001600160a01b031614610496576040517f64283d7b0000000000000000000000000000000000000000000000000000000081526001600160a01b0380861660048301526024820184905282166044820152606401610412565b50505050565b6104a4610912565b6103de828261092d565b6104c9838383604051806020016040528060008152506105a7565b505050565b6104d6610912565b6104df816109ab565b50565b6000610392826106e3565b60006001600160a01b038216610532576040517f89c62b6400000000000000000000000000000000000000000000000000000000815260006004820152602401610412565b610392610545610540610675565b6109ff565b83610a31565b610553610912565b6104c9838383610ab7565b60606103b261056e6103a8610675565b610ace565b61057b610912565b6103de828260405180602001604052806000815250610ab7565b6103de6105a06103e2565b8383610aed565b6105b28484846103ec565b61049684848484610c11565b60606105c9826106e3565b5060006105d4610d72565b905060006105f16105eb6105e6610675565b610d87565b85610db9565b9050600081511161060a5761060584610e10565b61060c565b805b9050600082511161061d5780610640565b818160405160200161063092919061286f565b6040516020818303038152906040525b949350505050565b60006103b2610e54565b600061066e610667610662610675565b610e5e565b8484610e90565b9392505050565b60008061068130610f4f565b905061068d8160101b90565b91505090565b6000610392613a3160f11b837f4d65746164617461000000000000000000000000000000000000000000000000610fec565b60408051600080825260208201909252606091610640848383611064565b6000806106ef8361112b565b90506001600160a01b038116610392576040517f7e27328900000000000000000000000000000000000000000000000000000000815260048101849052602401610412565b6000610392610749610744610675565b61113b565b8361116d565b6104c983838360016111ed565b7fffffffffffffffffffffffffffffffffffffffffffffffffffffffffffffffcc36013560601c8061078b5750335b90565b60008061079c610540610675565b905060006107a98561112b565b90506001600160a01b038416156107c5576107c581858761137f565b6001600160a01b038116156107f9576107e26000866000806111ed565b6107f9828260016107f38686610a31565b03611415565b6001600160a01b0386161561081f5761081f8287610817858a610a31565b600101611415565b61083961083261082d610675565b6114b2565b86886114e4565b6108416115a1565b6001600160a01b03166366c93bdb7fddf252ad1be2c89b69c2b068fc378daa952ba7f163c4a11628f55a4df523b3ef610880846001600160a01b031690565b604080516000815260208101918290527fffffffff0000000000000000000000000000000000000000000000000000000060e086901b169091526108d69291906001600160a01b038c16908b906024810161289e565b600060405180830381600087803b1580156108f057600080fd5b505af1158015610904573d6000803e3d6000fd5b509298975050505050505050565b61092b61091e30610f4f565b6109266103e2565b61167c565b565b6001600160a01b03821661095757604051633250574960e11b815260006004820152602401610412565b60006109658383600061078e565b90506001600160a01b038116156104c9576040517f73c6ac6e00000000000000000000000000000000000000000000000000000000815260006004820152602401610412565b60006109ba600083600061078e565b90506001600160a01b0381166103de576040517f7e27328900000000000000000000000000000000000000000000000000000000815260048101839052602401610412565b6000610392613a3160f11b837f42616c616e636573000000000000000000000000000000000000000000000000610fec565b60408051600180825281830190925260009182919060208083019080368337019050509050826001600160a01b031660001b81600081518110610a7657610a766128d4565b60209081029190910101526000610aae8583837e2001002000000000000000000000000000000000000000000000000000000061171d565b95945050505050565b610ac1838361092d565b6104c96000848484610c11565b6040805160008082526020820190925260609161064084836001611064565b6001600160a01b038216610b38576040517f5b08ba180000000000000000000000000000000000000000000000000000000081526001600160a01b0383166004820152602401610412565b610b4e610b46610662610675565b8484846117da565b610b566115a1565b6001600160a01b031663c9a34acd7f17307eab39ab6107e8899845ad3d59bd9653f200f220920489ca2b5937696c31610b95866001600160a01b031690565b6001600160a01b038616604080518715156020820152016040516020818303038152906040526040518563ffffffff1660e01b8152600401610bda94939291906128ea565b600060405180830381600087803b158015610bf457600080fd5b505af1158015610c08573d6000803e3d6000fd5b50505050505050565b6001600160a01b0383163b1561049657826001600160a01b031663150b7a02610c386103e2565b8685856040518563ffffffff1660e01b8152600401610c5a949392919061290f565b6020604051808303816000875af1925050508015610c95575060408051601f3d908101601f19168201909252610c9291810190612941565b60015b610cfe573d808015610cc3576040519150601f19603f3d011682016040523d82523d6000602084013e610cc8565b606091505b508051600003610cf657604051633250574960e11b81526001600160a01b0385166004820152602401610412565b805181602001fd5b7fffffffff0000000000000000000000000000000000000000000000000000000081167f150b7a020000000000000000000000000000000000000000000000000000000014610d6b57604051633250574960e11b81526001600160a01b0385166004820152602401610412565b5050505050565b60606103b2610d826103a8610675565b6118a7565b6000610392613a3160f11b837f546f6b656e555249000000000000000000000000000000000000000000000000610fec565b60408051600180825281830190925260609160009190602080830190803683370190505090508260001b81600081518110610df657610df66128d4565b6020026020010181815250506000610aae85836000611064565b606060a06040510180604052602081039150506000815280825b600183039250600a81066030018353600a900480610e2a5750819003601f19909101908152919050565b60006103b26118c6565b6000610392613a3160f11b837f4f70657261746f72417070726f76616c00000000000000000000000000000000610fec565b60408051600280825260608201835260009283929190602083019080368337019050509050836001600160a01b031660001b81600081518110610ed557610ed56128d4565b602002602001018181525050826001600160a01b031660001b81600181518110610f0157610f016128d4565b60209081029190910101526000610f398683837e0101000100000000000000000000000000000000000000000000000000000061171d565b9050610f458160f81c90565b9695505050505050565b60408051600180825281830190925260009182919060208083019080368337019050509050826001600160a01b031660001b81600081518110610f9457610f946128d4565b602090810291909101015260006106407f7462776f726c6400000000000000000053797374656d5265676973747279000083837e2001002000000000000000000000000000000000000000000000000000000061171d565b6000610ffa60706010612974565b7fffff00000000000000000000000000000000000000000000000000000000000085167dffffffffffffffffffffffffffff00000000000000000000000000000000601086901c16176fffffffffffffffffffffffffffffffff19841690911c1790509392505050565b606060006110706118c6565b9050306001600160a01b038216036110955761108d858585611905565b91505061066e565b6040517f1e7889770000000000000000000000000000000000000000000000000000000081526001600160a01b03821690631e788977906110de908890889088906004016129c3565b600060405180830381865afa1580156110fb573d6000803e3d6000fd5b505050506040513d6000823e601f3d908101601f1916820160405261108d91908101906129ef565b509392505050565b600061039261074961082d610675565b6000610392613a3160f11b837f546f6b656e417070726f76616c00000000000000000000000000000000000000610fec565b604080516001808252818301909252600091829190602080830190803683370190505090508260001b816000815181106111a9576111a96128d4565b602090810291909101015260006111e18583837e1401001400000000000000000000000000000000000000000000000000000061171d565b60601c95945050505050565b808061120157506001600160a01b03821615155b1561136a576000611211846106e3565b90506001600160a01b0383161580159061123d5750826001600160a01b0316816001600160a01b031614155b8015611250575061124e8184610652565b155b15611292576040517fa9fbf51f0000000000000000000000000000000000000000000000000000000081526001600160a01b0384166004820152602401610412565b8115611368576112a06115a1565b6001600160a01b03166366c93bdb7f8c5be1e5ebec7d5bd14f71427d1e84f3dd0314c0f7b2291e5b200ac8c7c3b9256112df846001600160a01b031690565b604080516000815260208101918290527fffffffff0000000000000000000000000000000000000000000000000000000060e086901b169091526113359291906001600160a01b038b16908a906024810161289e565b600060405180830381600087803b15801561134f57600080fd5b505af1158015611363573d6000803e3d6000fd5b505050505b505b610496611378610744610675565b84866114e4565b61138a83838361193f565b6104c9576001600160a01b0383166113d1576040517f7e27328900000000000000000000000000000000000000000000000000000000815260048101829052602401610412565b6040517f177e802f0000000000000000000000000000000000000000000000000000000081526001600160a01b038316600482015260248101829052604401610412565b60408051600180825281830190925260009160208083019080368337019050509050826001600160a01b031660001b81600081518110611457576114576128d4565b602002602001018181525050610496848260008560405160200161147d91815260200190565b60408051601f198184030181529190527e200100200000000000000000000000000000000000000000000000000000006119a4565b6000610392613a3160f11b837f4f776e6572730000000000000000000000000000000000000000000000000000610fec565b604080516001808252818301909252600091602080830190803683370190505090508260001b8160008151811061151d5761151d6128d4565b602002602001018181525050610496848260008560405160200161156c919060609190911b7fffffffffffffffffffffffffffffffffffffffff00000000000000000000000016815260140190565b60408051601f198184030181529190527e140100140000000000000000000000000000000000000000000000000000006119a4565b6000806115ad30610f4f565b60408051613a3160f11b60208201527f707570706574000000000000000000000000000000000000000000000000000060228201527f50757070657452656769737472790000000000000000000000000000000000006030820152919250600091611631910160405160208183030381529060405261162b90612a5d565b83611a5a565b90506001600160a01b038116610392576040517f9434f7e100000000000000000000000000000000000000000000000000000000815230600482015260248101839052604401610412565b6001600160a01b0381166116d17f6e730000000000000000000000000000000000000000000000000000000000007dffffffffffffffffffffffffffff00000000000000000000000000000000851617611a93565b6001600160a01b0316146103de576116e882611b2f565b816040517fd787b737000000000000000000000000000000000000000000000000000000008152600401610412929190612a84565b6000806117286118c6565b9050306001600160a01b0382160361174e5761174686868686611c5d565b915050610640565b6040517f8c364d590000000000000000000000000000000000000000000000000000000081526001600160a01b03821690638c364d5990611799908990899089908990600401612aaf565b602060405180830381865afa1580156117b6573d6000803e3d6000fd5b505050506040513d601f19601f820116820180604052508101906117469190612ade565b604080516002808252606082018352600092602083019080368337019050509050836001600160a01b031660001b8160008151811061181b5761181b6128d4565b602002602001018181525050826001600160a01b031660001b81600181518110611847576118476128d4565b602002602001018181525050610d6b858260008560405160200161187291151560f81b815260010190565b60408051601f198184030181529190527e010100010000000000000000000000000000000000000000000000000000006119a4565b6040805160008082526020820190925260609161064084836002611064565b7f629a4c26e296b22a8e0856e9f6ecb2d1008d7e00081111962cd175fa7488e175546000906001600160a01b031680611900573391505090565b919050565b6060610640611915858585611c8a565b600061193a856119258989611d0a565b9060ff166028026038011c64ffffffffff1690565b611d1d565b60006001600160a01b038316158015906106405750826001600160a01b0316846001600160a01b0316148061197957506119798484610652565b806106405750826001600160a01b031661199283610734565b6001600160a01b031614949350505050565b60006119ae6118c6565b9050306001600160a01b038216036119d2576119cd8686868686611d40565b611a52565b6040517f390baae00000000000000000000000000000000000000000000000000000000081526001600160a01b0382169063390baae090611a1f9089908990899089908990600401612af7565b600060405180830381600087803b158015611a3957600080fd5b505af1158015611a4d573d6000803e3d6000fd5b505050505b505050505050565b6040805160018082528183019092526000918291906020808301908036833701905050905082816000815181106111a9576111a96128d4565b604080516001808252818301909252600091829190602080830190803683370190505090508281600081518110611acc57611acc6128d4565b60209081029190910101526000611b247f7462776f726c640000000000000000004e616d6573706163654f776e6572000083837e1401001400000000000000000000000000000000000000000000000000000061171d565b60601c949350505050565b606081601081901b6000611b4283611d55565b9050827fffffffffffffffffffffffffffff000000000000000000000000000000000000831615611b9d57611b987fffffffffffffffffffffffffffff0000000000000000000000000000000000008416611d6c565b611bd4565b6040518060400160405280600681526020017f3c726f6f743e00000000000000000000000000000000000000000000000000008152505b6fffffffffffffffffffffffffffffffff19831615611bfb57611bf683611d6c565b611c32565b6040518060400160405280600681526020017f3c726f6f743e00000000000000000000000000000000000000000000000000008152505b604051602001611c4493929190612b3e565b6040516020818303038152906040529350505050919050565b6000610aae611c6c8686611df2565b60ff858116601b0360080285901c16611c858587611e48565b611e79565b60008383604051602001611c9f929190612bcc565b604051602081830303815290604052805190602001208260f81b7effffffffffffffffffffffffffffffffffffffffffffffffffffffffffffff19167f3b4102da22e32d82fc925482184f16c09fd4281692720b87d124aef6da48a0f1181860001c90509392505050565b600061066e611d198484611eca565b5490565b60405160208101601f19603f848401011660405282825261112385858584611f20565b610d6b8585611d4f8487611e48565b85611fec565b6000611d6360706010612974565b9190911b919050565b606060005b6010811015611dc2576fffffffffffffffffffffffffffffffff198316600882021b7fff000000000000000000000000000000000000000000000000000000000000001615611dc257600101611d71565b604080516fffffffffffffffffffffffffffffffff19851660208201528151603090910190915281815280610640565b60008282604051602001611e07929190612bcc565b60408051601f1981840301815291905280516020909101207f86425bff6b57326c7859e89024fe4f238ca327a1ae4a230180dd2f0e88aaa7d9189392505050565b600080805b8360ff1681101561112357611e6f60ff601b83900360080287901c1683612974565b9150600101611e4d565b600060208210611e9f57602082048401935060208281611e9b57611e9b612c08565b0691505b508254600882021b602082900380841115611123576001850154600882021c82179150509392505050565b60008282604051602001611edf929190612bcc565b60408051601f1981840301815291905280516020909101207f14e2fcc58e58e68ec7edc30c8d50dccc3ce2714a623ec81f46b6a63922d76569189392505050565b8215611fa75760208310611f4a57602083048401935060208381611f4657611f46612c08565b0692505b8215611fa7576020839003600081841015611f6d5750600019600884021c611f77565b50600019600882021c5b8554600886021b818451168219821617845250818411611f98575050610496565b50600194909401939182900391015b5b60208210611fc95783548152600190930192601f1990910190602001611fa8565b8115610496576000600019600884021c8251865482191691161782525050505050565b7f6f74000000000000000000000000000000000000000000000000000000000000847fffff000000000000000000000000000000000000000000000000000000000000160361207657837f8c0b5119d4cec7b284c6b1b39252a03d1e2f2d7451a5895562524c113bb952be84848460405161206993929190612c1e565b60405180910390a2610496565b60006120828585611df2565b9050600061208f86612287565b905060005b81518110156121645760008282815181106120b1576120b16128d4565b602002602001015190506120dd6004826affffffffffffffffffffff191661231090919063ffffffff16565b1561215b576040517f964f667d000000000000000000000000000000000000000000000000000000008152606082901c9063964f667d90612128908b908b908b908b90600401612c51565b600060405180830381600087803b15801561214257600080fd5b505af1158015612156573d6000803e3d6000fd5b505050505b50600101612094565b50857f8c0b5119d4cec7b284c6b1b39252a03d1e2f2d7451a5895562524c113bb952be86868660405161219993929190612c1e565b60405180910390a26121b4828565ffffffffffff168561232e565b60005b8151811015610c085760008282815181106121d4576121d46128d4565b602002602001015190506122006008826affffffffffffffffffffff191661231090919063ffffffff16565b1561227e576040517fa8ba8721000000000000000000000000000000000000000000000000000000008152606082901c9063a8ba87219061224b908b908b908b908b90600401612c51565b600060405180830381600087803b15801561226557600080fd5b505af1158015612279573d6000803e3d6000fd5b505050505b506001016121b7565b604080516001808252818301909252606091600091906020808301908036833701905050905082816000815181106122c1576122c16128d4565b602090810291909101015260006122f97f746273746f726500000000000000000053746f7265486f6f6b730000000000008383611905565b905061064061230b8260008451612344565b6123d2565b60008160ff16826123218560581c90565b1660ff1614905092915050565b6104c98383835161233f8560200190565b6123e3565b6000818311806123545750835182115b15612391578383836040517f23230fa300000000000000000000000000000000000000000000000000000000815260040161041293929190612c8a565b6020840161239f8482612974565b905060006123ad8585612caf565b6fffffffffffffffffffffffffffffffff1660809290921b9190911795945050505050565b6060600061066e83601560006124a2565b821561245d576020831061240d5760208304840193506020838161240957612409612c08565b0692505b821561245d5760208390036000600019600885021c1990506008850281811c91508351811c905081198754168282161787555081841161244e575050610496565b50600194909401939182900391015b5b6020821061247f5780518455600190930192601f199091019060200161245e565b8115610496576000600019600884021c8554835182191691161785555050505050565b606060006124b08560801c90565b90506fffffffffffffffffffffffffffffffff851660008582816124d6576124d6612c08565b04905060405193506020840160208202810160405281855260005b82811015612511578451871c8252938701936020909101906001016124f1565b50505050509392505050565b7fffffffff00000000000000000000000000000000000000000000000000000000811681146104df57600080fd5b60006020828403121561255d57600080fd5b813561066e8161251d565b60005b8381101561258357818101518382015260200161256b565b50506000910152565b600081518084526125a4816020860160208601612568565b601f01601f19169290920160200192915050565b60208152600061066e602083018461258c565b6000602082840312156125dd57600080fd5b5035919050565b80356001600160a01b038116811461190057600080fd5b6000806040838503121561260e57600080fd5b612617836125e4565b946020939093013593505050565b60008060006060848603121561263a57600080fd5b612643846125e4565b9250612651602085016125e4565b9150604084013590509250925092565b60006020828403121561267357600080fd5b61066e826125e4565b634e487b7160e01b600052604160045260246000fd5b604051601f8201601f1916810167ffffffffffffffff811182821017156126bb576126bb61267c565b604052919050565b600067ffffffffffffffff8211156126dd576126dd61267c565b50601f01601f191660200190565b600082601f8301126126fc57600080fd5b813561270f61270a826126c3565b612692565b81815284602083860101111561272457600080fd5b816020850160208301376000918101602001919091529392505050565b60008060006060848603121561275657600080fd5b61275f846125e4565b925060208401359150604084013567ffffffffffffffff81111561278257600080fd5b61278e868287016126eb565b9150509250925092565b600080604083850312156127ab57600080fd5b6127b4836125e4565b9150602083013580151581146127c957600080fd5b809150509250929050565b600080600080608085870312156127ea57600080fd5b6127f3856125e4565b9350612801602086016125e4565b925060408501359150606085013567ffffffffffffffff81111561282457600080fd5b612830878288016126eb565b91505092959194509250565b6000806040838503121561284f57600080fd5b612858836125e4565b9150612866602084016125e4565b90509250929050565b60008351612881818460208801612568565b835190830190612895818360208801612568565b01949350505050565b85815284602082015283604082015282606082015260a0608082015260006128c960a083018461258c565b979650505050505050565b634e487b7160e01b600052603260045260246000fd5b848152836020820152826040820152608060608201526000610f45608083018461258c565b60006001600160a01b03808716835280861660208401525083604083015260806060830152610f45608083018461258c565b60006020828403121561295357600080fd5b815161066e8161251d565b634e487b7160e01b600052601160045260246000fd5b808201808211156103925761039261295e565b60008151808452602080850194506020840160005b838110156129b85781518752958201959082019060010161299c565b509495945050505050565b8381526060602082015260006129dc6060830185612987565b905060ff83166040830152949350505050565b600060208284031215612a0157600080fd5b815167ffffffffffffffff811115612a1857600080fd5b8201601f81018413612a2957600080fd5b8051612a3761270a826126c3565b818152856020838501011115612a4c57600080fd5b610aae826020830160208601612568565b80516020808301519190811015612a7e576000198160200360031b1b821691505b50919050565b604081526000612a97604083018561258c565b90506001600160a01b03831660208301529392505050565b848152608060208201526000612ac86080830186612987565b60ff949094166040830152506060015292915050565b600060208284031215612af057600080fd5b5051919050565b85815260a060208201526000612b1060a0830187612987565b60ff861660408401528281036060840152612b2b818661258c565b9150508260808301529695505050505050565b7fffff0000000000000000000000000000000000000000000000000000000000008416815260007f3a000000000000000000000000000000000000000000000000000000000000008060028401528451612b9f816003860160208901612568565b808401905081600382015284519150612bbf826004830160208801612568565b0160040195945050505050565b8281526000602080830184516020860160005b82811015612bfb57815184529284019290840190600101612bdf565b5091979650505050505050565b634e487b7160e01b600052601260045260246000fd5b606081526000612c316060830186612987565b65ffffffffffff851660208401528281036040840152610f45818561258c565b848152608060208201526000612c6a6080830186612987565b65ffffffffffff8516604084015282810360608401526128c9818561258c565b606081526000612c9d606083018661258c565b60208301949094525060400152919050565b818103818111156103925761039261295e56fea264697066735822122023d476b4865f864378233084d8c7119de19b206976e8d565a1d8fcfdb1e28f9564736f6c63430008180033a2646970667358221220e190201c40a11cb9c9b5b21c26840d2a6bc8269034295d5c1ecef7a4b3fcda0864736f6c63430008180033","linkReferences":{}},"methodIdentifiers":{"register(address,bytes14)":"472466c2"},"id":64}