{"abi":[{"type":"function","name":"COMMISSION_RATE","inputs":[],"outputs":[{"name":"","type":"uint256","internalType":"uint256"}],"stateMutability":"view"},{"type":"function","name":"_msgSender","inputs":[],"outputs":[{"name":"sender","type":"address","internalType":"address"}],"stateMutability":"view"},{"type":"function","name":"_msgValue","inputs":[],"outputs":[{"name":"value","type":"uint256","internalType":"uint256"}],"stateMutability":"pure"},{"type":"function","name":"_world","inputs":[],"outputs":[{"name":"","type":"address","internalType":"address"}],"stateMutability":"view"},{"type":"function","name":"createRound","inputs":[{"name":"_betPeriod","type":"uint256","internalType":"uint256"},{"name":"_playerAddresses","type":"address[]","internalType":"address[]"},{"name":"_names","type":"string[]","internalType":"string[]"},{"name":"_teamIds","type":"uint8[]","internalType":"uint8[]"},{"name":"_title","type":"string","internalType":"string"}],"outputs":[],"stateMutability":"nonpayable"},{"type":"function","name":"resolution","inputs":[{"name":"_roundId","type":"bytes32","internalType":"bytes32"},{"name":"matchEntity","type":"bytes32","internalType":"bytes32"}],"outputs":[],"stateMutability":"nonpayable"},{"type":"function","name":"supportsInterface","inputs":[{"name":"interfaceId","type":"bytes4","internalType":"bytes4"}],"outputs":[{"name":"","type":"bool","internalType":"bool"}],"stateMutability":"pure"},{"type":"event","name":"Store_SetRecord","inputs":[{"name":"tableId","type":"bytes32","indexed":true,"internalType":"ResourceId"},{"name":"keyTuple","type":"bytes32[]","indexed":false,"internalType":"bytes32[]"},{"name":"staticData","type":"bytes","indexed":false,"internalType":"bytes"},{"name":"encodedLengths","type":"bytes32","indexed":false,"internalType":"EncodedLengths"},{"name":"dynamicData","type":"bytes","indexed":false,"internalType":"bytes"}],"anonymous":false},{"type":"event","name":"Store_SpliceStaticData","inputs":[{"name":"tableId","type":"bytes32","indexed":true,"internalType":"ResourceId"},{"name":"keyTuple","type":"bytes32[]","indexed":false,"internalType":"bytes32[]"},{"name":"start","type":"uint48","indexed":false,"internalType":"uint48"},{"name":"data","type":"bytes","indexed":false,"internalType":"bytes"}],"anonymous":false},{"type":"error","name":"Slice_OutOfBounds","inputs":[{"name":"data","type":"bytes","internalType":"bytes"},{"name":"start","type":"uint256","internalType":"uint256"},{"name":"end","type":"uint256","internalType":"uint256"}]}],"bytecode":{"object":"0x608060405234801561001057600080fd5b50613968806100206000396000f3fe608060405234801561001057600080fd5b506004361061007d5760003560e01c806329931ff61161005b57806329931ff6146100e057806345ec9354146100f557806394fee5dc14610100578063e1af802c1461011357600080fd5b806301ffc9a714610082578063119df25f146100aa5780631a454ea6146100ca575b600080fd5b61009561009036600461307a565b61011b565b60405190151581526020015b60405180910390f35b6100b26101b4565b6040516001600160a01b0390911681526020016100a1565b6100d2600581565b6040519081526020016100a1565b6100f36100ee36600461329f565b6101c3565b005b36601f1901356100d2565b6100f361010e3660046133c3565b6106b5565b6100b261095c565b60007fffffffff0000000000000000000000000000000000000000000000000000000082167fb5dee1270000000000000000000000000000000000000000000000000000000014806101ae57507fffffffff0000000000000000000000000000000000000000000000000000000082167f01ffc9a700000000000000000000000000000000000000000000000000000000145b92915050565b60006101be610966565b905090565b428510156102185760405162461bcd60e51b815260206004820152601860248201527f5468652062657474696e672064756520697320706173742e000000000000000060448201526064015b60405180910390fd5b82518451146102695760405162461bcd60e51b815260206004820152601d60248201527f496e636f7272656374207265676973746572656420706c61796572732e000000604482015260640161020f565b81518351146102e05760405162461bcd60e51b815260206004820152603460248201527f4e616d657320616e64205465616d2049447320617272617973206d757374206860448201527f617665207468652073616d65206c656e6774682e000000000000000000000000606482015260840161020f565b60006102ea610998565b90506000806000855167ffffffffffffffff81111561030b5761030b6130bc565b604051908082528060200260200182016040528015610334578160200160208202803683370190505b5090506000875167ffffffffffffffff811115610353576103536130bc565b60405190808252806020026020018201604052801561038657816020015b60608152602001906001900390816103715790505b5090506000805b89518110156104d9578881815181106103a8576103a86133e5565b602002602001015160ff166001036103bf57600195505b8881815181106103d1576103d16133e5565b602002602001015160ff166002036103e857600194505b6000805b83811015610444578a8381518110610406576104066133e5565b602002602001015160ff16868281518110610423576104236133e5565b602002602001015160ff160361043c5760019150610444565b6001016103ec565b50806104d05789828151811061045c5761045c6133e5565b6020026020010151858481518110610476576104766133e5565b602002602001019060ff16908160ff16815250508a828151811061049c5761049c6133e5565b60200260200101518484815181106104b6576104b66133e5565b602002602001018190525082806104cc90613411565b9350505b5060010161038d565b508461054d5760405162461bcd60e51b815260206004820152602760248201527f5465616d2049442031206973206d697373696e6720696e205f7465616d49647360448201527f2061727261792e00000000000000000000000000000000000000000000000000606482015260840161020f565b836105c05760405162461bcd60e51b815260206004820152602760248201527f5465616d2049442032206973206d697373696e6720696e205f7465616d49647360448201527f2061727261792e00000000000000000000000000000000000000000000000000606482015260840161020f565b610610866040518060e001604052806105d76101b4565b6001600160a01b031681526020018e8152602001600015158152602001600081526020018d81526020018b81526020018a8152506109b8565b60005b818110156106a75761069f87858381518110610631576106316133e5565b6020026020010151600080600067ffffffffffffffff811115610656576106566130bc565b60405190808252806020026020018201604052801561067f578160200160208202803683370190505b50888781518110610692576106926133e5565b6020026020010151610a86565b600101610613565b505050505050505050505050565b60006106c083610b52565b90508060400151156107145760405162461bcd60e51b815260206004820152601e60248201527f546865206d617463682068617320616c72656164792066696e69736865640000604482015260640161020f565b60808101516020820151600061072861095c565b7f629a4c26e296b22a8e0856e9f6ecb2d1008d7e00081111962cd175fa7488e17580547fffffffffffffffffffffffff000000000000000000000000000000000000000016739d05cc196c87104a7196fcca41280729b505dbbf1790559050610792858484610c47565b600061079e8685610d81565b90506001600160a01b0381166107f65760405162461bcd60e51b815260206004820152601660248201527f496e76616c69642077696e6e6572206164647265737300000000000000000000604482015260640161020f565b7f629a4c26e296b22a8e0856e9f6ecb2d1008d7e00081111962cd175fa7488e17580547fffffffffffffffffffffffff0000000000000000000000000000000000000000166001600160a01b03841617905560006108548883610f2e565b90508060ff166000036108a95760405162461bcd60e51b815260206004820152600e60248201527f496e76616c6964207465616d4964000000000000000000000000000000000000604482015260640161020f565b6108b588826001610fbf565b60006108c189836110a3565b905060006108d7886060015183600001516111a0565b90506108e98a848385604001516111c0565b60006103e860058a606001516108ff919061342b565b6109099190613458565b89516040519192506001600160a01b03169082156108fc029083906000818181858888f19350505050158015610943573d6000803e3d6000fd5b5061094f8b600161124d565b5050505050505050505050565b60006101be61130b565b7fffffffffffffffffffffffffffffffffffffffffffffffffffffffffffffffcc36013560601c806109955750335b90565b60006109a2611315565b6109ad90600161347a565b905061099581611372565b60006109d682600001518360200151846040015185606001516113ed565b905060006109f183608001518460a001518560c00151611453565b90506000610a0c84608001518560a001518660c00151611482565b60408051600180825281830190925291925060009190602080830190803683370190505090508581600081518110610a4657610a466133e5565b6020908102919091010152610a7e7f74620000000000000000000000000000526f756e647300000000000000000000828686866114c1565b505050505050565b6000610a92858561156a565b90506000610aa084846115a4565b90506000610aae85856115c4565b60408051600280825260608201835292935060009290916020830190803683370190505090508981600081518110610ae857610ae86133e5565b6020026020010181815250508860ff1660001b81600181518110610b0e57610b0e6133e5565b6020908102919091010152610b467f746200000000000000000000000000005465616d730000000000000000000000828686866114c1565b50505050505050505050565b610b9d6040518060e0016040528060006001600160a01b0316815260200160008152602001600015158152602001600081526020016060815260200160608152602001606081525090565b604080516001808252818301909252600091602080830190803683370190505090508281600081518110610bd357610bd36133e5565b602090810291909101015260008080610c2c7f74620000000000000000000000000000526f756e647300000000000000000000857e550403142001200000000000000000000000000000000000000000000000006115e1565b925092509250610c3d8383836116b1565b9695505050505050565b6000610c5284611741565b905081811015610ca45760405162461bcd60e51b815260206004820152601260248201527f496e76616c6964206d617463682074696d650000000000000000000000000000604482015260640161020f565b6000610caf856117d3565b905080610cfe5760405162461bcd60e51b815260206004820152601e60248201527f546865206d6174636820686173206e6f742066696e6973686564207965740000604482015260640161020f565b6000610d0986611870565b90508451815114610a7e5760405162461bcd60e51b8152602060048201526024808201527f496e636f7272656374206e756d626572206f6620706c617965727320696e206d60448201527f6174636800000000000000000000000000000000000000000000000000000000606482015260840161020f565b600080610d8d84611870565b90506000815167ffffffffffffffff811115610dab57610dab6130bc565b604051908082528060200260200182016040528015610dd4578160200160208202803683370190505b50905060005b8251811015610e3b57610e0961099587858481518110610dfc57610dfc6133e5565b60200260200101516118f9565b828281518110610e1b57610e1b6133e5565b6001600160a01b0390921660209283029190910190910152600101610dda565b5060005b8451811015610f08576000805b8351811015610eb157838181518110610e6757610e676133e5565b60200260200101516001600160a01b0316878481518110610e8a57610e8a6133e5565b60200260200101516001600160a01b031603610ea95760019150610eb1565b600101610e4c565b5080610eff5760405162461bcd60e51b815260206004820152601860248201527f506c617965722061646472657373206e6f7420666f756e640000000000000000604482015260640161020f565b50600101610e3f565b5080600081518110610f1c57610f1c6133e5565b60200260200101519250505092915050565b600080610f3a846119b3565b90506000610f4785611a3c565b905060005b8251811015610fb357846001600160a01b0316838281518110610f7157610f716133e5565b60200260200101516001600160a01b031603610fab57818181518110610f9957610f996133e5565b602002602001015193505050506101ae565b600101610f4c565b50600095945050505050565b6040805160028082526060820183526000926020830190803683370190505090508381600081518110610ff457610ff46133e5565b6020026020010181815250508260ff1660001b8160018151811061101a5761101a6133e5565b60200260200101818152505061109d7f746200000000000000000000000000005465616d73000000000000000000000060001b8260018560405160200161106891151560f81b815260010190565b60408051601f198184030181529190527e21020220010000000000000000000000000000000000000000000000000000611ac6565b50505050565b6110d060405180608001604052806000815260200160001515815260200160608152602001606081525090565b6040805160028082526060820183526000926020830190803683370190505090508381600081518110611105576111056133e5565b6020026020010181815250508260ff1660001b8160018151811061112b5761112b6133e5565b6020908102919091010152600080806111847f746200000000000000000000000000005465616d730000000000000000000000857e210202200100000000000000000000000000000000000000000000000000006115e1565b925092509250611195838383611b3c565b979650505050505050565b6000816111af846103e861342b565b6111b99190613458565b9392505050565b60005b81518110156112465760008282815181106111e0576111e06133e5565b6020026020010151905060006111f7878784611b96565b90506000620f424061120c60056103e861348d565b835161121990899061342b565b611223919061342b565b61122d9190613458565b905061123b88888584611cc0565b5050506001016111c3565b5050505050565b604080516001808252818301909252600091602080830190803683370190505090508281600081518110611283576112836133e5565b6020026020010181815250506113067f74620000000000000000000000000000526f756e64730000000000000000000060001b826002856040516020016112d191151560f81b815260010190565b60408051601f198184030181529190527e55040314200120000000000000000000000000000000000000000000000000611ac6565b505050565b60006101be611dc7565b6040805160008082526020820190925260006111b97f74620000000000000000000000000000436f6e6669670000000000000000000083837e20010020000000000000000000000000000000000000000000000000000000611e06565b604080516000808252602082018352918101839052906113e9907f74620000000000000000000000000000436f6e666967000000000000000000009083906060820160408051601f198184030181529190527e20010020000000000000000000000000000000000000000000000000000000611ac6565b5050565b604051606085811b7fffffffffffffffffffffffffffffffffffffffff0000000000000000000000001660208301526034820185905283151560f81b6054830152605582018390529060750160405160208183030381529060405290505b949350505050565b600061144b845160140284516001028451608881901b606083901b603885901b85850184011717179392505050565b606061148d84611ec3565b61149684611ed2565b836040516020016114a9939291906134c4565b60405160208183030381529060405290509392505050565b60006114cb611dc7565b9050306001600160a01b038216036114ef576114ea8686868686611ee2565b610a7e565b6040517f298314fb0000000000000000000000000000000000000000000000000000000081526001600160a01b0382169063298314fb9061153c908990899089908990899060040161356f565b600060405180830381600087803b15801561155657600080fd5b505af1158015610b46573d6000803e3d6000fd5b6060828260405160200161158d929190918252151560f81b602082015260210190565b604051602081830303815290604052905092915050565b8151815160009160140281810160389190911b1760609190911b176111b9565b60606115cf83611ec3565b8260405160200161158d9291906135b4565b60606000606060006115f1611dc7565b9050306001600160a01b0382160361161a5761160e878787611ef8565b935093509350506116a8565b6040517f419b58fd0000000000000000000000000000000000000000000000000000000081526001600160a01b0382169063419b58fd90611663908a908a908a906004016135e3565b600060405180830381865afa158015611680573d6000803e3d6000fd5b505050506040513d6000823e601f3d908101601f1916820160405261160e9190810190613651565b93509350939050565b6116fc6040518060e0016040528060006001600160a01b0316815260200160008152602001600015158152602001600081526020016060815260200160608152602001606081525090565b61170584612000565b60608501521515604084015260208301526001600160a01b0316815261172b838361204c565b60c084015260a083015260808201529392505050565b60408051600180825281830190925260009182919060208083019080368337019050509050828160008151811061177a5761177a6133e5565b6020908102919091010152600061144b7f746200000000000000000000000000004d61746368436f6e66696700000000008360017eb4060020202020201400000000000000000000000000000000000000000000611e06565b60408051600180825281830190925260009182919060208083019080368337019050509050828160008151811061180c5761180c6133e5565b602090810291909101015260006118647f746200000000000000000000000000004d6174636846696e697368656400000083837e01010001000000000000000000000000000000000000000000000000000000611e06565b905061144b8160f81c90565b604080516001808252818301909252606091600091906020808301908036833701905050905082816000815181106118aa576118aa6133e5565b602090810291909101015260006118e27f746200000000000000000000000000004d6174636852616e6b696e670000000083836120bc565b905061144b6118f48260008451612183565b612211565b604080516002808252606082018352600092839291906020830190803683370190505090508381600081518110611932576119326133e5565b6020026020010181815250508281600181518110611952576119526133e5565b602090810291909101015260006119aa7f746200000000000000000000000000004372656174656442794164647265737383837e20010020000000000000000000000000000000000000000000000000000000611e06565b95945050505050565b604080516001808252818301909252606091600091906020808301908036833701905050905082816000815181106119ed576119ed6133e5565b60209081029190910101526000611a257f74620000000000000000000000000000526f756e64730000000000000000000083836120bc565b905061144b611a378260008451612183565b612222565b60408051600180825281830190925260609160009190602080830190803683370190505090508281600081518110611a7657611a766133e5565b60209081029190910101526000611aaf7f74620000000000000000000000000000526f756e6473000000000000000000008360016120bc565b905061144b611ac18260008451612183565b612233565b6000611ad0611dc7565b9050306001600160a01b03821603611aef576114ea8686868686612244565b6040517f390baae00000000000000000000000000000000000000000000000000000000081526001600160a01b0382169063390baae09061153c90899089908990899089906004016136be565b611b6960405180608001604052806000815260200160001515815260200160608152602001606081525090565b611b7284612259565b151560208301528152611b858383612276565b606083015260408201529392505050565b611bc16040518060800160405280600081526020016000815260200160608152602001606081525090565b60408051600380825260808201909252600091602082016060803683370190505090508481600081518110611bf857611bf86133e5565b6020026020010181815250508360ff1660001b81600181518110611c1e57611c1e6133e5565b602002602001018181525050826001600160a01b031660001b81600281518110611c4a57611c4a6133e5565b602090810291909101015260008080611ca37f7462000000000000000000000000000042657473000000000000000000000000857e400202202000000000000000000000000000000000000000000000000000006115e1565b925092509250611cb48383836122c0565b98975050505050505050565b60408051600380825260808201909252600091602082016060803683370190505090508481600081518110611cf757611cf76133e5565b6020026020010181815250508360ff1660001b81600181518110611d1d57611d1d6133e5565b602002602001018181525050826001600160a01b031660001b81600281518110611d4957611d496133e5565b6020026020010181815250506112467f746200000000000000000000000000004265747300000000000000000000000060001b82600185604051602001611d9291815260200190565b60408051601f198184030181529190527e40020220200000000000000000000000000000000000000000000000000000611ac6565b7f629a4c26e296b22a8e0856e9f6ecb2d1008d7e00081111962cd175fa7488e175546000906001600160a01b031680611e01573391505090565b919050565b600080611e11611dc7565b9050306001600160a01b03821603611e3757611e2f86868686612306565b91505061144b565b6040517f8c364d590000000000000000000000000000000000000000000000000000000081526001600160a01b03821690638c364d5990611e82908990899089908990600401613705565b602060405180830381865afa158015611e9f573d6000803e3d6000fd5b505050506040513d601f19601f82011682018060405250810190611e2f9190613734565b6060816111b981601484612333565b6060816111b981600160f8612333565b6112468585858585611ef38b612393565b612418565b6060600060606000611f0985612751565b9050611f16878783612774565b93506000611f23866127ad565b90508015611ff557611f3588886127ea565b935066ffffffffffffff841667ffffffffffffffff811115611f5957611f596130bc565b6040519080825280601f01601f191660200182016040528015611f83576020820181803683370190505b5092506020830160005b828160ff161015611ff2576000611fa58b8b846127fd565b90506000611fc2888460ff166028026038011c64ffffffffff1690565b9050611fd1826000838761287d565b611fdb818561347a565b935050508080611fea9061374d565b915050611f8d565b50505b505093509350939050565b600080600080612014856000016020015190565b60601c9350612027856014016020015190565b605486015190935061203a905b60f81c90565b60559590950151939592949392915050565b606080806000603886901c64ffffffffff1661206c611a37878484612183565b945090508064ffffffffff606088901c160161208c611ac1878484612183565b935090508064ffffffffff608888901c16016120b16120ac878484612183565b612949565b925050509250925092565b606060006120c8611dc7565b9050306001600160a01b038216036120ed576120e58585856129c9565b9150506111b9565b6040517f1e7889770000000000000000000000000000000000000000000000000000000081526001600160a01b03821690631e788977906121369088908890889060040161376c565b600060405180830381865afa158015612153573d6000803e3d6000fd5b505050506040513d6000823e601f3d908101601f191682016040526120e59190810190613798565b509392505050565b6000818311806121935750835182115b156121d0578383836040517f23230fa300000000000000000000000000000000000000000000000000000000815260040161020f939291906137cd565b602084016121de848261347a565b905060006121ec858561348d565b6fffffffffffffffffffffffffffffffff1660809290921b9190911795945050505050565b606060006111b98360206000612a03565b606060006111b98360146060612a03565b606060006111b983600160f8612a03565b61124685856122538487612a72565b85612aa3565b6020810151604082015160009061226f90612034565b9050915091565b6060806000603885901c64ffffffffff16612295611a37868484612183565b935090508064ffffffffff606087901c16016122b56120ac868484612183565b925050509250929050565b6122eb6040518060800160405280600081526020016000815260200160608152602001606081525090565b6020840151604085015160208301528152611b858383612d47565b60006119aa6123158686612d66565b60ff858116601b0360080285901c1661232e8587612a72565b612dbc565b82516060906000612344858361342b565b9050604051925060208301601f19603f83860101166040528184526000602088015b84821015612387578051871b83529187019160019190910190602001612366565b50505050509392505050565b60007f8b9d8c8b908d9affffffffffffffffffab9e9d939a8d0000000000000000000082016123e257507e60030220202000000000000000000000000000000000000000000000000000919050565b6101ae61240f7f746273746f72650000000000000000005461626c65730000000000000000000084612e0d565b60206000612dbc565b7f6f74000000000000000000000000000000000000000000000000000000000000867fffff00000000000000000000000000000000000000000000000000000000000016036124a457857f8dbb3a9672eebfd3773e72dd9c102393436816d832c7ba9e1e1ac8fcadcac7a98686868660405161249794939291906137f2565b60405180910390a2610a7e565b60006124af87612e29565b905060005b81518110156125885760008282815181106124d1576124d16133e5565b602002602001015190506124fd6001826affffffffffffffffffffff1916612eb290919063ffffffff16565b1561257f576040517f57066c9c000000000000000000000000000000000000000000000000000000008152606082901c906357066c9c9061254c908c908c908c908c908c908c90600401613831565b600060405180830381600087803b15801561256657600080fd5b505af115801561257a573d6000803e3d6000fd5b505050505b506001016124b4565b50867f8dbb3a9672eebfd3773e72dd9c102393436816d832c7ba9e1e1ac8fcadcac7a9878787876040516125bf94939291906137f2565b60405180910390a260006125d38888612d66565b905060006020870190506125eb826000895184612ed0565b60006125f6856127ad565b111561267a5760006126088a8a612f8f565b878155905060208601915060008060005b612622886127ad565b8160ff161015612675576126378d8d836127fd565b92506126528a8260ff166028026038011c64ffffffffff1690565b91506126618360008488612ed0565b61266b828661347a565b9450600101612619565b505050505b60005b8351811015610b4657600084828151811061269a5761269a6133e5565b602002602001015190506126c66002826affffffffffffffffffffff1916612eb290919063ffffffff16565b15612748576040517f5b28cdaf000000000000000000000000000000000000000000000000000000008152606082901c90635b28cdaf90612715908e908e908e908e908e908e90600401613831565b600060405180830381600087803b15801561272f57600080fd5b505af1158015612743573d6000803e3d6000fd5b505050505b5060010161267d565b600060086127616002602061348d565b61276b919061342b565b9190911c919050565b60608160000361279357506040805160208101909152600081526111b9565b600061279f8585612d66565b90506119aa81600085612fe5565b600060086001806127c06002602061348d565b6127ca919061348d565b6127d4919061348d565b6127de919061342b565b8260ff911c1692915050565b60006111b96127f98484612f8f565b5490565b6000838360405160200161281292919061388a565b604051602081830303815290604052805190602001208260f81b7effffffffffffffffffffffffffffffffffffffffffffffffffffffffffffff19167f3b4102da22e32d82fc925482184f16c09fd4281692720b87d124aef6da48a0f1181860001c90509392505050565b821561290457602083106128a7576020830484019350602083816128a3576128a3613442565b0692505b82156129045760208390036000818410156128ca5750600019600884021c6128d4565b50600019600882021c5b8554600886021b8184511682198216178452508184116128f557505061109d565b50600194909401939182900391015b5b602082106129265783548152600190930192601f1990910190602001612905565b811561109d576000600019600884021c8251865482191691161782525050505050565b606060006129578360801c90565b90506fffffffffffffffffffffffffffffffff83168067ffffffffffffffff811115612985576129856130bc565b6040519080825280601f01601f1916602001820160405280156129af576020820181803683370190505b509250602083016129c1838284613008565b505050919050565b606061144b6129d98585856127fd565b60006129fe856129e989896127ea565b9060ff166028026038011c64ffffffffff1690565b612fe5565b60606000612a118560801c90565b90506fffffffffffffffffffffffffffffffff85166000858281612a3757612a37613442565b04905060405193506020840160208202810160405281855260005b82811015612387578451871c825293870193602090910190600101612a52565b600080805b8360ff1681101561217b57612a9960ff601b83900360080287901c168361347a565b9150600101612a77565b7f6f74000000000000000000000000000000000000000000000000000000000000847fffff0000000000000000000000000000000000000000000000000000000000001603612b2d57837f8c0b5119d4cec7b284c6b1b39252a03d1e2f2d7451a5895562524c113bb952be848484604051612b20939291906138c6565b60405180910390a261109d565b6000612b398585612d66565b90506000612b4686612e29565b905060005b8151811015612c1b576000828281518110612b6857612b686133e5565b60200260200101519050612b946004826affffffffffffffffffffff1916612eb290919063ffffffff16565b15612c12576040517f964f667d000000000000000000000000000000000000000000000000000000008152606082901c9063964f667d90612bdf908b908b908b908b906004016138f9565b600060405180830381600087803b158015612bf957600080fd5b505af1158015612c0d573d6000803e3d6000fd5b505050505b50600101612b4b565b50857f8c0b5119d4cec7b284c6b1b39252a03d1e2f2d7451a5895562524c113bb952be868686604051612c50939291906138c6565b60405180910390a2612c6b828565ffffffffffff1685613053565b60005b8151811015612d3e576000828281518110612c8b57612c8b6133e5565b60200260200101519050612cb76008826affffffffffffffffffffff1916612eb290919063ffffffff16565b15612d35576040517fa8ba8721000000000000000000000000000000000000000000000000000000008152606082901c9063a8ba872190612d02908b908b908b908b906004016138f9565b600060405180830381600087803b158015612d1c57600080fd5b505af1158015612d30573d6000803e3d6000fd5b505050505b50600101612c6e565b50505050505050565b6060806000603885901c64ffffffffff166122956120ac868484612183565b60008282604051602001612d7b92919061388a565b60408051601f1981840301815291905280516020909101207f86425bff6b57326c7859e89024fe4f238ca327a1ae4a230180dd2f0e88aaa7d9189392505050565b600060208210612de257602082048401935060208281612dde57612dde613442565b0691505b508254600882021b60208290038084111561217b576001850154600882021c82179150509392505050565b6040805160208101849052908101829052600090606001612d7b565b60408051600180825281830190925260609160009190602080830190803683370190505090508281600081518110612e6357612e636133e5565b60209081029190910101526000612e9b7f746273746f726500000000000000000053746f7265486f6f6b7300000000000083836129c9565b905061144b612ead8260008451612183565b613069565b60008160ff1682612ec38560581c90565b1660ff1614905092915050565b8215612f4a5760208310612efa57602083048401935060208381612ef657612ef6613442565b0692505b8215612f4a5760208390036000600019600885021c1990506008850281811c91508351811c9050811987541682821617875550818411612f3b57505061109d565b50600194909401939182900391015b5b60208210612f6c5780518455600190930192601f1990910190602001612f4b565b811561109d576000600019600884021c8554835182191691161785555050505050565b60008282604051602001612fa492919061388a565b60408051601f1981840301815291905280516020909101207f14e2fcc58e58e68ec7edc30c8d50dccc3ce2714a623ec81f46b6a63922d76569189392505050565b60405160208101601f19603f848401011660405282825261217b8585858461287d565b5b60208110613028578251825260209283019290910190601f1901613009565b8060000361303557505050565b6000600019600883021c905080835116811985511617835250505050565b611306838383516130648560200190565b612ed0565b606060006111b98360156000612a03565b60006020828403121561308c57600080fd5b81357fffffffff00000000000000000000000000000000000000000000000000000000811681146111b957600080fd5b634e487b7160e01b600052604160045260246000fd5b604051601f8201601f1916810167ffffffffffffffff811182821017156130fb576130fb6130bc565b604052919050565b600067ffffffffffffffff82111561311d5761311d6130bc565b5060051b60200190565b600067ffffffffffffffff821115613141576131416130bc565b50601f01601f191660200190565b600082601f83011261316057600080fd5b813561317361316e82613127565b6130d2565b81815284602083860101111561318857600080fd5b816020850160208301376000918101602001919091529392505050565b600082601f8301126131b657600080fd5b813560206131c661316e83613103565b82815260059290921b840181019181810190868411156131e557600080fd5b8286015b8481101561322557803567ffffffffffffffff8111156132095760008081fd5b6132178986838b010161314f565b8452509183019183016131e9565b509695505050505050565b600082601f83011261324157600080fd5b8135602061325161316e83613103565b8083825260208201915060208460051b87010193508684111561327357600080fd5b602086015b8481101561322557803560ff811681146132925760008081fd5b8352918301918301613278565b600080600080600060a086880312156132b757600080fd5b8535945060208087013567ffffffffffffffff808211156132d757600080fd5b818901915089601f8301126132eb57600080fd5b81356132f961316e82613103565b81815260059190911b8301840190848101908c83111561331857600080fd5b938501935b8285101561334c5784356001600160a01b038116811461333d5760008081fd5b8252938501939085019061331d565b98505050604089013592508083111561336457600080fd5b6133708a848b016131a5565b9550606089013592508083111561338657600080fd5b6133928a848b01613230565b945060808901359250808311156133a857600080fd5b50506133b68882890161314f565b9150509295509295909350565b600080604083850312156133d657600080fd5b50508035926020909101359150565b634e487b7160e01b600052603260045260246000fd5b634e487b7160e01b600052601160045260246000fd5b60006000198203613424576134246133fb565b5060010190565b80820281158282048414176101ae576101ae6133fb565b634e487b7160e01b600052601260045260246000fd5b60008261347557634e487b7160e01b600052601260045260246000fd5b500490565b808201808211156101ae576101ae6133fb565b818103818111156101ae576101ae6133fb565b60005b838110156134bb5781810151838201526020016134a3565b50506000910152565b600084516134d68184602089016134a0565b8451908301906134ea8183602089016134a0565b84519101906134fd8183602088016134a0565b0195945050505050565b60008151808452602080850194506020840160005b838110156135385781518752958201959082019060010161351c565b509495945050505050565b6000815180845261355b8160208601602086016134a0565b601f01601f19169290920160200192915050565b85815260a06020820152600061358860a0830187613507565b828103604084015261359a8187613543565b90508460608401528281036080840152611cb48185613543565b600083516135c68184602088016134a0565b8351908301906135da8183602088016134a0565b01949350505050565b8381526060602082015260006135fc6060830185613507565b9050826040830152949350505050565b600082601f83011261361d57600080fd5b815161362b61316e82613127565b81815284602083860101111561364057600080fd5b61144b8260208301602087016134a0565b60008060006060848603121561366657600080fd5b835167ffffffffffffffff8082111561367e57600080fd5b61368a8783880161360c565b94506020860151935060408601519150808211156136a757600080fd5b506136b48682870161360c565b9150509250925092565b85815260a0602082015260006136d760a0830187613507565b60ff8616604084015282810360608401526136f28186613543565b9150508260808301529695505050505050565b84815260806020820152600061371e6080830186613507565b60ff949094166040830152506060015292915050565b60006020828403121561374657600080fd5b5051919050565b600060ff821660ff8103613763576137636133fb565b60010192915050565b8381526060602082015260006137856060830185613507565b905060ff83166040830152949350505050565b6000602082840312156137aa57600080fd5b815167ffffffffffffffff8111156137c157600080fd5b61144b8482850161360c565b6060815260006137e06060830186613543565b60208301949094525060400152919050565b6080815260006138056080830187613507565b82810360208401526138178187613543565b905084604084015282810360608401526111958185613543565b86815260c06020820152600061384a60c0830188613507565b828103604084015261385c8188613543565b905085606084015282810360808401526138768186613543565b9150508260a0830152979650505050505050565b8281526000602080830184516020860160005b828110156138b95781518452928401929084019060010161389d565b5091979650505050505050565b6060815260006138d96060830186613507565b65ffffffffffff851660208401528281036040840152610c3d8185613543565b8481526080602082015260006139126080830186613507565b65ffffffffffff851660408401528281036060840152611195818561354356fea2646970667358221220412e968912a0a766867c601d5989420094e4a3b1d06c9ce930ee9f4b9c025c0b64736f6c63430008180033","linkReferences":{}},"methodIdentifiers":{"COMMISSION_RATE()":"1a454ea6","_msgSender()":"119df25f","_msgValue()":"45ec9354","_world()":"e1af802c","createRound(uint256,address[],string[],uint8[],string)":"29931ff6","resolution(bytes32,bytes32)":"94fee5dc","supportsInterface(bytes4)":"01ffc9a7"},"id":268}