{"abi":[{"type":"function","name":"_msgSender","inputs":[],"outputs":[{"name":"sender","type":"address","internalType":"address"}],"stateMutability":"view"},{"type":"function","name":"_msgValue","inputs":[],"outputs":[{"name":"value","type":"uint256","internalType":"uint256"}],"stateMutability":"pure"},{"type":"function","name":"_world","inputs":[],"outputs":[{"name":"","type":"address","internalType":"address"}],"stateMutability":"view"},{"type":"function","name":"spawnTemplate","inputs":[{"name":"matchEntity","type":"bytes32","internalType":"bytes32"},{"name":"prototypeId","type":"bytes32","internalType":"bytes32"},{"name":"ownerId","type":"bytes32","internalType":"bytes32"},{"name":"position","type":"tuple","internalType":"struct PositionData","components":[{"name":"x","type":"int32","internalType":"int32"},{"name":"y","type":"int32","internalType":"int32"}]}],"outputs":[],"stateMutability":"nonpayable"},{"type":"function","name":"supportsInterface","inputs":[{"name":"interfaceId","type":"bytes4","internalType":"bytes4"}],"outputs":[{"name":"","type":"bool","internalType":"bool"}],"stateMutability":"pure"},{"type":"event","name":"Store_DeleteRecord","inputs":[{"name":"tableId","type":"bytes32","indexed":true,"internalType":"ResourceId"},{"name":"keyTuple","type":"bytes32[]","indexed":false,"internalType":"bytes32[]"}],"anonymous":false},{"type":"event","name":"Store_SetRecord","inputs":[{"name":"tableId","type":"bytes32","indexed":true,"internalType":"ResourceId"},{"name":"keyTuple","type":"bytes32[]","indexed":false,"internalType":"bytes32[]"},{"name":"staticData","type":"bytes","indexed":false,"internalType":"bytes"},{"name":"encodedLengths","type":"bytes32","indexed":false,"internalType":"EncodedLengths"},{"name":"dynamicData","type":"bytes","indexed":false,"internalType":"bytes"}],"anonymous":false},{"type":"event","name":"Store_SpliceDynamicData","inputs":[{"name":"tableId","type":"bytes32","indexed":true,"internalType":"ResourceId"},{"name":"keyTuple","type":"bytes32[]","indexed":false,"internalType":"bytes32[]"},{"name":"dynamicFieldIndex","type":"uint8","indexed":false,"internalType":"uint8"},{"name":"start","type":"uint48","indexed":false,"internalType":"uint48"},{"name":"deleteCount","type":"uint40","indexed":false,"internalType":"uint40"},{"name":"encodedLengths","type":"bytes32","indexed":false,"internalType":"EncodedLengths"},{"name":"data","type":"bytes","indexed":false,"internalType":"bytes"}],"anonymous":false},{"type":"event","name":"Store_SpliceStaticData","inputs":[{"name":"tableId","type":"bytes32","indexed":true,"internalType":"ResourceId"},{"name":"keyTuple","type":"bytes32[]","indexed":false,"internalType":"bytes32[]"},{"name":"start","type":"uint48","indexed":false,"internalType":"uint48"},{"name":"data","type":"bytes","indexed":false,"internalType":"bytes"}],"anonymous":false},{"type":"error","name":"EncodedLengths_InvalidLength","inputs":[{"name":"length","type":"uint256","internalType":"uint256"}]},{"type":"error","name":"Slice_OutOfBounds","inputs":[{"name":"data","type":"bytes","internalType":"bytes"},{"name":"start","type":"uint256","internalType":"uint256"},{"name":"end","type":"uint256","internalType":"uint256"}]},{"type":"error","name":"Store_IndexOutOfBounds","inputs":[{"name":"length","type":"uint256","internalType":"uint256"},{"name":"accessedIndex","type":"uint256","internalType":"uint256"}]},{"type":"error","name":"Store_InvalidResourceType","inputs":[{"name":"expected","type":"bytes2","internalType":"bytes2"},{"name":"resourceId","type":"bytes32","internalType":"ResourceId"},{"name":"resourceIdString","type":"string","internalType":"string"}]},{"type":"error","name":"Store_InvalidSplice","inputs":[{"name":"startWithinField","type":"uint40","internalType":"uint40"},{"name":"deleteCount","type":"uint40","internalType":"uint40"},{"name":"fieldLength","type":"uint40","internalType":"uint40"}]}],"bytecode":{"object":"0x608060405234801561001057600080fd5b50613632806100206000396000f3fe608060405234801561001057600080fd5b50600436106100675760003560e01c806345ec93541161005057806345ec9354146100b4578063e1af802c146100c7578063f2b01880146100cf57600080fd5b806301ffc9a71461006c578063119df25f14610094575b600080fd5b61007f61007a366004612e2b565b6100e4565b60405190151581526020015b60405180910390f35b61009c61017d565b6040516001600160a01b03909116815260200161008b565b604051601f19360135815260200161008b565b61009c61018c565b6100e26100dd366004612e95565b610196565b005b60007fffffffff0000000000000000000000000000000000000000000000000000000082167fb5dee12700000000000000000000000000000000000000000000000000000000148061017757507fffffffff0000000000000000000000000000000000000000000000000000000082167f01ffc9a700000000000000000000000000000000000000000000000000000000145b92915050565b6000610187610233565b905090565b6000610187610265565b6101b56101b06101a461017d565b6001600160a01b031690565b61026f565b610220576040517f08c379a000000000000000000000000000000000000000000000000000000000815260206004820152601160248201527f61646d696e206f6e6c792073797374656d00000000000000000000000000000060448201526064015b60405180910390fd5b61022c8484848461027a565b5050505050565b7fffffffffffffffffffffffffffffffffffffffffffffffffffffffffffffffcc36013560601c806102625750335b90565b60006101876102c3565b600061017782610302565b60006102858561039f565b905061029a8461029587846103dc565b610442565b6102a58582846104b0565b6102b08582426104de565b6102bb8582856105b1565b949350505050565b7f629a4c26e296b22a8e0856e9f6ecb2d1008d7e00081111962cd175fa7488e175546000906001600160a01b0316806102fd573391505090565b919050565b60408051600180825281830190925260009182919060208083019080368337019050509050828160008151811061033b5761033b612f3f565b602090810291909101015260006103937f7462000000000000000000000000000041646d696e000000000000000000000083837e0101000100000000000000000000000000000000000000000000000000000061064f565b90506102bb8160f81c90565b6000806103ab8361070c565b6103b6906001612f6b565b90506103c283826107a8565b63ffffffff811691506103d6838381610885565b50919050565b6040805160028082526060808301845292602083019080368337019050509050828160008151811061041057610410612f3f565b602002602001018181525050818160018151811061043057610430612f3f565b60200260200101818152505092915050565b600061044d8361092f565b905060005b81518110156104aa57600082828151811061046f5761046f612f3f565b60200260200101519050600061048586836109b8565b90506104a08286836020015184600001518560400151610aa0565b5050600101610452565b50505050565b6104ba8383610b56565b6104c5838383610bb9565b6104d9838260000151836020015185610c8a565b505050565b604080516002808252606082018352600092602083019080368337019050509050838160008151811061051357610513612f3f565b602002602001018181525050828160018151811061053357610533612f3f565b6020026020010181815250506104aa7f746200000000000000000000000000004c617374416374696f6e00000000000060001b8260008560405160200161057c91815260200190565b60408051601f198184030181529190527e20010020000000000000000000000000000000000000000000000000000000610d6a565b60408051600280825260608201835260009260208301908036833701905050905083816000815181106105e6576105e6612f3f565b602002602001018181525050828160018151811061060657610606612f3f565b6020026020010181815250506104aa7f746200000000000000000000000000004f776e6564427900000000000000000060001b8260008560405160200161057c91815260200190565b60008061065a6102c3565b9050306001600160a01b038216036106805761067886868686610de0565b9150506102bb565b6040517f8c364d590000000000000000000000000000000000000000000000000000000081526001600160a01b03821690638c364d59906106cb908990899089908990600401612fcb565b602060405180830381865afa1580156106e8573d6000803e3d6000fd5b505050506040513d601f19601f820116820180604052508101906106789190612ffa565b60408051600180825281830190925260009182919060208083019080368337019050509050828160008151811061074557610745612f3f565b6020908102919091010152600061079d7f746200000000000000000000000000004d61746368456e74697479436f756e7483837e0401000400000000000000000000000000000000000000000000000000000061064f565b60e01c949350505050565b6040805160018082528183019092526000916020808301908036833701905050905082816000815181106107de576107de612f3f565b6020026020010181815250506104d97f746200000000000000000000000000004d61746368456e74697479436f756e7460001b82600085604051602001610850919060e09190911b7fffffffff0000000000000000000000000000000000000000000000000000000016815260040190565b60408051601f198184030181529190527e04010004000000000000000000000000000000000000000000000000000000610d6a565b600061089082610e16565b60408051600280825260608083018452939450600093928492919060208301908036833701905050905086816000815181106108ce576108ce612f3f565b60200260200101818152505085816001815181106108ee576108ee612f3f565b60209081029190910101526109267f6f7400000000000000000000000000004d61746368000000000000000000000082868686610aa0565b50505050505050565b6040805160018082528183019092526060916000919060208083019080368337019050509050828160008151811061096957610969612f3f565b602090810291909101015260006109a17f7462000000000000000000000000000054656d706c6174655461626c657300008383610e41565b90506102bb6109b38260008451610f09565b610f97565b6040805160608082018352600080835260208301829052828401829052835160028082529281019094529192908160200160208202803683370190505090508381600081518110610a0b57610a0b612f3f565b6020026020010181815250508281600181518110610a2b57610a2b612f3f565b602090810291909101015260008080610a847f7462000000000000000000000000000054656d706c617465436f6e74656e7400857e20010220000000000000000000000000000000000000000000000000000000610fa8565b925092509250610a95838383611078565b979650505050505050565b6000610aaa6102c3565b9050306001600160a01b03821603610ace57610ac986868686866110bb565b610b4e565b6040517f298314fb0000000000000000000000000000000000000000000000000000000081526001600160a01b0382169063298314fb90610b1b9089908990899089908990600401613063565b600060405180830381600087803b158015610b3557600080fd5b505af1158015610b49573d6000803e3d6000fd5b505050505b505050505050565b6000610b6283836110d1565b90506000610b8383610b7d86856000015186602001516111d0565b906112aa565b805190915015610ba657610ba1848360000151846020015184611378565b6104aa565b6104aa848360000151846020015161143b565b6000610bf4826000015183602001516040805160e093841b60208201529190921b602482015281516008818303018152602890910190915290565b6040805160028082526060808301845293945060009392849291906020830190803683370190505090508681600081518110610c3257610c32612f3f565b6020026020010181815250508581600181518110610c5257610c52612f3f565b60209081029190910101526109267f74620000000000000000000000000000506f736974696f6e000000000000000082868686610aa0565b60408051600380825260808201909252600091602082016060803683370190505090508481600081518110610cc157610cc1612f3f565b6020026020010181815250508360030b60001b81600181518110610ce757610ce7612f3f565b6020026020010181815250508260030b60001b81600281518110610d0d57610d0d612f3f565b60200260200101818152505061022c7f74620000000000000000000000000000456e7469746965734174506f7369746960001b82600085604051602001610d5691815260200190565b6040516020818303038152906040526114f3565b6000610d746102c3565b9050306001600160a01b03821603610d9357610ac986868686866115a4565b6040517f390baae00000000000000000000000000000000000000000000000000000000081526001600160a01b0382169063390baae090610b1b90899089908990899089906004016130b4565b6000610e0d610def86866115b9565b60ff858116601b0360080285901c16610e08858761160f565b611640565b95945050505050565b606081604051602001610e2b91815260200190565b6040516020818303038152906040529050919050565b60606000610e4d6102c3565b9050306001600160a01b03821603610e7257610e6a858585611691565b915050610f02565b6040517f1e7889770000000000000000000000000000000000000000000000000000000081526001600160a01b03821690631e78897790610ebb908890889088906004016130fb565b600060405180830381865afa158015610ed8573d6000803e3d6000fd5b505050506040513d6000823e601f3d908101601f19168201604052610e6a91908101906131a5565b505b9392505050565b600081831180610f195750835182115b15610f56578383836040517f23230fa3000000000000000000000000000000000000000000000000000000008152600401610217939291906131da565b60208401610f6484826131ff565b90506000610f728585613212565b6fffffffffffffffffffffffffffffffff1660809290921b9190911795945050505050565b60606000610f0283602060006116cb565b6060600060606000610fb86102c3565b9050306001600160a01b03821603610fe157610fd5878787611746565b9350935093505061106f565b6040517f419b58fd0000000000000000000000000000000000000000000000000000000081526001600160a01b0382169063419b58fd9061102a908a908a908a90600401613225565b600060405180830381865afa158015611047573d6000803e3d6000fd5b505050506040513d6000823e601f3d908101601f19168201604052610fd5919081019061324e565b93509350939050565b604080516060808201835260008252602082018190529181019190915261109e8461184e565b81526110aa838361185b565b604083015260208201529392505050565b61022c85858585856110cc8b6118aa565b61192f565b60408051808201825260008082526020820181905282516002808252606082019094529192909190816020016020820280368337019050509050838160008151811061111f5761111f612f3f565b602002602001018181525050828160018151811061113f5761113f612f3f565b6020908102919091010152600080806111987f74620000000000000000000000000000506f736974696f6e0000000000000000857e08020004040000000000000000000000000000000000000000000000000000610fa8565b6040805180820190915260008082526020808301918252850151602486015160e090811d909252901d81529295509093509150610a95565b6040805160038082526080820190925260609160009190602082018480368337019050509050848160008151811061120a5761120a612f3f565b6020026020010181815250508360030b60001b8160018151811061123057611230612f3f565b6020026020010181815250508260030b60001b8160028151811061125657611256612f3f565b6020908102919091010152600061128e7f74620000000000000000000000000000456e7469746965734174506f736974698383610e41565b90506112a06109b38260008451610f09565b9695505050505050565b60606000835167ffffffffffffffff8111156112c8576112c8612e6d565b6040519080825280602002602001820160405280156112f1578160200160208202803683370190505b5090506000805b855181101561136e578486828151811061131457611314612f3f565b6020026020010151146113665785818151811061133357611333612f3f565b602002602001015183838151811061134d5761134d612f3f565b602090810291909101015281611362816132bb565b9250505b6001016112f8565b5081529392505050565b604080516003808252608082019092526000916020820160608036833701905050905084816000815181106113af576113af612f3f565b6020026020010181815250508360030b60001b816001815181106113d5576113d5612f3f565b6020026020010181815250508260030b60001b816002815181106113fb576113fb612f3f565b602090810291909101015261022c7f74620000000000000000000000000000456e7469746965734174506f7369746982600061143686611c68565b611c78565b6040805160038082526080820190925260009160208201606080368337019050509050838160008151811061147257611472612f3f565b6020026020010181815250508260030b60001b8160018151811061149857611498612f3f565b6020026020010181815250508160030b60001b816002815181106114be576114be612f3f565b60209081029190910101526104aa7f74620000000000000000000000000000456e7469746965734174506f7369746982611ceb565b60006114fd6102c3565b9050306001600160a01b038216036115205761151b85858585611d86565b61022c565b6040517f150f32620000000000000000000000000000000000000000000000000000000081526001600160a01b0382169063150f32629061156b9088908890889088906004016132d5565b600060405180830381600087803b15801561158557600080fd5b505af1158015611599573d6000803e3d6000fd5b505050505050505050565b61022c85856115b3848761160f565b85611dc1565b600082826040516020016115ce929190613309565b60408051601f1981840301815291905280516020909101207f86425bff6b57326c7859e89024fe4f238ca327a1ae4a230180dd2f0e88aaa7d9189392505050565b600080805b8360ff16811015610f005761163660ff601b83900360080287901c16836131ff565b9150600101611614565b6000602082106116665760208204840193506020828161166257611662613345565b0691505b508254600882021b602082900380841115610f00576001850154600882021c82179150509392505050565b60606102bb6116a185858561205c565b60006116c6856116b189896120dc565b9060ff166028026038011c64ffffffffff1690565b6120ef565b606060006116d98560801c90565b90506fffffffffffffffffffffffffffffffff851660008582816116ff576116ff613345565b04905060405193506020840160208202810160405281855260005b8281101561173a578451871c82529387019360209091019060010161171a565b50505050509392505050565b606060006060600061175785612112565b9050611764878783612135565b935060006117718661216e565b905080156118435761178388886120dc565b935066ffffffffffffff841667ffffffffffffffff8111156117a7576117a7612e6d565b6040519080825280601f01601f1916602001820160405280156117d1576020820181803683370190505b5092506020830160005b828160ff1610156118405760006117f38b8b8461205c565b90506000611810888460ff166028026038011c64ffffffffff1690565b905061181f82600083876121ab565b61182981856131ff565b9350505080806118389061335b565b9150506117db565b50505b505093509350939050565b6020810151600090610177565b6060806000603885901c64ffffffffff1661187f61187a868484610f09565b612277565b935090508064ffffffffff606087901c160161189f61187a868484610f09565b925050509250929050565b60007f8b9d8c8b908d9affffffffffffffffffab9e9d939a8d0000000000000000000082016118f957507e60030220202000000000000000000000000000000000000000000000000000919050565b6101776119267f746273746f72650000000000000000005461626c657300000000000000000000846122f7565b60206000611640565b7f6f74000000000000000000000000000000000000000000000000000000000000867fffff00000000000000000000000000000000000000000000000000000000000016036119bb57857f8dbb3a9672eebfd3773e72dd9c102393436816d832c7ba9e1e1ac8fcadcac7a9868686866040516119ae949392919061337a565b60405180910390a2610b4e565b60006119c687612313565b905060005b8151811015611a9f5760008282815181106119e8576119e8612f3f565b60200260200101519050611a146001826affffffffffffffffffffff191661239c90919063ffffffff16565b15611a96576040517f57066c9c000000000000000000000000000000000000000000000000000000008152606082901c906357066c9c90611a63908c908c908c908c908c908c906004016133b9565b600060405180830381600087803b158015611a7d57600080fd5b505af1158015611a91573d6000803e3d6000fd5b505050505b506001016119cb565b50867f8dbb3a9672eebfd3773e72dd9c102393436816d832c7ba9e1e1ac8fcadcac7a987878787604051611ad6949392919061337a565b60405180910390a26000611aea88886115b9565b90506000602087019050611b028260008951846123ba565b6000611b0d8561216e565b1115611b91576000611b1f8a8a612479565b878155905060208601915060008060005b611b398861216e565b8160ff161015611b8c57611b4e8d8d8361205c565b9250611b698a8260ff166028026038011c64ffffffffff1690565b9150611b7883600084886123ba565b611b8282866131ff565b9450600101611b30565b505050505b60005b8351811015610b49576000848281518110611bb157611bb1612f3f565b60200260200101519050611bdd6002826affffffffffffffffffffff191661239c90919063ffffffff16565b15611c5f576040517f5b28cdaf000000000000000000000000000000000000000000000000000000008152606082901c90635b28cdaf90611c2c908e908e908e908e908e908e906004016133b9565b600060405180830381600087803b158015611c4657600080fd5b505af1158015611c5a573d6000803e3d6000fd5b505050505b50600101611b94565b606081610f0281602060006124cf565b6000611c826102c3565b9050306001600160a01b03821603611ca05761151b85858585612523565b6040517fef6ea8620000000000000000000000000000000000000000000000000000000081526001600160a01b0382169063ef6ea8629061156b9088908890889088906004016132d5565b6000611cf56102c3565b9050306001600160a01b03821603611d11576104d9838361255e565b6040517f505a181d0000000000000000000000000000000000000000000000000000000081526001600160a01b0382169063505a181d90611d589086908690600401613412565b600060405180830381600087803b158015611d7257600080fd5b505af1158015610926573d6000803e3d6000fd5b6000611d9285856120dc565b90506000611daf828560ff166028026038011c64ffffffffff1690565b9050610b4e8686868460008888612575565b7f6f74000000000000000000000000000000000000000000000000000000000000847fffff0000000000000000000000000000000000000000000000000000000000001603611e4b57837f8c0b5119d4cec7b284c6b1b39252a03d1e2f2d7451a5895562524c113bb952be848484604051611e3e9392919061342b565b60405180910390a26104aa565b6000611e5785856115b9565b90506000611e6486612313565b905060005b8151811015611f39576000828281518110611e8657611e86612f3f565b60200260200101519050611eb26004826affffffffffffffffffffff191661239c90919063ffffffff16565b15611f30576040517f964f667d000000000000000000000000000000000000000000000000000000008152606082901c9063964f667d90611efd908b908b908b908b9060040161345e565b600060405180830381600087803b158015611f1757600080fd5b505af1158015611f2b573d6000803e3d6000fd5b505050505b50600101611e69565b50857f8c0b5119d4cec7b284c6b1b39252a03d1e2f2d7451a5895562524c113bb952be868686604051611f6e9392919061342b565b60405180910390a2611f89828565ffffffffffff16856129af565b60005b8151811015610926576000828281518110611fa957611fa9612f3f565b60200260200101519050611fd56008826affffffffffffffffffffff191661239c90919063ffffffff16565b15612053576040517fa8ba8721000000000000000000000000000000000000000000000000000000008152606082901c9063a8ba872190612020908b908b908b908b9060040161345e565b600060405180830381600087803b15801561203a57600080fd5b505af115801561204e573d6000803e3d6000fd5b505050505b50600101611f8c565b60008383604051602001612071929190613309565b604051602081830303815290604052805190602001208260f81b7effffffffffffffffffffffffffffffffffffffffffffffffffffffffffffff19167f3b4102da22e32d82fc925482184f16c09fd4281692720b87d124aef6da48a0f1181860001c90509392505050565b6000610f026120eb8484612479565b5490565b60405160208101601f19603f8484010116604052828252610f00858585846121ab565b6000600861212260026020613212565b61212c9190613497565b9190911c919050565b6060816000036121545750604080516020810190915260008152610f02565b600061216085856115b9565b9050610e0d816000856120ef565b6000600860018061218160026020613212565b61218b9190613212565b6121959190613212565b61219f9190613497565b8260ff911c1692915050565b821561223257602083106121d5576020830484019350602083816121d1576121d1613345565b0692505b82156122325760208390036000818410156121f85750600019600884021c612202565b50600019600882021c5b8554600886021b8184511682198216178452508184116122235750506104aa565b50600194909401939182900391015b5b602082106122545783548152600190930192601f1990910190602001612233565b81156104aa576000600019600884021c8251865482191691161782525050505050565b606060006122858360801c90565b90506fffffffffffffffffffffffffffffffff83168067ffffffffffffffff8111156122b3576122b3612e6d565b6040519080825280601f01601f1916602001820160405280156122dd576020820181803683370190505b509250602083016122ef8382846129c5565b505050919050565b60408051602081018490529081018290526000906060016115ce565b6040805160018082528183019092526060916000919060208083019080368337019050509050828160008151811061234d5761234d612f3f565b602090810291909101015260006123857f746273746f726500000000000000000053746f7265486f6f6b730000000000008383611691565b90506102bb6123978260008451610f09565b612a10565b60008160ff16826123ad8560581c90565b1660ff1614905092915050565b821561243457602083106123e4576020830484019350602083816123e0576123e0613345565b0692505b82156124345760208390036000600019600885021c1990506008850281811c91508351811c90508119875416828216178755508184116124255750506104aa565b50600194909401939182900391015b5b602082106124565780518455600190930192601f1990910190602001612435565b81156104aa576000600019600884021c8554835182191691161785555050505050565b6000828260405160200161248e929190613309565b60408051601f1981840301815291905280516020909101207f14e2fcc58e58e68ec7edc30c8d50dccc3ce2714a623ec81f46b6a63922d76569189392505050565b825160609060006124e08583613497565b9050604051925060208301601f19603f83860101166040528184526000602088015b8482101561173a578051871b83529187019160019190910190602001612502565b600061252f85856120dc565b9050600061254c828560ff166028026038011c64ffffffffff1690565b9050610b4e8686866000858888612575565b612571828261256c856118aa565b612a21565b5050565b7f7462000000000000000000000000000000000000000000000000000000000000877fffff0000000000000000000000000000000000000000000000000000000000001614612635577f746200000000000000000000000000000000000000000000000000000000000087886040516020016125f391815260200190565b60408051601f19818403018152908290527f31b466830000000000000000000000000000000000000000000000000000000082526102179392916004016134ae565b6000612650828760ff166028026038011c64ffffffffff1690565b9050600083518564ffffffffff16836126699190613212565b61267391906131ff565b905080821415801561269557508161268b86886134ef565b64ffffffffff1614155b156126e5576040517fa65010b400000000000000000000000000000000000000000000000000000000815264ffffffffff8088166004830152808716602483015283166044820152606401610217565b818664ffffffffff161115612736576040517f7e8578d30000000000000000000000000000000000000000000000000000000081526004810183905264ffffffffff87166024820152604401610217565b6000612743848984612d20565b905060006127508b612313565b905060005b815181101561281b57600082828151811061277257612772612f3f565b6020026020010151905061279e6010826affffffffffffffffffffff191661239c90919063ffffffff16565b1561281257606081901c6001600160a01b03166355eb5a288e8e8e8e8e8d8f6040518863ffffffff1660e01b81526004016127df979695949392919061350d565b600060405180830381600087803b1580156127f957600080fd5b505af115801561280d573d6000803e3d6000fd5b505050505b50600101612755565b5064ffffffffff881660005b8a60ff168160ff16101561285a5761284e878260ff166028026038011c64ffffffffff1690565b90910190600101612827565b508b7ffe158a7adba34e256807c8a149028d3162918713c3838afc643ce9f96716ebfd8c8c848c888d6040516128959695949392919061356b565b60405180910390a2508284146128b65760006128b18c8c612479565b839055505b60006128c38c8c8c61205c565b90506128d7818a64ffffffffff16896129af565b5060005b81518110156129a15760008282815181106128f8576128f8612f3f565b602002602001015190506129246020826affffffffffffffffffffff191661239c90919063ffffffff16565b1561299857606081901c6001600160a01b031663635845338e8e8e8e8e8a8f6040518863ffffffff1660e01b8152600401612965979695949392919061350d565b600060405180830381600087803b15801561297f57600080fd5b505af1158015612993573d6000803e3d6000fd5b505050505b506001016128db565b505050505050505050505050565b6104d9838383516129c08560200190565b6123ba565b5b602081106129e5578251825260209283019290910190601f19016129c6565b806000036129f257505050565b6000600019600883021c905080835116811985511617835250505050565b60606000610f0283601560006116cb565b7f6f74000000000000000000000000000000000000000000000000000000000000837fffff0000000000000000000000000000000000000000000000000000000000001603612aa757827f0e1f72f429eb97e64878619984a91e687ae91610348b9ff4216782cc96e49d0783604051612a9a91906135c7565b60405180910390a2505050565b6000612ab284612313565b905060005b8151811015612b85576000828281518110612ad457612ad4612f3f565b60200260200101519050612b006040826affffffffffffffffffffff191661239c90919063ffffffff16565b15612b7c576040517f9faeaf45000000000000000000000000000000000000000000000000000000008152606082901c90639faeaf4590612b4990899089908990600401613225565b600060405180830381600087803b158015612b6357600080fd5b505af1158015612b77573d6000803e3d6000fd5b505050505b50600101612ab7565b50837f0e1f72f429eb97e64878619984a91e687ae91610348b9ff4216782cc96e49d0784604051612bb691906135c7565b60405180910390a26000612bca85856115b9565b9050612c23816000612bdb86612112565b67ffffffffffffffff811115612bf357612bf3612e6d565b6040519080825280601f01601f191660200182016040528015612c1d576020820181803683370190505b506129af565b6000612c2e8461216e565b1115612c4f576000612c408686612479565b9050612c4d816020612dee565b505b60005b8251811015610b4e576000838281518110612c6f57612c6f612f3f565b60200260200101519050612c9b6080826affffffffffffffffffffff191661239c90919063ffffffff16565b15612d17576040517f83b5c95b000000000000000000000000000000000000000000000000000000008152606082901c906383b5c95b90612ce4908a908a908a90600401613225565b600060405180830381600087803b158015612cfe57600080fd5b505af1158015612d12573d6000803e3d6000fd5b505050505b50600101612c52565b600064ffffffffff821115612d64576040517f7149a3c100000000000000000000000000000000000000000000000000000000815260048101839052602401610217565b8366ffffffffffffff811660ff851660280260380182901c64ffffffffff16808510612d965780850382019150612d9e565b848103820391505b5064ffffffffff6038602860ff8816020181811b197fffffffffffffffffffffffffffffffffffffffffffffffffff000000000000009490941690921792909216918416901b1790509392505050565b60006020612dfd83601f6131ff565b612e0791906135da565b612e1190846131ff565b90505b808310156104d95760008355600183019250612e14565b600060208284031215612e3d57600080fd5b81357fffffffff0000000000000000000000000000000000000000000000000000000081168114610f0257600080fd5b634e487b7160e01b600052604160045260246000fd5b8035600381900b81146102fd57600080fd5b60008060008084860360a0811215612eac57600080fd5b85359450602086013593506040860135925060407fffffffffffffffffffffffffffffffffffffffffffffffffffffffffffffffa082011215612eee57600080fd5b506040516040810181811067ffffffffffffffff82111715612f1257612f12612e6d565b604052612f2160608701612e83565b8152612f2f60808701612e83565b6020820152939692955090935050565b634e487b7160e01b600052603260045260246000fd5b634e487b7160e01b600052601160045260246000fd5b63ffffffff818116838216019080821115612f8857612f88612f55565b5092915050565b60008151808452602080850194506020840160005b83811015612fc057815187529582019590820190600101612fa4565b509495945050505050565b848152608060208201526000612fe46080830186612f8f565b60ff949094166040830152506060015292915050565b60006020828403121561300c57600080fd5b5051919050565b60005b8381101561302e578181015183820152602001613016565b50506000910152565b6000815180845261304f816020860160208601613013565b601f01601f19169290920160200192915050565b85815260a06020820152600061307c60a0830187612f8f565b828103604084015261308e8187613037565b905084606084015282810360808401526130a88185613037565b98975050505050505050565b85815260a0602082015260006130cd60a0830187612f8f565b60ff8616604084015282810360608401526130e88186613037565b9150508260808301529695505050505050565b8381526060602082015260006131146060830185612f8f565b905060ff83166040830152949350505050565b600082601f83011261313857600080fd5b815167ffffffffffffffff8082111561315357613153612e6d565b604051601f8301601f19908116603f0116810190828211818310171561317b5761317b612e6d565b8160405283815286602085880101111561319457600080fd5b6112a0846020830160208901613013565b6000602082840312156131b757600080fd5b815167ffffffffffffffff8111156131ce57600080fd5b6102bb84828501613127565b6060815260006131ed6060830186613037565b60208301949094525060400152919050565b8082018082111561017757610177612f55565b8181038181111561017757610177612f55565b83815260606020820152600061323e6060830185612f8f565b9050826040830152949350505050565b60008060006060848603121561326357600080fd5b835167ffffffffffffffff8082111561327b57600080fd5b61328787838801613127565b94506020860151935060408601519150808211156132a457600080fd5b506132b186828701613127565b9150509250925092565b600060001982036132ce576132ce612f55565b5060010190565b8481526080602082015260006132ee6080830186612f8f565b60ff851660408401528281036060840152610a958185613037565b8281526000602080830184516020860160005b828110156133385781518452928401929084019060010161331c565b5091979650505050505050565b634e487b7160e01b600052601260045260246000fd5b600060ff821660ff810361337157613371612f55565b60010192915050565b60808152600061338d6080830187612f8f565b828103602084015261339f8187613037565b90508460408401528281036060840152610a958185613037565b86815260c0602082015260006133d260c0830188612f8f565b82810360408401526133e48188613037565b905085606084015282810360808401526133fe8186613037565b9150508260a0830152979650505050505050565b8281526040602082015260006102bb6040830184612f8f565b60608152600061343e6060830186612f8f565b65ffffffffffff8516602084015282810360408401526112a08185613037565b8481526080602082015260006134776080830186612f8f565b65ffffffffffff851660408401528281036060840152610a958185613037565b808202811582820484141761017757610177612f55565b7fffff00000000000000000000000000000000000000000000000000000000000084168152826020820152606060408201526000610e0d6060830184613037565b64ffffffffff818116838216019080821115612f8857612f88612f55565b87815260e06020820152600061352660e0830189612f8f565b60ff8816604084015264ffffffffff87811660608501528616608084015260a0830185905282810360c084015261355d8185613037565b9a9950505050505050505050565b60c08152600061357e60c0830189612f8f565b60ff8816602084015265ffffffffffff8716604084015264ffffffffff8616606084015284608084015282810360a08401526135ba8185613037565b9998505050505050505050565b602081526000610f026020830184612f8f565b6000826135f757634e487b7160e01b600052601260045260246000fd5b50049056fea264697066735822122015b46b0356199b798c32eef2ad88b42f36285ab6a66913a2c275b8cf760693e664736f6c63430008180033","linkReferences":{}},"methodIdentifiers":{"_msgSender()":"119df25f","_msgValue()":"45ec9354","_world()":"e1af802c","spawnTemplate(bytes32,bytes32,bytes32,(int32,int32))":"f2b01880","supportsInterface(bytes4)":"01ffc9a7"},"id":326}